75600000         235812309000160                    04609000000000793400SALUTE ATIVIDADES DE INTERMEDISICOOB                                  21609202014490500005808500000                                                                     
75600011T01  043 2035812309000160          460900000804609000000000793400SALUTE ATIVIDADES DE INTERMEDI                                                                                000000001609202000000000                                 
7560001300001T 0204609000000000793400001122898001014     117000000000000010102020000000000006500756046090ANDERSON FERREIRA POLEIS 091000077317483249ANDERSON FERREIRA POLEIS                000000000000000000000000000000000A4                 
7560001300002U 020000000000000000000000000000000000000000000000000000000000000000000000000000000000000000000000000000000000000000000000001609202000000000    00000000000000000000000                              75600000000000000000000       
7560001300003T 0204609000000000793400001122899701014     153000000000000010112020000000000006500756046090ANDERSON FERREIRA POLEIS 091000077317483249ANDERSON FERREIRA POLEIS                000000000000000000000000000000000A4                 
7560001300004U 020000000000000000000000000000000000000000000000000000000000000000000000000000000000000000000000000000000000000000000000001609202000000000    00000000000000000000000                              75600000000000000000000       
7560001300005T 0204609000000000793400001122900001014     173000000000000010122020000000000006500756046090ANDERSON FERREIRA POLEIS 091000077317483249ANDERSON FERREIRA POLEIS                000000000000000000000000000000000A4                 
7560001300006U 020000000000000000000000000000000000000000000000000000000000000000000000000000000000000000000000000000000000000000000000001609202000000000    00000000000000000000000                              75600000000000000000000       
7560001300007T 0204609000000000793400001122901801014     111100000000000010012021000000000006500756046090ANDERSON FERREIRA POLEIS 091000077317483249ANDERSON FERREIRA POLEIS                000000000000000000000000000000000A4                 
7560001300008U 020000000000000000000000000000000000000000000000000000000000000000000000000000000000000000000000000000000000000000000000001609202000000000    00000000000000000000000                              75600000000000000000000       
7560001300009T 0204609000000000793400001122902501014     115900000000000010022021000000000006500756046090ANDERSON FERREIRA POLEIS 091000077317483249ANDERSON FERREIRA POLEIS                000000000000000000000000000000000A4                 
7560001300010U 020000000000000000000000000000000000000000000000000000000000000000000000000000000000000000000000000000000000000000000000001609202000000000    00000000000000000000000                              75600000000000000000000       
7560001300011T 0204609000000000793400001122903201014     117700000000000010032021000000000006500756046090ANDERSON FERREIRA POLEIS 091000077317483249ANDERSON FERREIRA POLEIS                000000000000000000000000000000000A4                 
7560001300012U 020000000000000000000000000000000000000000000000000000000000000000000000000000000000000000000000000000000000000000000000001609202000000000    00000000000000000000000                              75600000000000000000000       
7560001300013T 0204609000000000793400001122904001014     121900000000000010042021000000000006500756046090ANDERSON FERREIRA POLEIS 091000077317483249ANDERSON FERREIRA POLEIS                000000000000000000000000000000000A4                 
7560001300014U 020000000000000000000000000000000000000000000000000000000000000000000000000000000000000000000000000000000000000000000000001609202000000000    00000000000000000000000                              75600000000000000000000       
7560001300015T 0204609000000000793400001122905701014     125300000000000010052021000000000006500756046090ANDERSON FERREIRA POLEIS 091000077317483249ANDERSON FERREIRA POLEIS                000000000000000000000000000000000A4                 
7560001300016U 020000000000000000000000000000000000000000000000000000000000000000000000000000000000000000000000000000000000000000000000001609202000000000    00000000000000000000000                              75600000000000000000000       
7560001300017T 0204609000000000793400001122906401014     128500000000000010062021000000000006500756046090ANDERSON FERREIRA POLEIS 091000077317483249ANDERSON FERREIRA POLEIS                000000000000000000000000000000000A4                 
7560001300018U 020000000000000000000000000000000000000000000000000000000000000000000000000000000000000000000000000000000000000000000000001609202000000000    00000000000000000000000                              75600000000000000000000       
7560001300019T 0204609000000000793400001122907101014     131700000000000010072021000000000006500756046090ANDERSON FERREIRA POLEIS 091000077317483249ANDERSON FERREIRA POLEIS                000000000000000000000000000000000A4                 
7560001300020U 020000000000000000000000000000000000000000000000000000000000000000000000000000000000000000000000000000000000000000000000001609202000000000    00000000000000000000000                              75600000000000000000000       
7560001300021T 0204609000000000793400001122908901014     133900000000000010082021000000000006500756046090ANDERSON FERREIRA POLEIS 091000077317483249ANDERSON FERREIRA POLEIS                000000000000000000000000000000000A4                 
7560001300022U 020000000000000000000000000000000000000000000000000000000000000000000000000000000000000000000000000000000000000000000000001609202000000000    00000000000000000000000                              75600000000000000000000       
7560001300023T 0204609000000000793400001122909601014     136700000000000010092021000000000006500756046090ANDERSON FERREIRA POLEIS 091000077317483249ANDERSON FERREIRA POLEIS                000000000000000000000000000000000A4                 
7560001300024U 020000000000000000000000000000000000000000000000000000000000000000000000000000000000000000000000000000000000000000000000001609202000000000    00000000000000000000000                              75600000000000000000000       
7560001300025T 0204609000000000793400001122911101014     130000000000000005102020000000000006500756046090FRANCILENE TINOCO DA SILV091000058061266253FRANCILENE TINOCO DA SILVA SIMOES       000000000000000000000000000000000A4                 
7560001300026U 020000000000000000000000000000000000000000000000000000000000000000000000000000000000000000000000000000000000000000000000001609202000000000    00000000000000000000000                              75600000000000000000000       
7560001300027T 0204609000000000793400001122912901014     133000000000000005112020000000000006500756046090FRANCILENE TINOCO DA SILV091000058061266253FRANCILENE TINOCO DA SILVA SIMOES       000000000000000000000000000000000A4                 
7560001300028U 020000000000000000000000000000000000000000000000000000000000000000000000000000000000000000000000000000000000000000000000001609202000000000    00000000000000000000000                              75600000000000000000000       
7560001300029T 0204609000000000793400001122913601014     167000000000000005122020000000000006500756046090FRANCILENE TINOCO DA SILV091000058061266253FRANCILENE TINOCO DA SILVA SIMOES       000000000000000000000000000000000A4                 
7560001300030U 020000000000000000000000000000000000000000000000000000000000000000000000000000000000000000000000000000000000000000000000001609202000000000    00000000000000000000000                              75600000000000000000000       
7560001300031T 0204609000000000793400001122914301014     110100000000000005012021000000000006500756046090FRANCILENE TINOCO DA SILV091000058061266253FRANCILENE TINOCO DA SILVA SIMOES       000000000000000000000000000000000A4                 
7560001300032U 020000000000000000000000000000000000000000000000000000000000000000000000000000000000000000000000000000000000000000000000001609202000000000    00000000000000000000000                              75600000000000000000000       
7560001300033T 0204609000000000793400001122915001014     113500000000000005022021000000000006500756046090FRANCILENE TINOCO DA SILV091000058061266253FRANCILENE TINOCO DA SILVA SIMOES       000000000000000000000000000000000A4                 
7560001300034U 020000000000000000000000000000000000000000000000000000000000000000000000000000000000000000000000000000000000000000000000001609202000000000    00000000000000000000000                              75600000000000000000000       
7560001300035T 0204609000000000793400001122916801014     116500000000000005032021000000000006500756046090FRANCILENE TINOCO DA SILV091000058061266253FRANCILENE TINOCO DA SILVA SIMOES       000000000000000000000000000000000A4                 
7560001300036U 020000000000000000000000000000000000000000000000000000000000000000000000000000000000000000000000000000000000000000000000001609202000000000    00000000000000000000000                              75600000000000000000000       
7560001300037T 0204609000000000793400001122917501014     119700000000000005042021000000000006500756046090FRANCILENE TINOCO DA SILV091000058061266253FRANCILENE TINOCO DA SILVA SIMOES       000000000000000000000000000000000A4                 
7560001300038U 020000000000000000000000000000000000000000000000000000000000000000000000000000000000000000000000000000000000000000000000001609202000000000    00000000000000000000000                              75600000000000000000000       
7560001300039T 0204609000000000793400001122918201014     122500000000000005052021000000000006500756046090FRANCILENE TINOCO DA SILV091000058061266253FRANCILENE TINOCO DA SILVA SIMOES       000000000000000000000000000000000A4                 
7560001300040U 020000000000000000000000000000000000000000000000000000000000000000000000000000000000000000000000000000000000000000000000001609202000000000    00000000000000000000000                              75600000000000000000000       
7560001300041T 0204609000000000793400001122919001014     126100000000000005062021000000000006500756046090FRANCILENE TINOCO DA SILV091000058061266253FRANCILENE TINOCO DA SILVA SIMOES       000000000000000000000000000000000A4                 
7560001300042U 020000000000000000000000000000000000000000000000000000000000000000000000000000000000000000000000000000000000000000000000001609202000000000    00000000000000000000000                              75600000000000000000000       
7560001300043T 0204609000000000793400001122920801014     129300000000000005072021000000000006500756046090FRANCILENE TINOCO DA SILV091000058061266253FRANCILENE TINOCO DA SILVA SIMOES       000000000000000000000000000000000A4                 
7560001300044U 020000000000000000000000000000000000000000000000000000000000000000000000000000000000000000000000000000000000000000000000001609202000000000    00000000000000000000000                              75600000000000000000000       
7560001300045T 0204609000000000793400001122921501014     132100000000000005082021000000000006500756046090FRANCILENE TINOCO DA SILV091000058061266253FRANCILENE TINOCO DA SILVA SIMOES       000000000000000000000000000000000A4                 
7560001300046U 020000000000000000000000000000000000000000000000000000000000000000000000000000000000000000000000000000000000000000000000001609202000000000    00000000000000000000000                              75600000000000000000000       
7560001300047T 0204609000000000793400001122922201014     135500000000000005092021000000000006500756046090FRANCILENE TINOCO DA SILV091000058061266253FRANCILENE TINOCO DA SILVA SIMOES       000000000000000000000000000000000A4                 
7560001300048U 020000000000000000000000000000000000000000000000000000000000000000000000000000000000000000000000000000000000000000000000001609202000000000    00000000000000000000000                              75600000000000000000000       
7560001300049T 0204609000000000793400001122924701014     113000000000000010102020000000000006500756046090SAMUEL MONTEIRO DA SILVA 091000043300898234SAMUEL MONTEIRO DA SILVA                000000000000000000000000000000000A4                 
7560001300050U 020000000000000000000000000000000000000000000000000000000000000000000000000000000000000000000000000000000000000000000000001609202000000000    00000000000000000000000                              75600000000000000000000       
7560001300051T 0204609000000000793400001122925401014     157000000000000010112020000000000006500756046090SAMUEL MONTEIRO DA SILVA 091000043300898234SAMUEL MONTEIRO DA SILVA                000000000000000000000000000000000A4                 
7560001300052U 020000000000000000000000000000000000000000000000000000000000000000000000000000000000000000000000000000000000000000000000001609202000000000    00000000000000000000000                              75600000000000000000000       
7560001300053T 0204609000000000793400001122926101014     193000000000000010122020000000000006500756046090SAMUEL MONTEIRO DA SILVA 091000043300898234SAMUEL MONTEIRO DA SILVA                000000000000000000000000000000000A4                 
7560001300054U 020000000000000000000000000000000000000000000000000000000000000000000000000000000000000000000000000000000000000000000000001609202000000000    00000000000000000000000                              75600000000000000000000       
7560001300055T 0204609000000000793400001122927901014     110900000000000010012021000000000006500756046090SAMUEL MONTEIRO DA SILVA 091000043300898234SAMUEL MONTEIRO DA SILVA                000000000000000000000000000000000A4                 
7560001300056U 020000000000000000000000000000000000000000000000000000000000000000000000000000000000000000000000000000000000000000000000001609202000000000    00000000000000000000000                              75600000000000000000000       
7560001300057T 0204609000000000793400001122928601014     115100000000000010022021000000000006500756046090SAMUEL MONTEIRO DA SILVA 091000043300898234SAMUEL MONTEIRO DA SILVA                000000000000000000000000000000000A4                 
7560001300058U 020000000000000000000000000000000000000000000000000000000000000000000000000000000000000000000000000000000000000000000000001609202000000000    00000000000000000000000                              75600000000000000000000       
7560001300059T 0204609000000000793400001122929301014     117100000000000010032021000000000006500756046090SAMUEL MONTEIRO DA SILVA 091000043300898234SAMUEL MONTEIRO DA SILVA                000000000000000000000000000000000A4                 
7560001300060U 020000000000000000000000000000000000000000000000000000000000000000000000000000000000000000000000000000000000000000000000001609202000000000    00000000000000000000000                              75600000000000000000000       
7560001300061T 0204609000000000793400001122930101014     122300000000000010042021000000000006500756046090SAMUEL MONTEIRO DA SILVA 091000043300898234SAMUEL MONTEIRO DA SILVA                000000000000000000000000000000000A4                 
7560001300062U 020000000000000000000000000000000000000000000000000000000000000000000000000000000000000000000000000000000000000000000000001609202000000000    00000000000000000000000                              75600000000000000000000       
7560001300063T 0204609000000000793400001122931901014     125500000000000010052021000000000006500756046090SAMUEL MONTEIRO DA SILVA 091000043300898234SAMUEL MONTEIRO DA SILVA                000000000000000000000000000000000A4                 
7560001300064U 020000000000000000000000000000000000000000000000000000000000000000000000000000000000000000000000000000000000000000000000001609202000000000    00000000000000000000000                              75600000000000000000000       
7560001300065T 0204609000000000793400001122932601014     127700000000000010062021000000000006500756046090SAMUEL MONTEIRO DA SILVA 091000043300898234SAMUEL MONTEIRO DA SILVA                000000000000000000000000000000000A4                 
7560001300066U 020000000000000000000000000000000000000000000000000000000000000000000000000000000000000000000000000000000000000000000000001609202000000000    00000000000000000000000                              75600000000000000000000       
7560001300067T 0204609000000000793400001122933301014     129900000000000010072021000000000006500756046090SAMUEL MONTEIRO DA SILVA 091000043300898234SAMUEL MONTEIRO DA SILVA                000000000000000000000000000000000A4                 
7560001300068U 020000000000000000000000000000000000000000000000000000000000000000000000000000000000000000000000000000000000000000000000001609202000000000    00000000000000000000000                              75600000000000000000000       
7560001300069T 0204609000000000793400001122934001014     132900000000000010082021000000000006500756046090SAMUEL MONTEIRO DA SILVA 091000043300898234SAMUEL MONTEIRO DA SILVA                000000000000000000000000000000000A4                 
7560001300070U 020000000000000000000000000000000000000000000000000000000000000000000000000000000000000000000000000000000000000000000000001609202000000000    00000000000000000000000                              75600000000000000000000       
7560001300071T 0204609000000000793400001122935801014     138300000000000010092021000000000006500756046090SAMUEL MONTEIRO DA SILVA 091000043300898234SAMUEL MONTEIRO DA SILVA                000000000000000000000000000000000A4                 
7560001300072U 020000000000000000000000000000000000000000000000000000000000000000000000000000000000000000000000000000000000000000000000001609202000000000    00000000000000000000000                              75600000000000000000000       
7560001300073T 0204609000000000793400001122937201014     190000000000000010102020000000000006500756046090LUCIMAR DUTRA SARGES     091000037107429272LUCIMAR DUTRA SARGES                    000000000000000000000000000000000A4                 
7560001300074U 020000000000000000000000000000000000000000000000000000000000000000000000000000000000000000000000000000000000000000000000001609202000000000    00000000000000000000000                              75600000000000000000000       
7560001300075T 0204609000000000793400001122938001014     141000000000000010112020000000000006500756046090LUCIMAR DUTRA SARGES     091000037107429272LUCIMAR DUTRA SARGES                    000000000000000000000000000000000A4                 
7560001300076U 020000000000000000000000000000000000000000000000000000000000000000000000000000000000000000000000000000000000000000000000001609202000000000    00000000000000000000000                              75600000000000000000000       
7560001300077T 0204609000000000793400001122939701014     187000000000000010122020000000000006500756046090LUCIMAR DUTRA SARGES     091000037107429272LUCIMAR DUTRA SARGES                    000000000000000000000000000000000A4                 
7560001300078U 020000000000000000000000000000000000000000000000000000000000000000000000000000000000000000000000000000000000000000000000001609202000000000    00000000000000000000000                              75600000000000000000000       
7560001300079T 0204609000000000793400001122940501014     111500000000000010012021000000000006500756046090LUCIMAR DUTRA SARGES     091000037107429272LUCIMAR DUTRA SARGES                    000000000000000000000000000000000A4                 
7560001300080U 020000000000000000000000000000000000000000000000000000000000000000000000000000000000000000000000000000000000000000000000001609202000000000    00000000000000000000000                              75600000000000000000000       
7560001300081T 0204609000000000793400001122941201014     114100000000000010022021000000000006500756046090LUCIMAR DUTRA SARGES     091000037107429272LUCIMAR DUTRA SARGES                    000000000000000000000000000000000A4                 
7560001300082U 020000000000000000000000000000000000000000000000000000000000000000000000000000000000000000000000000000000000000000000000001609202000000000    00000000000000000000000                              75600000000000000000000       
7560001300083T 0204609000000000793400001122942001014     117900000000000010032021000000000006500756046090LUCIMAR DUTRA SARGES     091000037107429272LUCIMAR DUTRA SARGES                    000000000000000000000000000000000A4                 
7560001300084U 020000000000000000000000000000000000000000000000000000000000000000000000000000000000000000000000000000000000000000000000001609202000000000    00000000000000000000000                              75600000000000000000000       
7560001300085T 0204609000000000793400001122943701014     120700000000000010042021000000000006500756046090LUCIMAR DUTRA SARGES     091000037107429272LUCIMAR DUTRA SARGES                    000000000000000000000000000000000A4                 
7560001300086U 020000000000000000000000000000000000000000000000000000000000000000000000000000000000000000000000000000000000000000000000001609202000000000    00000000000000000000000                              75600000000000000000000       
7560001300087T 0204609000000000793400001122944401014     123500000000000010052021000000000006500756046090LUCIMAR DUTRA SARGES     091000037107429272LUCIMAR DUTRA SARGES                    000000000000000000000000000000000A4                 
7560001300088U 020000000000000000000000000000000000000000000000000000000000000000000000000000000000000000000000000000000000000000000000001609202000000000    00000000000000000000000                              75600000000000000000000       
7560001300089T 0204609000000000793400001122945101014     126500000000000010062021000000000006500756046090LUCIMAR DUTRA SARGES     091000037107429272LUCIMAR DUTRA SARGES                    000000000000000000000000000000000A4                 
7560001300090U 020000000000000000000000000000000000000000000000000000000000000000000000000000000000000000000000000000000000000000000000001609202000000000    00000000000000000000000                              75600000000000000000000       
7560001300091T 0204609000000000793400001122946901014     130700000000000010072021000000000006500756046090LUCIMAR DUTRA SARGES     091000037107429272LUCIMAR DUTRA SARGES                    000000000000000000000000000000000A4                 
7560001300092U 020000000000000000000000000000000000000000000000000000000000000000000000000000000000000000000000000000000000000000000000001609202000000000    00000000000000000000000                              75600000000000000000000       
7560001300093T 0204609000000000793400001122947601014     134300000000000010082021000000000006500756046090LUCIMAR DUTRA SARGES     091000037107429272LUCIMAR DUTRA SARGES                    000000000000000000000000000000000A4                 
7560001300094U 020000000000000000000000000000000000000000000000000000000000000000000000000000000000000000000000000000000000000000000000001609202000000000    00000000000000000000000                              75600000000000000000000       
7560001300095T 0204609000000000793400001122948301014     137100000000000010092021000000000006500756046090LUCIMAR DUTRA SARGES     091000037107429272LUCIMAR DUTRA SARGES                    000000000000000000000000000000000A4                 
7560001300096U 020000000000000000000000000000000000000000000000000000000000000000000000000000000000000000000000000000000000000000000000001609202000000000    00000000000000000000000                              75600000000000000000000       
7560001300097T 0204609000000000793400001122950901014     127000000000000010102020000000000006500756046090JORGE OTAVIO DE SOUZA    091000006933637204JORGE OTAVIO DE SOUZA                   000000000000000000000000000000000A4                 
7560001300098U 020000000000000000000000000000000000000000000000000000000000000000000000000000000000000000000000000000000000000000000000001609202000000000    00000000000000000000000                              75600000000000000000000       
7560001300099T 0204609000000000793400001122951601014     143000000000000010112020000000000006500756046090JORGE OTAVIO DE SOUZA    091000006933637204JORGE OTAVIO DE SOUZA                   000000000000000000000000000000000A4                 
7560001300100U 020000000000000000000000000000000000000000000000000000000000000000000000000000000000000000000000000000000000000000000000001609202000000000    00000000000000000000000                              75600000000000000000000       
7560001300101T 0204609000000000793400001122952301014     181000000000000010122020000000000006500756046090JORGE OTAVIO DE SOUZA    091000006933637204JORGE OTAVIO DE SOUZA                   000000000000000000000000000000000A4                 
7560001300102U 020000000000000000000000000000000000000000000000000000000000000000000000000000000000000000000000000000000000000000000000001609202000000000    00000000000000000000000                              75600000000000000000000       
7560001300103T 0204609000000000793400001122953001014     110700000000000010012021000000000006500756046090JORGE OTAVIO DE SOUZA    091000006933637204JORGE OTAVIO DE SOUZA                   000000000000000000000000000000000A4                 
7560001300104U 020000000000000000000000000000000000000000000000000000000000000000000000000000000000000000000000000000000000000000000000001609202000000000    00000000000000000000000                              75600000000000000000000       
7560001300105T 0204609000000000793400001122954801014     115500000000000010022021000000000006500756046090JORGE OTAVIO DE SOUZA    091000006933637204JORGE OTAVIO DE SOUZA                   000000000000000000000000000000000A4                 
7560001300106U 020000000000000000000000000000000000000000000000000000000000000000000000000000000000000000000000000000000000000000000000001609202000000000    00000000000000000000000                              75600000000000000000000       
7560001300107T 0204609000000000793400001122955501014     117300000000000010032021000000000006500756046090JORGE OTAVIO DE SOUZA    091000006933637204JORGE OTAVIO DE SOUZA                   000000000000000000000000000000000A4                 
7560001300108U 020000000000000000000000000000000000000000000000000000000000000000000000000000000000000000000000000000000000000000000000001609202000000000    00000000000000000000000                              75600000000000000000000       
7560001300109T 0204609000000000793400001122956201014     120900000000000010042021000000000006500756046090JORGE OTAVIO DE SOUZA    091000006933637204JORGE OTAVIO DE SOUZA                   000000000000000000000000000000000A4                 
7560001300110U 020000000000000000000000000000000000000000000000000000000000000000000000000000000000000000000000000000000000000000000000001609202000000000    00000000000000000000000                              75600000000000000000000       
7560001300111T 0204609000000000793400001122957001014     124100000000000010052021000000000006500756046090JORGE OTAVIO DE SOUZA    091000006933637204JORGE OTAVIO DE SOUZA                   000000000000000000000000000000000A4                 
7560001300112U 020000000000000000000000000000000000000000000000000000000000000000000000000000000000000000000000000000000000000000000000001609202000000000    00000000000000000000000                              75600000000000000000000       
7560001300113T 0204609000000000793400001122958701014     128300000000000010062021000000000006500756046090JORGE OTAVIO DE SOUZA    091000006933637204JORGE OTAVIO DE SOUZA                   000000000000000000000000000000000A4                 
7560001300114U 020000000000000000000000000000000000000000000000000000000000000000000000000000000000000000000000000000000000000000000000001609202000000000    00000000000000000000000                              75600000000000000000000       
7560001300115T 0204609000000000793400001122959401014     131100000000000010072021000000000006500756046090JORGE OTAVIO DE SOUZA    091000006933637204JORGE OTAVIO DE SOUZA                   000000000000000000000000000000000A4                 
7560001300116U 020000000000000000000000000000000000000000000000000000000000000000000000000000000000000000000000000000000000000000000000001609202000000000    00000000000000000000000                              75600000000000000000000       
7560001300117T 0204609000000000793400001122960201014     133700000000000010082021000000000006500756046090JORGE OTAVIO DE SOUZA    091000006933637204JORGE OTAVIO DE SOUZA                   000000000000000000000000000000000A4                 
7560001300118U 020000000000000000000000000000000000000000000000000000000000000000000000000000000000000000000000000000000000000000000000001609202000000000    00000000000000000000000                              75600000000000000000000       
7560001300119T 0204609000000000793400001122961001014     137300000000000010092021000000000006500756046090JORGE OTAVIO DE SOUZA    091000006933637204JORGE OTAVIO DE SOUZA                   000000000000000000000000000000000A4                 
7560001300120U 020000000000000000000000000000000000000000000000000000000000000000000000000000000000000000000000000000000000000000000000001609202000000000    00000000000000000000000                              75600000000000000000000       
7560001300121T 0204609000000000793400001122963401014     131000000000000010102020000000000006500756046090GILSA MONTEIRO DA SILVA F091000049879910397GILSA MONTEIRO DA SILVA FERREIRA        000000000000000000000000000000000A4                 
7560001300122U 020000000000000000000000000000000000000000000000000000000000000000000000000000000000000000000000000000000000000000000000001609202000000000    00000000000000000000000                              75600000000000000000000       
7560001300123T 0204609000000000793400001122964101014     161000000000000010112020000000000006500756046090GILSA MONTEIRO DA SILVA F091000049879910397GILSA MONTEIRO DA SILVA FERREIRA        000000000000000000000000000000000A4                 
7560001300124U 020000000000000000000000000000000000000000000000000000000000000000000000000000000000000000000000000000000000000000000000001609202000000000    00000000000000000000000                              75600000000000000000000       
7560001300125T 0204609000000000793400001122965901014     185000000000000010122020000000000006500756046090GILSA MONTEIRO DA SILVA F091000049879910397GILSA MONTEIRO DA SILVA FERREIRA        000000000000000000000000000000000A4                 
7560001300126U 020000000000000000000000000000000000000000000000000000000000000000000000000000000000000000000000000000000000000000000000001609202000000000    00000000000000000000000                              75600000000000000000000       
7560001300127T 0204609000000000793400001122966601014     111900000000000010012021000000000006500756046090GILSA MONTEIRO DA SILVA F091000049879910397GILSA MONTEIRO DA SILVA FERREIRA        000000000000000000000000000000000A4                 
7560001300128U 020000000000000000000000000000000000000000000000000000000000000000000000000000000000000000000000000000000000000000000000001609202000000000    00000000000000000000000                              75600000000000000000000       
7560001300129T 0204609000000000793400001122967301014     115300000000000010022021000000000006500756046090GILSA MONTEIRO DA SILVA F091000049879910397GILSA MONTEIRO DA SILVA FERREIRA        000000000000000000000000000000000A4                 
7560001300130U 020000000000000000000000000000000000000000000000000000000000000000000000000000000000000000000000000000000000000000000000001609202000000000    00000000000000000000000                              75600000000000000000000       
7560001300131T 0204609000000000793400001122968001014     118500000000000010032021000000000006500756046090GILSA MONTEIRO DA SILVA F091000049879910397GILSA MONTEIRO DA SILVA FERREIRA        000000000000000000000000000000000A4                 
7560001300132U 020000000000000000000000000000000000000000000000000000000000000000000000000000000000000000000000000000000000000000000000001609202000000000    00000000000000000000000                              75600000000000000000000       
7560001300133T 0204609000000000793400001122969801014     120500000000000010042021000000000006500756046090GILSA MONTEIRO DA SILVA F091000049879910397GILSA MONTEIRO DA SILVA FERREIRA        000000000000000000000000000000000A4                 
7560001300134U 020000000000000000000000000000000000000000000000000000000000000000000000000000000000000000000000000000000000000000000000001609202000000000    00000000000000000000000                              75600000000000000000000       
7560001300135T 0204609000000000793400001122970601014     124300000000000010052021000000000006500756046090GILSA MONTEIRO DA SILVA F091000049879910397GILSA MONTEIRO DA SILVA FERREIRA        000000000000000000000000000000000A4                 
7560001300136U 020000000000000000000000000000000000000000000000000000000000000000000000000000000000000000000000000000000000000000000000001609202000000000    00000000000000000000000                              75600000000000000000000       
7560001300137T 0204609000000000793400001122971301014     126700000000000010062021000000000006500756046090GILSA MONTEIRO DA SILVA F091000049879910397GILSA MONTEIRO DA SILVA FERREIRA        000000000000000000000000000000000A4                 
7560001300138U 020000000000000000000000000000000000000000000000000000000000000000000000000000000000000000000000000000000000000000000000001609202000000000    00000000000000000000000                              75600000000000000000000       
7560001300139T 0204609000000000793400001122972001014     131300000000000010072021000000000006500756046090GILSA MONTEIRO DA SILVA F091000049879910397GILSA MONTEIRO DA SILVA FERREIRA        000000000000000000000000000000000A4                 
7560001300140U 020000000000000000000000000000000000000000000000000000000000000000000000000000000000000000000000000000000000000000000000001609202000000000    00000000000000000000000                              75600000000000000000000       
7560001300141T 0204609000000000793400001122973801014     133500000000000010082021000000000006500756046090GILSA MONTEIRO DA SILVA F091000049879910397GILSA MONTEIRO DA SILVA FERREIRA        000000000000000000000000000000000A4                 
7560001300142U 020000000000000000000000000000000000000000000000000000000000000000000000000000000000000000000000000000000000000000000000001609202000000000    00000000000000000000000                              75600000000000000000000       
7560001300143T 0204609000000000793400001122974501014     137500000000000010092021000000000006500756046090GILSA MONTEIRO DA SILVA F091000049879910397GILSA MONTEIRO DA SILVA FERREIRA        000000000000000000000000000000000A4                 
7560001300144U 020000000000000000000000000000000000000000000000000000000000000000000000000000000000000000000000000000000000000000000000001609202000000000    00000000000000000000000                              75600000000000000000000       
7560001300145T 0204609000000000793400001122976001014     111000000000000010102020000000000006500756046090DINA CLAUDIA DE SOUSA DOU091000072940018200DINA CLAUDIA DE SOUSA DOURADO           000000000000000000000000000000000A4                 
7560001300146U 020000000000000000000000000000000000000000000000000000000000000000000000000000000000000000000000000000000000000000000000001609202000000000    00000000000000000000000                              75600000000000000000000       
7560001300147T 0204609000000000793400001122977701014     151000000000000010112020000000000006500756046090DINA CLAUDIA DE SOUSA DOU091000072940018200DINA CLAUDIA DE SOUSA DOURADO           000000000000000000000000000000000A4                 
7560001300148U 020000000000000000000000000000000000000000000000000000000000000000000000000000000000000000000000000000000000000000000000001609202000000000    00000000000000000000000                              75600000000000000000000       
7560001300149T 0204609000000000793400001122978401014     177000000000000010122020000000000006500756046090DINA CLAUDIA DE SOUSA DOU091000072940018200DINA CLAUDIA DE SOUSA DOURADO           000000000000000000000000000000000A4                 
7560001300150U 020000000000000000000000000000000000000000000000000000000000000000000000000000000000000000000000000000000000000000000000001609202000000000    00000000000000000000000                              75600000000000000000000       
7560001300151T 0204609000000000793400001122979101014     112500000000000010012021000000000006500756046090DINA CLAUDIA DE SOUSA DOU091000072940018200DINA CLAUDIA DE SOUSA DOURADO           000000000000000000000000000000000A4                 
7560001300152U 020000000000000000000000000000000000000000000000000000000000000000000000000000000000000000000000000000000000000000000000001609202000000000    00000000000000000000000                              75600000000000000000000       
7560001300153T 0204609000000000793400001122980001014     114500000000000010022021000000000006500756046090DINA CLAUDIA DE SOUSA DOU091000072940018200DINA CLAUDIA DE SOUSA DOURADO           000000000000000000000000000000000A4                 
7560001300154U 020000000000000000000000000000000000000000000000000000000000000000000000000000000000000000000000000000000000000000000000001609202000000000    00000000000000000000000                              75600000000000000000000       
7560001300155T 0204609000000000793400001122981701014     118100000000000010032021000000000006500756046090DINA CLAUDIA DE SOUSA DOU091000072940018200DINA CLAUDIA DE SOUSA DOURADO           000000000000000000000000000000000A4                 
7560001300156U 020000000000000000000000000000000000000000000000000000000000000000000000000000000000000000000000000000000000000000000000001609202000000000    00000000000000000000000                              75600000000000000000000       
7560001300157T 0204609000000000793400001122982401014     120300000000000010042021000000000006500756046090DINA CLAUDIA DE SOUSA DOU091000072940018200DINA CLAUDIA DE SOUSA DOURADO           000000000000000000000000000000000A4                 
7560001300158U 020000000000000000000000000000000000000000000000000000000000000000000000000000000000000000000000000000000000000000000000001609202000000000    00000000000000000000000                              75600000000000000000000       
7560001300159T 0204609000000000793400001122983101014     123700000000000010052021000000000006500756046090DINA CLAUDIA DE SOUSA DOU091000072940018200DINA CLAUDIA DE SOUSA DOURADO           000000000000000000000000000000000A4                 
7560001300160U 020000000000000000000000000000000000000000000000000000000000000000000000000000000000000000000000000000000000000000000000001609202000000000    00000000000000000000000                              75600000000000000000000       
7560001300161T 0204609000000000793400001122984901014     127900000000000010062021000000000006500756046090DINA CLAUDIA DE SOUSA DOU091000072940018200DINA CLAUDIA DE SOUSA DOURADO           000000000000000000000000000000000A4                 
7560001300162U 020000000000000000000000000000000000000000000000000000000000000000000000000000000000000000000000000000000000000000000000001609202000000000    00000000000000000000000                              75600000000000000000000       
7560001300163T 0204609000000000793400001122985601014     131900000000000010072021000000000006500756046090DINA CLAUDIA DE SOUSA DOU091000072940018200DINA CLAUDIA DE SOUSA DOURADO           000000000000000000000000000000000A4                 
7560001300164U 020000000000000000000000000000000000000000000000000000000000000000000000000000000000000000000000000000000000000000000000001609202000000000    00000000000000000000000                              75600000000000000000000       
7560001300165T 0204609000000000793400001122986301014     134500000000000010082021000000000006500756046090DINA CLAUDIA DE SOUSA DOU091000072940018200DINA CLAUDIA DE SOUSA DOURADO           000000000000000000000000000000000A4                 
7560001300166U 020000000000000000000000000000000000000000000000000000000000000000000000000000000000000000000000000000000000000000000000001609202000000000    00000000000000000000000                              75600000000000000000000       
7560001300167T 0204609000000000793400001122987001014     136100000000000010092021000000000006500756046090DINA CLAUDIA DE SOUSA DOU091000072940018200DINA CLAUDIA DE SOUSA DOURADO           000000000000000000000000000000000A4                 
7560001300168U 020000000000000000000000000000000000000000000000000000000000000000000000000000000000000000000000000000000000000000000000001609202000000000    00000000000000000000000                              75600000000000000000000       
7560001300169T 0204609000000000793400001122989501014     123000000000000010102020000000000006500756046090JOANIELLE DE BARROS CAMPO091000000201664275JOANIELLE DE BARROS CAMPOS              000000000000000000000000000000000A4                 
7560001300170U 020000000000000000000000000000000000000000000000000000000000000000000000000000000000000000000000000000000000000000000000001609202000000000    00000000000000000000000                              75600000000000000000000       
7560001300171T 0204609000000000793400001122990301014     159000000000000010112020000000000006500756046090JOANIELLE DE BARROS CAMPO091000000201664275JOANIELLE DE BARROS CAMPOS              000000000000000000000000000000000A4                 
7560001300172U 020000000000000000000000000000000000000000000000000000000000000000000000000000000000000000000000000000000000000000000000001609202000000000    00000000000000000000000                              75600000000000000000000       
7560001300173T 0204609000000000793400001122991001014     189000000000000010122020000000000006500756046090JOANIELLE DE BARROS CAMPO091000000201664275JOANIELLE DE BARROS CAMPOS              000000000000000000000000000000000A4                 
7560001300174U 020000000000000000000000000000000000000000000000000000000000000000000000000000000000000000000000000000000000000000000000001609202000000000    00000000000000000000000                              75600000000000000000000       
7560001300175T 0204609000000000793400001122992801014     112700000000000010012021000000000006500756046090JOANIELLE DE BARROS CAMPO091000000201664275JOANIELLE DE BARROS CAMPOS              000000000000000000000000000000000A4                 
7560001300176U 020000000000000000000000000000000000000000000000000000000000000000000000000000000000000000000000000000000000000000000000001609202000000000    00000000000000000000000                              75600000000000000000000       
7560001300177T 0204609000000000793400001122993501014     114900000000000010022021000000000006500756046090JOANIELLE DE BARROS CAMPO091000000201664275JOANIELLE DE BARROS CAMPOS              000000000000000000000000000000000A4                 
7560001300178U 020000000000000000000000000000000000000000000000000000000000000000000000000000000000000000000000000000000000000000000000001609202000000000    00000000000000000000000                              75600000000000000000000       
7560001300179T 0204609000000000793400001122994201014     118700000000000010032021000000000006500756046090JOANIELLE DE BARROS CAMPO091000000201664275JOANIELLE DE BARROS CAMPOS              000000000000000000000000000000000A4                 
7560001300180U 020000000000000000000000000000000000000000000000000000000000000000000000000000000000000000000000000000000000000000000000001609202000000000    00000000000000000000000                              75600000000000000000000       
7560001300181T 0204609000000000793400001122995001014     122100000000000010042021000000000006500756046090JOANIELLE DE BARROS CAMPO091000000201664275JOANIELLE DE BARROS CAMPOS              000000000000000000000000000000000A4                 
7560001300182U 020000000000000000000000000000000000000000000000000000000000000000000000000000000000000000000000000000000000000000000000001609202000000000    00000000000000000000000                              75600000000000000000000       
7560001300183T 0204609000000000793400001122996701014     124700000000000010052021000000000006500756046090JOANIELLE DE BARROS CAMPO091000000201664275JOANIELLE DE BARROS CAMPOS              000000000000000000000000000000000A4                 
7560001300184U 020000000000000000000000000000000000000000000000000000000000000000000000000000000000000000000000000000000000000000000000001609202000000000    00000000000000000000000                              75600000000000000000000       
7560001300185T 0204609000000000793400001122997401014     126900000000000010062021000000000006500756046090JOANIELLE DE BARROS CAMPO091000000201664275JOANIELLE DE BARROS CAMPOS              000000000000000000000000000000000A4                 
7560001300186U 020000000000000000000000000000000000000000000000000000000000000000000000000000000000000000000000000000000000000000000000001609202000000000    00000000000000000000000                              75600000000000000000000       
7560001300187T 0204609000000000793400001122998101014     130300000000000010072021000000000006500756046090JOANIELLE DE BARROS CAMPO091000000201664275JOANIELLE DE BARROS CAMPOS              000000000000000000000000000000000A4                 
7560001300188U 020000000000000000000000000000000000000000000000000000000000000000000000000000000000000000000000000000000000000000000000001609202000000000    00000000000000000000000                              75600000000000000000000       
7560001300189T 0204609000000000793400001122999901014     134700000000000010082021000000000006500756046090JOANIELLE DE BARROS CAMPO091000000201664275JOANIELLE DE BARROS CAMPOS              000000000000000000000000000000000A4                 
7560001300190U 020000000000000000000000000000000000000000000000000000000000000000000000000000000000000000000000000000000000000000000000001609202000000000    00000000000000000000000                              75600000000000000000000       
7560001300191T 0204609000000000793400001123000301014     136300000000000010092021000000000006500756046090JOANIELLE DE BARROS CAMPO091000000201664275JOANIELLE DE BARROS CAMPOS              000000000000000000000000000000000A4                 
7560001300192U 020000000000000000000000000000000000000000000000000000000000000000000000000000000000000000000000000000000000000000000000001609202000000000    00000000000000000000000                              75600000000000000000000       
7560001300193T 0204609000000000793400001123002801014     121000000000000010102020000000000006500756046090LUENNYLDE ARAUJO DA COSTA091000040198782349LUENNYLDE ARAUJO DA COSTA LEITE         000000000000000000000000000000000A4                 
7560001300194U 020000000000000000000000000000000000000000000000000000000000000000000000000000000000000000000000000000000000000000000000001609202000000000    00000000000000000000000                              75600000000000000000000       
7560001300195T 0204609000000000793400001123003501014     149000000000000010112020000000000006500756046090LUENNYLDE ARAUJO DA COSTA091000040198782349LUENNYLDE ARAUJO DA COSTA LEITE         000000000000000000000000000000000A4                 
7560001300196U 020000000000000000000000000000000000000000000000000000000000000000000000000000000000000000000000000000000000000000000000001609202000000000    00000000000000000000000                              75600000000000000000000       
7560001300197T 0204609000000000793400001123004201014     179000000000000010122020000000000006500756046090LUENNYLDE ARAUJO DA COSTA091000040198782349LUENNYLDE ARAUJO DA COSTA LEITE         000000000000000000000000000000000A4                 
7560001300198U 020000000000000000000000000000000000000000000000000000000000000000000000000000000000000000000000000000000000000000000000001609202000000000    00000000000000000000000                              75600000000000000000000       
7560001300199T 0204609000000000793400001123005001014     111300000000000010012021000000000006500756046090LUENNYLDE ARAUJO DA COSTA091000040198782349LUENNYLDE ARAUJO DA COSTA LEITE         000000000000000000000000000000000A4                 
7560001300200U 020000000000000000000000000000000000000000000000000000000000000000000000000000000000000000000000000000000000000000000000001609202000000000    00000000000000000000000                              75600000000000000000000       
7560001300201T 0204609000000000793400001123006701014     113700000000000010022021000000000006500756046090LUENNYLDE ARAUJO DA COSTA091000040198782349LUENNYLDE ARAUJO DA COSTA LEITE         000000000000000000000000000000000A4                 
7560001300202U 020000000000000000000000000000000000000000000000000000000000000000000000000000000000000000000000000000000000000000000000001609202000000000    00000000000000000000000                              75600000000000000000000       
7560001300203T 0204609000000000793400001123007401014     119100000000000010032021000000000006500756046090LUENNYLDE ARAUJO DA COSTA091000040198782349LUENNYLDE ARAUJO DA COSTA LEITE         000000000000000000000000000000000A4                 
7560001300204U 020000000000000000000000000000000000000000000000000000000000000000000000000000000000000000000000000000000000000000000000001609202000000000    00000000000000000000000                              75600000000000000000000       
7560001300205T 0204609000000000793400001123008101014     121100000000000010042021000000000006500756046090LUENNYLDE ARAUJO DA COSTA091000040198782349LUENNYLDE ARAUJO DA COSTA LEITE         000000000000000000000000000000000A4                 
7560001300206U 020000000000000000000000000000000000000000000000000000000000000000000000000000000000000000000000000000000000000000000000001609202000000000    00000000000000000000000                              75600000000000000000000       
7560001300207T 0204609000000000793400001123009901014     123900000000000010052021000000000006500756046090LUENNYLDE ARAUJO DA COSTA091000040198782349LUENNYLDE ARAUJO DA COSTA LEITE         000000000000000000000000000000000A4                 
7560001300208U 020000000000000000000000000000000000000000000000000000000000000000000000000000000000000000000000000000000000000000000000001609202000000000    00000000000000000000000                              75600000000000000000000       
7560001300209T 0204609000000000793400001123010701014     127100000000000010062021000000000006500756046090LUENNYLDE ARAUJO DA COSTA091000040198782349LUENNYLDE ARAUJO DA COSTA LEITE         000000000000000000000000000000000A4                 
7560001300210U 020000000000000000000000000000000000000000000000000000000000000000000000000000000000000000000000000000000000000000000000001609202000000000    00000000000000000000000                              75600000000000000000000       
7560001300211T 0204609000000000793400001123011401014     130900000000000010072021000000000006500756046090LUENNYLDE ARAUJO DA COSTA091000040198782349LUENNYLDE ARAUJO DA COSTA LEITE         000000000000000000000000000000000A4                 
7560001300212U 020000000000000000000000000000000000000000000000000000000000000000000000000000000000000000000000000000000000000000000000001609202000000000    00000000000000000000000                              75600000000000000000000       
7560001300213T 0204609000000000793400001123012101014     133300000000000010082021000000000006500756046090LUENNYLDE ARAUJO DA COSTA091000040198782349LUENNYLDE ARAUJO DA COSTA LEITE         000000000000000000000000000000000A4                 
7560001300214U 020000000000000000000000000000000000000000000000000000000000000000000000000000000000000000000000000000000000000000000000001609202000000000    00000000000000000000000                              75600000000000000000000       
7560001300215T 0204609000000000793400001123013901014     138100000000000010092021000000000006500756046090LUENNYLDE ARAUJO DA COSTA091000040198782349LUENNYLDE ARAUJO DA COSTA LEITE         000000000000000000000000000000000A4                 
7560001300216U 020000000000000000000000000000000000000000000000000000000000000000000000000000000000000000000000000000000000000000000000001609202000000000    00000000000000000000000                              75600000000000000000000       
7560001300217T 0204609000000000793400001123015301014     125000000000000010102020000000000006500756046090HILDENICE APARECIDA DE QU091000019817231291HILDENICE APARECIDA DE QUEIROZ          000000000000000000000000000000000A4                 
7560001300218U 020000000000000000000000000000000000000000000000000000000000000000000000000000000000000000000000000000000000000000000000001609202000000000    00000000000000000000000                              75600000000000000000000       
7560001300219T 0204609000000000793400001123016001014     163000000000000010112020000000000006500756046090HILDENICE APARECIDA DE QU091000019817231291HILDENICE APARECIDA DE QUEIROZ          000000000000000000000000000000000A4                 
7560001300220U 020000000000000000000000000000000000000000000000000000000000000000000000000000000000000000000000000000000000000000000000001609202000000000    00000000000000000000000                              75600000000000000000000       
7560001300221T 0204609000000000793400001123017801014     191000000000000010122020000000000006500756046090HILDENICE APARECIDA DE QU091000019817231291HILDENICE APARECIDA DE QUEIROZ          000000000000000000000000000000000A4                 
7560001300222U 020000000000000000000000000000000000000000000000000000000000000000000000000000000000000000000000000000000000000000000000001609202000000000    00000000000000000000000                              75600000000000000000000       
7560001300223T 0204609000000000793400001123018501014     112300000000000010012021000000000006500756046090HILDENICE APARECIDA DE QU091000019817231291HILDENICE APARECIDA DE QUEIROZ          000000000000000000000000000000000A4                 
7560001300224U 020000000000000000000000000000000000000000000000000000000000000000000000000000000000000000000000000000000000000000000000001609202000000000    00000000000000000000000                              75600000000000000000000       
7560001300225T 0204609000000000793400001123019201014     114700000000000010022021000000000006500756046090HILDENICE APARECIDA DE QU091000019817231291HILDENICE APARECIDA DE QUEIROZ          000000000000000000000000000000000A4                 
7560001300226U 020000000000000000000000000000000000000000000000000000000000000000000000000000000000000000000000000000000000000000000000001609202000000000    00000000000000000000000                              75600000000000000000000       
7560001300227T 0204609000000000793400001123020001014     118900000000000010032021000000000006500756046090HILDENICE APARECIDA DE QU091000019817231291HILDENICE APARECIDA DE QUEIROZ          000000000000000000000000000000000A4                 
7560001300228U 020000000000000000000000000000000000000000000000000000000000000000000000000000000000000000000000000000000000000000000000001609202000000000    00000000000000000000000                              75600000000000000000000       
7560001300229T 0204609000000000793400001123021801014     120100000000000010042021000000000006500756046090HILDENICE APARECIDA DE QU091000019817231291HILDENICE APARECIDA DE QUEIROZ          000000000000000000000000000000000A4                 
7560001300230U 020000000000000000000000000000000000000000000000000000000000000000000000000000000000000000000000000000000000000000000000001609202000000000    00000000000000000000000                              75600000000000000000000       
7560001300231T 0204609000000000793400001123022501014     124500000000000010052021000000000006500756046090HILDENICE APARECIDA DE QU091000019817231291HILDENICE APARECIDA DE QUEIROZ          000000000000000000000000000000000A4                 
7560001300232U 020000000000000000000000000000000000000000000000000000000000000000000000000000000000000000000000000000000000000000000000001609202000000000    00000000000000000000000                              75600000000000000000000       
7560001300233T 0204609000000000793400001123023201014     128100000000000010062021000000000006500756046090HILDENICE APARECIDA DE QU091000019817231291HILDENICE APARECIDA DE QUEIROZ          000000000000000000000000000000000A4                 
7560001300234U 020000000000000000000000000000000000000000000000000000000000000000000000000000000000000000000000000000000000000000000000001609202000000000    00000000000000000000000                              75600000000000000000000       
7560001300235T 0204609000000000793400001123024001014     130100000000000010072021000000000006500756046090HILDENICE APARECIDA DE QU091000019817231291HILDENICE APARECIDA DE QUEIROZ          000000000000000000000000000000000A4                 
7560001300236U 020000000000000000000000000000000000000000000000000000000000000000000000000000000000000000000000000000000000000000000000001609202000000000    00000000000000000000000                              75600000000000000000000       
7560001300237T 0204609000000000793400001123025701014     135100000000000010082021000000000006500756046090HILDENICE APARECIDA DE QU091000019817231291HILDENICE APARECIDA DE QUEIROZ          000000000000000000000000000000000A4                 
7560001300238U 020000000000000000000000000000000000000000000000000000000000000000000000000000000000000000000000000000000000000000000000001609202000000000    00000000000000000000000                              75600000000000000000000       
7560001300239T 0204609000000000793400001123026401014     137900000000000010092021000000000006500756046090HILDENICE APARECIDA DE QU091000019817231291HILDENICE APARECIDA DE QUEIROZ          000000000000000000000000000000000A4                 
7560001300240U 020000000000000000000000000000000000000000000000000000000000000000000000000000000000000000000000000000000000000000000000001609202000000000    00000000000000000000000                              75600000000000000000000       
7560001300241T 0204609000000000793400001123028901014     170000000000000005102020000000000006500756046090AUDINEY BARBOSA MANACAS  091000032784376249AUDINEY BARBOSA MANACAS                 000000000000000000000000000000000A4                 
7560001300242U 020000000000000000000000000000000000000000000000000000000000000000000000000000000000000000000000000000000000000000000000001609202000000000    00000000000000000000000                              75600000000000000000000       
7560001300243T 0204609000000000793400001123029601014     139000000000000005112020000000000006500756046090AUDINEY BARBOSA MANACAS  091000032784376249AUDINEY BARBOSA MANACAS                 000000000000000000000000000000000A4                 
7560001300244U 020000000000000000000000000000000000000000000000000000000000000000000000000000000000000000000000000000000000000000000000001609202000000000    00000000000000000000000                              75600000000000000000000       
7560001300245T 0204609000000000793400001123030401014     171000000000000005122020000000000006500756046090AUDINEY BARBOSA MANACAS  091000032784376249AUDINEY BARBOSA MANACAS                 000000000000000000000000000000000A4                 
7560001300246U 020000000000000000000000000000000000000000000000000000000000000000000000000000000000000000000000000000000000000000000000001609202000000000    00000000000000000000000                              75600000000000000000000       
7560001300247T 0204609000000000793400001123031101014     199000000000000005012021000000000006500756046090AUDINEY BARBOSA MANACAS  091000032784376249AUDINEY BARBOSA MANACAS                 000000000000000000000000000000000A4                 
7560001300248U 020000000000000000000000000000000000000000000000000000000000000000000000000000000000000000000000000000000000000000000000001609202000000000    00000000000000000000000                              75600000000000000000000       
7560001300249T 0204609000000000793400001123032901014     113300000000000005022021000000000006500756046090AUDINEY BARBOSA MANACAS  091000032784376249AUDINEY BARBOSA MANACAS                 000000000000000000000000000000000A4                 
7560001300250U 020000000000000000000000000000000000000000000000000000000000000000000000000000000000000000000000000000000000000000000000001609202000000000    00000000000000000000000                              75600000000000000000000       
7560001300251T 0204609000000000793400001123033601014     116300000000000005032021000000000006500756046090AUDINEY BARBOSA MANACAS  091000032784376249AUDINEY BARBOSA MANACAS                 000000000000000000000000000000000A4                 
7560001300252U 020000000000000000000000000000000000000000000000000000000000000000000000000000000000000000000000000000000000000000000000001609202000000000    00000000000000000000000                              75600000000000000000000       
7560001300253T 0204609000000000793400001123034301014     119900000000000005042021000000000006500756046090AUDINEY BARBOSA MANACAS  091000032784376249AUDINEY BARBOSA MANACAS                 000000000000000000000000000000000A4                 
7560001300254U 020000000000000000000000000000000000000000000000000000000000000000000000000000000000000000000000000000000000000000000000001609202000000000    00000000000000000000000                              75600000000000000000000       
7560001300255T 0204609000000000793400001123035001014     123100000000000005052021000000000006500756046090AUDINEY BARBOSA MANACAS  091000032784376249AUDINEY BARBOSA MANACAS                 000000000000000000000000000000000A4                 
7560001300256U 020000000000000000000000000000000000000000000000000000000000000000000000000000000000000000000000000000000000000000000000001609202000000000    00000000000000000000000                              75600000000000000000000       
7560001300257T 0204609000000000793400001123036801014     126300000000000005062021000000000006500756046090AUDINEY BARBOSA MANACAS  091000032784376249AUDINEY BARBOSA MANACAS                 000000000000000000000000000000000A4                 
7560001300258U 020000000000000000000000000000000000000000000000000000000000000000000000000000000000000000000000000000000000000000000000001609202000000000    00000000000000000000000                              75600000000000000000000       
7560001300259T 0204609000000000793400001123037501014     128900000000000005072021000000000006500756046090AUDINEY BARBOSA MANACAS  091000032784376249AUDINEY BARBOSA MANACAS                 000000000000000000000000000000000A4                 
7560001300260U 020000000000000000000000000000000000000000000000000000000000000000000000000000000000000000000000000000000000000000000000001609202000000000    00000000000000000000000                              75600000000000000000000       
7560001300261T 0204609000000000793400001123038201014     132300000000000005082021000000000006500756046090AUDINEY BARBOSA MANACAS  091000032784376249AUDINEY BARBOSA MANACAS                 000000000000000000000000000000000A4                 
7560001300262U 020000000000000000000000000000000000000000000000000000000000000000000000000000000000000000000000000000000000000000000000001609202000000000    00000000000000000000000                              75600000000000000000000       
7560001300263T 0204609000000000793400001123039001014     135900000000000005092021000000000006500756046090AUDINEY BARBOSA MANACAS  091000032784376249AUDINEY BARBOSA MANACAS                 000000000000000000000000000000000A4                 
7560001300264U 020000000000000000000000000000000000000000000000000000000000000000000000000000000000000000000000000000000000000000000000001609202000000000    00000000000000000000000                              75600000000000000000000       
7560001300265T 0204609000000000793400001123041501014     115000000000000010102020000000000006500756046090JOELMA DE FATIMA REZENDE 091000028426558852JOELMA DE FATIMA REZENDE VASCONCELOS    000000000000000000000000000000000A4                 
7560001300266U 020000000000000000000000000000000000000000000000000000000000000000000000000000000000000000000000000000000000000000000000001609202000000000    00000000000000000000000                              75600000000000000000000       
7560001300267T 0204609000000000793400001123042201014     155000000000000010112020000000000006500756046090JOELMA DE FATIMA REZENDE 091000028426558852JOELMA DE FATIMA REZENDE VASCONCELOS    000000000000000000000000000000000A4                 
7560001300268U 020000000000000000000000000000000000000000000000000000000000000000000000000000000000000000000000000000000000000000000000001609202000000000    00000000000000000000000                              75600000000000000000000       
7560001300269T 0204609000000000793400001123043001014     183000000000000010122020000000000006500756046090JOELMA DE FATIMA REZENDE 091000028426558852JOELMA DE FATIMA REZENDE VASCONCELOS    000000000000000000000000000000000A4                 
7560001300270U 020000000000000000000000000000000000000000000000000000000000000000000000000000000000000000000000000000000000000000000000001609202000000000    00000000000000000000000                              75600000000000000000000       
7560001300271T 0204609000000000793400001123044701014     111700000000000010012021000000000006500756046090JOELMA DE FATIMA REZENDE 091000028426558852JOELMA DE FATIMA REZENDE VASCONCELOS    000000000000000000000000000000000A4                 
7560001300272U 020000000000000000000000000000000000000000000000000000000000000000000000000000000000000000000000000000000000000000000000001609202000000000    00000000000000000000000                              75600000000000000000000       
7560001300273T 0204609000000000793400001123045401014     114300000000000010022021000000000006500756046090JOELMA DE FATIMA REZENDE 091000028426558852JOELMA DE FATIMA REZENDE VASCONCELOS    000000000000000000000000000000000A4                 
7560001300274U 020000000000000000000000000000000000000000000000000000000000000000000000000000000000000000000000000000000000000000000000001609202000000000    00000000000000000000000                              75600000000000000000000       
7560001300275T 0204609000000000793400001123046101014     116900000000000010032021000000000006500756046090JOELMA DE FATIMA REZENDE 091000028426558852JOELMA DE FATIMA REZENDE VASCONCELOS    000000000000000000000000000000000A4                 
7560001300276U 020000000000000000000000000000000000000000000000000000000000000000000000000000000000000000000000000000000000000000000000001609202000000000    00000000000000000000000                              75600000000000000000000       
7560001300277T 0204609000000000793400001123047901014     121700000000000010042021000000000006500756046090JOELMA DE FATIMA REZENDE 091000028426558852JOELMA DE FATIMA REZENDE VASCONCELOS    000000000000000000000000000000000A4                 
7560001300278U 020000000000000000000000000000000000000000000000000000000000000000000000000000000000000000000000000000000000000000000000001609202000000000    00000000000000000000000                              75600000000000000000000       
7560001300279T 0204609000000000793400001123048601014     123300000000000010052021000000000006500756046090JOELMA DE FATIMA REZENDE 091000028426558852JOELMA DE FATIMA REZENDE VASCONCELOS    000000000000000000000000000000000A4                 
7560001300280U 020000000000000000000000000000000000000000000000000000000000000000000000000000000000000000000000000000000000000000000000001609202000000000    00000000000000000000000                              75600000000000000000000       
7560001300281T 0204609000000000793400001123049301014     127300000000000010062021000000000006500756046090JOELMA DE FATIMA REZENDE 091000028426558852JOELMA DE FATIMA REZENDE VASCONCELOS    000000000000000000000000000000000A4                 
7560001300282U 020000000000000000000000000000000000000000000000000000000000000000000000000000000000000000000000000000000000000000000000001609202000000000    00000000000000000000000                              75600000000000000000000       
7560001300283T 0204609000000000793400001123050101014     131500000000000010072021000000000006500756046090JOELMA DE FATIMA REZENDE 091000028426558852JOELMA DE FATIMA REZENDE VASCONCELOS    000000000000000000000000000000000A4                 
7560001300284U 020000000000000000000000000000000000000000000000000000000000000000000000000000000000000000000000000000000000000000000000001609202000000000    00000000000000000000000                              75600000000000000000000       
7560001300285T 0204609000000000793400001123051901014     134100000000000010082021000000000006500756046090JOELMA DE FATIMA REZENDE 091000028426558852JOELMA DE FATIMA REZENDE VASCONCELOS    000000000000000000000000000000000A4                 
7560001300286U 020000000000000000000000000000000000000000000000000000000000000000000000000000000000000000000000000000000000000000000000001609202000000000    00000000000000000000000                              75600000000000000000000       
7560001300287T 0204609000000000793400001123052601014     137700000000000010092021000000000006500756046090JOELMA DE FATIMA REZENDE 091000028426558852JOELMA DE FATIMA REZENDE VASCONCELOS    000000000000000000000000000000000A4                 
7560001300288U 020000000000000000000000000000000000000000000000000000000000000000000000000000000000000000000000000000000000000000000000001609202000000000    00000000000000000000000                              75600000000000000000000       
7560001300289T 0204609000000000793400001123054001014     110000000000000005102020000000000006500756046090ANDRESSA DOS SANTOS MIRAN091000090291441220ANDRESSA DOS SANTOS MIRANDA             000000000000000000000000000000000A4                 
7560001300290U 020000000000000000000000000000000000000000000000000000000000000000000000000000000000000000000000000000000000000000000000001609202000000000    00000000000000000000000                              75600000000000000000000       
7560001300291T 0204609000000000793400001123055801014     135000000000000005112020000000000006500756046090ANDRESSA DOS SANTOS MIRAN091000090291441220ANDRESSA DOS SANTOS MIRANDA             000000000000000000000000000000000A4                 
7560001300292U 020000000000000000000000000000000000000000000000000000000000000000000000000000000000000000000000000000000000000000000000001609202000000000    00000000000000000000000                              75600000000000000000000       
7560001300293T 0204609000000000793400001123056501014     169000000000000005122020000000000006500756046090ANDRESSA DOS SANTOS MIRAN091000090291441220ANDRESSA DOS SANTOS MIRANDA             000000000000000000000000000000000A4                 
7560001300294U 020000000000000000000000000000000000000000000000000000000000000000000000000000000000000000000000000000000000000000000000001609202000000000    00000000000000000000000                              75600000000000000000000       
7560001300295T 0204609000000000793400001123057201014     110300000000000005012021000000000006500756046090ANDRESSA DOS SANTOS MIRAN091000090291441220ANDRESSA DOS SANTOS MIRANDA             000000000000000000000000000000000A4                 
7560001300296U 020000000000000000000000000000000000000000000000000000000000000000000000000000000000000000000000000000000000000000000000001609202000000000    00000000000000000000000                              75600000000000000000000       
7560001300297T 0204609000000000793400001123058001014     112900000000000005022021000000000006500756046090ANDRESSA DOS SANTOS MIRAN091000090291441220ANDRESSA DOS SANTOS MIRANDA             000000000000000000000000000000000A4                 
7560001300298U 020000000000000000000000000000000000000000000000000000000000000000000000000000000000000000000000000000000000000000000000001609202000000000    00000000000000000000000                              75600000000000000000000       
7560001300299T 0204609000000000793400001123059701014     116700000000000005032021000000000006500756046090ANDRESSA DOS SANTOS MIRAN091000090291441220ANDRESSA DOS SANTOS MIRANDA             000000000000000000000000000000000A4                 
7560001300300U 020000000000000000000000000000000000000000000000000000000000000000000000000000000000000000000000000000000000000000000000001609202000000000    00000000000000000000000                              75600000000000000000000       
7560001300301T 0204609000000000793400001123060501014     119300000000000005042021000000000006500756046090ANDRESSA DOS SANTOS MIRAN091000090291441220ANDRESSA DOS SANTOS MIRANDA             000000000000000000000000000000000A4                 
7560001300302U 020000000000000000000000000000000000000000000000000000000000000000000000000000000000000000000000000000000000000000000000001609202000000000    00000000000000000000000                              75600000000000000000000       
7560001300303T 0204609000000000793400001123061201014     122700000000000005052021000000000006500756046090ANDRESSA DOS SANTOS MIRAN091000090291441220ANDRESSA DOS SANTOS MIRANDA             000000000000000000000000000000000A4                 
7560001300304U 020000000000000000000000000000000000000000000000000000000000000000000000000000000000000000000000000000000000000000000000001609202000000000    00000000000000000000000                              75600000000000000000000       
7560001300305T 0204609000000000793400001123062001014     125900000000000005062021000000000006500756046090ANDRESSA DOS SANTOS MIRAN091000090291441220ANDRESSA DOS SANTOS MIRANDA             000000000000000000000000000000000A4                 
7560001300306U 020000000000000000000000000000000000000000000000000000000000000000000000000000000000000000000000000000000000000000000000001609202000000000    00000000000000000000000                              75600000000000000000000       
7560001300307T 0204609000000000793400001123063701014     129100000000000005072021000000000006500756046090ANDRESSA DOS SANTOS MIRAN091000090291441220ANDRESSA DOS SANTOS MIRANDA             000000000000000000000000000000000A4                 
7560001300308U 020000000000000000000000000000000000000000000000000000000000000000000000000000000000000000000000000000000000000000000000001609202000000000    00000000000000000000000                              75600000000000000000000       
7560001300309T 0204609000000000793400001123064401014     132500000000000005082021000000000006500756046090ANDRESSA DOS SANTOS MIRAN091000090291441220ANDRESSA DOS SANTOS MIRANDA             000000000000000000000000000000000A4                 
7560001300310U 020000000000000000000000000000000000000000000000000000000000000000000000000000000000000000000000000000000000000000000000001609202000000000    00000000000000000000000                              75600000000000000000000       
7560001300311T 0204609000000000793400001123065101014     135700000000000005092021000000000006500756046090ANDRESSA DOS SANTOS MIRAN091000090291441220ANDRESSA DOS SANTOS MIRANDA             000000000000000000000000000000000A4                 
7560001300312U 020000000000000000000000000000000000000000000000000000000000000000000000000000000000000000000000000000000000000000000000001609202000000000    00000000000000000000000                              75600000000000000000000       
7560001300313T 0204609000000000793400001123067601014     150000000000000005102020000000000006500756046090MARLY ROSSATO MARQUES    091000028336593268MARLY ROSSATO MARQUES                   000000000000000000000000000000000A4                 
7560001300314U 020000000000000000000000000000000000000000000000000000000000000000000000000000000000000000000000000000000000000000000000001609202000000000    00000000000000000000000                              75600000000000000000000       
7560001300315T 0204609000000000793400001123068301014     137000000000000005112020000000000006500756046090MARLY ROSSATO MARQUES    091000028336593268MARLY ROSSATO MARQUES                   000000000000000000000000000000000A4                 
7560001300316U 020000000000000000000000000000000000000000000000000000000000000000000000000000000000000000000000000000000000000000000000001609202000000000    00000000000000000000000                              75600000000000000000000       
7560001300317T 0204609000000000793400001123069001014     165000000000000005122020000000000006500756046090MARLY ROSSATO MARQUES    091000028336593268MARLY ROSSATO MARQUES                   000000000000000000000000000000000A4                 
7560001300318U 020000000000000000000000000000000000000000000000000000000000000000000000000000000000000000000000000000000000000000000000001609202000000000    00000000000000000000000                              75600000000000000000000       
7560001300319T 0204609000000000793400001123070901014     197000000000000005012021000000000006500756046090MARLY ROSSATO MARQUES    091000028336593268MARLY ROSSATO MARQUES                   000000000000000000000000000000000A4                 
7560001300320U 020000000000000000000000000000000000000000000000000000000000000000000000000000000000000000000000000000000000000000000000001609202000000000    00000000000000000000000                              75600000000000000000000       
7560001300321T 0204609000000000793400001123071601014     113100000000000005022021000000000006500756046090MARLY ROSSATO MARQUES    091000028336593268MARLY ROSSATO MARQUES                   000000000000000000000000000000000A4                 
7560001300322U 020000000000000000000000000000000000000000000000000000000000000000000000000000000000000000000000000000000000000000000000001609202000000000    00000000000000000000000                              75600000000000000000000       
7560001300323T 0204609000000000793400001123072301014     116100000000000005032021000000000006500756046090MARLY ROSSATO MARQUES    091000028336593268MARLY ROSSATO MARQUES                   000000000000000000000000000000000A4                 
7560001300324U 020000000000000000000000000000000000000000000000000000000000000000000000000000000000000000000000000000000000000000000000001609202000000000    00000000000000000000000                              75600000000000000000000       
7560001300325T 0204609000000000793400001123073001014     119500000000000005042021000000000006500756046090MARLY ROSSATO MARQUES    091000028336593268MARLY ROSSATO MARQUES                   000000000000000000000000000000000A4                 
7560001300326U 020000000000000000000000000000000000000000000000000000000000000000000000000000000000000000000000000000000000000000000000001609202000000000    00000000000000000000000                              75600000000000000000000       
7560001300327T 0204609000000000793400001123074801014     122900000000000005052021000000000006500756046090MARLY ROSSATO MARQUES    091000028336593268MARLY ROSSATO MARQUES                   000000000000000000000000000000000A4                 
7560001300328U 020000000000000000000000000000000000000000000000000000000000000000000000000000000000000000000000000000000000000000000000001609202000000000    00000000000000000000000                              75600000000000000000000       
7560001300329T 0204609000000000793400001123075501014     125700000000000005062021000000000006500756046090MARLY ROSSATO MARQUES    091000028336593268MARLY ROSSATO MARQUES                   000000000000000000000000000000000A4                 
7560001300330U 020000000000000000000000000000000000000000000000000000000000000000000000000000000000000000000000000000000000000000000000001609202000000000    00000000000000000000000                              75600000000000000000000       
7560001300331T 0204609000000000793400001123076201014     129500000000000005072021000000000006500756046090MARLY ROSSATO MARQUES    091000028336593268MARLY ROSSATO MARQUES                   000000000000000000000000000000000A4                 
7560001300332U 020000000000000000000000000000000000000000000000000000000000000000000000000000000000000000000000000000000000000000000000001609202000000000    00000000000000000000000                              75600000000000000000000       
7560001300333T 0204609000000000793400001123077001014     132700000000000005082021000000000006500756046090MARLY ROSSATO MARQUES    091000028336593268MARLY ROSSATO MARQUES                   000000000000000000000000000000000A4                 
7560001300334U 020000000000000000000000000000000000000000000000000000000000000000000000000000000000000000000000000000000000000000000000001609202000000000    00000000000000000000000                              75600000000000000000000       
7560001300335T 0204609000000000793400001123078701014     135300000000000005092021000000000006500756046090MARLY ROSSATO MARQUES    091000028336593268MARLY ROSSATO MARQUES                   000000000000000000000000000000000A4                 
7560001300336U 020000000000000000000000000000000000000000000000000000000000000000000000000000000000000000000000000000000000000000000000001609202000000000    00000000000000000000000                              75600000000000000000000       
7560001300337T 0204609000000000793400001123080201014     119000000000000010102020000000000006500756046090ULISSES SANTOS CARNEIRO  091000071388524287ULISSES SANTOS CARNEIRO                 000000000000000000000000000000000A4                 
7560001300338U 020000000000000000000000000000000000000000000000000000000000000000000000000000000000000000000000000000000000000000000000001609202000000000    00000000000000000000000                              75600000000000000000000       
7560001300339T 0204609000000000793400001123081001014     147000000000000010112020000000000006500756046090ULISSES SANTOS CARNEIRO  091000071388524287ULISSES SANTOS CARNEIRO                 000000000000000000000000000000000A4                 
7560001300340U 020000000000000000000000000000000000000000000000000000000000000000000000000000000000000000000000000000000000000000000000001609202000000000    00000000000000000000000                              75600000000000000000000       
7560001300341T 0204609000000000793400001123082701014     175000000000000010122020000000000006500756046090ULISSES SANTOS CARNEIRO  091000071388524287ULISSES SANTOS CARNEIRO                 000000000000000000000000000000000A4                 
7560001300342U 020000000000000000000000000000000000000000000000000000000000000000000000000000000000000000000000000000000000000000000000001609202000000000    00000000000000000000000                              75600000000000000000000       
7560001300343T 0204609000000000793400001123083401014     110500000000000010012021000000000006500756046090ULISSES SANTOS CARNEIRO  091000071388524287ULISSES SANTOS CARNEIRO                 000000000000000000000000000000000A4                 
7560001300344U 020000000000000000000000000000000000000000000000000000000000000000000000000000000000000000000000000000000000000000000000001609202000000000    00000000000000000000000                              75600000000000000000000       
7560001300345T 0204609000000000793400001123084101014     115700000000000010022021000000000006500756046090ULISSES SANTOS CARNEIRO  091000071388524287ULISSES SANTOS CARNEIRO                 000000000000000000000000000000000A4                 
7560001300346U 020000000000000000000000000000000000000000000000000000000000000000000000000000000000000000000000000000000000000000000000001609202000000000    00000000000000000000000                              75600000000000000000000       
7560001300347T 0204609000000000793400001123085901014     118300000000000010032021000000000006500756046090ULISSES SANTOS CARNEIRO  091000071388524287ULISSES SANTOS CARNEIRO                 000000000000000000000000000000000A4                 
7560001300348U 020000000000000000000000000000000000000000000000000000000000000000000000000000000000000000000000000000000000000000000000001609202000000000    00000000000000000000000                              75600000000000000000000       
7560001300349T 0204609000000000793400001123086601014     121300000000000010042021000000000006500756046090ULISSES SANTOS CARNEIRO  091000071388524287ULISSES SANTOS CARNEIRO                 000000000000000000000000000000000A4                 
7560001300350U 020000000000000000000000000000000000000000000000000000000000000000000000000000000000000000000000000000000000000000000000001609202000000000    00000000000000000000000                              75600000000000000000000       
7560001300351T 0204609000000000793400001123087301014     124900000000000010052021000000000006500756046090ULISSES SANTOS CARNEIRO  091000071388524287ULISSES SANTOS CARNEIRO                 000000000000000000000000000000000A4                 
7560001300352U 020000000000000000000000000000000000000000000000000000000000000000000000000000000000000000000000000000000000000000000000001609202000000000    00000000000000000000000                              75600000000000000000000       
7560001300353T 0204609000000000793400001123088001014     127500000000000010062021000000000006500756046090ULISSES SANTOS CARNEIRO  091000071388524287ULISSES SANTOS CARNEIRO                 000000000000000000000000000000000A4                 
7560001300354U 020000000000000000000000000000000000000000000000000000000000000000000000000000000000000000000000000000000000000000000000001609202000000000    00000000000000000000000                              75600000000000000000000       
7560001300355T 0204609000000000793400001123089801014     130500000000000010072021000000000006500756046090ULISSES SANTOS CARNEIRO  091000071388524287ULISSES SANTOS CARNEIRO                 000000000000000000000000000000000A4                 
7560001300356U 020000000000000000000000000000000000000000000000000000000000000000000000000000000000000000000000000000000000000000000000001609202000000000    00000000000000000000000                              75600000000000000000000       
7560001300357T 0204609000000000793400001123090601014     134900000000000010082021000000000006500756046090ULISSES SANTOS CARNEIRO  091000071388524287ULISSES SANTOS CARNEIRO                 000000000000000000000000000000000A4                 
7560001300358U 020000000000000000000000000000000000000000000000000000000000000000000000000000000000000000000000000000000000000000000000001609202000000000    00000000000000000000000                              75600000000000000000000       
7560001300359T 0204609000000000793400001123091301014     136900000000000010092021000000000006500756046090ULISSES SANTOS CARNEIRO  091000071388524287ULISSES SANTOS CARNEIRO                 000000000000000000000000000000000A4                 
7560001300360U 020000000000000000000000000000000000000000000000000000000000000000000000000000000000000000000000000000000000000000000000001609202000000000    00000000000000000000000                              75600000000000000000000       
7560001300361T 0204609000000000793400001123093801014     129000000000000010102020000000000006500756046090BASILIA PEREIRA DE MESQUI091000096918020234BASILIA PEREIRA DE MESQUITA             000000000000000000000000000000000A4                 
7560001300362U 020000000000000000000000000000000000000000000000000000000000000000000000000000000000000000000000000000000000000000000000001609202000000000    00000000000000000000000                              75600000000000000000000       
7560001300363T 0204609000000000793400001123094501014     145000000000000010112020000000000006500756046090BASILIA PEREIRA DE MESQUI091000096918020234BASILIA PEREIRA DE MESQUITA             000000000000000000000000000000000A4                 
7560001300364U 020000000000000000000000000000000000000000000000000000000000000000000000000000000000000000000000000000000000000000000000001609202000000000    00000000000000000000000                              75600000000000000000000       
7560001300365T 0204609000000000793400001123095201014     195000000000000010122020000000000006500756046090BASILIA PEREIRA DE MESQUI091000096918020234BASILIA PEREIRA DE MESQUITA             000000000000000000000000000000000A4                 
7560001300366U 020000000000000000000000000000000000000000000000000000000000000000000000000000000000000000000000000000000000000000000000001609202000000000    00000000000000000000000                              75600000000000000000000       
7560001300367T 0204609000000000793400001123096001014     112100000000000010012021000000000006500756046090BASILIA PEREIRA DE MESQUI091000096918020234BASILIA PEREIRA DE MESQUITA             000000000000000000000000000000000A4                 
7560001300368U 020000000000000000000000000000000000000000000000000000000000000000000000000000000000000000000000000000000000000000000000001609202000000000    00000000000000000000000                              75600000000000000000000       
7560001300369T 0204609000000000793400001123097701014     113900000000000010022021000000000006500756046090BASILIA PEREIRA DE MESQUI091000096918020234BASILIA PEREIRA DE MESQUITA             000000000000000000000000000000000A4                 
7560001300370U 020000000000000000000000000000000000000000000000000000000000000000000000000000000000000000000000000000000000000000000000001609202000000000    00000000000000000000000                              75600000000000000000000       
7560001300371T 0204609000000000793400001123098401014     117500000000000010032021000000000006500756046090BASILIA PEREIRA DE MESQUI091000096918020234BASILIA PEREIRA DE MESQUITA             000000000000000000000000000000000A4                 
7560001300372U 020000000000000000000000000000000000000000000000000000000000000000000000000000000000000000000000000000000000000000000000001609202000000000    00000000000000000000000                              75600000000000000000000       
7560001300373T 0204609000000000793400001123099101014     121500000000000010042021000000000006500756046090BASILIA PEREIRA DE MESQUI091000096918020234BASILIA PEREIRA DE MESQUITA             000000000000000000000000000000000A4                 
7560001300374U 020000000000000000000000000000000000000000000000000000000000000000000000000000000000000000000000000000000000000000000000001609202000000000    00000000000000000000000                              75600000000000000000000       
7560001300375T 0204609000000000793400001123100501014     125100000000000010052021000000000006500756046090BASILIA PEREIRA DE MESQUI091000096918020234BASILIA PEREIRA DE MESQUITA             000000000000000000000000000000000A4                 
7560001300376U 020000000000000000000000000000000000000000000000000000000000000000000000000000000000000000000000000000000000000000000000001609202000000000    00000000000000000000000                              75600000000000000000000       
7560001300377T 0204609000000000793400001123101201014     128700000000000010062021000000000006500756046090BASILIA PEREIRA DE MESQUI091000096918020234BASILIA PEREIRA DE MESQUITA             000000000000000000000000000000000A4                 
7560001300378U 020000000000000000000000000000000000000000000000000000000000000000000000000000000000000000000000000000000000000000000000001609202000000000    00000000000000000000000                              75600000000000000000000       
7560001300379T 0204609000000000793400001123102001014     129700000000000010072021000000000006500756046090BASILIA PEREIRA DE MESQUI091000096918020234BASILIA PEREIRA DE MESQUITA             000000000000000000000000000000000A4                 
7560001300380U 020000000000000000000000000000000000000000000000000000000000000000000000000000000000000000000000000000000000000000000000001609202000000000    00000000000000000000000                              75600000000000000000000       
7560001300381T 0204609000000000793400001123103701014     133100000000000010082021000000000006500756046090BASILIA PEREIRA DE MESQUI091000096918020234BASILIA PEREIRA DE MESQUITA             000000000000000000000000000000000A4                 
7560001300382U 020000000000000000000000000000000000000000000000000000000000000000000000000000000000000000000000000000000000000000000000001609202000000000    00000000000000000000000                              75600000000000000000000       
7560001300383T 0204609000000000793400001123104401014     136500000000000010092021000000000006500756046090BASILIA PEREIRA DE MESQUI091000096918020234BASILIA PEREIRA DE MESQUITA             000000000000000000000000000000000A4                 
7560001300384U 020000000000000000000000000000000000000000000000000000000000000000000000000000000000000000000000000000000000000000000000001609202000000000    00000000000000000000000                              75600000000000000000000       
7560001300385T 1104609000000000793400001115822001014     112910000000000016092020000000000006500756046090THIAGO MARTINS DE SOUZA  091000011127168746SALUTE                                  00000000000000000000000000000000000                 
7560001300386U 110000000000000000000000000000000000000000000000000000000000000000000000000000000000000000000000000000000000000000000000001609202000000000    00000000000000000000000                              75600000000000000000000       
7560001300387T 0304609000000000793400001115522501014     110000000000000010092020000000000157750756046090LABORATORIO DE ANALISES C091000061707000182LABORATORIO DE ANALISES CLINICAS BIOTEST00000000000000000000000000000000046                 
7560001300388U 030000000000000000000000000000000000000000000000000000000000000000000000000000000000000000000000000000000000000000000000001609202000000000    00000000000000000000000                              75600000000000000000000       
7560001300389T 0304609000000000793400001115523201014     130000000000000010102020000000000157750756046090LABORATORIO DE ANALISES C091000061707000182LABORATORIO DE ANALISES CLINICAS BIOTEST00000000000000000000000000000000046                 
7560001300390U 030000000000000000000000000000000000000000000000000000000000000000000000000000000000000000000000000000000000000000000000001609202000000000    00000000000000000000000                              75600000000000000000000       
7560001300391T 0304609000000000793400001115524001014     170000000000000010112020000000000157750756046090LABORATORIO DE ANALISES C091000061707000182LABORATORIO DE ANALISES CLINICAS BIOTEST00000000000000000000000000000000046                 
7560001300392U 030000000000000000000000000000000000000000000000000000000000000000000000000000000000000000000000000000000000000000000000001609202000000000    00000000000000000000000                              75600000000000000000000       
7560001300393T 0304609000000000793400001115525701014     113000000000000010122020000000000157750756046090LABORATORIO DE ANALISES C091000061707000182LABORATORIO DE ANALISES CLINICAS BIOTEST00000000000000000000000000000000046                 
7560001300394U 030000000000000000000000000000000000000000000000000000000000000000000000000000000000000000000000000000000000000000000000001609202000000000    00000000000000000000000                              75600000000000000000000       
7560001300395T 0304609000000000793400001115526401014     115000000000000010012021000000000157750756046090LABORATORIO DE ANALISES C091000061707000182LABORATORIO DE ANALISES CLINICAS BIOTEST00000000000000000000000000000000046                 
7560001300396U 030000000000000000000000000000000000000000000000000000000000000000000000000000000000000000000000000000000000000000000000001609202000000000    00000000000000000000000                              75600000000000000000000       
7560001300397T 0304609000000000793400001115527101014     119000000000000010022021000000000157750756046090LABORATORIO DE ANALISES C091000061707000182LABORATORIO DE ANALISES CLINICAS BIOTEST00000000000000000000000000000000046                 
7560001300398U 030000000000000000000000000000000000000000000000000000000000000000000000000000000000000000000000000000000000000000000000001609202000000000    00000000000000000000000                              75600000000000000000000       
7560001300399T 0304609000000000793400001115528901014     125000000000000010032021000000000157750756046090LABORATORIO DE ANALISES C091000061707000182LABORATORIO DE ANALISES CLINICAS BIOTEST00000000000000000000000000000000046                 
7560001300400U 030000000000000000000000000000000000000000000000000000000000000000000000000000000000000000000000000000000000000000000000001609202000000000    00000000000000000000000                              75600000000000000000000       
7560001300401T 0304609000000000793400001115529601014     127000000000000010042021000000000157750756046090LABORATORIO DE ANALISES C091000061707000182LABORATORIO DE ANALISES CLINICAS BIOTEST00000000000000000000000000000000046                 
7560001300402U 030000000000000000000000000000000000000000000000000000000000000000000000000000000000000000000000000000000000000000000000001609202000000000    00000000000000000000000                              75600000000000000000000       
7560001300403T 0304609000000000793400001118240001014     150000000000000010102020000000000065000756046090INVIOLAVEL               091000084388000185INVIOLAVEL                              00000000000000000000000000000000046                 
7560001300404U 030000000000000000000000000000000000000000000000000000000000000000000000000000000000000000000000000000000000000000000000001609202000000000    00000000000000000000000                              75600000000000000000000       
7560001300405T 0304609000000000793400001118241701014     190000000000000010112020000000000065000756046090INVIOLAVEL               091000084388000185INVIOLAVEL                              00000000000000000000000000000000046                 
7560001300406U 030000000000000000000000000000000000000000000000000000000000000000000000000000000000000000000000000000000000000000000000001609202000000000    00000000000000000000000                              75600000000000000000000       
7560001300407T 0304609000000000793400001118242401014     111000000000000010122020000000000065000756046090INVIOLAVEL               091000084388000185INVIOLAVEL                              00000000000000000000000000000000046                 
7560001300408U 030000000000000000000000000000000000000000000000000000000000000000000000000000000000000000000000000000000000000000000000001609202000000000    00000000000000000000000                              75600000000000000000000       
7560001300409T 0304609000000000793400001118243101014     117000000000000010012021000000000065000756046090INVIOLAVEL               091000084388000185INVIOLAVEL                              00000000000000000000000000000000046                 
7560001300410U 030000000000000000000000000000000000000000000000000000000000000000000000000000000000000000000000000000000000000000000000001609202000000000    00000000000000000000000                              75600000000000000000000       
7560001300411T 0304609000000000793400001118244901014     121000000000000010022021000000000065000756046090INVIOLAVEL               091000084388000185INVIOLAVEL                              00000000000000000000000000000000046                 
