75600000         235812309000160                    04609000000000793400SALUTE ATIVIDADES DE INTERMEDISICOOB                                  21410202017314600006908500000                                                                     
75600011T01  043 2035812309000160          460900000804609000000000793400SALUTE ATIVIDADES DE INTERMEDI                                                                                000000001410202000000000                                 
7560001300001T 0904609000000000793400000000001301014     119000000000000010102020000000000006500756046090CELIMAR DA ROCHA SOUZA   091000095574930200CELIMAR DA ROCHA SOUZA                  00000000000000000000000100000000013                 
7560001300002U 090000000000000000000000000000000000000000000000000000000000000000000000000000000000000000000000000000000000000000000000001310202000000000    00000000000000000000000                        20267375600000000000000000000       
7560001300003T 0904609000000000793400000000005201014     121000000000000010102020000000000006500756046090GABRIELA DIAS SARAIVA POM091000001714609286GABRIELA DIAS SARAIVA POMPEU            00000000000000000000000100000000013                 
7560001300004U 090000000000000000000000000000000000000000000000000000000000000000000000000000000000000000000000000000000000000000000000001310202000000000    00000000000000000000000                        20267475600000000000000000000       
7560001300005T 0904609000000000793400000000009101014     131000000000000010102020000000000006500756046090JOSIANE FREITAS VIDAL    091000005032602230JOSIANE FREITAS VIDAL                   00000000000000000000000100000000013                 
7560001300006U 090000000000000000000000000000000000000000000000000000000000000000000000000000000000000000000000000000000000000000000000001310202000000000    00000000000000000000000                        20267575600000000000000000000       
7560001300007T 0904609000000000793400000000011701014     133000000000000010102020000000000006500756046090LEOCY ALVES PIMENTEL     091000057310769287LEOCY ALVES PIMENTEL                    00000000000000000000000100000000013                 
7560001300008U 090000000000000000000000000000000000000000000000000000000000000000000000000000000000000000000000000000000000000000000000001310202000000000    00000000000000000000000                        20267675600000000000000000000       
7560001300009T 0904609000000000793400000000019501014     125000000000000010102020000000000006500756046090UELLITON FERREIRA DE GODO091000060803797249UELLITON FERREIRA DE GODOY              00000000000000000000000100000000013                 
7560001300010U 090000000000000000000000000000000000000000000000000000000000000000000000000000000000000000000000000000000000000000000000001310202000000000    00000000000000000000000                        20267775600000000000000000000       
7560001300011T 0904609000000000793400000000023501014     139000000000000010102020000000000006500756046090CLEMILTO DE JESUS ARAUJO 091000051760355291CLEMILTO DE JESUS ARAUJO                00000000000000000000000100000000013                 
7560001300012U 090000000000000000000000000000000000000000000000000000000000000000000000000000000000000000000000000000000000000000000000001310202000000000    00000000000000000000000                        20267875600000000000000000000       
7560001300013T 0904609000000000793400000000027401014     170000000000000010102020000000000006500756046090IVERLANDIA DA SILVA CHAVE091000039857182291IVERLANDIA DA SILVA CHAVES              00000000000000000000000100000000013                 
7560001300014U 090000000000000000000000000000000000000000000000000000000000000000000000000000000000000000000000000000000000000000000000001310202000000000    00000000000000000000000                        20267975600000000000000000000       
7560001300015T 0904609000000000793400000000035301014     113000000000000010102020000000000006500756046090NILTON CAETANO DE SOUZA  091000067691420234NILTON CAETANO DE SOUZA                 00000000000000000000000100000000013                 
7560001300016U 090000000000000000000000000000000000000000000000000000000000000000000000000000000000000000000000000000000000000000000000001310202000000000    00000000000000000000000                        20268075600000000000000000000       
7560001300017T 0904609000000000793400000000037801014     129000000000000010102020000000000006500756046090ROSENIR RIBEIRO ALMEIDA  091000016830857287ROSENIR RIBEIRO ALMEIDA                 00000000000000000000000100000000013                 
7560001300018U 090000000000000000000000000000000000000000000000000000000000000000000000000000000000000000000000000000000000000000000000001310202000000000    00000000000000000000000                        20268175600000000000000000000       
7560001300019T 0904609000000000793400000000202401014     115000000000000010102020000000000006500756046090CINTHIA RILLERI ALVES OLI091000006089988260CINTHIA RILLERI ALVES OLIVEIRA          00000000000000000000000100000000013                 
7560001300020U 090000000000000000000000000000000000000000000000000000000000000000000000000000000000000000000000000000000000000000000000001310202000000000    00000000000000000000000                        20268275600000000000000000000       
7560001300021T 0904609000000000793400000000206301014     141000000000000010102020000000000006500756046090GRACIETE DE JESUS MENEZES091000038014645200GRACIETE DE JESUS MENEZES               00000000000000000000000100000000013                 
7560001300022U 090000000000000000000000000000000000000000000000000000000000000000000000000000000000000000000000000000000000000000000000001310202000000000    00000000000000000000000                        20268375600000000000000000000       
7560001300023T 0904609000000000793400000000208801014     190000000000000010102020000000000006500756046090JOSE ROBERTO MORAES PIRES091000063739801204JOSE ROBERTO MORAES PIRES               00000000000000000000000100000000013                 
7560001300024U 090000000000000000000000000000000000000000000000000000000000000000000000000000000000000000000000000000000000000000000000001310202000000000    00000000000000000000000                        20268475600000000000000000000       
7560001300025T 0904609000000000793400000000214201014     127000000000000010102020000000000006500756046090MARYELLE DA SILVA BARROS 091000070059467231MARYELLE DA SILVA BARROS                00000000000000000000000100000000013                 
7560001300026U 090000000000000000000000000000000000000000000000000000000000000000000000000000000000000000000000000000000000000000000000001310202000000000    00000000000000000000000                        20268575600000000000000000000       
7560001300027T 0904609000000000793400000000216701014     111000000000000010102020000000000006500756046090PRISCILA PABULA NUNES CHA091000089555058253PRISCILA PABULA NUNES CHAVES            00000000000000000000000100000000013                 
7560001300028U 090000000000000000000000000000000000000000000000000000000000000000000000000000000000000000000000000000000000000000000000001310202000000000    00000000000000000000000                        20268675600000000000000000000       
7560001300029T 0904609000000000793400000000220701014     137000000000000010102020000000000006500756046090WILLIAM ANDRADE COSTA    091000008758700153WILLIAM ANDRADE COSTA                   00000000000000000000000100000000013                 
7560001300030U 090000000000000000000000000000000000000000000000000000000000000000000000000000000000000000000000000000000000000000000000001310202000000000    00000000000000000000000                        20268775600000000000000000000       
7560001300031T 0904609000000000793400000000224601014     117000000000000010102020000000000006500756046090CLEUMA GOMES RODRIGUES   091000014611589234CLEUMA GOMES RODRIGUES                  00000000000000000000000100000000013                 
7560001300032U 090000000000000000000000000000000000000000000000000000000000000000000000000000000000000000000000000000000000000000000000001310202000000000    00000000000000000000000                        20268875600000000000000000000       
7560001300033T 0904609000000000793400000000230001014     123000000000000010102020000000000006500756046090KATIA ELOIZE ARAUJO LIMA 091000001187497223KATIA ELOIZE ARAUJO LIMA                00000000000000000000000100000000013                 
7560001300034U 090000000000000000000000000000000000000000000000000000000000000000000000000000000000000000000000000000000000000000000000001310202000000000    00000000000000000000000                        20268975600000000000000000000       
7560001300035T 0904609000000000793400000000238901014     135000000000000010102020000000000006500756046090THIAGO OLIVEIRA DA SILVA 091000067070256272THIAGO OLIVEIRA DA SILVA                00000000000000000000000100000000013                 
7560001300036U 090000000000000000000000000000000000000000000000000000000000000000000000000000000000000000000000000000000000000000000000001310202000000000    00000000000000000000000                        20269075600000000000000000000       
7560001300037T 0904609000000000793400001115665301014     115410000000000008102020000000000006500756046090ANGELUS DE SOUZA RIBEIRO 091000052050432291SALUTE                                  00000000000000000000000100000000013                 
7560001300038U 090000000000000000000000000000000000000000000000000000000000000000000000000000000000000000000000000000000000000000000000000910202000000000    00000000000000000000000                        20114075600000000000000000000       
7560001300039T 0904609000000000793400001115677101014     118990000000000011102020000000000006500756046090ROGACIANIO NOGUEIRA DA SI091000064074811200SALUTE                                  00000000000000000000000100000000013                 
7560001300040U 090000000000000000000000000000000000000000000000000000000000000000000000000000000000000000000000000000000000000000000000001310202000000000    00000000000000000000000                        20269175600000000000000000000       
7560001300041T 0904609000000000793400001115690801014     118970000000000011102020000000000006500756046090ANA PAULA FERNANDES PRADO091000000759497257SALUTE                                  00000000000000000000000100000000013                 
7560001300042U 090000000000000000000000000000000000000000000000000000000000000000000000000000000000000000000000000000000000000000000000001310202000000000    00000000000000000000000                        20269275600000000000000000000       
7560001300043T 0904609000000000793400001115704601014     119070000000000012102020000000000006500756046090PUBLIO THALES MACEDO DUTR091000025577336287SALUTE                                  00000000000000000000000100000000013                 
7560001300044U 090000000000000000000000000000000000000000000000000000000000000000000000000000000000000000000000000000000000000000000000001310202000000000    00000000000000000000000                        20269375600000000000000000000       
7560001300045T 0904609000000000793400001115717101014     119110000000000012102020000000000007000756046090ANTONIA APARECIDA DE JESU091000001447329201SALUTE                                  00000000000000000000000100000000013                 
7560001300046U 090000000000000000000000000000000000000000000000000000000000000000000000000000000000000000000000000000000000000000000000001310202000000000    00000000000000000000000                        20269475600000000000000000000       
7560001300047T 0904609000000000793400001115732201014     119090000000000012102020000000000006500756046090LUIS JOAQUIM DE SOUSA    091000028676157391SALUTE                                  00000000000000000000000100000000013                 
7560001300048U 090000000000000000000000000000000000000000000000000000000000000000000000000000000000000000000000000000000000000000000000001310202000000000    00000000000000000000000                        20269575600000000000000000000       
7560001300049T 0904609000000000793400001115745801014     119210000000000012102020000000000006750756046090PAULIANE DOS PRAZERES ROD091000002333371218SALUTE                                  00000000000000000000000100000000013                 
7560001300050U 090000000000000000000000000000000000000000000000000000000000000000000000000000000000000000000000000000000000000000000000001310202000000000    00000000000000000000000                        20269675600000000000000000000       
7560001300051T 0604609000000000793400001116641601014     118750000000000010102020000000000006500104035910LUIZ GOMES NETO          091000009025936253SALUTE                                  00000000000000000000001550000000004                 
7560001300052U 060000000000000000000000000000000000000000000000000000000000000000000000065000000000000065000000000000000000000000000000001310202000000000    00000000000000000000000                        20220775600000000000000000000       
7560001300053T 0904609000000000793400001117031001014     118690000000000010102020000000000006500756046090DAVID REIS SANTOS        091000085692301253SALUTE                                  00000000000000000000000100000000013                 
7560001300054U 090000000000000000000000000000000000000000000000000000000000000000000000000000000000000000000000000000000000000000000000001310202000000000    00000000000000000000000                        20269775600000000000000000000       
7560001300055T 0904609000000000793400001117135101014     115450000000000008102020000000000006500756046090YASSER RODRIGUES DA SILVA091000002378923163SALUTE                                  00000000000000000000000100000000013                 
7560001300056U 090000000000000000000000000000000000000000000000000000000000000000000000000000000000000000000000000000000000000000000000000910202000000000    00000000000000000000000                        20114175600000000000000000000       
7560001300057T 0904609000000000793400001117148701014     115430000000000008102020000000000006500756046090LEVY ALBINO FARIAS       091000005028558272SALUTE                                  00000000000000000000000100000000013                 
7560001300058U 090000000000000000000000000000000000000000000000000000000000000000000000000000000000000000000000000000000000000000000000000910202000000000    00000000000000000000000                        20114275600000000000000000000       
7560001300059T 0604609000000000793400001117161301014     116870000000000010102020000000000006500633000010ANTONIO LUIZ BARBOSA SOAR091000027741397249SALUTE                                  00000000000000000000001550000000004                 
7560001300060U 060000000000000000000000000000000000000000000000000000000000000000000000065000000000000065000000000000000000000000000000000910202013102020    00000000000000000000000                        20094075600000000000000000000       
7560001300061T 0904609000000000793400001117174901014     115490000000000008102020000000000006500756046090NOEMISIA ALVES DE ABREU  091000003893324291SALUTE                                  00000000000000000000000100000000013                 
7560001300062U 090000000000000000000000000000000000000000000000000000000000000000000000000000000000000000000000000000000000000000000000000910202000000000    00000000000000000000000                        20114375600000000000000000000       
7560001300063T 0904609000000000793400001117187401014     115470000000000008102020000000000006500756046090MAX LIMA CHIAPETA        091000005517619703SALUTE                                  00000000000000000000000100000000013                 
7560001300064U 090000000000000000000000000000000000000000000000000000000000000000000000000000000000000000000000000000000000000000000000000910202000000000    00000000000000000000000                        20114475600000000000000000000       
7560001300065T 0904609000000000793400001117200601014     115390000000000008102020000000000006500756046090MICHAEL JHONNE OLIVEIRA S091000076315347215SALUTE                                  00000000000000000000000100000000013                 
7560001300066U 090000000000000000000000000000000000000000000000000000000000000000000000000000000000000000000000000000000000000000000000000910202000000000    00000000000000000000000                        20114575600000000000000000000       
7560001300067T 0904609000000000793400001117239201014     115530000000000009102020000000000006500756046090EDINALDO FERNANDES DA SIL091000086873849120SALUTE                                  00000000000000000000000100000000013                 
7560001300068U 090000000000000000000000000000000000000000000000000000000000000000000000000000000000000000000000000000000000000000000000001310202000000000    00000000000000000000000                        20269875600000000000000000000       
7560001300069T 0904609000000000793400001117252901014     115610000000000010102020000000000006500756046090PEDRO DO NASCIMENTO MELO 091000025896784287SALUTE                                  00000000000000000000000100000000013                 
7560001300070U 090000000000000000000000000000000000000000000000000000000000000000000000000000000000000000000000000000000000000000000000001310202000000000    00000000000000000000000                        20269975600000000000000000000       
7560001300071T 0904609000000000793400001117265401014     115550000000000009102020000000000006500756046090ZENON GOMES DE ABREU     091000058277315600SALUTE                                  00000000000000000000000100000000013                 
7560001300072U 090000000000000000000000000000000000000000000000000000000000000000000000000000000000000000000000000000000000000000000000001310202000000000    00000000000000000000000                        20270075600000000000000000000       
7560001300073T 0904609000000000793400001117279701014     116510000000000010102020000000000006500756046090FRANCISCA ARLENE DA SILVA091000073545341291SALUTE                                  00000000000000000000000100000000013                 
7560001300074U 090000000000000000000000000000000000000000000000000000000000000000000000000000000000000000000000000000000000000000000000001310202000000000    00000000000000000000000                        20270175600000000000000000000       
7560001300075T 0904609000000000793400001117291601014     116830000000000010102020000000000006500756046090JOELIA MARIA ANTUNES MORE091000085037290759SALUTE                                  00000000000000000000000100000000013                 
7560001300076U 090000000000000000000000000000000000000000000000000000000000000000000000000000000000000000000000000000000000000000000000001310202000000000    00000000000000000000000                        20270275600000000000000000000       
7560001300077T 0904609000000000793400001117304701014     117890000000000010102020000000000007000756046090KEDIMA  VELOZO DE CASTRO 091000070762732253SALUTE                                  00000000000000000000000100000000013                 
7560001300078U 090000000000000000000000000000000000000000000000000000000000000000000000000000000000000000000000000000000000000000000000001310202000000000    00000000000000000000000                        20270375600000000000000000000       
7560001300079T 0904609000000000793400001117317201014     118530000000000010102020000000000006500756046090LAIOMAR DOS SANTOS PEREIR091000005062024374SALUTE                                  00000000000000000000000100000000013                 
7560001300080U 090000000000000000000000000000000000000000000000000000000000000000000000000000000000000000000000000000000000000000000000001310202000000000    00000000000000000000000                        20270475600000000000000000000       
7560001300081T 0904609000000000793400001117330901014     117710000000000010102020000000000006500756046090WALLDIROSHY PEDRA GURGEL 091000048084204220SALUTE                                  00000000000000000000000100000000013                 
7560001300082U 090000000000000000000000000000000000000000000000000000000000000000000000000000000000000000000000000000000000000000000000001310202000000000    00000000000000000000000                        20270575600000000000000000000       
7560001300083T 0904609000000000793400001117343401014     117910000000000010102020000000000006500756046090UESLEIA DAMACENO DE CASTR091000068835132134SALUTE                                  00000000000000000000000100000000013                 
7560001300084U 090000000000000000000000000000000000000000000000000000000000000000000000000000000000000000000000000000000000000000000000001310202000000000    00000000000000000000000                        20270675600000000000000000000       
7560001300085T 0904609000000000793400001117356001014     117270000000000010102020000000000006500756046090EDSON PEREIRA DA SILVA   091000062133527591SALUTE                                  00000000000000000000000100000000013                 
7560001300086U 090000000000000000000000000000000000000000000000000000000000000000000000000000000000000000000000000000000000000000000000001310202000000000    00000000000000000000000                        20270775600000000000000000000       
7560001300087T 0904609000000000793400001117369501014     119130000000000012102020000000000006500756046090JOSE NILTON DA SILVA     091000071353577368SALUTE                                  00000000000000000000000100000000013                 
7560001300088U 090000000000000000000000000000000000000000000000000000000000000000000000000000000000000000000000000000000000000000000000001310202000000000    00000000000000000000000                        20270875600000000000000000000       
7560001300089T 0904609000000000793400001117383901014     119030000000000012102020000000000006500756046090OSVALDO FRANCISCO DE JESU091000054771005672SALUTE                                  00000000000000000000000100000000013                 
7560001300090U 090000000000000000000000000000000000000000000000000000000000000000000000000000000000000000000000000000000000000000000000001310202000000000    00000000000000000000000                        20270975600000000000000000000       
7560001300091T 0904609000000000793400001117395701014     119150000000000012102020000000000006500756046090VERA LUCIA DOS REIS      091000024663743234SALUTE                                  00000000000000000000000100000000013                 
7560001300092U 090000000000000000000000000000000000000000000000000000000000000000000000000000000000000000000000000000000000000000000000001310202000000000    00000000000000000000000                        20271075600000000000000000000       
7560001300093T 0904609000000000793400001117409501014     119190000000000012102020000000000006500756046090Hamilton Costa Neto      091000079776302572Hamilton Costa Neto                     00000000000000000000000100000000013                 
7560001300094U 090000000000000000000000000000000000000000000000000000000000000000000000000000000000000000000000000000000000000000000000001310202000000000    00000000000000000000000                        20271175600000000000000000000       
7560001300095T 0604609000000000793400001117421401014     119170000000000012102020000000000006750237021780MARIA DO SOCORRO SILVA   091000057318638220SALUTE                                  00000000000000000000001550000000004                 
7560001300096U 060000000000000000000000000000000000000000000000000000000000000000000000067500000000000067500000000000000000000000000000001310202000000000    00000000000000000000000                        20138975600000000000000000000       
7560001300097T 0904609000000000793400001117434001014     119050000000000012102020000000000006500756046090ELAINE CRISTINA EVARISTO 091000085539112253SALUTE                                  00000000000000000000000100000000013                 
7560001300098U 090000000000000000000000000000000000000000000000000000000000000000000000000000000000000000000000000000000000000000000000001310202000000000    00000000000000000000000                        20271275600000000000000000000       
7560001300099T 0904609000000000793400001117447501014     119010000000000012102020000000000006500756046090ARLI PEREIRA DE MELOS    091000030344565220SALUTE                                  00000000000000000000000100000000013                 
7560001300100U 090000000000000000000000000000000000000000000000000000000000000000000000000000000000000000000000000000000000000000000000001310202000000000    00000000000000000000000                        20271375600000000000000000000       
7560001300101T 0904609000000000793400001117525501014     115990000000000010102020000000000006500756046090TEREZA GUEDES DA SILVA PA091000042790441200SALUTE                                  00000000000000000000000100000000013                 
7560001300102U 090000000000000000000000000000000000000000000000000000000000000000000000000000000000000000000000000000000000000000000000001310202000000000    00000000000000000000000                        20271475600000000000000000000       
7560001300103T 0904609000000000793400001117537301014     118310000000000010102020000000000006500756046090CLAUDINEY DE SOUZA       091000053546547934SALUTE                                  00000000000000000000000100000000013                 
7560001300104U 090000000000000000000000000000000000000000000000000000000000000000000000000000000000000000000000000000000000000000000000001310202000000000    00000000000000000000000                        20271575600000000000000000000       
7560001300105T 0904609000000000793400001117551701014     116550000000000010102020000000000007250756046090NILTON CESAR SANTOS FREIT091000034445870315SALUTE                                  00000000000000000000000100000000013                 
7560001300106U 090000000000000000000000000000000000000000000000000000000000000000000000000000000000000000000000000000000000000000000000001310202000000000    00000000000000000000000                        20271675600000000000000000000       
7560001300107T 0904609000000000793400001117564201014     116210000000000010102020000000000006500756046090DEILTON JOSE TAVARES     091000060852992220SALUTE                                  00000000000000000000000100000000013                 
7560001300108U 090000000000000000000000000000000000000000000000000000000000000000000000000000000000000000000000000000000000000000000000001310202000000000    00000000000000000000000                        20271775600000000000000000000       
7560001300109T 0904609000000000793400001117576001014     115690000000000010102020000000000006500756046090ACRANILMA SANTANA A. DE O091000047842784272SALUTE                                  00000000000000000000000100000000013                 
7560001300110U 090000000000000000000000000000000000000000000000000000000000000000000000000000000000000000000000000000000000000000000000001310202000000000    00000000000000000000000                        20271875600000000000000000000       
7560001300111T 0904609000000000793400001117590401014     117490000000000010102020000000000006500756046090PEDRO NETO JORGE DA SILVA091000002277725200SALUTE                                  00000000000000000000000100000000013                 
7560001300112U 090000000000000000000000000000000000000000000000000000000000000000000000000000000000000000000000000000000000000000000000001310202000000000    00000000000000000000000                        20271975600000000000000000000       
7560001300113T 0904609000000000793400001117629601014     118170000000000010102020000000000006500756046090MARIA DO AMPARO DE OLIVEI091000037422642220SALUTE                                  00000000000000000000000100000000013                 
7560001300114U 090000000000000000000000000000000000000000000000000000000000000000000000000000000000000000000000000000000000000000000000001310202000000000    00000000000000000000000                        20272075600000000000000000000       
7560001300115T 0904609000000000793400001117642201014     116930000000000010102020000000000006750756046090MARCELO ROGERIO NERIS    091000027892077200SALUTE                                  00000000000000000000000100000000013                 
7560001300116U 090000000000000000000000000000000000000000000000000000000000000000000000000000000000000000000000000000000000000000000000001310202000000000    00000000000000000000000                        20272175600000000000000000000       
7560001300117T 0904609000000000793400001117655801014     116330000000000010102020000000000006750756046090ANGELO JARDIM DA COSTA   091000038005921268SALUTE                                  00000000000000000000000100000000013                 
7560001300118U 090000000000000000000000000000000000000000000000000000000000000000000000000000000000000000000000000000000000000000000000001310202000000000    00000000000000000000000                        20272275600000000000000000000       
7560001300119T 0904609000000000793400001117667601014     117610000000000010102020000000000006750756046090MARIA AGDA DA SILVA SOUSA091000096899417200SALUTE                                  00000000000000000000000100000000013                 
7560001300120U 090000000000000000000000000000000000000000000000000000000000000000000000000000000000000000000000000000000000000000000000001310202000000000    00000000000000000000000                        20272375600000000000000000000       
7560001300121T 0904609000000000793400001117681001014     116770000000000010102020000000000006500756046090MARIA DA CONCEICAO GARCIA091000060835099393SALUTE                                  00000000000000000000000100000000013                 
7560001300122U 090000000000000000000000000000000000000000000000000000000000000000000000000000000000000000000000000000000000000000000000001310202000000000    00000000000000000000000                        20272475600000000000000000000       
7560001300123T 0904609000000000793400001117694501014     118390000000000010102020000000000006500756046090DEURIAN LIMA DOS SANTOS  091000096629622200SALUTE                                  00000000000000000000000100000000013                 
7560001300124U 090000000000000000000000000000000000000000000000000000000000000000000000000000000000000000000000000000000000000000000000001310202000000000    00000000000000000000000                        20272575600000000000000000000       
7560001300125T 0904609000000000793400001117707601014     117410000000000010102020000000000006500756046090PAULINO GOMES SANTANA    091000075500078291SALUTE                                  00000000000000000000000100000000013                 
7560001300126U 090000000000000000000000000000000000000000000000000000000000000000000000000000000000000000000000000000000000000000000000001310202000000000    00000000000000000000000                        20272675600000000000000000000       
7560001300127T 0904609000000000793400001117720201014     115870000000000010102020000000000006500756046090PAULO ROBSON DA SILVA    091000096465735253SALUTE                                  00000000000000000000000100000000013                 
7560001300128U 090000000000000000000000000000000000000000000000000000000000000000000000000000000000000000000000000000000000000000000000001310202000000000    00000000000000000000000                        20272775600000000000000000000       
7560001300129T 0904609000000000793400001117733801014     116890000000000010102020000000000006500756046090VIVIA SOARES SILVA       091000071681787253SALUTE                                  00000000000000000000000100000000013                 
7560001300130U 090000000000000000000000000000000000000000000000000000000000000000000000000000000000000000000000000000000000000000000000001310202000000000    00000000000000000000000                        20272875600000000000000000000       
7560001300131T 0904609000000000793400001117746301014     117070000000000010102020000000000006500756046090MARIA DE LOURDES DIAS ALM091000036278998220SALUTE                                  00000000000000000000000100000000013                 
7560001300132U 090000000000000000000000000000000000000000000000000000000000000000000000000000000000000000000000000000000000000000000000001310202000000000    00000000000000000000000                        20272975600000000000000000000       
7560001300133T 0904609000000000793400001117759901014     118430000000000010102020000000000006500756046090KEILA RODRIGUES DA SILVA 091000084302062215SALUTE                                  00000000000000000000000100000000013                 
7560001300134U 090000000000000000000000000000000000000000000000000000000000000000000000000000000000000000000000000000000000000000000000001310202000000000    00000000000000000000000                        20273075600000000000000000000       
7560001300135T 0904609000000000793400001117772501014     118630000000000010102020000000000006500756046090JULIANA FERREIRA GONZAGA 091000007044395651SALUTE                                  00000000000000000000000100000000013                 
7560001300136U 090000000000000000000000000000000000000000000000000000000000000000000000000000000000000000000000000000000000000000000000001310202000000000    00000000000000000000000                        20273175600000000000000000000       
7560001300137T 0904609000000000793400001117785001014     116610000000000010102020000000000006500756046090IRACEMA DE SOUSA SANTANA 091000075500019287SALUTE                                  00000000000000000000000100000000013                 
7560001300138U 090000000000000000000000000000000000000000000000000000000000000000000000000000000000000000000000000000000000000000000000001310202000000000    00000000000000000000000                        20273275600000000000000000000       
7560001300139T 0904609000000000793400001117798601014     118810000000000010102020000000000006500756046090ANTONIO PACHECO DA SILVA 091000087148013291SALUTE                                  00000000000000000000000100000000013                 
7560001300140U 090000000000000000000000000000000000000000000000000000000000000000000000000000000000000000000000000000000000000000000000001310202000000000    00000000000000000000000                        20273375600000000000000000000       
7560001300141T 0904609000000000793400001117811801014     116190000000000010102020000000000006500756046090IRIS MARDEM MOREIRA      091000054889030115SALUTE                                  00000000000000000000000100000000013                 
7560001300142U 090000000000000000000000000000000000000000000000000000000000000000000000000000000000000000000000000000000000000000000000001310202000000000    00000000000000000000000                        20273475600000000000000000000       
7560001300143T 0904609000000000793400001117824301014     116130000000000010102020000000000006500756046090SUSANA ALVES PEREIRA     091000030387574387SALUTE                                  00000000000000000000000100000000013                 
7560001300144U 090000000000000000000000000000000000000000000000000000000000000000000000000000000000000000000000000000000000000000000000001310202000000000    00000000000000000000000                        20273575600000000000000000000       
7560001300145T 0904609000000000793400001117837901014     118190000000000010102020000000000006500756046090ADAO DE SOUZA MARINHO    091000042712670159SALUTE                                  00000000000000000000000100000000013                 
7560001300146U 090000000000000000000000000000000000000000000000000000000000000000000000000000000000000000000000000000000000000000000000001310202000000000    00000000000000000000000                        20273675600000000000000000000       
7560001300147T 0904609000000000793400001117850501014     117750000000000010102020000000000006500756046090MAURANEI DIAS MARINHO DE 091000029536677253SALUTE                                  00000000000000000000000100000000013                 
7560001300148U 090000000000000000000000000000000000000000000000000000000000000000000000000000000000000000000000000000000000000000000000001310202000000000    00000000000000000000000                        20273775600000000000000000000       
7560001300149T 0904609000000000793400001117863001014     118870000000000010102020000000000006500756046090MARIA EDUARDA CHAVES PERE091000003759044255SALUTE                                  00000000000000000000000100000000013                 
7560001300150U 090000000000000000000000000000000000000000000000000000000000000000000000000000000000000000000000000000000000000000000000001310202000000000    00000000000000000000000                        20273875600000000000000000000       
7560001300151T 0904609000000000793400001117876601014     116050000000000010102020000000000006500756046090AURINDA NONATO SILVA SOUZ091000086469916287SALUTE                                  00000000000000000000000100000000013                 
7560001300152U 090000000000000000000000000000000000000000000000000000000000000000000000000000000000000000000000000000000000000000000000001310202000000000    00000000000000000000000                        20273975600000000000000000000       
7560001300153T 0904609000000000793400001117889101014     117810000000000010102020000000000006500756046090JUVENILDA DE SOUZA SILVA 091000057074410268SALUTE                                  00000000000000000000000100000000013                 
7560001300154U 090000000000000000000000000000000000000000000000000000000000000000000000000000000000000000000000000000000000000000000000001310202000000000    00000000000000000000000                        20274075600000000000000000000       
7560001300155T 0904609000000000793400001117902301014     115770000000000010102020000000000006500756046090MYLLENA LIMA E SILVA     091000001504518225SALUTE                                  00000000000000000000000100000000013                 
7560001300156U 090000000000000000000000000000000000000000000000000000000000000000000000000000000000000000000000000000000000000000000000001310202000000000    00000000000000000000000                        20274175600000000000000000000       
7560001300157T 0904609000000000793400001117915901014     116910000000000010102020000000000006500756046090ROSALINA PEREIRA DA SILVA091000079208428249SALUTE                                  00000000000000000000000100000000013                 
7560001300158U 090000000000000000000000000000000000000000000000000000000000000000000000000000000000000000000000000000000000000000000000001310202000000000    00000000000000000000000                        20274275600000000000000000000       
7560001300159T 0904609000000000793400001117928401014     116030000000000010102020000000000006500756046090LILIAN DE FARIA LOPES DE 091000037038648268SALUTE                                  00000000000000000000000100000000013                 
7560001300160U 090000000000000000000000000000000000000000000000000000000000000000000000000000000000000000000000000000000000000000000000001310202000000000    00000000000000000000000                        20274375600000000000000000000       
7560001300161T 0904609000000000793400001117941001014     117110000000000010102020000000000006500756046090JOSE PEREIRA  NETO       091000031088570100SALUTE                                  00000000000000000000000100000000013                 
7560001300162U 090000000000000000000000000000000000000000000000000000000000000000000000000000000000000000000000000000000000000000000000001310202000000000    00000000000000000000000                        20274475600000000000000000000       
7560001300163T 0904609000000000793400001117954601014     118070000000000010102020000000000006500756046090JOSE ADENOR DE JESUS ANDR091000068167709787SALUTE                                  00000000000000000000000100000000013                 
7560001300164U 090000000000000000000000000000000000000000000000000000000000000000000000000000000000000000000000000000000000000000000000001310202000000000    00000000000000000000000                        20274575600000000000000000000       
7560001300165T 0904609000000000793400001117967101014     117730000000000010102020000000000006500756046090EUZELI OLIVERA SILVA     091000077198930263SALUTE                                  00000000000000000000000100000000013                 
7560001300166U 090000000000000000000000000000000000000000000000000000000000000000000000000000000000000000000000000000000000000000000000001310202000000000    00000000000000000000000                        20274675600000000000000000000       
7560001300167T 0904609000000000793400001117980801014     116650000000000010102020000000000006750756046090HENRIQUE CESAR AMEND     091000022524848884SALUTE                                  00000000000000000000000100000000013                 
7560001300168U 090000000000000000000000000000000000000000000000000000000000000000000000000000000000000000000000000000000000000000000000001310202000000000    00000000000000000000000                        20274775600000000000000000000       
7560001300169T 0904609000000000793400001117993301014     117030000000000010102020000000000007000756046090MARIA DA CONCEICAO ROSA  091000032903219249SALUTE                                  00000000000000000000000100000000013                 
7560001300170U 090000000000000000000000000000000000000000000000000000000000000000000000000000000000000000000000000000000000000000000000001310202000000000    00000000000000000000000                        20274875600000000000000000000       
7560001300171T 0904609000000000793400001118006501014     117310000000000010102020000000000006500756046090EDVALTER MANTOVANI       091000042518652272SALUTE                                  00000000000000000000000100000000013                 
7560001300172U 090000000000000000000000000000000000000000000000000000000000000000000000000000000000000000000000000000000000000000000000001310202000000000    00000000000000000000000                        20274975600000000000000000000       
7560001300173T 0604609000000000793400001118019001014     115830000000000010102020000000000006500237005460FRANCISCA DAS CHAGAS PERE091000037658360287SALUTE                                  00000000000000000000001550000000004                 
7560001300174U 060000000000000000000000000000000000000000000000000000000000000000000000065000000000000065000000000000000000000000000000000910202013102020    00000000000000000000000                        20070375600000000000000000000       
7560001300175T 0604609000000000793400001118020901014     124630000000000010112020000000000006500237005460FRANCISCA DAS CHAGAS PERE091000037658360287SALUTE                                  00000000000000000000001550000000004                 
7560001300176U 060000000000000000000000000000000000000000000000000000000000000000000000065000000000000065000000000000000000000000000000000910202013102020    00000000000000000000000                        20078675600000000000000000000       
7560001300177T 0604609000000000793400001118021601014     129990000000000010122020000000000006500237005460FRANCISCA DAS CHAGAS PERE091000037658360287SALUTE                                  00000000000000000000001550000000004                 
7560001300178U 060000000000000000000000000000000000000000000000000000000000000000000000065000000000000065000000000000000000000000000000000910202013102020    00000000000000000000000                        20083975600000000000000000000       
7560001300179T 0604609000000000793400001118022301014     137950000000000010012021000000000006500237005460FRANCISCA DAS CHAGAS PERE091000037658360287SALUTE                                  00000000000000000000001550000000004                 
7560001300180U 060000000000000000000000000000000000000000000000000000000000000000000000065000000000000065000000000000000000000000000000000910202013102020    00000000000000000000000                        20087875600000000000000000000       
7560001300181T 0604609000000000793400001118023001014     142530000000000010022021000000000006500237005460FRANCISCA DAS CHAGAS PERE091000037658360287SALUTE                                  00000000000000000000001550000000004                 
7560001300182U 060000000000000000000000000000000000000000000000000000000000000000000000065000000000000065000000000000000000000000000000000910202013102020    00000000000000000000000                        20090875600000000000000000000       
7560001300183T 0904609000000000793400001118032701014     115570000000000010102020000000000006500756046090MARIA DA SILVA NOGUEIRA  091000068197063249SALUTE                                  00000000000000000000000100000000013                 
7560001300184U 090000000000000000000000000000000000000000000000000000000000000000000000000000000000000000000000000000000000000000000000001310202000000000    00000000000000000000000                        20275075600000000000000000000       
7560001300185T 0904609000000000793400001118045201014     118650000000000010102020000000000006500756046090HELIO DA SILVA SOUZA     091000020525931600SALUTE                                  00000000000000000000000100000000013                 
7560001300186U 090000000000000000000000000000000000000000000000000000000000000000000000000000000000000000000000000000000000000000000000001310202000000000    00000000000000000000000                        20275175600000000000000000000       
7560001300187T 0904609000000000793400001118058801014     116690000000000010102020000000000006500756046090OLINDA BATISTA ALVES     091000014088851234SALUTE                                  00000000000000000000000100000000013                 
7560001300188U 090000000000000000000000000000000000000000000000000000000000000000000000000000000000000000000000000000000000000000000000001310202000000000    00000000000000000000000                        20275275600000000000000000000       
7560001300189T 0904609000000000793400001118071401014     116470000000000010102020000000000006500756046090JAHI DE SA MENESES       091000042616220334SALUTE                                  00000000000000000000000100000000013                 
7560001300190U 090000000000000000000000000000000000000000000000000000000000000000000000000000000000000000000000000000000000000000000000001310202000000000    00000000000000000000000                        20275375600000000000000000000       
7560001300191T 0904609000000000793400001118097501014     115730000000000010102020000000000006500756046090INGRID LOYANE SILVA DE OL091000003750826200SALUTE                                  00000000000000000000000100000000013                 
7560001300192U 090000000000000000000000000000000000000000000000000000000000000000000000000000000000000000000000000000000000000000000000001310202000000000    00000000000000000000000                        20275475600000000000000000000       
7560001300193T 0904609000000000793400001118110701014     118830000000000010102020000000000006500756046090JOSE WANDERSON DE AQUINO 091000079493025268SALUTE                                  00000000000000000000000100000000013                 
7560001300194U 090000000000000000000000000000000000000000000000000000000000000000000000000000000000000000000000000000000000000000000000001310202000000000    00000000000000000000000                        20275575600000000000000000000       
7560001300195T 0904609000000000793400001118123201014     117090000000000010102020000000000006500756046090MARIA IVANILDE BEZERRA DA091000039613488200SALUTE                                  00000000000000000000000100000000013                 
7560001300196U 090000000000000000000000000000000000000000000000000000000000000000000000000000000000000000000000000000000000000000000000001310202000000000    00000000000000000000000                        20275675600000000000000000000       
7560001300197T 0904609000000000793400001118136801014     115750000000000010102020000000000007250756046090MARILIA TAVARES SILVA    091000081883528291SALUTE                                  00000000000000000000000100000000013                 
7560001300198U 090000000000000000000000000000000000000000000000000000000000000000000000000000000000000000000000000000000000000000000000001310202000000000    00000000000000000000000                        20275775600000000000000000000       
7560001300199T 0904609000000000793400001118162001014     117210000000000010102020000000000006500756046090LEUDE MARIA COSTA DE SOUS091000044902417200SALUTE                                  00000000000000000000000100000000013                 
7560001300200U 090000000000000000000000000000000000000000000000000000000000000000000000000000000000000000000000000000000000000000000000001310202000000000    00000000000000000000000                        20275875600000000000000000000       
7560001300201T 0904609000000000793400001118175501014     117830000000000010102020000000000006500756046090ALLAN JHONATAN DOS SANTOS091000088450180244SALUTE                                  00000000000000000000000100000000013                 
7560001300202U 090000000000000000000000000000000000000000000000000000000000000000000000000000000000000000000000000000000000000000000000001310202000000000    00000000000000000000000                        20275975600000000000000000000       
7560001300203T 0904609000000000793400001118188001014     115710000000000010102020000000000006500756046090DIVINA JOAQUINA CARDOSO  091000052486257268SALUTE                                  00000000000000000000000100000000013                 
7560001300204U 090000000000000000000000000000000000000000000000000000000000000000000000000000000000000000000000000000000000000000000000001310202000000000    00000000000000000000000                        20276075600000000000000000000       
7560001300205T 0904609000000000793400001118201201014     116070000000000010102020000000000006500756046090JOAO MARCOS MARTINS BARRO091000059930896287SALUTE                                  00000000000000000000000100000000013                 
7560001300206U 090000000000000000000000000000000000000000000000000000000000000000000000000000000000000000000000000000000000000000000000001310202000000000    00000000000000000000000                        20276175600000000000000000000       
7560001300207T 0904609000000000793400001118214801014     116150000000000010102020000000000006500756046090LEIZO ALISSON DA SILVA LI091000073530948268SALUTE                                  00000000000000000000000100000000013                 
7560001300208U 090000000000000000000000000000000000000000000000000000000000000000000000000000000000000000000000000000000000000000000000001310202000000000    00000000000000000000000                        20276275600000000000000000000       
7560001300209T 0604609000000000793400001118227301014     117290000000000010102020000000000006750104006830PAULO HENRIQUE MROZINSKI 091000058905197949SALUTE                                  00000000000000000000001550000000004                 
7560001300210U 060000000000000000000000000000000000000000000000000000000000000000000000067500000000000067500000000000000000000000000000001310202000000000    00000000000000000000000                        20185975600000000000000000000       
7560001300211T 0604609000000000793400001118240001014     110000000000000010102020000000000065000748052040INVIOLAVEL               092011784388000185INVIOLAVEL                              00000000000000000000001550000000004                 
7560001300212U 060000000000000000000000000000000000000000000000000000000000000000000000650000000000000650000000000000000000000000000000001310202000000000    00000000000000000000000                        20165675600000000000000000000       
7560001300213T 0904609000000000793400001118289001014     118450000000000010102020000000000006500756046090PATRICIA NAYARA DA SILVA 091000093392052272SALUTE                                  00000000000000000000000100000000013                 
7560001300214U 090000000000000000000000000000000000000000000000000000000000000000000000000000000000000000000000000000000000000000000000001310202000000000    00000000000000000000000                        20276375600000000000000000000       
7560001300215T 0904609000000000793400001118302101014     116970000000000010102020000000000006500756046090MARIA APARECIDA SILVA REI091000000279175256SALUTE                                  00000000000000000000000100000000013                 
7560001300216U 090000000000000000000000000000000000000000000000000000000000000000000000000000000000000000000000000000000000000000000000001310202000000000    00000000000000000000000                        20276475600000000000000000000       
7560001300217T 0904609000000000793400001118315701014     116570000000000010102020000000000006500756046090GILVAGNE PEREIRA CUNHA   091000058751602253SALUTE                                  00000000000000000000000100000000013                 
7560001300218U 090000000000000000000000000000000000000000000000000000000000000000000000000000000000000000000000000000000000000000000000001310202000000000    00000000000000000000000                        20276575600000000000000000000       
7560001300219T 0904609000000000793400001118341901014     116850000000000010102020000000000006500756046090HELIO DIAS DA SILVA FILHO091000075492407287SALUTE                                  00000000000000000000000100000000013                 
7560001300220U 090000000000000000000000000000000000000000000000000000000000000000000000000000000000000000000000000000000000000000000000001310202000000000    00000000000000000000000                        20276675600000000000000000000       
7560001300221T 0904609000000000793400001118354401014     118370000000000010102020000000000006500756046090FRANCISCA NELI DE OLIVEIR091000005037673100SALUTE                                  00000000000000000000000100000000013                 
7560001300222U 090000000000000000000000000000000000000000000000000000000000000000000000000000000000000000000000000000000000000000000000001310202000000000    00000000000000000000000                        20276775600000000000000000000       
7560001300223T 0904609000000000793400001118367001014     117450000000000010102020000000000006500756046090FRANCISCO PEREIRA DOS ANJ091000030163927200SALUTE                                  00000000000000000000000100000000013                 
7560001300224U 090000000000000000000000000000000000000000000000000000000000000000000000000000000000000000000000000000000000000000000000001310202000000000    00000000000000000000000                        20276875600000000000000000000       
7560001300225T 0904609000000000793400001118380601014     116270000000000010102020000000000006500756046090FERNANDA MATOS DA SILVA  091000099634538215SALUTE                                  00000000000000000000000100000000013                 
7560001300226U 090000000000000000000000000000000000000000000000000000000000000000000000000000000000000000000000000000000000000000000000001310202000000000    00000000000000000000000                        20276975600000000000000000000       
7560001300227T 0904609000000000793400001118393101014     116350000000000010102020000000000006500756046090LUCIMAR GOMES DA ROCHA   091000000970030347SALUTE                                  00000000000000000000000100000000013                 
7560001300228U 090000000000000000000000000000000000000000000000000000000000000000000000000000000000000000000000000000000000000000000000001310202000000000    00000000000000000000000                        20277075600000000000000000000       
7560001300229T 0904609000000000793400001118406201014     116810000000000010102020000000000006500756046090HELIA NUNES DA SILVA     091000082283451191SALUTE                                  00000000000000000000000100000000013                 
7560001300230U 090000000000000000000000000000000000000000000000000000000000000000000000000000000000000000000000000000000000000000000000001310202000000000    00000000000000000000000                        20277175600000000000000000000       
7560001300231T 0904609000000000793400001118432401014     116990000000000010102020000000000006500756046090FRANCISCA RODRIGUES DE SO091000024609200244SALUTE                                  00000000000000000000000100000000013                 
7560001300232U 090000000000000000000000000000000000000000000000000000000000000000000000000000000000000000000000000000000000000000000000001310202000000000    00000000000000000000000                        20277275600000000000000000000       
7560001300233T 0904609000000000793400001118445001014     118410000000000010102020000000000006500756046090TEREZINHA DE JESUS PEREIR091000018558615268SALUTE                                  00000000000000000000000100000000013                 
7560001300234U 090000000000000000000000000000000000000000000000000000000000000000000000000000000000000000000000000000000000000000000000001310202000000000    00000000000000000000000                        20277375600000000000000000000       
7560001300235T 0904609000000000793400001118458501014     117850000000000010102020000000000006500756046090JULIANA  BEZERRA ALVES   091000098627287287SALUTE                                  00000000000000000000000100000000013                 
7560001300236U 090000000000000000000000000000000000000000000000000000000000000000000000000000000000000000000000000000000000000000000000001310202000000000    00000000000000000000000                        20277475600000000000000000000       
7560001300237T 0904609000000000793400001118471101014     116730000000000010102020000000000006500756046090GLENDA MENDES DE SOUSA   091000072255218291SALUTE                                  00000000000000000000000100000000013                 
7560001300238U 090000000000000000000000000000000000000000000000000000000000000000000000000000000000000000000000000000000000000000000000001310202000000000    00000000000000000000000                        20277575600000000000000000000       
7560001300239T 0904609000000000793400001118484701014     116390000000000010102020000000000006500756046090JEFFERSON TEIXEIRA DE SOU091000074001256215SALUTE                                  00000000000000000000000100000000013                 
7560001300240U 090000000000000000000000000000000000000000000000000000000000000000000000000000000000000000000000000000000000000000000000001310202000000000    00000000000000000000000                        20277675600000000000000000000       
7560001300241T 0904609000000000793400001118497201014     115790000000000010102020000000000006500756046090SANDRA LUCIA BEZERRA LEIT091000087057018304SALUTE                                  00000000000000000000000100000000013                 
7560001300242U 090000000000000000000000000000000000000000000000000000000000000000000000000000000000000000000000000000000000000000000000001310202000000000    00000000000000000000000                        20277775600000000000000000000       
7560001300243T 0904609000000000793400001118510401014     116410000000000010102020000000000007000756046090MARIA PARECIDA DE SOUZA M091000011017368287SALUTE                                  00000000000000000000000100000000013                 
7560001300244U 090000000000000000000000000000000000000000000000000000000000000000000000000000000000000000000000000000000000000000000000001310202000000000    00000000000000000000000                        20277875600000000000000000000       
7560001300245T 0904609000000000793400001118523001014     117390000000000010102020000000000006500756046090MARILIA MACEDO NUNES     091000075215594287SALUTE                                  00000000000000000000000100000000013                 
7560001300246U 090000000000000000000000000000000000000000000000000000000000000000000000000000000000000000000000000000000000000000000000001310202000000000    00000000000000000000000                        20277975600000000000000000000       
7560001300247T 0604609000000000793400001118536501014     115850000000000010102020000000000006500001005650MARIA DO LIVRAMENTO PEREI091000062154982204SALUTE                                  00000000000000000000001550000000004                 
7560001300248U 060000000000000000000000000000000000000000000000000000000000000000000000065000000000000065000000000000000000000000000000001310202000000000    00000000000000000000000                        20127375600000000000000000000       
7560001300249T 0904609000000000793400001118549001014     117990000000000010102020000000000006500756046090SANDRA LUCIA DIAS CALDEIR091000024828785272SALUTE                                  00000000000000000000000100000000013                 
7560001300250U 090000000000000000000000000000000000000000000000000000000000000000000000000000000000000000000000000000000000000000000000001310202000000000    00000000000000000000000                        20278075600000000000000000000       
7560001300251T 0904609000000000793400001118575201014     115590000000000010102020000000000006500756046090JESUINA NUNES DA SILVA   091000076383423215SALUTE                                  00000000000000000000000100000000013                 
7560001300252U 090000000000000000000000000000000000000000000000000000000000000000000000000000000000000000000000000000000000000000000000001310202000000000    00000000000000000000000                        20278175600000000000000000000       
7560001300253T 0904609000000000793400001118588801014     117150000000000010102020000000000006500756046090PASCOAL DE NAZARE FERREIR091000018628168249SALUTE                                  00000000000000000000000100000000013                 
7560001300254U 090000000000000000000000000000000000000000000000000000000000000000000000000000000000000000000000000000000000000000000000001310202000000000    00000000000000000000000                        20278275600000000000000000000       
7560001300255T 0904609000000000793400001118600201014     115930000000000010102020000000000006500756046090JOSE MOREIRA MAIA        091000017463386368SALUTE                                  00000000000000000000000100000000013                 
7560001300256U 090000000000000000000000000000000000000000000000000000000000000000000000000000000000000000000000000000000000000000000000001310202000000000    00000000000000000000000                        20278375600000000000000000000       
7560001300257T 0904609000000000793400001118613801014     116450000000000010102020000000000006500756046090ALINE FERRERIA DA SILVA F091000000503364282SALUTE                                  00000000000000000000000100000000013                 
7560001300258U 090000000000000000000000000000000000000000000000000000000000000000000000000000000000000000000000000000000000000000000000001310202000000000    00000000000000000000000                        20278475600000000000000000000       
7560001300259T 0904609000000000793400001118627001014     116790000000000010102020000000000006500756046090DORES ANTONIA PEREIRA DE 091000058110593291SALUTE                                  00000000000000000000000100000000013                 
7560001300260U 090000000000000000000000000000000000000000000000000000000000000000000000000000000000000000000000000000000000000000000000001310202000000000    00000000000000000000000                        20278575600000000000000000000       
7560001300261T 0904609000000000793400001118639901014     117970000000000010102020000000000006500756046090FABIANA DA SILVA CAVALCAN091000073497282200SALUTE                                  00000000000000000000000100000000013                 
7560001300262U 090000000000000000000000000000000000000000000000000000000000000000000000000000000000000000000000000000000000000000000000001310202000000000    00000000000000000000000                        20278675600000000000000000000       
7560001300263T 0904609000000000793400001118653201014     118050000000000010102020000000000006500756046090MILENA GOMES MENDES      091000004194779266SALUTE                                  00000000000000000000000100000000013                 
7560001300264U 090000000000000000000000000000000000000000000000000000000000000000000000000000000000000000000000000000000000000000000000001310202000000000    00000000000000000000000                        20278775600000000000000000000       
7560001300265T 0904609000000000793400001118666801014     118710000000000010102020000000000006500756046090ILDERLAN RODRIGUES SILVA 091000001472084322SALUTE                                  00000000000000000000000100000000013                 
7560001300266U 090000000000000000000000000000000000000000000000000000000000000000000000000000000000000000000000000000000000000000000000001310202000000000    00000000000000000000000                        20278875600000000000000000000       
7560001300267T 0904609000000000793400001118679301014     117630000000000010102020000000000006500756046090HELEN ARAUJO CARNEIRO    091000088249891287SALUTE                                  00000000000000000000000100000000013                 
7560001300268U 090000000000000000000000000000000000000000000000000000000000000000000000000000000000000000000000000000000000000000000000001310202000000000    00000000000000000000000                        20278975600000000000000000000       
7560001300269T 0904609000000000793400001118717901014     121000000000000010102020000000000006500756046090ANTONIA DE ALENCAR CARDOS091000034567097300SALUTE                                  00000000000000000000000100000000013                 
7560001300270U 090000000000000000000000000000000000000000000000000000000000000000000000000000000000000000000000000000000000000000000000001310202000000000    00000000000000000000000                        20279075600000000000000000000       
7560001300271T 0904609000000000793400001118730501014     125000000000000010102020000000000006500756046090CARLENE PEREIRA DA SILVA 091000091493692291SALUTE                                  00000000000000000000000100000000013                 
7560001300272U 090000000000000000000000000000000000000000000000000000000000000000000000000000000000000000000000000000000000000000000000001310202000000000    00000000000000000000000                        20279175600000000000000000000       
7560001300273T 0904609000000000793400001118743001014     123000000000000010102020000000000006500756046090CLAUDEANA SOUZA DA CONCEI091000081993242287SALUTE                                  00000000000000000000000100000000013                 
7560001300274U 090000000000000000000000000000000000000000000000000000000000000000000000000000000000000000000000000000000000000000000000001310202000000000    00000000000000000000000                        20279275600000000000000000000       
7560001300275T 0904609000000000793400001118759801014     119000000000000010102020000000000006500756046090ARIELA PEREIRA DA SILVA  091000088117138204SALUTE                                  00000000000000000000000100000000013                 
7560001300276U 090000000000000000000000000000000000000000000000000000000000000000000000000000000000000000000000000000000000000000000000001310202000000000    00000000000000000000000                        20279375600000000000000000000       
7560001300277T 0904609000000000793400001118771701014     118230000000000010102020000000000006500756046090VAUDETE MARTINS DE SOUZA 091000037211218215SALUTE                                  00000000000000000000000100000000013                 
7560001300278U 090000000000000000000000000000000000000000000000000000000000000000000000000000000000000000000000000000000000000000000000001310202000000000    00000000000000000000000                        20279475600000000000000000000       
7560001300279T 0904609000000000793400001118794601014     117510000000000010102020000000000006500756046090DANIELE MELO FELIX       091000001434227235SALUTE                                  00000000000000000000000100000000013                 
7560001300280U 090000000000000000000000000000000000000000000000000000000000000000000000000000000000000000000000000000000000000000000000001310202000000000    00000000000000000000000                        20279575600000000000000000000       
7560001300281T 0904609000000000793400001118818801014     118910000000000010102020000000000006500756046090MARIA CELIA DA COSTA NOGU091000046230351234SALUTE                                  00000000000000000000000100000000013                 
7560001300282U 090000000000000000000000000000000000000000000000000000000000000000000000000000000000000000000000000000000000000000000000001310202000000000    00000000000000000000000                        20279675600000000000000000000       
7560001300283T 0904609000000000793400001118857501014     117550000000000010102020000000000006500756046090VANILDA DE SOUZA VASCONCE091000061723991287SALUTE                                  00000000000000000000000100000000013                 
7560001300284U 090000000000000000000000000000000000000000000000000000000000000000000000000000000000000000000000000000000000000000000000001310202000000000    00000000000000000000000                        20279775600000000000000000000       
7560001300285T 0904609000000000793400001118870101014     115810000000000010102020000000000006500756046090NAZARENO OLIVEIRA DA SILV091000037010212287SALUTE                                  00000000000000000000000100000000013                 
7560001300286U 090000000000000000000000000000000000000000000000000000000000000000000000000000000000000000000000000000000000000000000000001310202000000000    00000000000000000000000                        20279875600000000000000000000       
7560001300287T 0904609000000000793400001118883701014     118590000000000010102020000000000006500756046090THATIANY NAYARA DE OLIVEI091000096232315200SALUTE                                  00000000000000000000000100000000013                 
7560001300288U 090000000000000000000000000000000000000000000000000000000000000000000000000000000000000000000000000000000000000000000000001310202000000000    00000000000000000000000                        20279975600000000000000000000       
7560001300289T 0904609000000000793400001118896201014     115950000000000010102020000000000006500756046090ANTONIO JOSE MENDES CABRA091000046076379200SALUTE                                  00000000000000000000000100000000013                 
7560001300290U 090000000000000000000000000000000000000000000000000000000000000000000000000000000000000000000000000000000000000000000000001310202000000000    00000000000000000000000                        20280075600000000000000000000       
7560001300291T 0904609000000000793400001118909301014     118110000000000010102020000000000006500756046090JOSE SOARES DA SILVA     091000010667598120SALUTE                                  00000000000000000000000100000000013                 
7560001300292U 090000000000000000000000000000000000000000000000000000000000000000000000000000000000000000000000000000000000000000000000001310202000000000    00000000000000000000000                        20280175600000000000000000000       
7560001300293T 0604609000000000793400001118922001014     117650000000000010102020000000000006500237021780NEY FERREIRA DE MAGALHAES091000010489177204SALUTE                                  00000000000000000000001550000000004                 
7560001300294U 060000000000000000000000000000000000000000000000000000000000000000000000065000000000000065000000000000000000000000000000000910202013102020    00000000000000000000000                        20079375600000000000000000000       
7560001300295T 0904609000000000793400001118935501014     118090000000000010102020000000000006500756046090DEBORA SILVA VIANA       091000000064104214SALUTE                                  00000000000000000000000100000000013                 
7560001300296U 090000000000000000000000000000000000000000000000000000000000000000000000000000000000000000000000000000000000000000000000001310202000000000    00000000000000000000000                        20280275600000000000000000000       
7560001300297T 0904609000000000793400001118948001014     118610000000000010102020000000000006500756046090SEBASTIAO BRITO MACEDO   091000017756057600SALUTE                                  00000000000000000000000100000000013                 
7560001300298U 090000000000000000000000000000000000000000000000000000000000000000000000000000000000000000000000000000000000000000000000001310202000000000    00000000000000000000000                        20280375600000000000000000000       
7560001300299T 0904609000000000793400001118961701014     117130000000000010102020000000000006500756046090ALCENI DA SILVA FERREIRA 091000083809198234SALUTE                                  00000000000000000000000100000000013                 
7560001300300U 090000000000000000000000000000000000000000000000000000000000000000000000000000000000000000000000000000000000000000000000001310202000000000    00000000000000000000000                        20280475600000000000000000000       
7560001300301T 0904609000000000793400001118974201014     118210000000000010102020000000000006500756046090MIRIAN CONCEICAO CANTANHE091000000307497275SALUTE                                  00000000000000000000000100000000013                 
7560001300302U 090000000000000000000000000000000000000000000000000000000000000000000000000000000000000000000000000000000000000000000000001310202000000000    00000000000000000000000                        20280575600000000000000000000       
7560001300303T 0904609000000000793400001118987801014     118490000000000010102020000000000006500756046090MARTA OLIVEIRA DE SOUSA  091000015921352349SALUTE                                  00000000000000000000000100000000013                 
7560001300304U 090000000000000000000000000000000000000000000000000000000000000000000000000000000000000000000000000000000000000000000000001310202000000000    00000000000000000000000                        20280675600000000000000000000       
7560001300305T 0904609000000000793400001119000001014     116370000000000010102020000000000006500756046090TAIANY DE SOUSA CARVALHO 091000001540508226SALUTE                                  00000000000000000000000100000000013                 
7560001300306U 090000000000000000000000000000000000000000000000000000000000000000000000000000000000000000000000000000000000000000000000001310202000000000    00000000000000000000000                        20280775600000000000000000000       
7560001300307T 0904609000000000793400001119013601014     117590000000000010102020000000000006500756046090FRANCISCO SOUZA SILVA    091000071642978272SALUTE                                  00000000000000000000000100000000013                 
7560001300308U 090000000000000000000000000000000000000000000000000000000000000000000000000000000000000000000000000000000000000000000000001310202000000000    00000000000000000000000                        20280875600000000000000000000       
7560001300309T 0904609000000000793400001119026101014     118550000000000010102020000000000006500756046090LUZINON PEREIRA MORORO   091000069683182291SALUTE                                  00000000000000000000000100000000013                 
7560001300310U 090000000000000000000000000000000000000000000000000000000000000000000000000000000000000000000000000000000000000000000000001310202000000000    00000000000000000000000                        20280975600000000000000000000       
7560001300311T 0904609000000000793400001119039701014     117430000000000010102020000000000006500756046090JOSIMAR ALVES DOS SANTOS 091000017154553200SALUTE                                  00000000000000000000000100000000013                 
7560001300312U 090000000000000000000000000000000000000000000000000000000000000000000000000000000000000000000000000000000000000000000000001310202000000000    00000000000000000000000                        20281075600000000000000000000       
7560001300313T 0904609000000000793400001119078401014     117770000000000010102020000000000007250756046090MARINETE ALMEIDA TRINDADE091000073194573268SALUTE                                  00000000000000000000000100000000013                 
7560001300314U 090000000000000000000000000000000000000000000000000000000000000000000000000000000000000000000000000000000000000000000000001310202000000000    00000000000000000000000                        20281175600000000000000000000       
7560001300315T 0904609000000000793400001119091001014     117370000000000010102020000000000006500756046090ANTONIO GILSON DE SOUSA S091000069638454253SALUTE                                  00000000000000000000000100000000013                 
7560001300316U 090000000000000000000000000000000000000000000000000000000000000000000000000000000000000000000000000000000000000000000000001310202000000000    00000000000000000000000                        20281275600000000000000000000       
7560001300317T 0904609000000000793400001119104101014     117870000000000010102020000000000006500756046090PEDRO DE OLIVEIRA TAVARES091000015735095234SALUTE                                  00000000000000000000000100000000013                 
7560001300318U 090000000000000000000000000000000000000000000000000000000000000000000000000000000000000000000000000000000000000000000000001310202000000000    00000000000000000000000                        20281375600000000000000000000       
7560001300319T 0904609000000000793400001119117701014     118250000000000010102020000000000006500756046090ELIENE PEREIRA BARBOSA   091000000726211257SALUTE                                  00000000000000000000000100000000013                 
7560001300320U 090000000000000000000000000000000000000000000000000000000000000000000000000000000000000000000000000000000000000000000000001310202000000000    00000000000000000000000                        20281475600000000000000000000       
7560001300321T 0904609000000000793400001119130301014     117790000000000010102020000000000006500756046090DOMINGOS DE SOUSA PEREIRA091000060811510263SALUTE                                  00000000000000000000000100000000013                 
7560001300322U 090000000000000000000000000000000000000000000000000000000000000000000000000000000000000000000000000000000000000000000000001310202000000000    00000000000000000000000                        20281575600000000000000000000       
7560001300323T 0904609000000000793400001119143901014     116230000000000010102020000000000006500756046090IVONETE ALVES DA SILVA FE091000025317792215SALUTE                                  00000000000000000000000100000000013                 
7560001300324U 090000000000000000000000000000000000000000000000000000000000000000000000000000000000000000000000000000000000000000000000001310202000000000    00000000000000000000000                        20281675600000000000000000000       
7560001300325T 0904609000000000793400001119169001014     118670000000000010102020000000000006500756046090RAIMUNDA MARIA DE ABREU C091000000811129390SALUTE                                  00000000000000000000000100000000013                 
7560001300326U 090000000000000000000000000000000000000000000000000000000000000000000000000000000000000000000000000000000000000000000000001310202000000000    00000000000000000000000                        20281775600000000000000000000       
7560001300327T 0904609000000000793400001119182601014     125000000000000010102020000000000006500756046090CARLOS ANTONIO DE OLIVEIR091000038723182172SALUTE                                  00000000000000000000000100000000013                 
7560001300328U 090000000000000000000000000000000000000000000000000000000000000000000000000000000000000000000000000000000000000000000000001310202000000000    00000000000000000000000                        20281875600000000000000000000       
7560001300329T 0904609000000000793400001119195101014     133000000000000010102020000000000006500756046090ANDRESA PEREIRA DA SILVA 091000056351518253SALUTE                                  00000000000000000000000100000000013                 
7560001300330U 090000000000000000000000000000000000000000000000000000000000000000000000000000000000000000000000000000000000000000000000001310202000000000    00000000000000000000000                        20281975600000000000000000000       
7560001300331T 0904609000000000793400001119208201014     127000000000000010102020000000000006500756046090ROSANGELA DO CARMO MAGALH091000041127420291SALUTE                                  00000000000000000000000100000000013                 
7560001300332U 090000000000000000000000000000000000000000000000000000000000000000000000000000000000000000000000000000000000000000000000001310202000000000    00000000000000000000000                        20282075600000000000000000000       
7560001300333T 0904609000000000793400001119221901014     135000000000000010102020000000000006500756046090ADIVAN DE JESUS CUNHA    091000047834587749SALUTE                                  00000000000000000000000100000000013                 
7560001300334U 090000000000000000000000000000000000000000000000000000000000000000000000000000000000000000000000000000000000000000000000001310202000000000    00000000000000000000000                        20282175600000000000000000000       
7560001300335T 0904609000000000793400001119234401014     131000000000000010102020000000000006500756046090MACILEIDE MATOS DE LIMA  091000071060545268SALUTE                                  00000000000000000000000100000000013                 
7560001300336U 090000000000000000000000000000000000000000000000000000000000000000000000000000000000000000000000000000000000000000000000001310202000000000    00000000000000000000000                        20282275600000000000000000000       
7560001300337T 0904609000000000793400001119247001014     129000000000000010102020000000000006500756046090MALENA DE SOUZA MOURA    091000086369300225SALUTE                                  00000000000000000000000100000000013                 
7560001300338U 090000000000000000000000000000000000000000000000000000000000000000000000000000000000000000000000000000000000000000000000001310202000000000    00000000000000000000000                        20282375600000000000000000000       
7560001300339T 0904609000000000793400001119260601014     125000000000000010102020000000000006500756046090SELMA DA SILVA COSTA COVR091000074713566268SALUTE                                  00000000000000000000000100000000013                 
7560001300340U 090000000000000000000000000000000000000000000000000000000000000000000000000000000000000000000000000000000000000000000000001310202000000000    00000000000000000000000                        20282475600000000000000000000       
7560001300341T 0904609000000000793400001119273101014     133000000000000010102020000000000006500756046090WEMERSON COSTA COVRE     091000058304843234SALUTE                                  00000000000000000000000100000000013                 
7560001300342U 090000000000000000000000000000000000000000000000000000000000000000000000000000000000000000000000000000000000000000000000001310202000000000    00000000000000000000000                        20282575600000000000000000000       
7560001300343T 0904609000000000793400001119286701014     127000000000000010102020000000000006500756046090LEIA PEREIRA DE SOUZA    091000058148507287SALUTE                                  00000000000000000000000100000000013                 
7560001300344U 090000000000000000000000000000000000000000000000000000000000000000000000000000000000000000000000000000000000000000000000001310202000000000    00000000000000000000000                        20282675600000000000000000000       
7560001300345T 0904609000000000793400001119299201014     129000000000000010102020000000000006500756046090LUCINEIDE APARECIDA SIQUE091000073279218268SALUTE                                  00000000000000000000000100000000013                 
7560001300346U 090000000000000000000000000000000000000000000000000000000000000000000000000000000000000000000000000000000000000000000000001310202000000000    00000000000000000000000                        20282775600000000000000000000       
7560001300347T 0904609000000000793400001119312401014     131000000000000010102020000000000006500756046090ELISANGELA COSTA RIBEIRO 091000087148137268SALUTE                                  00000000000000000000000100000000013                 
7560001300348U 090000000000000000000000000000000000000000000000000000000000000000000000000000000000000000000000000000000000000000000000001310202000000000    00000000000000000000000                        20282875600000000000000000000       
7560001300349T 0604609000000000793400001119325001014     135000000000000010102020000000000006500001085660LUANA MORAES DOS SANTOS M091000001405819286SALUTE                                  00000000000000000000001550000000004                 
7560001300350U 060000000000000000000000000000000000000000000000000000000000000000000000065000000000000065000000000000000000000000000000000910202013102020    00000000000000000000000                        20082075600000000000000000000       
7560001300351T 0904609000000000793400001119338501014     118890000000000010102020000000000006500756046090WILHAMS BARBOSA DA SILVA 091000061789399220SALUTE                                  00000000000000000000000100000000013                 
7560001300352U 090000000000000000000000000000000000000000000000000000000000000000000000000000000000000000000000000000000000000000000000001310202000000000    00000000000000000000000                        20282975600000000000000000000       
7560001300353T 0904609000000000793400001119351101014     118950000000000010102020000000000006500756046090ANA PAULA COSTA DE SOUZA 091000000858879271SALUTE                                  00000000000000000000000100000000013                 
7560001300354U 090000000000000000000000000000000000000000000000000000000000000000000000000000000000000000000000000000000000000000000000001310202000000000    00000000000000000000000                        20283075600000000000000000000       
7560001300355T 0904609000000000793400001119364701014     118790000000000010102020000000000006500756046090TIAGO GOMES DE SOUZA     091000091241650268SALUTE                                  00000000000000000000000100000000013                 
7560001300356U 090000000000000000000000000000000000000000000000000000000000000000000000000000000000000000000000000000000000000000000000001310202000000000    00000000000000000000000                        20283175600000000000000000000       
7560001300357T 0904609000000000793400001119377201014     117170000000000010102020000000000006500756046090JULIENE MEDEIROS DIAS    091000051950294234SALUTE                                  00000000000000000000000100000000013                 
7560001300358U 090000000000000000000000000000000000000000000000000000000000000000000000000000000000000000000000000000000000000000000000001310202000000000    00000000000000000000000                        20283275600000000000000000000       
7560001300359T 0904609000000000793400001119400801014     118010000000000010102020000000000006500756046090JEANE POLICARPIO DO NASCI091000001304116204SALUTE                                  00000000000000000000000100000000013                 
7560001300360U 090000000000000000000000000000000000000000000000000000000000000000000000000000000000000000000000000000000000000000000000001310202000000000    00000000000000000000000                        20283375600000000000000000000       
7560001300361T 0904609000000000793400001119413301014     118850000000000010102020000000000006500756046090JADIR JOSE ALTOE         091000094843554715SALUTE                                  00000000000000000000000100000000013                 
7560001300362U 090000000000000000000000000000000000000000000000000000000000000000000000000000000000000000000000000000000000000000000000001310202000000000    00000000000000000000000                        20283475600000000000000000000       
7560001300363T 0904609000000000793400001119426901014     117010000000000010102020000000000006500756046090JOICY BORGES MORAES      091000099582805234SALUTE                                  00000000000000000000000100000000013                 
7560001300364U 090000000000000000000000000000000000000000000000000000000000000000000000000000000000000000000000000000000000000000000000001310202000000000    00000000000000000000000                        20283575600000000000000000000       
7560001300365T 0904609000000000793400001119439401014     116590000000000010102020000000000006500756046090ANTONIA DE JESUS PEREIRA 091000090581504291SALUTE                                  00000000000000000000000100000000013                 
7560001300366U 090000000000000000000000000000000000000000000000000000000000000000000000000000000000000000000000000000000000000000000000001310202000000000    00000000000000000000000                        20283675600000000000000000000       
7560001300367T 0904609000000000793400001119452001014     117350000000000010102020000000000006500756046090ERISVALDO GOMES MATOS    091000058118640272SALUTE                                  00000000000000000000000100000000013                 
7560001300368U 090000000000000000000000000000000000000000000000000000000000000000000000000000000000000000000000000000000000000000000000001310202000000000    00000000000000000000000                        20283775600000000000000000000       
7560001300369T 0904609000000000793400001119478101014     116310000000000010102020000000000006500756046090CIRIA CORREA DE ARAUJO DO091000022249877220SALUTE                                  00000000000000000000000100000000013                 
7560001300370U 090000000000000000000000000000000000000000000000000000000000000000000000000000000000000000000000000000000000000000000000001310202000000000    00000000000000000000000                        20283875600000000000000000000       
7560001300371T 0904609000000000793400001119491801014     118470000000000010102020000000000006500756046090CARLA DA CONCEICAO ARAUJO091000083158863200SALUTE                                  00000000000000000000000100000000013                 
7560001300372U 090000000000000000000000000000000000000000000000000000000000000000000000000000000000000000000000000000000000000000000000001310202000000000    00000000000000000000000                        20283975600000000000000000000       
7560001300373T 0904609000000000793400001119517401014     116110000000000010102020000000000006500756046090LARISSA ALVES DA SILVA   091000007390990279SALUTE                                  00000000000000000000000100000000013                 
7560001300374U 090000000000000000000000000000000000000000000000000000000000000000000000000000000000000000000000000000000000000000000000001310202000000000    00000000000000000000000                        20284075600000000000000000000       
7560001300375T 0904609000000000793400001119530001014     117470000000000010102020000000000006750756046090CLAUDIA LOPES PRIMO DIAS 091000056486693215SALUTE                                  00000000000000000000000100000000013                 
7560001300376U 090000000000000000000000000000000000000000000000000000000000000000000000000000000000000000000000000000000000000000000000001310202000000000    00000000000000000000000                        20284175600000000000000000000       
7560001300377T 0904609000000000793400001119543601014     115910000000000010102020000000000006500756046090RAIMUNDA DE OLIVEIRA MELO091000056314175291SALUTE                                  00000000000000000000000100000000013                 
7560001300378U 090000000000000000000000000000000000000000000000000000000000000000000000000000000000000000000000000000000000000000000000001310202000000000    00000000000000000000000                        20284275600000000000000000000       
7560001300379T 0604609000000000793400001119556101014     118130000000000010102020000000000006500104035910JOSIEL NASCIMENTO BARROS 091000048948195387SALUTE                                  00000000000000000000001550000000004                 
7560001300380U 060000000000000000000000000000000000000000000000000000000000000000000000065000000000000065000000000000000000000000000000000910202013102020    00000000000000000000000                        20109275600000000000000000000       
7560001300381T 0904609000000000793400001119569701014     117250000000000010102020000000000006500756046090THAYS ELIZABETHE SOUZA CA091000089197755249SALUTE                                  00000000000000000000000100000000013                 
7560001300382U 090000000000000000000000000000000000000000000000000000000000000000000000000000000000000000000000000000000000000000000000001310202000000000    00000000000000000000000                        20284375600000000000000000000       
7560001300383T 0904609000000000793400001119582301014     116010000000000010102020000000000006500756046090ADRIANA MOREIRA E SILVA  091000053197291204SALUTE                                  00000000000000000000000100000000013                 
7560001300384U 090000000000000000000000000000000000000000000000000000000000000000000000000000000000000000000000000000000000000000000000001310202000000000    00000000000000000000000                        20284475600000000000000000000       
7560001300385T 0904609000000000793400001119595901014     118270000000000010102020000000000006500756046090JANIO FERNANDES DA SILVA 091000074576500244SALUTE                                  00000000000000000000000100000000013                 
7560001300386U 090000000000000000000000000000000000000000000000000000000000000000000000000000000000000000000000000000000000000000000000001310202000000000    00000000000000000000000                        20284575600000000000000000000       
7560001300387T 0904609000000000793400001119608001014     118030000000000010102020000000000006500756046090LEDINADINA ALMEIDA DANTAS091000029824044272SALUTE                                  00000000000000000000000100000000013                 
7560001300388U 090000000000000000000000000000000000000000000000000000000000000000000000000000000000000000000000000000000000000000000000001310202000000000    00000000000000000000000                        20284675600000000000000000000       
7560001300389T 0904609000000000793400001119634101014     116490000000000010102020000000000006500756046090ALISON SILVA DE ARAUJO   091000053019482291SALUTE                                  00000000000000000000000100000000013                 
7560001300390U 090000000000000000000000000000000000000000000000000000000000000000000000000000000000000000000000000000000000000000000000001310202000000000    00000000000000000000000                        20284775600000000000000000000       
7560001300391T 0904609000000000793400001119647701014     116750000000000010102020000000000006750756046090VIRGINIA LUCIA PINHEIRO D091000087695030287SALUTE                                  00000000000000000000000100000000013                 
7560001300392U 090000000000000000000000000000000000000000000000000000000000000000000000000000000000000000000000000000000000000000000000001310202000000000    00000000000000000000000                        20284875600000000000000000000       
7560001300393T 0904609000000000793400001119660301014     117530000000000010102020000000000006500756046090REGIANE DE JESUS PEREIRA 091000002284346294SALUTE                                  00000000000000000000000100000000013                 
7560001300394U 090000000000000000000000000000000000000000000000000000000000000000000000000000000000000000000000000000000000000000000000001310202000000000    00000000000000000000000                        20284975600000000000000000000       
7560001300395T 0604609000000000793400001119673901014     117230000000000010102020000000000006500260000010JHONNYS CAMPOS DOS PRAZER091000002121418210SALUTE                                  00000000000000000000001550000000004                 
7560001300396U 060000000000000000000000000000000000000000000000000000000000000000000000065000000000000065000000000000000000000000000000000910202013102020    00000000000000000000000                        20091575600000000000000000000       
7560001300397T 0904609000000000793400001119686401014     116530000000000010102020000000000006500756046090ELIANE DE MOURA LIMA     091000061535940263SALUTE                                  00000000000000000000000100000000013                 
7560001300398U 090000000000000000000000000000000000000000000000000000000000000000000000000000000000000000000000000000000000000000000000001310202000000000    00000000000000000000000                        20285075600000000000000000000       
7560001300399T 0904609000000000793400001119699001014     117570000000000010102020000000000006500756046090LUIS FERNANDO PALADIN    091000028316333899SALUTE                                  00000000000000000000000100000000013                 
7560001300400U 090000000000000000000000000000000000000000000000000000000000000000000000000000000000000000000000000000000000000000000000001310202000000000    00000000000000000000000                        20285175600000000000000000000       
7560001300401T 0904609000000000793400001119738201014     117670000000000010102020000000000006500756046090JOSIANE ALEXANDRIA DA SIL091000050556029372SALUTE                                  00000000000000000000000100000000013                 
7560001300402U 090000000000000000000000000000000000000000000000000000000000000000000000000000000000000000000000000000000000000000000000001310202000000000    00000000000000000000000                        20285275600000000000000000000       
7560001300403T 0904609000000000793400001119751901014     116710000000000010102020000000000006500756046090VALDIANE SILVA DA CRUZ   091000078502390244SALUTE                                  00000000000000000000000100000000013                 
7560001300404U 090000000000000000000000000000000000000000000000000000000000000000000000000000000000000000000000000000000000000000000000001310202000000000    00000000000000000000000                        20285375600000000000000000000       
7560001300405T 0904609000000000793400001119764401014     116630000000000010102020000000000006500756046090Eduardo Arinos de Almeida091000029629748215SALUTE                                  00000000000000000000000100000000013                 
7560001300406U 090000000000000000000000000000000000000000000000000000000000000000000000000000000000000000000000000000000000000000000000001310202000000000    00000000000000000000000                        20285475600000000000000000000       
7560001300407T 0604609000000000793400001119790601014     118510000000000010102020000000000006500237015140MARTA DE MORAIS FARIAS   091000005769402164SALUTE                                  00000000000000000000001550000000004                 
7560001300408U 060000000000000000000000000000000000000000000000000000000000000000000000065000000000000065000000000000000000000000000000001310202000000000    00000000000000000000000                        20158575600000000000000000000       
7560001300409T 0904609000000000793400001119803701014     117330000000000010102020000000000006500756046090JUCIE CARDOSO DA SILVA   091000076544672220SALUTE                                  00000000000000000000000100000000013                 
7560001300410U 090000000000000000000000000000000000000000000000000000000000000000000000000000000000000000000000000000000000000000000000001310202000000000    00000000000000000000000                        20285575600000000000000000000       
7560001300411T 0904609000000000793400001119816201014     116430000000000010102020000000000006500756046090ROMARIO DE SOUSA ALEXANDR091000003583859200SALUTE                                  00000000000000000000000100000000013                 
