75600000         235812309000160                    04609000000000793400SALUTE ATIVIDADES DE INTERMEDISICOOB                                  21609202010041100005708500000                                                                     
75600011T01  043 2035812309000160          460900000804609000000000793400SALUTE ATIVIDADES DE INTERMEDI                                                                                000000001609202000000000                                 
7560001300001T 0204609000000000793400000000001301014     119000000000000010102020000000000006500756046090CELIMAR DA ROCHA SOUZA   091000095574930200CELIMAR DA ROCHA SOUZA                  000000000000000000000000000000000A4                 
7560001300002U 020000000000000000000000000000000000000000000000000000000000000000000000000000000000000000000000000000000000000000000000001409202000000000    00000000000000000000000                              75600000000000000000000       
7560001300003T 0204609000000000793400000000002001014     145500000000000010092021000000000006500756046090CINTHIA RILLERI ALVES OLI091000006089988260CINTHIA RILLERI ALVES OLIVEIRA          000000000000000000000000000000000A4                 
7560001300004U 020000000000000000000000000000000000000000000000000000000000000000000000000000000000000000000000000000000000000000000000001409202000000000    00000000000000000000000                              75600000000000000000000       
7560001300005T 0204609000000000793400000000003801014     161000000000000010112020000000000006500756046090CLEMILTO DE JESUS ARAUJO 091000051760355291CLEMILTO DE JESUS ARAUJO                000000000000000000000000000000000A4                 
7560001300006U 020000000000000000000000000000000000000000000000000000000000000000000000000000000000000000000000000000000000000000000000001409202000000000    00000000000000000000000                              75600000000000000000000       
7560001300007T 0204609000000000793400000000004501014     146100000000000010092021000000000006500756046090CLEUMA GOMES RODRIGUES   091000014611589234CLEUMA GOMES RODRIGUES                  000000000000000000000000000000000A4                 
7560001300008U 020000000000000000000000000000000000000000000000000000000000000000000000000000000000000000000000000000000000000000000000001409202000000000    00000000000000000000000                              75600000000000000000000       
7560001300009T 0204609000000000793400000000005201014     121000000000000010102020000000000006500756046090GABRIELA DIAS SARAIVA POM091000001714609286GABRIELA DIAS SARAIVA POMPEU            000000000000000000000000000000000A4                 
7560001300010U 020000000000000000000000000000000000000000000000000000000000000000000000000000000000000000000000000000000000000000000000001409202000000000    00000000000000000000000                              75600000000000000000000       
7560001300011T 0204609000000000793400000000006001014     147300000000000010092021000000000006500756046090GRACIETE DE JESUS MENEZES091000038014645200GRACIETE DE JESUS MENEZES               000000000000000000000000000000000A4                 
7560001300012U 020000000000000000000000000000000000000000000000000000000000000000000000000000000000000000000000000000000000000000000000001409202000000000    00000000000000000000000                              75600000000000000000000       
7560001300013T 0204609000000000793400000000007701014     157000000000000010112020000000000006500756046090IVERLANDIA DA SILVA CHAVE091000039857182291IVERLANDIA DA SILVA CHAVES              000000000000000000000000000000000A4                 
7560001300014U 020000000000000000000000000000000000000000000000000000000000000000000000000000000000000000000000000000000000000000000000001409202000000000    00000000000000000000000                              75600000000000000000000       
7560001300015T 0204609000000000793400000000008401014     144100000000000010082021000000000006500756046090JOSE ROBERTO MORAES PIRES091000063739801204JOSE ROBERTO MORAES PIRES               000000000000000000000000000000000A4                 
7560001300016U 020000000000000000000000000000000000000000000000000000000000000000000000000000000000000000000000000000000000000000000000001409202000000000    00000000000000000000000                              75600000000000000000000       
7560001300017T 0204609000000000793400000000009101014     131000000000000010102020000000000006500756046090JOSIANE FREITAS VIDAL    091000005032602230JOSIANE FREITAS VIDAL                   000000000000000000000000000000000A4                 
7560001300018U 020000000000000000000000000000000000000000000000000000000000000000000000000000000000000000000000000000000000000000000000001409202000000000    00000000000000000000000                              75600000000000000000000       
7560001300019T 0204609000000000793400000000010001014     144700000000000010092021000000000006500756046090KATIA ELOIZE ARAUJO LIMA 091000001187497223KATIA ELOIZE ARAUJO LIMA                000000000000000000000000000000000A4                 
7560001300020U 020000000000000000000000000000000000000000000000000000000000000000000000000000000000000000000000000000000000000000000000001409202000000000    00000000000000000000000                              75600000000000000000000       
7560001300021T 0204609000000000793400000000011701014     133000000000000010102020000000000006500756046090LEOCY ALVES PIMENTEL     091000057310769287LEOCY ALVES PIMENTEL                    000000000000000000000000000000000A4                 
7560001300022U 020000000000000000000000000000000000000000000000000000000000000000000000000000000000000000000000000000000000000000000000001409202000000000    00000000000000000000000                              75600000000000000000000       
7560001300023T 0204609000000000793400000000012401014     144500000000000005092021000000000006500756046090LEONARDO SIQUEIRA MENESES091000072054310263LEONARDO SIQUEIRA MENESES               000000000000000000000000000000000A4                 
7560001300024U 020000000000000000000000000000000000000000000000000000000000000000000000000000000000000000000000000000000000000000000000001409202000000000    00000000000000000000000                              75600000000000000000000       
7560001300025T 0204609000000000793400000000013101014     130000000000000005102020000000000006500756046090MARIA DE FATIMA AMERICO C091000046290966200MARIA DE FATIMA AMERICO CAVALCANTE      000000000000000000000000000000000A4                 
7560001300026U 020000000000000000000000000000000000000000000000000000000000000000000000000000000000000000000000000000000000000000000000001409202000000000    00000000000000000000000                              75600000000000000000000       
7560001300027T 0204609000000000793400000000014901014     144900000000000010092021000000000006500756046090MARYELLE DA SILVA BARROS 091000070059467231MARYELLE DA SILVA BARROS                000000000000000000000000000000000A4                 
7560001300028U 020000000000000000000000000000000000000000000000000000000000000000000000000000000000000000000000000000000000000000000000001409202000000000    00000000000000000000000                              75600000000000000000000       
7560001300029T 0204609000000000793400000000015601014     151000000000000010112020000000000006500756046090NILTON CAETANO DE SOUZA  091000067691420234NILTON CAETANO DE SOUZA                 000000000000000000000000000000000A4                 
7560001300030U 020000000000000000000000000000000000000000000000000000000000000000000000000000000000000000000000000000000000000000000000001409202000000000    00000000000000000000000                              75600000000000000000000       
7560001300031T 0204609000000000793400000000016301014     145900000000000010092021000000000006500756046090PRISCILA PABULA NUNES CHA091000089555058253PRISCILA PABULA NUNES CHAVES            000000000000000000000000000000000A4                 
7560001300032U 020000000000000000000000000000000000000000000000000000000000000000000000000000000000000000000000000000000000000000000000001409202000000000    00000000000000000000000                              75600000000000000000000       
7560001300033T 0204609000000000793400000000017001014     169000000000000010112020000000000006500756046090ROSENIR RIBEIRO ALMEIDA  091000016830857287ROSENIR RIBEIRO ALMEIDA                 000000000000000000000000000000000A4                 
7560001300034U 020000000000000000000000000000000000000000000000000000000000000000000000000000000000000000000000000000000000000000000000001409202000000000    00000000000000000000000                              75600000000000000000000       
7560001300035T 0204609000000000793400000000018801014     145700000000000010092021000000000006500756046090THIAGO OLIVEIRA DA SILVA 091000067070256272THIAGO OLIVEIRA DA SILVA                000000000000000000000000000000000A4                 
7560001300036U 020000000000000000000000000000000000000000000000000000000000000000000000000000000000000000000000000000000000000000000000001409202000000000    00000000000000000000000                              75600000000000000000000       
7560001300037T 0204609000000000793400000000019501014     125000000000000010102020000000000006500756046090UELLITON FERREIRA DE GODO091000060803797249UELLITON FERREIRA DE GODOY              000000000000000000000000000000000A4                 
7560001300038U 020000000000000000000000000000000000000000000000000000000000000000000000000000000000000000000000000000000000000000000000001409202000000000    00000000000000000000000                              75600000000000000000000       
7560001300039T 0204609000000000793400000000020301014     146900000000000010092021000000000006500756046090WILLIAM ANDRADE COSTA    091000008758700153WILLIAM ANDRADE COSTA                   000000000000000000000000000000000A4                 
7560001300040U 020000000000000000000000000000000000000000000000000000000000000000000000000000000000000000000000000000000000000000000000001409202000000000    00000000000000000000000                              75600000000000000000000       
7560001300041T 0204609000000000793400000000021001014     177000000000000010112020000000000006500756046090CELIMAR DA ROCHA SOUZA   091000095574930200CELIMAR DA ROCHA SOUZA                  000000000000000000000000000000000A4                 
7560001300042U 020000000000000000000000000000000000000000000000000000000000000000000000000000000000000000000000000000000000000000000000001409202000000000    00000000000000000000000                              75600000000000000000000       
7560001300043T 0204609000000000793400000000022801014     142300000000000010082021000000000006500756046090CINTHIA RILLERI ALVES OLI091000006089988260CINTHIA RILLERI ALVES OLIVEIRA          000000000000000000000000000000000A4                 
7560001300044U 020000000000000000000000000000000000000000000000000000000000000000000000000000000000000000000000000000000000000000000000001409202000000000    00000000000000000000000                              75600000000000000000000       
7560001300045T 0204609000000000793400000000023501014     139000000000000010102020000000000006500756046090CLEMILTO DE JESUS ARAUJO 091000051760355291CLEMILTO DE JESUS ARAUJO                000000000000000000000000000000000A4                 
7560001300046U 020000000000000000000000000000000000000000000000000000000000000000000000000000000000000000000000000000000000000000000000001409202000000000    00000000000000000000000                              75600000000000000000000       
7560001300047T 0204609000000000793400000000024201014     141700000000000010082021000000000006500756046090CLEUMA GOMES RODRIGUES   091000014611589234CLEUMA GOMES RODRIGUES                  000000000000000000000000000000000A4                 
7560001300048U 020000000000000000000000000000000000000000000000000000000000000000000000000000000000000000000000000000000000000000000000001409202000000000    00000000000000000000000                              75600000000000000000000       
7560001300049T 0204609000000000793400000000025001014     171000000000000010112020000000000006500756046090GABRIELA DIAS SARAIVA POM091000001714609286GABRIELA DIAS SARAIVA POMPEU            000000000000000000000000000000000A4                 
7560001300050U 020000000000000000000000000000000000000000000000000000000000000000000000000000000000000000000000000000000000000000000000001409202000000000    00000000000000000000000                              75600000000000000000000       
7560001300051T 0204609000000000793400000000026701014     141100000000000010082021000000000006500756046090GRACIETE DE JESUS MENEZES091000038014645200GRACIETE DE JESUS MENEZES               000000000000000000000000000000000A4                 
7560001300052U 020000000000000000000000000000000000000000000000000000000000000000000000000000000000000000000000000000000000000000000000001409202000000000    00000000000000000000000                              75600000000000000000000       
7560001300053T 0204609000000000793400000000027401014     170000000000000010102020000000000006500756046090IVERLANDIA DA SILVA CHAVE091000039857182291IVERLANDIA DA SILVA CHAVES              000000000000000000000000000000000A4                 
7560001300054U 020000000000000000000000000000000000000000000000000000000000000000000000000000000000000000000000000000000000000000000000001409202000000000    00000000000000000000000                              75600000000000000000000       
7560001300055T 0204609000000000793400000000028101014     138300000000000010072021000000000006500756046090JOSE ROBERTO MORAES PIRES091000063739801204JOSE ROBERTO MORAES PIRES               000000000000000000000000000000000A4                 
7560001300056U 020000000000000000000000000000000000000000000000000000000000000000000000000000000000000000000000000000000000000000000000001409202000000000    00000000000000000000000                              75600000000000000000000       
7560001300057T 0204609000000000793400000000029901014     147000000000000010112020000000000006500756046090JOSIANE FREITAS VIDAL    091000005032602230JOSIANE FREITAS VIDAL                   000000000000000000000000000000000A4                 
7560001300058U 020000000000000000000000000000000000000000000000000000000000000000000000000000000000000000000000000000000000000000000000001409202000000000    00000000000000000000000                              75600000000000000000000       
7560001300059T 0204609000000000793400000000030701014     140900000000000010082021000000000006500756046090KATIA ELOIZE ARAUJO LIMA 091000001187497223KATIA ELOIZE ARAUJO LIMA                000000000000000000000000000000000A4                 
7560001300060U 020000000000000000000000000000000000000000000000000000000000000000000000000000000000000000000000000000000000000000000000001409202000000000    00000000000000000000000                              75600000000000000000000       
7560001300061T 0204609000000000793400000000031401014     167000000000000010112020000000000006500756046090LEOCY ALVES PIMENTEL     091000057310769287LEOCY ALVES PIMENTEL                    000000000000000000000000000000000A4                 
7560001300062U 020000000000000000000000000000000000000000000000000000000000000000000000000000000000000000000000000000000000000000000000001409202000000000    00000000000000000000000                              75600000000000000000000       
7560001300063T 0204609000000000793400000000032101014     140500000000000005082021000000000006500756046090LEONARDO SIQUEIRA MENESES091000072054310263LEONARDO SIQUEIRA MENESES               000000000000000000000000000000000A4                 
7560001300064U 020000000000000000000000000000000000000000000000000000000000000000000000000000000000000000000000000000000000000000000000001409202000000000    00000000000000000000000                              75600000000000000000000       
7560001300065T 0204609000000000793400000000033901014     143000000000000005112020000000000006500756046090MARIA DE FATIMA AMERICO C091000046290966200MARIA DE FATIMA AMERICO CAVALCANTE      000000000000000000000000000000000A4                 
7560001300066U 020000000000000000000000000000000000000000000000000000000000000000000000000000000000000000000000000000000000000000000000001409202000000000    00000000000000000000000                              75600000000000000000000       
7560001300067T 0204609000000000793400000000034601014     141500000000000010082021000000000006500756046090MARYELLE DA SILVA BARROS 091000070059467231MARYELLE DA SILVA BARROS                000000000000000000000000000000000A4                 
7560001300068U 020000000000000000000000000000000000000000000000000000000000000000000000000000000000000000000000000000000000000000000000001409202000000000    00000000000000000000000                              75600000000000000000000       
7560001300069T 0204609000000000793400000000035301014     113000000000000010102020000000000006500756046090NILTON CAETANO DE SOUZA  091000067691420234NILTON CAETANO DE SOUZA                 000000000000000000000000000000000A4                 
7560001300070U 020000000000000000000000000000000000000000000000000000000000000000000000000000000000000000000000000000000000000000000000001409202000000000    00000000000000000000000                              75600000000000000000000       
7560001300071T 0204609000000000793400000000036001014     139500000000000010072021000000000006500756046090PRISCILA PABULA NUNES CHA091000089555058253PRISCILA PABULA NUNES CHAVES            000000000000000000000000000000000A4                 
7560001300072U 020000000000000000000000000000000000000000000000000000000000000000000000000000000000000000000000000000000000000000000000001409202000000000    00000000000000000000000                              75600000000000000000000       
7560001300073T 0204609000000000793400000000037801014     129000000000000010102020000000000006500756046090ROSENIR RIBEIRO ALMEIDA  091000016830857287ROSENIR RIBEIRO ALMEIDA                 000000000000000000000000000000000A4                 
7560001300074U 020000000000000000000000000000000000000000000000000000000000000000000000000000000000000000000000000000000000000000000000001409202000000000    00000000000000000000000                              75600000000000000000000       
7560001300075T 0204609000000000793400000000038501014     137100000000000010072021000000000006500756046090THIAGO OLIVEIRA DA SILVA 091000067070256272THIAGO OLIVEIRA DA SILVA                000000000000000000000000000000000A4                 
7560001300076U 020000000000000000000000000000000000000000000000000000000000000000000000000000000000000000000000000000000000000000000000001409202000000000    00000000000000000000000                              75600000000000000000000       
7560001300077T 0204609000000000793400000000039201014     199000000000000010122020000000000006500756046090UELLITON FERREIRA DE GODO091000060803797249UELLITON FERREIRA DE GODOY              000000000000000000000000000000000A4                 
7560001300078U 020000000000000000000000000000000000000000000000000000000000000000000000000000000000000000000000000000000000000000000000001409202000000000    00000000000000000000000                              75600000000000000000000       
7560001300079T 0204609000000000793400000000040001014     137900000000000010072021000000000006500756046090WILLIAM ANDRADE COSTA    091000008758700153WILLIAM ANDRADE COSTA                   000000000000000000000000000000000A4                 
7560001300080U 020000000000000000000000000000000000000000000000000000000000000000000000000000000000000000000000000000000000000000000000001409202000000000    00000000000000000000000                              75600000000000000000000       
7560001300081T 0204609000000000793400000000041801014     111900000000000010122020000000000006500756046090CELIMAR DA ROCHA SOUZA   091000095574930200CELIMAR DA ROCHA SOUZA                  000000000000000000000000000000000A4                 
7560001300082U 020000000000000000000000000000000000000000000000000000000000000000000000000000000000000000000000000000000000000000000000001409202000000000    00000000000000000000000                              75600000000000000000000       
7560001300083T 0204609000000000793400000000042501014     136900000000000010072021000000000006500756046090CINTHIA RILLERI ALVES OLI091000006089988260CINTHIA RILLERI ALVES OLIVEIRA          000000000000000000000000000000000A4                 
7560001300084U 020000000000000000000000000000000000000000000000000000000000000000000000000000000000000000000000000000000000000000000000001409202000000000    00000000000000000000000                              75600000000000000000000       
7560001300085T 0204609000000000793400000000043201014     114100000000000010012021000000000006500756046090CLEMILTO DE JESUS ARAUJO 091000051760355291CLEMILTO DE JESUS ARAUJO                000000000000000000000000000000000A4                 
7560001300086U 020000000000000000000000000000000000000000000000000000000000000000000000000000000000000000000000000000000000000000000000001409202000000000    00000000000000000000000                              75600000000000000000000       
7560001300087T 0204609000000000793400000000044001014     139100000000000010072021000000000006500756046090CLEUMA GOMES RODRIGUES   091000014611589234CLEUMA GOMES RODRIGUES                  000000000000000000000000000000000A4                 
7560001300088U 020000000000000000000000000000000000000000000000000000000000000000000000000000000000000000000000000000000000000000000000001409202000000000    00000000000000000000000                              75600000000000000000000       
7560001300089T 0204609000000000793400000000045701014     110700000000000010122020000000000006500756046090GABRIELA DIAS SARAIVA POM091000001714609286GABRIELA DIAS SARAIVA POMPEU            000000000000000000000000000000000A4                 
7560001300090U 020000000000000000000000000000000000000000000000000000000000000000000000000000000000000000000000000000000000000000000000001409202000000000    00000000000000000000000                              75600000000000000000000       
7560001300091T 0204609000000000793400000000046401014     138100000000000010072021000000000006500756046090GRACIETE DE JESUS MENEZES091000038014645200GRACIETE DE JESUS MENEZES               000000000000000000000000000000000A4                 
7560001300092U 020000000000000000000000000000000000000000000000000000000000000000000000000000000000000000000000000000000000000000000000001409202000000000    00000000000000000000000                              75600000000000000000000       
7560001300093T 0204609000000000793400000000047101014     113100000000000010012021000000000006500756046090IVERLANDIA DA SILVA CHAVE091000039857182291IVERLANDIA DA SILVA CHAVES              000000000000000000000000000000000A4                 
7560001300094U 020000000000000000000000000000000000000000000000000000000000000000000000000000000000000000000000000000000000000000000000001409202000000000    00000000000000000000000                              75600000000000000000000       
7560001300095T 0204609000000000793400000000048901014     135500000000000010062021000000000006500756046090JOSE ROBERTO MORAES PIRES091000063739801204JOSE ROBERTO MORAES PIRES               000000000000000000000000000000000A4                 
7560001300096U 020000000000000000000000000000000000000000000000000000000000000000000000000000000000000000000000000000000000000000000000001409202000000000    00000000000000000000000                              75600000000000000000000       
7560001300097T 0204609000000000793400000000049601014     195000000000000010122020000000000006500756046090JOSIANE FREITAS VIDAL    091000005032602230JOSIANE FREITAS VIDAL                   000000000000000000000000000000000A4                 
7560001300098U 020000000000000000000000000000000000000000000000000000000000000000000000000000000000000000000000000000000000000000000000001409202000000000    00000000000000000000000                              75600000000000000000000       
7560001300099T 0204609000000000793400000000050401014     137700000000000010072021000000000006500756046090KATIA ELOIZE ARAUJO LIMA 091000001187497223KATIA ELOIZE ARAUJO LIMA                000000000000000000000000000000000A4                 
7560001300100U 020000000000000000000000000000000000000000000000000000000000000000000000000000000000000000000000000000000000000000000000001409202000000000    00000000000000000000000                              75600000000000000000000       
7560001300101T 0204609000000000793400000000051101014     113300000000000010012021000000000006500756046090LEOCY ALVES PIMENTEL     091000057310769287LEOCY ALVES PIMENTEL                    000000000000000000000000000000000A4                 
7560001300102U 020000000000000000000000000000000000000000000000000000000000000000000000000000000000000000000000000000000000000000000000001409202000000000    00000000000000000000000                              75600000000000000000000       
7560001300103T 0204609000000000793400000000052901014     136500000000000005072021000000000006500756046090LEONARDO SIQUEIRA MENESES091000072054310263LEONARDO SIQUEIRA MENESES               000000000000000000000000000000000A4                 
7560001300104U 020000000000000000000000000000000000000000000000000000000000000000000000000000000000000000000000000000000000000000000000001409202000000000    00000000000000000000000                              75600000000000000000000       
7560001300105T 0204609000000000793400000000053601014     112500000000000005012021000000000006500756046090MARIA DE FATIMA AMERICO C091000046290966200MARIA DE FATIMA AMERICO CAVALCANTE      000000000000000000000000000000000A4                 
7560001300106U 020000000000000000000000000000000000000000000000000000000000000000000000000000000000000000000000000000000000000000000000001409202000000000    00000000000000000000000                              75600000000000000000000       
7560001300107T 0204609000000000793400000000054301014     140100000000000010072021000000000006500756046090MARYELLE DA SILVA BARROS 091000070059467231MARYELLE DA SILVA BARROS                000000000000000000000000000000000A4                 
7560001300108U 020000000000000000000000000000000000000000000000000000000000000000000000000000000000000000000000000000000000000000000000001409202000000000    00000000000000000000000                              75600000000000000000000       
7560001300109T 0204609000000000793400000000055001014     111700000000000010122020000000000006500756046090NILTON CAETANO DE SOUZA  091000067691420234NILTON CAETANO DE SOUZA                 000000000000000000000000000000000A4                 
7560001300110U 020000000000000000000000000000000000000000000000000000000000000000000000000000000000000000000000000000000000000000000000001409202000000000    00000000000000000000000                              75600000000000000000000       
7560001300111T 0204609000000000793400000000056801014     142100000000000010082021000000000006500756046090PRISCILA PABULA NUNES CHA091000089555058253PRISCILA PABULA NUNES CHAVES            000000000000000000000000000000000A4                 
7560001300112U 020000000000000000000000000000000000000000000000000000000000000000000000000000000000000000000000000000000000000000000000001409202000000000    00000000000000000000000                              75600000000000000000000       
7560001300113T 0204609000000000793400000000057501014     114900000000000010012021000000000006500756046090ROSENIR RIBEIRO ALMEIDA  091000016830857287ROSENIR RIBEIRO ALMEIDA                 000000000000000000000000000000000A4                 
7560001300114U 020000000000000000000000000000000000000000000000000000000000000000000000000000000000000000000000000000000000000000000000001409202000000000    00000000000000000000000                              75600000000000000000000       
7560001300115T 0204609000000000793400000000058201014     143100000000000010082021000000000006500756046090THIAGO OLIVEIRA DA SILVA 091000067070256272THIAGO OLIVEIRA DA SILVA                000000000000000000000000000000000A4                 
7560001300116U 020000000000000000000000000000000000000000000000000000000000000000000000000000000000000000000000000000000000000000000000001409202000000000    00000000000000000000000                              75600000000000000000000       
7560001300117T 0204609000000000793400000000059001014     181000000000000010112020000000000006500756046090UELLITON FERREIRA DE GODO091000060803797249UELLITON FERREIRA DE GODOY              000000000000000000000000000000000A4                 
7560001300118U 020000000000000000000000000000000000000000000000000000000000000000000000000000000000000000000000000000000000000000000000001409202000000000    00000000000000000000000                              75600000000000000000000       
7560001300119T 0204609000000000793400000000060801014     140700000000000010082021000000000006500756046090WILLIAM ANDRADE COSTA    091000008758700153WILLIAM ANDRADE COSTA                   000000000000000000000000000000000A4                 
7560001300120U 020000000000000000000000000000000000000000000000000000000000000000000000000000000000000000000000000000000000000000000000001409202000000000    00000000000000000000000                              75600000000000000000000       
7560001300121T 0204609000000000793400000000061501014     112900000000000010012021000000000006500756046090CELIMAR DA ROCHA SOUZA   091000095574930200CELIMAR DA ROCHA SOUZA                  000000000000000000000000000000000A4                 
7560001300122U 020000000000000000000000000000000000000000000000000000000000000000000000000000000000000000000000000000000000000000000000001409202000000000    00000000000000000000000                              75600000000000000000000       
7560001300123T 0204609000000000793400000000062201014     133700000000000010062021000000000006500756046090CINTHIA RILLERI ALVES OLI091000006089988260CINTHIA RILLERI ALVES OLIVEIRA          000000000000000000000000000000000A4                 
7560001300124U 020000000000000000000000000000000000000000000000000000000000000000000000000000000000000000000000000000000000000000000000001409202000000000    00000000000000000000000                              75600000000000000000000       
7560001300125T 0204609000000000793400000000063001014     112100000000000010122020000000000006500756046090CLEMILTO DE JESUS ARAUJO 091000051760355291CLEMILTO DE JESUS ARAUJO                000000000000000000000000000000000A4                 
7560001300126U 020000000000000000000000000000000000000000000000000000000000000000000000000000000000000000000000000000000000000000000000001409202000000000    00000000000000000000000                              75600000000000000000000       
7560001300127T 0204609000000000793400000000064701014     133900000000000010062021000000000006500756046090CLEUMA GOMES RODRIGUES   091000014611589234CLEUMA GOMES RODRIGUES                  000000000000000000000000000000000A4                 
7560001300128U 020000000000000000000000000000000000000000000000000000000000000000000000000000000000000000000000000000000000000000000000001409202000000000    00000000000000000000000                              75600000000000000000000       
7560001300129T 0204609000000000793400000000065401014     118500000000000010022021000000000006500756046090GABRIELA DIAS SARAIVA POM091000001714609286GABRIELA DIAS SARAIVA POMPEU            000000000000000000000000000000000A4                 
7560001300130U 020000000000000000000000000000000000000000000000000000000000000000000000000000000000000000000000000000000000000000000000001409202000000000    00000000000000000000000                              75600000000000000000000       
7560001300131T 0204609000000000793400000000066101014     134300000000000010062021000000000006500756046090GRACIETE DE JESUS MENEZES091000038014645200GRACIETE DE JESUS MENEZES               000000000000000000000000000000000A4                 
7560001300132U 020000000000000000000000000000000000000000000000000000000000000000000000000000000000000000000000000000000000000000000000001409202000000000    00000000000000000000000                              75600000000000000000000       
7560001300133T 0204609000000000793400000000067901014     187000000000000010122020000000000006500756046090IVERLANDIA DA SILVA CHAVE091000039857182291IVERLANDIA DA SILVA CHAVES              000000000000000000000000000000000A4                 
7560001300134U 020000000000000000000000000000000000000000000000000000000000000000000000000000000000000000000000000000000000000000000000001409202000000000    00000000000000000000000                              75600000000000000000000       
7560001300135T 0204609000000000793400000000068601014     130500000000000010052021000000000006500756046090JOSE ROBERTO MORAES PIRES091000063739801204JOSE ROBERTO MORAES PIRES               000000000000000000000000000000000A4                 
7560001300136U 020000000000000000000000000000000000000000000000000000000000000000000000000000000000000000000000000000000000000000000000001409202000000000    00000000000000000000000                              75600000000000000000000       
7560001300137T 0204609000000000793400000000069301014     117500000000000010022021000000000006500756046090JOSIANE FREITAS VIDAL    091000005032602230JOSIANE FREITAS VIDAL                   000000000000000000000000000000000A4                 
7560001300138U 020000000000000000000000000000000000000000000000000000000000000000000000000000000000000000000000000000000000000000000000001409202000000000    00000000000000000000000                              75600000000000000000000       
7560001300139T 0204609000000000793400000000070101014     134100000000000010062021000000000006500756046090KATIA ELOIZE ARAUJO LIMA 091000001187497223KATIA ELOIZE ARAUJO LIMA                000000000000000000000000000000000A4                 
7560001300140U 020000000000000000000000000000000000000000000000000000000000000000000000000000000000000000000000000000000000000000000000001409202000000000    00000000000000000000000                              75600000000000000000000       
7560001300141T 0204609000000000793400000000071901014     191000000000000010122020000000000006500756046090LEOCY ALVES PIMENTEL     091000057310769287LEOCY ALVES PIMENTEL                    000000000000000000000000000000000A4                 
7560001300142U 020000000000000000000000000000000000000000000000000000000000000000000000000000000000000000000000000000000000000000000000001409202000000000    00000000000000000000000                              75600000000000000000000       
7560001300143T 0204609000000000793400000000072601014     132500000000000005062021000000000006500756046090LEONARDO SIQUEIRA MENESES091000072054310263LEONARDO SIQUEIRA MENESES               000000000000000000000000000000000A4                 
7560001300144U 020000000000000000000000000000000000000000000000000000000000000000000000000000000000000000000000000000000000000000000000001409202000000000    00000000000000000000000                              75600000000000000000000       
7560001300145T 0204609000000000793400000000073301014     183000000000000005122020000000000006500756046090MARIA DE FATIMA AMERICO C091000046290966200MARIA DE FATIMA AMERICO CAVALCANTE      000000000000000000000000000000000A4                 
7560001300146U 020000000000000000000000000000000000000000000000000000000000000000000000000000000000000000000000000000000000000000000000001409202000000000    00000000000000000000000                              75600000000000000000000       
7560001300147T 0204609000000000793400000000074001014     135100000000000010062021000000000006500756046090MARYELLE DA SILVA BARROS 091000070059467231MARYELLE DA SILVA BARROS                000000000000000000000000000000000A4                 
7560001300148U 020000000000000000000000000000000000000000000000000000000000000000000000000000000000000000000000000000000000000000000000001409202000000000    00000000000000000000000                              75600000000000000000000       
7560001300149T 0204609000000000793400000000075801014     119100000000000010022021000000000006500756046090NILTON CAETANO DE SOUZA  091000067691420234NILTON CAETANO DE SOUZA                 000000000000000000000000000000000A4                 
7560001300150U 020000000000000000000000000000000000000000000000000000000000000000000000000000000000000000000000000000000000000000000000001409202000000000    00000000000000000000000                              75600000000000000000000       
7560001300151T 0204609000000000793400000000076501014     135300000000000010062021000000000006500756046090PRISCILA PABULA NUNES CHA091000089555058253PRISCILA PABULA NUNES CHAVES            000000000000000000000000000000000A4                 
7560001300152U 020000000000000000000000000000000000000000000000000000000000000000000000000000000000000000000000000000000000000000000000001409202000000000    00000000000000000000000                              75600000000000000000000       
7560001300153T 0204609000000000793400000000077201014     111100000000000010122020000000000006500756046090ROSENIR RIBEIRO ALMEIDA  091000016830857287ROSENIR RIBEIRO ALMEIDA                 000000000000000000000000000000000A4                 
7560001300154U 020000000000000000000000000000000000000000000000000000000000000000000000000000000000000000000000000000000000000000000000001409202000000000    00000000000000000000000                              75600000000000000000000       
7560001300155T 0204609000000000793400000000078001014     132100000000000010052021000000000006500756046090THIAGO OLIVEIRA DA SILVA 091000067070256272THIAGO OLIVEIRA DA SILVA                000000000000000000000000000000000A4                 
7560001300156U 020000000000000000000000000000000000000000000000000000000000000000000000000000000000000000000000000000000000000000000000001409202000000000    00000000000000000000000                              75600000000000000000000       
7560001300157T 0204609000000000793400000000079701014     119300000000000010022021000000000006500756046090UELLITON FERREIRA DE GODO091000060803797249UELLITON FERREIRA DE GODOY              000000000000000000000000000000000A4                 
7560001300158U 020000000000000000000000000000000000000000000000000000000000000000000000000000000000000000000000000000000000000000000000001409202000000000    00000000000000000000000                              75600000000000000000000       
7560001300159T 0204609000000000793400000000080501014     131300000000000010052021000000000006500756046090WILLIAM ANDRADE COSTA    091000008758700153WILLIAM ANDRADE COSTA                   000000000000000000000000000000000A4                 
7560001300160U 020000000000000000000000000000000000000000000000000000000000000000000000000000000000000000000000000000000000000000000000001409202000000000    00000000000000000000000                              75600000000000000000000       
7560001300161T 0204609000000000793400000000081201014     118300000000000010022021000000000006500756046090CELIMAR DA ROCHA SOUZA   091000095574930200CELIMAR DA ROCHA SOUZA                  000000000000000000000000000000000A4                 
7560001300162U 020000000000000000000000000000000000000000000000000000000000000000000000000000000000000000000000000000000000000000000000001409202000000000    00000000000000000000000                              75600000000000000000000       
7560001300163T 0204609000000000793400000000082001014     130100000000000010052021000000000006500756046090CINTHIA RILLERI ALVES OLI091000006089988260CINTHIA RILLERI ALVES OLIVEIRA          000000000000000000000000000000000A4                 
7560001300164U 020000000000000000000000000000000000000000000000000000000000000000000000000000000000000000000000000000000000000000000000001409202000000000    00000000000000000000000                              75600000000000000000000       
7560001300165T 0204609000000000793400000000083701014     117300000000000010022021000000000006500756046090CLEMILTO DE JESUS ARAUJO 091000051760355291CLEMILTO DE JESUS ARAUJO                000000000000000000000000000000000A4                 
7560001300166U 020000000000000000000000000000000000000000000000000000000000000000000000000000000000000000000000000000000000000000000000001409202000000000    00000000000000000000000                              75600000000000000000000       
7560001300167T 0204609000000000793400000000084401014     130300000000000010052021000000000006500756046090CLEUMA GOMES RODRIGUES   091000014611589234CLEUMA GOMES RODRIGUES                  000000000000000000000000000000000A4                 
7560001300168U 020000000000000000000000000000000000000000000000000000000000000000000000000000000000000000000000000000000000000000000000001409202000000000    00000000000000000000000                              75600000000000000000000       
7560001300169T 0204609000000000793400000000085101014     115100000000000010012021000000000006500756046090GABRIELA DIAS SARAIVA POM091000001714609286GABRIELA DIAS SARAIVA POMPEU            000000000000000000000000000000000A4                 
7560001300170U 020000000000000000000000000000000000000000000000000000000000000000000000000000000000000000000000000000000000000000000000001409202000000000    00000000000000000000000                              75600000000000000000000       
7560001300171T 0204609000000000793400000000086901014     129100000000000010052021000000000006500756046090GRACIETE DE JESUS MENEZES091000038014645200GRACIETE DE JESUS MENEZES               000000000000000000000000000000000A4                 
7560001300172U 020000000000000000000000000000000000000000000000000000000000000000000000000000000000000000000000000000000000000000000000001409202000000000    00000000000000000000000                              75600000000000000000000       
7560001300173T 0204609000000000793400000000087601014     120100000000000010022021000000000006500756046090IVERLANDIA DA SILVA CHAVE091000039857182291IVERLANDIA DA SILVA CHAVES              000000000000000000000000000000000A4                 
7560001300174U 020000000000000000000000000000000000000000000000000000000000000000000000000000000000000000000000000000000000000000000000001409202000000000    00000000000000000000000                              75600000000000000000000       
7560001300175T 0204609000000000793400000000088301014     127900000000000010042021000000000006500756046090JOSE ROBERTO MORAES PIRES091000063739801204JOSE ROBERTO MORAES PIRES               000000000000000000000000000000000A4                 
7560001300176U 020000000000000000000000000000000000000000000000000000000000000000000000000000000000000000000000000000000000000000000000001409202000000000    00000000000000000000000                              75600000000000000000000       
7560001300177T 0204609000000000793400000000089001014     115500000000000010012021000000000006500756046090JOSIANE FREITAS VIDAL    091000005032602230JOSIANE FREITAS VIDAL                   000000000000000000000000000000000A4                 
7560001300178U 020000000000000000000000000000000000000000000000000000000000000000000000000000000000000000000000000000000000000000000000001409202000000000    00000000000000000000000                              75600000000000000000000       
7560001300179T 0204609000000000793400000000090901014     129500000000000010052021000000000006500756046090KATIA ELOIZE ARAUJO LIMA 091000001187497223KATIA ELOIZE ARAUJO LIMA                000000000000000000000000000000000A4                 
7560001300180U 020000000000000000000000000000000000000000000000000000000000000000000000000000000000000000000000000000000000000000000000001409202000000000    00000000000000000000000                              75600000000000000000000       
7560001300181T 0204609000000000793400000000091601014     116900000000000010022021000000000006500756046090LEOCY ALVES PIMENTEL     091000057310769287LEOCY ALVES PIMENTEL                    000000000000000000000000000000000A4                 
7560001300182U 020000000000000000000000000000000000000000000000000000000000000000000000000000000000000000000000000000000000000000000000001409202000000000    00000000000000000000000                              75600000000000000000000       
7560001300183T 0204609000000000793400000000092301014     124300000000000005042021000000000006500756046090LEONARDO SIQUEIRA MENESES091000072054310263LEONARDO SIQUEIRA MENESES               000000000000000000000000000000000A4                 
7560001300184U 020000000000000000000000000000000000000000000000000000000000000000000000000000000000000000000000000000000000000000000000001409202000000000    00000000000000000000000                              75600000000000000000000       
7560001300185T 0204609000000000793400000000093001014     120500000000000005032021000000000006500756046090MARIA DE FATIMA AMERICO C091000046290966200MARIA DE FATIMA AMERICO CAVALCANTE      000000000000000000000000000000000A4                 
7560001300186U 020000000000000000000000000000000000000000000000000000000000000000000000000000000000000000000000000000000000000000000000001409202000000000    00000000000000000000000                              75600000000000000000000       
7560001300187T 0204609000000000793400000000094801014     130700000000000010052021000000000006500756046090MARYELLE DA SILVA BARROS 091000070059467231MARYELLE DA SILVA BARROS                000000000000000000000000000000000A4                 
7560001300188U 020000000000000000000000000000000000000000000000000000000000000000000000000000000000000000000000000000000000000000000000001409202000000000    00000000000000000000000                              75600000000000000000000       
7560001300189T 0204609000000000793400000000095501014     121500000000000010032021000000000006500756046090NILTON CAETANO DE SOUZA  091000067691420234NILTON CAETANO DE SOUZA                 000000000000000000000000000000000A4                 
7560001300190U 020000000000000000000000000000000000000000000000000000000000000000000000000000000000000000000000000000000000000000000000001409202000000000    00000000000000000000000                              75600000000000000000000       
7560001300191T 0204609000000000793400000000096201014     128700000000000010052021000000000006500756046090PRISCILA PABULA NUNES CHA091000089555058253PRISCILA PABULA NUNES CHAVES            000000000000000000000000000000000A4                 
7560001300192U 020000000000000000000000000000000000000000000000000000000000000000000000000000000000000000000000000000000000000000000000001409202000000000    00000000000000000000000                              75600000000000000000000       
7560001300193T 0204609000000000793400000000097001014     117700000000000010022021000000000006500756046090ROSENIR RIBEIRO ALMEIDA  091000016830857287ROSENIR RIBEIRO ALMEIDA                 000000000000000000000000000000000A4                 
7560001300194U 020000000000000000000000000000000000000000000000000000000000000000000000000000000000000000000000000000000000000000000000001409202000000000    00000000000000000000000                              75600000000000000000000       
7560001300195T 0204609000000000793400000000098701014     134900000000000010062021000000000006500756046090THIAGO OLIVEIRA DA SILVA 091000067070256272THIAGO OLIVEIRA DA SILVA                000000000000000000000000000000000A4                 
7560001300196U 020000000000000000000000000000000000000000000000000000000000000000000000000000000000000000000000000000000000000000000000001409202000000000    00000000000000000000000                              75600000000000000000000       
7560001300197T 0204609000000000793400000000099401014     116100000000000010012021000000000006500756046090UELLITON FERREIRA DE GODO091000060803797249UELLITON FERREIRA DE GODOY              000000000000000000000000000000000A4                 
7560001300198U 020000000000000000000000000000000000000000000000000000000000000000000000000000000000000000000000000000000000000000000000001409202000000000    00000000000000000000000                              75600000000000000000000       
7560001300199T 0204609000000000793400000000100801014     133500000000000010062021000000000006500756046090WILLIAM ANDRADE COSTA    091000008758700153WILLIAM ANDRADE COSTA                   000000000000000000000000000000000A4                 
7560001300200U 020000000000000000000000000000000000000000000000000000000000000000000000000000000000000000000000000000000000000000000000001409202000000000    00000000000000000000000                              75600000000000000000000       
7560001300201T 0204609000000000793400000000101501014     121100000000000010032021000000000006500756046090CELIMAR DA ROCHA SOUZA   091000095574930200CELIMAR DA ROCHA SOUZA                  000000000000000000000000000000000A4                 
7560001300202U 020000000000000000000000000000000000000000000000000000000000000000000000000000000000000000000000000000000000000000000000001409202000000000    00000000000000000000000                              75600000000000000000000       
7560001300203T 0204609000000000793400000000102201014     125700000000000010042021000000000006500756046090CINTHIA RILLERI ALVES OLI091000006089988260CINTHIA RILLERI ALVES OLIVEIRA          000000000000000000000000000000000A4                 
7560001300204U 020000000000000000000000000000000000000000000000000000000000000000000000000000000000000000000000000000000000000000000000001409202000000000    00000000000000000000000                              75600000000000000000000       
7560001300205T 0204609000000000793400000000103001014     123500000000000010032021000000000006500756046090CLEMILTO DE JESUS ARAUJO 091000051760355291CLEMILTO DE JESUS ARAUJO                000000000000000000000000000000000A4                 
7560001300206U 020000000000000000000000000000000000000000000000000000000000000000000000000000000000000000000000000000000000000000000000001409202000000000    00000000000000000000000                              75600000000000000000000       
7560001300207T 0204609000000000793400000000104701014     124700000000000010042021000000000006500756046090CLEUMA GOMES RODRIGUES   091000014611589234CLEUMA GOMES RODRIGUES                  000000000000000000000000000000000A4                 
7560001300208U 020000000000000000000000000000000000000000000000000000000000000000000000000000000000000000000000000000000000000000000000001409202000000000    00000000000000000000000                              75600000000000000000000       
7560001300209T 0204609000000000793400000000105401014     122300000000000010032021000000000006500756046090GABRIELA DIAS SARAIVA POM091000001714609286GABRIELA DIAS SARAIVA POMPEU            000000000000000000000000000000000A4                 
7560001300210U 020000000000000000000000000000000000000000000000000000000000000000000000000000000000000000000000000000000000000000000000001409202000000000    00000000000000000000000                              75600000000000000000000       
7560001300211T 0204609000000000793400000000106101014     125500000000000010042021000000000006500756046090GRACIETE DE JESUS MENEZES091000038014645200GRACIETE DE JESUS MENEZES               000000000000000000000000000000000A4                 
7560001300212U 020000000000000000000000000000000000000000000000000000000000000000000000000000000000000000000000000000000000000000000000001409202000000000    00000000000000000000000                              75600000000000000000000       
7560001300213T 0204609000000000793400000000107901014     122100000000000010032021000000000006500756046090IVERLANDIA DA SILVA CHAVE091000039857182291IVERLANDIA DA SILVA CHAVES              000000000000000000000000000000000A4                 
7560001300214U 020000000000000000000000000000000000000000000000000000000000000000000000000000000000000000000000000000000000000000000000001409202000000000    00000000000000000000000                              75600000000000000000000       
7560001300215T 0204609000000000793400000000108601014     120700000000000010032021000000000006500756046090JOSE ROBERTO MORAES PIRES091000063739801204JOSE ROBERTO MORAES PIRES               000000000000000000000000000000000A4                 
7560001300216U 020000000000000000000000000000000000000000000000000000000000000000000000000000000000000000000000000000000000000000000000001409202000000000    00000000000000000000000                              75600000000000000000000       
7560001300217T 0204609000000000793400000000109301014     128100000000000010042021000000000006500756046090JOSIANE FREITAS VIDAL    091000005032602230JOSIANE FREITAS VIDAL                   000000000000000000000000000000000A4                 
7560001300218U 020000000000000000000000000000000000000000000000000000000000000000000000000000000000000000000000000000000000000000000000001409202000000000    00000000000000000000000                              75600000000000000000000       
7560001300219T 0204609000000000793400000000110101014     125300000000000010042021000000000006500756046090KATIA ELOIZE ARAUJO LIMA 091000001187497223KATIA ELOIZE ARAUJO LIMA                000000000000000000000000000000000A4                 
7560001300220U 020000000000000000000000000000000000000000000000000000000000000000000000000000000000000000000000000000000000000000000000001409202000000000    00000000000000000000000                              75600000000000000000000       
7560001300221T 0204609000000000793400000000111901014     127500000000000010042021000000000006500756046090LEOCY ALVES PIMENTEL     091000057310769287LEOCY ALVES PIMENTEL                    000000000000000000000000000000000A4                 
7560001300222U 020000000000000000000000000000000000000000000000000000000000000000000000000000000000000000000000000000000000000000000000001409202000000000    00000000000000000000000                              75600000000000000000000       
7560001300223T 0204609000000000793400000000112601014     128300000000000005052021000000000006500756046090LEONARDO SIQUEIRA MENESES091000072054310263LEONARDO SIQUEIRA MENESES               000000000000000000000000000000000A4                 
7560001300224U 020000000000000000000000000000000000000000000000000000000000000000000000000000000000000000000000000000000000000000000000001409202000000000    00000000000000000000000                              75600000000000000000000       
7560001300225T 0204609000000000793400000000113301014     116500000000000005022021000000000006500756046090MARIA DE FATIMA AMERICO C091000046290966200MARIA DE FATIMA AMERICO CAVALCANTE      000000000000000000000000000000000A4                 
7560001300226U 020000000000000000000000000000000000000000000000000000000000000000000000000000000000000000000000000000000000000000000000001409202000000000    00000000000000000000000                              75600000000000000000000       
7560001300227T 0204609000000000793400000000114001014     123900000000000010032021000000000006500756046090MARYELLE DA SILVA BARROS 091000070059467231MARYELLE DA SILVA BARROS                000000000000000000000000000000000A4                 
7560001300228U 020000000000000000000000000000000000000000000000000000000000000000000000000000000000000000000000000000000000000000000000001409202000000000    00000000000000000000000                              75600000000000000000000       
7560001300229T 0204609000000000793400000000115801014     113900000000000010012021000000000006500756046090NILTON CAETANO DE SOUZA  091000067691420234NILTON CAETANO DE SOUZA                 000000000000000000000000000000000A4                 
7560001300230U 020000000000000000000000000000000000000000000000000000000000000000000000000000000000000000000000000000000000000000000000001409202000000000    00000000000000000000000                              75600000000000000000000       
7560001300231T 0204609000000000793400000000116501014     126300000000000010042021000000000006500756046090PRISCILA PABULA NUNES CHA091000089555058253PRISCILA PABULA NUNES CHAVES            000000000000000000000000000000000A4                 
7560001300232U 020000000000000000000000000000000000000000000000000000000000000000000000000000000000000000000000000000000000000000000000001409202000000000    00000000000000000000000                              75600000000000000000000       
7560001300233T 0204609000000000793400000000117201014     124100000000000010032021000000000006500756046090ROSENIR RIBEIRO ALMEIDA  091000016830857287ROSENIR RIBEIRO ALMEIDA                 000000000000000000000000000000000A4                 
7560001300234U 020000000000000000000000000000000000000000000000000000000000000000000000000000000000000000000000000000000000000000000000001409202000000000    00000000000000000000000                              75600000000000000000000       
7560001300235T 0204609000000000793400000000118001014     126100000000000010042021000000000006500756046090THIAGO OLIVEIRA DA SILVA 091000067070256272THIAGO OLIVEIRA DA SILVA                000000000000000000000000000000000A4                 
7560001300236U 020000000000000000000000000000000000000000000000000000000000000000000000000000000000000000000000000000000000000000000000001409202000000000    00000000000000000000000                              75600000000000000000000       
7560001300237T 0204609000000000793400000000119701014     124900000000000010042021000000000006500756046090UELLITON FERREIRA DE GODO091000060803797249UELLITON FERREIRA DE GODOY              000000000000000000000000000000000A4                 
7560001300238U 020000000000000000000000000000000000000000000000000000000000000000000000000000000000000000000000000000000000000000000000001409202000000000    00000000000000000000000                              75600000000000000000000       
7560001300239T 0204609000000000793400000000120501014     122700000000000010032021000000000006500756046090WILLIAM ANDRADE COSTA    091000008758700153WILLIAM ANDRADE COSTA                   000000000000000000000000000000000A4                 
7560001300240U 020000000000000000000000000000000000000000000000000000000000000000000000000000000000000000000000000000000000000000000000001409202000000000    00000000000000000000000                              75600000000000000000000       
7560001300241T 0204609000000000793400000000121201014     127300000000000010042021000000000006500756046090CELIMAR DA ROCHA SOUZA   091000095574930200CELIMAR DA ROCHA SOUZA                  000000000000000000000000000000000A4                 
7560001300242U 020000000000000000000000000000000000000000000000000000000000000000000000000000000000000000000000000000000000000000000000001409202000000000    00000000000000000000000                              75600000000000000000000       
7560001300243T 0204609000000000793400000000122001014     121900000000000010032021000000000006500756046090CINTHIA RILLERI ALVES OLI091000006089988260CINTHIA RILLERI ALVES OLIVEIRA          000000000000000000000000000000000A4                 
7560001300244U 020000000000000000000000000000000000000000000000000000000000000000000000000000000000000000000000000000000000000000000000001409202000000000    00000000000000000000000                              75600000000000000000000       
7560001300245T 0204609000000000793400000000123701014     125900000000000010042021000000000006500756046090CLEMILTO DE JESUS ARAUJO 091000051760355291CLEMILTO DE JESUS ARAUJO                000000000000000000000000000000000A4                 
7560001300246U 020000000000000000000000000000000000000000000000000000000000000000000000000000000000000000000000000000000000000000000000001409202000000000    00000000000000000000000                              75600000000000000000000       
7560001300247T 0204609000000000793400000000124401014     123300000000000010032021000000000006500756046090CLEUMA GOMES RODRIGUES   091000014611589234CLEUMA GOMES RODRIGUES                  000000000000000000000000000000000A4                 
7560001300248U 020000000000000000000000000000000000000000000000000000000000000000000000000000000000000000000000000000000000000000000000001409202000000000    00000000000000000000000                              75600000000000000000000       
7560001300249T 0204609000000000793400000000125101014     127700000000000010042021000000000006500756046090GABRIELA DIAS SARAIVA POM091000001714609286GABRIELA DIAS SARAIVA POMPEU            000000000000000000000000000000000A4                 
7560001300250U 020000000000000000000000000000000000000000000000000000000000000000000000000000000000000000000000000000000000000000000000001409202000000000    00000000000000000000000                              75600000000000000000000       
7560001300251T 0204609000000000793400000000126901014     120900000000000010032021000000000006500756046090GRACIETE DE JESUS MENEZES091000038014645200GRACIETE DE JESUS MENEZES               000000000000000000000000000000000A4                 
7560001300252U 020000000000000000000000000000000000000000000000000000000000000000000000000000000000000000000000000000000000000000000000001409202000000000    00000000000000000000000                              75600000000000000000000       
7560001300253T 0204609000000000793400000000127601014     126900000000000010042021000000000006500756046090IVERLANDIA DA SILVA CHAVE091000039857182291IVERLANDIA DA SILVA CHAVES              000000000000000000000000000000000A4                 
7560001300254U 020000000000000000000000000000000000000000000000000000000000000000000000000000000000000000000000000000000000000000000000001409202000000000    00000000000000000000000                              75600000000000000000000       
7560001300255T 0204609000000000793400000000128301014     115700000000000010012021000000000006500756046090JOSE ROBERTO MORAES PIRES091000063739801204JOSE ROBERTO MORAES PIRES               000000000000000000000000000000000A4                 
7560001300256U 020000000000000000000000000000000000000000000000000000000000000000000000000000000000000000000000000000000000000000000000001409202000000000    00000000000000000000000                              75600000000000000000000       
7560001300257T 0204609000000000793400000000129001014     123100000000000010032021000000000006500756046090JOSIANE FREITAS VIDAL    091000005032602230JOSIANE FREITAS VIDAL                   000000000000000000000000000000000A4                 
7560001300258U 020000000000000000000000000000000000000000000000000000000000000000000000000000000000000000000000000000000000000000000000001409202000000000    00000000000000000000000                              75600000000000000000000       
7560001300259T 0204609000000000793400000000130901014     121300000000000010032021000000000006500756046090KATIA ELOIZE ARAUJO LIMA 091000001187497223KATIA ELOIZE ARAUJO LIMA                000000000000000000000000000000000A4                 
7560001300260U 020000000000000000000000000000000000000000000000000000000000000000000000000000000000000000000000000000000000000000000000001409202000000000    00000000000000000000000                              75600000000000000000000       
7560001300261T 0204609000000000793400000000131601014     123700000000000010032021000000000006500756046090LEOCY ALVES PIMENTEL     091000057310769287LEOCY ALVES PIMENTEL                    000000000000000000000000000000000A4                 
7560001300262U 020000000000000000000000000000000000000000000000000000000000000000000000000000000000000000000000000000000000000000000000001409202000000000    00000000000000000000000                              75600000000000000000000       
7560001300263T 0204609000000000793400000000132301014     116300000000000005022021000000000006500756046090LEONARDO SIQUEIRA MENESES091000072054310263LEONARDO SIQUEIRA MENESES               000000000000000000000000000000000A4                 
7560001300264U 020000000000000000000000000000000000000000000000000000000000000000000000000000000000000000000000000000000000000000000000001409202000000000    00000000000000000000000                              75600000000000000000000       
7560001300265T 0204609000000000793400000000133001014     128500000000000005052021000000000006500756046090MARIA DE FATIMA AMERICO C091000046290966200MARIA DE FATIMA AMERICO CAVALCANTE      000000000000000000000000000000000A4                 
7560001300266U 020000000000000000000000000000000000000000000000000000000000000000000000000000000000000000000000000000000000000000000000001409202000000000    00000000000000000000000                              75600000000000000000000       
7560001300267T 0204609000000000793400000000134801014     127100000000000010042021000000000006500756046090MARYELLE DA SILVA BARROS 091000070059467231MARYELLE DA SILVA BARROS                000000000000000000000000000000000A4                 
7560001300268U 020000000000000000000000000000000000000000000000000000000000000000000000000000000000000000000000000000000000000000000000001409202000000000    00000000000000000000000                              75600000000000000000000       
7560001300269T 0204609000000000793400000000135501014     126700000000000010042021000000000006500756046090NILTON CAETANO DE SOUZA  091000067691420234NILTON CAETANO DE SOUZA                 000000000000000000000000000000000A4                 
7560001300270U 020000000000000000000000000000000000000000000000000000000000000000000000000000000000000000000000000000000000000000000000001409202000000000    00000000000000000000000                              75600000000000000000000       
7560001300271T 0204609000000000793400000000136201014     122500000000000010032021000000000006500756046090PRISCILA PABULA NUNES CHA091000089555058253PRISCILA PABULA NUNES CHAVES            000000000000000000000000000000000A4                 
7560001300272U 020000000000000000000000000000000000000000000000000000000000000000000000000000000000000000000000000000000000000000000000001409202000000000    00000000000000000000000                              75600000000000000000000       
7560001300273T 0204609000000000793400000000137001014     126500000000000010042021000000000006500756046090ROSENIR RIBEIRO ALMEIDA  091000016830857287ROSENIR RIBEIRO ALMEIDA                 000000000000000000000000000000000A4                 
7560001300274U 020000000000000000000000000000000000000000000000000000000000000000000000000000000000000000000000000000000000000000000000001409202000000000    00000000000000000000000                              75600000000000000000000       
7560001300275T 0204609000000000793400000000138701014     121700000000000010032021000000000006500756046090THIAGO OLIVEIRA DA SILVA 091000067070256272THIAGO OLIVEIRA DA SILVA                000000000000000000000000000000000A4                 
7560001300276U 020000000000000000000000000000000000000000000000000000000000000000000000000000000000000000000000000000000000000000000000001409202000000000    00000000000000000000000                              75600000000000000000000       
7560001300277T 0204609000000000793400000000139401014     122900000000000010032021000000000006500756046090UELLITON FERREIRA DE GODO091000060803797249UELLITON FERREIRA DE GODOY              000000000000000000000000000000000A4                 
7560001300278U 020000000000000000000000000000000000000000000000000000000000000000000000000000000000000000000000000000000000000000000000001409202000000000    00000000000000000000000                              75600000000000000000000       
7560001300279T 0204609000000000793400000000140201014     125100000000000010042021000000000006500756046090WILLIAM ANDRADE COSTA    091000008758700153WILLIAM ANDRADE COSTA                   000000000000000000000000000000000A4                 
7560001300280U 020000000000000000000000000000000000000000000000000000000000000000000000000000000000000000000000000000000000000000000000001409202000000000    00000000000000000000000                              75600000000000000000000       
7560001300281T 0204609000000000793400000000141001014     131100000000000010052021000000000006500756046090CELIMAR DA ROCHA SOUZA   091000095574930200CELIMAR DA ROCHA SOUZA                  000000000000000000000000000000000A4                 
7560001300282U 020000000000000000000000000000000000000000000000000000000000000000000000000000000000000000000000000000000000000000000000001409202000000000    00000000000000000000000                              75600000000000000000000       
7560001300283T 0204609000000000793400000000142701014     119900000000000010022021000000000006500756046090CINTHIA RILLERI ALVES OLI091000006089988260CINTHIA RILLERI ALVES OLIVEIRA          000000000000000000000000000000000A4                 
7560001300284U 020000000000000000000000000000000000000000000000000000000000000000000000000000000000000000000000000000000000000000000000001409202000000000    00000000000000000000000                              75600000000000000000000       
7560001300285T 0204609000000000793400000000143401014     129300000000000010052021000000000006500756046090CLEMILTO DE JESUS ARAUJO 091000051760355291CLEMILTO DE JESUS ARAUJO                000000000000000000000000000000000A4                 
7560001300286U 020000000000000000000000000000000000000000000000000000000000000000000000000000000000000000000000000000000000000000000000001409202000000000    00000000000000000000000                              75600000000000000000000       
7560001300287T 0204609000000000793400000000144101014     119700000000000010022021000000000006500756046090CLEUMA GOMES RODRIGUES   091000014611589234CLEUMA GOMES RODRIGUES                  000000000000000000000000000000000A4                 
7560001300288U 020000000000000000000000000000000000000000000000000000000000000000000000000000000000000000000000000000000000000000000000001409202000000000    00000000000000000000000                              75600000000000000000000       
7560001300289T 0204609000000000793400000000145901014     131900000000000010052021000000000006500756046090GABRIELA DIAS SARAIVA POM091000001714609286GABRIELA DIAS SARAIVA POMPEU            000000000000000000000000000000000A4                 
7560001300290U 020000000000000000000000000000000000000000000000000000000000000000000000000000000000000000000000000000000000000000000000001409202000000000    00000000000000000000000                              75600000000000000000000       
7560001300291T 0204609000000000793400000000146601014     117100000000000010022021000000000006500756046090GRACIETE DE JESUS MENEZES091000038014645200GRACIETE DE JESUS MENEZES               000000000000000000000000000000000A4                 
7560001300292U 020000000000000000000000000000000000000000000000000000000000000000000000000000000000000000000000000000000000000000000000001409202000000000    00000000000000000000000                              75600000000000000000000       
7560001300293T 0204609000000000793400000000147301014     131500000000000010052021000000000006500756046090IVERLANDIA DA SILVA CHAVE091000039857182291IVERLANDIA DA SILVA CHAVES              000000000000000000000000000000000A4                 
7560001300294U 020000000000000000000000000000000000000000000000000000000000000000000000000000000000000000000000000000000000000000000000001409202000000000    00000000000000000000000                              75600000000000000000000       
7560001300295T 0204609000000000793400000000148001014     118700000000000010022021000000000006500756046090JOSE ROBERTO MORAES PIRES091000063739801204JOSE ROBERTO MORAES PIRES               000000000000000000000000000000000A4                 
7560001300296U 020000000000000000000000000000000000000000000000000000000000000000000000000000000000000000000000000000000000000000000000001409202000000000    00000000000000000000000                              75600000000000000000000       
7560001300297T 0204609000000000793400000000149801014     129900000000000010052021000000000006500756046090JOSIANE FREITAS VIDAL    091000005032602230JOSIANE FREITAS VIDAL                   000000000000000000000000000000000A4                 
7560001300298U 020000000000000000000000000000000000000000000000000000000000000000000000000000000000000000000000000000000000000000000000001409202000000000    00000000000000000000000                              75600000000000000000000       
7560001300299T 0204609000000000793400000000150601014     117900000000000010022021000000000006500756046090KATIA ELOIZE ARAUJO LIMA 091000001187497223KATIA ELOIZE ARAUJO LIMA                000000000000000000000000000000000A4                 
7560001300300U 020000000000000000000000000000000000000000000000000000000000000000000000000000000000000000000000000000000000000000000000001409202000000000    00000000000000000000000                              75600000000000000000000       
7560001300301T 0204609000000000793400000000151301014     129700000000000010052021000000000006500756046090LEOCY ALVES PIMENTEL     091000057310769287LEOCY ALVES PIMENTEL                    000000000000000000000000000000000A4                 
7560001300302U 020000000000000000000000000000000000000000000000000000000000000000000000000000000000000000000000000000000000000000000000001409202000000000    00000000000000000000000                              75600000000000000000000       
7560001300303T 0204609000000000793400000000152001014     120300000000000005032021000000000006500756046090LEONARDO SIQUEIRA MENESES091000072054310263LEONARDO SIQUEIRA MENESES               000000000000000000000000000000000A4                 
7560001300304U 020000000000000000000000000000000000000000000000000000000000000000000000000000000000000000000000000000000000000000000000001409202000000000    00000000000000000000000                              75600000000000000000000       
7560001300305T 0204609000000000793400000000153801014     124500000000000005042021000000000006500756046090MARIA DE FATIMA AMERICO C091000046290966200MARIA DE FATIMA AMERICO CAVALCANTE      000000000000000000000000000000000A4                 
7560001300306U 020000000000000000000000000000000000000000000000000000000000000000000000000000000000000000000000000000000000000000000000001409202000000000    00000000000000000000000                              75600000000000000000000       
7560001300307T 0204609000000000793400000000154501014     115300000000000010012021000000000006500756046090MARYELLE DA SILVA BARROS 091000070059467231MARYELLE DA SILVA BARROS                000000000000000000000000000000000A4                 
7560001300308U 020000000000000000000000000000000000000000000000000000000000000000000000000000000000000000000000000000000000000000000000001409202000000000    00000000000000000000000                              75600000000000000000000       
7560001300309T 0204609000000000793400000000155201014     128900000000000010052021000000000006500756046090NILTON CAETANO DE SOUZA  091000067691420234NILTON CAETANO DE SOUZA                 000000000000000000000000000000000A4                 
7560001300310U 020000000000000000000000000000000000000000000000000000000000000000000000000000000000000000000000000000000000000000000000001409202000000000    00000000000000000000000                              75600000000000000000000       
7560001300311T 0204609000000000793400000000156001014     118900000000000010022021000000000006500756046090PRISCILA PABULA NUNES CHA091000089555058253PRISCILA PABULA NUNES CHAVES            000000000000000000000000000000000A4                 
7560001300312U 020000000000000000000000000000000000000000000000000000000000000000000000000000000000000000000000000000000000000000000000001409202000000000    00000000000000000000000                              75600000000000000000000       
7560001300313T 0204609000000000793400000000157701014     134700000000000010062021000000000006500756046090ROSENIR RIBEIRO ALMEIDA  091000016830857287ROSENIR RIBEIRO ALMEIDA                 000000000000000000000000000000000A4                 
7560001300314U 020000000000000000000000000000000000000000000000000000000000000000000000000000000000000000000000000000000000000000000000001409202000000000    00000000000000000000000                              75600000000000000000000       
7560001300315T 0204609000000000793400000000158401014     119500000000000010022021000000000006500756046090THIAGO OLIVEIRA DA SILVA 091000067070256272THIAGO OLIVEIRA DA SILVA                000000000000000000000000000000000A4                 
7560001300316U 020000000000000000000000000000000000000000000000000000000000000000000000000000000000000000000000000000000000000000000000001409202000000000    00000000000000000000000                              75600000000000000000000       
7560001300317T 0204609000000000793400000000159101014     132700000000000010062021000000000006500756046090UELLITON FERREIRA DE GODO091000060803797249UELLITON FERREIRA DE GODOY              000000000000000000000000000000000A4                 
7560001300318U 020000000000000000000000000000000000000000000000000000000000000000000000000000000000000000000000000000000000000000000000001409202000000000    00000000000000000000000                              75600000000000000000000       
7560001300319T 0204609000000000793400000000160001014     116700000000000010022021000000000006500756046090WILLIAM ANDRADE COSTA    091000008758700153WILLIAM ANDRADE COSTA                   000000000000000000000000000000000A4                 
7560001300320U 020000000000000000000000000000000000000000000000000000000000000000000000000000000000000000000000000000000000000000000000001409202000000000    00000000000000000000000                              75600000000000000000000       
7560001300321T 0204609000000000793400000000161701014     134500000000000010062021000000000006500756046090CELIMAR DA ROCHA SOUZA   091000095574930200CELIMAR DA ROCHA SOUZA                  000000000000000000000000000000000A4                 
7560001300322U 020000000000000000000000000000000000000000000000000000000000000000000000000000000000000000000000000000000000000000000000001409202000000000    00000000000000000000000                              75600000000000000000000       
7560001300323T 0204609000000000793400000000162401014     114500000000000010012021000000000006500756046090CINTHIA RILLERI ALVES OLI091000006089988260CINTHIA RILLERI ALVES OLIVEIRA          000000000000000000000000000000000A4                 
7560001300324U 020000000000000000000000000000000000000000000000000000000000000000000000000000000000000000000000000000000000000000000000001409202000000000    00000000000000000000000                              75600000000000000000000       
7560001300325T 0204609000000000793400000000163101014     132900000000000010062021000000000006500756046090CLEMILTO DE JESUS ARAUJO 091000051760355291CLEMILTO DE JESUS ARAUJO                000000000000000000000000000000000A4                 
7560001300326U 020000000000000000000000000000000000000000000000000000000000000000000000000000000000000000000000000000000000000000000000001409202000000000    00000000000000000000000                              75600000000000000000000       
7560001300327T 0204609000000000793400000000164901014     114300000000000010012021000000000006500756046090CLEUMA GOMES RODRIGUES   091000014611589234CLEUMA GOMES RODRIGUES                  000000000000000000000000000000000A4                 
7560001300328U 020000000000000000000000000000000000000000000000000000000000000000000000000000000000000000000000000000000000000000000000001409202000000000    00000000000000000000000                              75600000000000000000000       
7560001300329T 0204609000000000793400000000165601014     133100000000000010062021000000000006500756046090GABRIELA DIAS SARAIVA POM091000001714609286GABRIELA DIAS SARAIVA POMPEU            000000000000000000000000000000000A4                 
7560001300330U 020000000000000000000000000000000000000000000000000000000000000000000000000000000000000000000000000000000000000000000000001409202000000000    00000000000000000000000                              75600000000000000000000       
7560001300331T 0204609000000000793400000000166301014     110900000000000010122020000000000006500756046090GRACIETE DE JESUS MENEZES091000038014645200GRACIETE DE JESUS MENEZES               000000000000000000000000000000000A4                 
7560001300332U 020000000000000000000000000000000000000000000000000000000000000000000000000000000000000000000000000000000000000000000000001409202000000000    00000000000000000000000                              75600000000000000000000       
7560001300333T 0204609000000000793400000000167001014     135900000000000010062021000000000006500756046090IVERLANDIA DA SILVA CHAVE091000039857182291IVERLANDIA DA SILVA CHAVES              000000000000000000000000000000000A4                 
7560001300334U 020000000000000000000000000000000000000000000000000000000000000000000000000000000000000000000000000000000000000000000000001409202000000000    00000000000000000000000                              75600000000000000000000       
7560001300335T 0204609000000000793400000000168801014     175000000000000010112020000000000006500756046090JOSE ROBERTO MORAES PIRES091000063739801204JOSE ROBERTO MORAES PIRES               000000000000000000000000000000000A4                 
7560001300336U 020000000000000000000000000000000000000000000000000000000000000000000000000000000000000000000000000000000000000000000000001409202000000000    00000000000000000000000                              75600000000000000000000       
7560001300337T 0204609000000000793400000000169501014     133300000000000010062021000000000006500756046090JOSIANE FREITAS VIDAL    091000005032602230JOSIANE FREITAS VIDAL                   000000000000000000000000000000000A4                 
7560001300338U 020000000000000000000000000000000000000000000000000000000000000000000000000000000000000000000000000000000000000000000000001409202000000000    00000000000000000000000                              75600000000000000000000       
7560001300339T 0204609000000000793400000000170301014     189000000000000010122020000000000006500756046090KATIA ELOIZE ARAUJO LIMA 091000001187497223KATIA ELOIZE ARAUJO LIMA                000000000000000000000000000000000A4                 
7560001300340U 020000000000000000000000000000000000000000000000000000000000000000000000000000000000000000000000000000000000000000000000001409202000000000    00000000000000000000000                              75600000000000000000000       
7560001300341T 0204609000000000793400000000171001014     136100000000000010062021000000000006500756046090LEOCY ALVES PIMENTEL     091000057310769287LEOCY ALVES PIMENTEL                    000000000000000000000000000000000A4                 
7560001300342U 020000000000000000000000000000000000000000000000000000000000000000000000000000000000000000000000000000000000000000000000001409202000000000    00000000000000000000000                              75600000000000000000000       
7560001300343T 0204609000000000793400000000172801014     185000000000000005122020000000000006500756046090LEONARDO SIQUEIRA MENESES091000072054310263LEONARDO SIQUEIRA MENESES               000000000000000000000000000000000A4                 
7560001300344U 020000000000000000000000000000000000000000000000000000000000000000000000000000000000000000000000000000000000000000000000001409202000000000    00000000000000000000000                              75600000000000000000000       
7560001300345T 0204609000000000793400000000173501014     136300000000000005072021000000000006500756046090MARIA DE FATIMA AMERICO C091000046290966200MARIA DE FATIMA AMERICO CAVALCANTE      000000000000000000000000000000000A4                 
7560001300346U 020000000000000000000000000000000000000000000000000000000000000000000000000000000000000000000000000000000000000000000000001409202000000000    00000000000000000000000                              75600000000000000000000       
7560001300347T 0204609000000000793400000000174201014     118100000000000010022021000000000006500756046090MARYELLE DA SILVA BARROS 091000070059467231MARYELLE DA SILVA BARROS                000000000000000000000000000000000A4                 
7560001300348U 020000000000000000000000000000000000000000000000000000000000000000000000000000000000000000000000000000000000000000000000001409202000000000    00000000000000000000000                              75600000000000000000000       
7560001300349T 0204609000000000793400000000175001014     135700000000000010062021000000000006500756046090NILTON CAETANO DE SOUZA  091000067691420234NILTON CAETANO DE SOUZA                 000000000000000000000000000000000A4                 
7560001300350U 020000000000000000000000000000000000000000000000000000000000000000000000000000000000000000000000000000000000000000000000001409202000000000    00000000000000000000000                              75600000000000000000000       
7560001300351T 0204609000000000793400000000176701014     110300000000000010122020000000000006500756046090PRISCILA PABULA NUNES CHA091000089555058253PRISCILA PABULA NUNES CHAVES            000000000000000000000000000000000A4                 
7560001300352U 020000000000000000000000000000000000000000000000000000000000000000000000000000000000000000000000000000000000000000000000001409202000000000    00000000000000000000000                              75600000000000000000000       
7560001300353T 0204609000000000793400000000177401014     130900000000000010052021000000000006500756046090ROSENIR RIBEIRO ALMEIDA  091000016830857287ROSENIR RIBEIRO ALMEIDA                 000000000000000000000000000000000A4                 
7560001300354U 020000000000000000000000000000000000000000000000000000000000000000000000000000000000000000000000000000000000000000000000001409202000000000    00000000000000000000000                              75600000000000000000000       
7560001300355T 0204609000000000793400000000178101014     110100000000000010122020000000000006500756046090THIAGO OLIVEIRA DA SILVA 091000067070256272THIAGO OLIVEIRA DA SILVA                000000000000000000000000000000000A4                 
7560001300356U 020000000000000000000000000000000000000000000000000000000000000000000000000000000000000000000000000000000000000000000000001409202000000000    00000000000000000000000                              75600000000000000000000       
7560001300357T 0204609000000000793400000000179901014     131700000000000010052021000000000006500756046090UELLITON FERREIRA DE GODO091000060803797249UELLITON FERREIRA DE GODOY              000000000000000000000000000000000A4                 
7560001300358U 020000000000000000000000000000000000000000000000000000000000000000000000000000000000000000000000000000000000000000000000001409202000000000    00000000000000000000000                              75600000000000000000000       
7560001300359T 0204609000000000793400000000180701014     115900000000000010012021000000000006500756046090WILLIAM ANDRADE COSTA    091000008758700153WILLIAM ANDRADE COSTA                   000000000000000000000000000000000A4                 
7560001300360U 020000000000000000000000000000000000000000000000000000000000000000000000000000000000000000000000000000000000000000000000001409202000000000    00000000000000000000000                              75600000000000000000000       
7560001300361T 0204609000000000793400000000181401014     137300000000000010072021000000000006500756046090CELIMAR DA ROCHA SOUZA   091000095574930200CELIMAR DA ROCHA SOUZA                  000000000000000000000000000000000A4                 
7560001300362U 020000000000000000000000000000000000000000000000000000000000000000000000000000000000000000000000000000000000000000000000001409202000000000    00000000000000000000000                              75600000000000000000000       
7560001300363T 0204609000000000793400000000182101014     110500000000000010122020000000000006500756046090CINTHIA RILLERI ALVES OLI091000006089988260CINTHIA RILLERI ALVES OLIVEIRA          000000000000000000000000000000000A4                 
7560001300364U 020000000000000000000000000000000000000000000000000000000000000000000000000000000000000000000000000000000000000000000000001409202000000000    00000000000000000000000                              75600000000000000000000       
7560001300365T 0204609000000000793400000000183901014     139700000000000010072021000000000006500756046090CLEMILTO DE JESUS ARAUJO 091000051760355291CLEMILTO DE JESUS ARAUJO                000000000000000000000000000000000A4                 
7560001300366U 020000000000000000000000000000000000000000000000000000000000000000000000000000000000000000000000000000000000000000000000001409202000000000    00000000000000000000000                              75600000000000000000000       
7560001300367T 0204609000000000793400000000184601014     193000000000000010122020000000000006500756046090CLEUMA GOMES RODRIGUES   091000014611589234CLEUMA GOMES RODRIGUES                  000000000000000000000000000000000A4                 
7560001300368U 020000000000000000000000000000000000000000000000000000000000000000000000000000000000000000000000000000000000000000000000001409202000000000    00000000000000000000000                              75600000000000000000000       
7560001300369T 0204609000000000793400000000185301014     137500000000000010072021000000000006500756046090GABRIELA DIAS SARAIVA POM091000001714609286GABRIELA DIAS SARAIVA POMPEU            000000000000000000000000000000000A4                 
7560001300370U 020000000000000000000000000000000000000000000000000000000000000000000000000000000000000000000000000000000000000000000000001409202000000000    00000000000000000000000                              75600000000000000000000       
7560001300371T 0204609000000000793400000000186001014     114700000000000010012021000000000006500756046090GRACIETE DE JESUS MENEZES091000038014645200GRACIETE DE JESUS MENEZES               000000000000000000000000000000000A4                 
7560001300372U 020000000000000000000000000000000000000000000000000000000000000000000000000000000000000000000000000000000000000000000000001409202000000000    00000000000000000000000                              75600000000000000000000       
7560001300373T 0204609000000000793400000000187801014     139900000000000010072021000000000006500756046090IVERLANDIA DA SILVA CHAVE091000039857182291IVERLANDIA DA SILVA CHAVES              000000000000000000000000000000000A4                 
7560001300374U 020000000000000000000000000000000000000000000000000000000000000000000000000000000000000000000000000000000000000000000000001409202000000000    00000000000000000000000                              75600000000000000000000       
7560001300375T 0204609000000000793400000000188501014     197000000000000010122020000000000006500756046090JOSE ROBERTO MORAES PIRES091000063739801204JOSE ROBERTO MORAES PIRES               000000000000000000000000000000000A4                 
7560001300376U 020000000000000000000000000000000000000000000000000000000000000000000000000000000000000000000000000000000000000000000000001409202000000000    00000000000000000000000                              75600000000000000000000       
7560001300377T 0204609000000000793400000000189201014     138700000000000010072021000000000006500756046090JOSIANE FREITAS VIDAL    091000005032602230JOSIANE FREITAS VIDAL                   000000000000000000000000000000000A4                 
7560001300378U 020000000000000000000000000000000000000000000000000000000000000000000000000000000000000000000000000000000000000000000000001409202000000000    00000000000000000000000                              75600000000000000000000       
7560001300379T 0204609000000000793400000000190001014     179000000000000010112020000000000006500756046090KATIA ELOIZE ARAUJO LIMA 091000001187497223KATIA ELOIZE ARAUJO LIMA                000000000000000000000000000000000A4                 
7560001300380U 020000000000000000000000000000000000000000000000000000000000000000000000000000000000000000000000000000000000000000000000001409202000000000    00000000000000000000000                              75600000000000000000000       
7560001300381T 0204609000000000793400000000191801014     138900000000000010072021000000000006500756046090LEOCY ALVES PIMENTEL     091000057310769287LEOCY ALVES PIMENTEL                    000000000000000000000000000000000A4                 
7560001300382U 020000000000000000000000000000000000000000000000000000000000000000000000000000000000000000000000000000000000000000000000001409202000000000    00000000000000000000000                              75600000000000000000000       
7560001300383T 0204609000000000793400000000192501014     112300000000000005012021000000000006500756046090LEONARDO SIQUEIRA MENESES091000072054310263LEONARDO SIQUEIRA MENESES               000000000000000000000000000000000A4                 
7560001300384U 020000000000000000000000000000000000000000000000000000000000000000000000000000000000000000000000000000000000000000000000001409202000000000    00000000000000000000000                              75600000000000000000000       
7560001300385T 0204609000000000793400000000193201014     132300000000000005062021000000000006500756046090MARIA DE FATIMA AMERICO C091000046290966200MARIA DE FATIMA AMERICO CAVALCANTE      000000000000000000000000000000000A4                 
7560001300386U 020000000000000000000000000000000000000000000000000000000000000000000000000000000000000000000000000000000000000000000000001409202000000000    00000000000000000000000                              75600000000000000000000       
7560001300387T 0204609000000000793400000000194001014     111300000000000010122020000000000006500756046090MARYELLE DA SILVA BARROS 091000070059467231MARYELLE DA SILVA BARROS                000000000000000000000000000000000A4                 
7560001300388U 020000000000000000000000000000000000000000000000000000000000000000000000000000000000000000000000000000000000000000000000001409202000000000    00000000000000000000000                              75600000000000000000000       
7560001300389T 0204609000000000793400000000195701014     138500000000000010072021000000000006500756046090NILTON CAETANO DE SOUZA  091000067691420234NILTON CAETANO DE SOUZA                 000000000000000000000000000000000A4                 
7560001300390U 020000000000000000000000000000000000000000000000000000000000000000000000000000000000000000000000000000000000000000000000001409202000000000    00000000000000000000000                              75600000000000000000000       
7560001300391T 0204609000000000793400000000196401014     112700000000000010012021000000000006500756046090PRISCILA PABULA NUNES CHA091000089555058253PRISCILA PABULA NUNES CHAVES            000000000000000000000000000000000A4                 
7560001300392U 020000000000000000000000000000000000000000000000000000000000000000000000000000000000000000000000000000000000000000000000001409202000000000    00000000000000000000000                              75600000000000000000000       
7560001300393T 0204609000000000793400000000197101014     141900000000000010082021000000000006500756046090ROSENIR RIBEIRO ALMEIDA  091000016830857287ROSENIR RIBEIRO ALMEIDA                 000000000000000000000000000000000A4                 
7560001300394U 020000000000000000000000000000000000000000000000000000000000000000000000000000000000000000000000000000000000000000000000001409202000000000    00000000000000000000000                              75600000000000000000000       
7560001300395T 0204609000000000793400000000198901014     113700000000000010012021000000000006500756046090THIAGO OLIVEIRA DA SILVA 091000067070256272THIAGO OLIVEIRA DA SILVA                000000000000000000000000000000000A4                 
7560001300396U 020000000000000000000000000000000000000000000000000000000000000000000000000000000000000000000000000000000000000000000000001409202000000000    00000000000000000000000                              75600000000000000000000       
7560001300397T 0204609000000000793400000000199601014     142500000000000010082021000000000006500756046090UELLITON FERREIRA DE GODO091000060803797249UELLITON FERREIRA DE GODOY              000000000000000000000000000000000A4                 
7560001300398U 020000000000000000000000000000000000000000000000000000000000000000000000000000000000000000000000000000000000000000000000001409202000000000    00000000000000000000000                              75600000000000000000000       
7560001300399T 0204609000000000793400000000200001014     111500000000000010122020000000000006500756046090WILLIAM ANDRADE COSTA    091000008758700153WILLIAM ANDRADE COSTA                   000000000000000000000000000000000A4                 
7560001300400U 020000000000000000000000000000000000000000000000000000000000000000000000000000000000000000000000000000000000000000000000001409202000000000    00000000000000000000000                              75600000000000000000000       
7560001300401T 0204609000000000793400000000201701014     143300000000000010082021000000000006500756046090CELIMAR DA ROCHA SOUZA   091000095574930200CELIMAR DA ROCHA SOUZA                  000000000000000000000000000000000A4                 
7560001300402U 020000000000000000000000000000000000000000000000000000000000000000000000000000000000000000000000000000000000000000000000001409202000000000    00000000000000000000000                              75600000000000000000000       
7560001300403T 0204609000000000793400000000202401014     115000000000000010102020000000000006500756046090CINTHIA RILLERI ALVES OLI091000006089988260CINTHIA RILLERI ALVES OLIVEIRA          000000000000000000000000000000000A4                 
7560001300404U 020000000000000000000000000000000000000000000000000000000000000000000000000000000000000000000000000000000000000000000000001409202000000000    00000000000000000000000                              75600000000000000000000       
7560001300405T 0204609000000000793400000000203101014     143500000000000010082021000000000006500756046090CLEMILTO DE JESUS ARAUJO 091000051760355291CLEMILTO DE JESUS ARAUJO                000000000000000000000000000000000A4                 
7560001300406U 020000000000000000000000000000000000000000000000000000000000000000000000000000000000000000000000000000000000000000000000001409202000000000    00000000000000000000000                              75600000000000000000000       
7560001300407T 0204609000000000793400000000204901014     165000000000000010112020000000000006500756046090CLEUMA GOMES RODRIGUES   091000014611589234CLEUMA GOMES RODRIGUES                  000000000000000000000000000000000A4                 
7560001300408U 020000000000000000000000000000000000000000000000000000000000000000000000000000000000000000000000000000000000000000000000001409202000000000    00000000000000000000000                              75600000000000000000000       
7560001300409T 0204609000000000793400000000205601014     142900000000000010082021000000000006500756046090GABRIELA DIAS SARAIVA POM091000001714609286GABRIELA DIAS SARAIVA POMPEU            000000000000000000000000000000000A4                 
7560001300410U 020000000000000000000000000000000000000000000000000000000000000000000000000000000000000000000000000000000000000000000000001409202000000000    00000000000000000000000                              75600000000000000000000       
7560001300411T 0204609000000000793400000000206301014     141000000000000010102020000000000006500756046090GRACIETE DE JESUS MENEZES091000038014645200GRACIETE DE JESUS MENEZES               000000000000000000000000000000000A4                 
