75600000         235812309000160                    04609000000000793400SALUTE ATIVIDADES DE INTERMEDISICOOB                                  20308202014354400001608500000                                                                     
75600011T01  043 2035812309000160          460900000804609000000000793400SALUTE ATIVIDADES DE INTERMEDI                                                                                000000000308202000000000                                 
7560001300001T 0204609000000000793400001119918901014     121000000000000010082020000000000006500756046090KELLY  MACEDO SILVA      091000001450324266SALUTE                                  000000000000000000000000000000000A4                 
7560001300002U 020000000000000000000000000000000000000000000000000000000000000000000000000000000000000000000000000000000000000000000000003007202000000000    00000000000000000000000                              75600000000000000000000       
7560001300003T 0204609000000000793400001119919601014     112900000000000010092020000000000006500756046090KELLY  MACEDO SILVA      091000001450324266SALUTE                                  000000000000000000000000000000000A4                 
7560001300004U 020000000000000000000000000000000000000000000000000000000000000000000000000000000000000000000000000000000000000000000000003007202000000000    00000000000000000000000                              75600000000000000000000       
7560001300005T 0204609000000000793400001119920401014     118300000000000010102020000000000006500756046090KELLY  MACEDO SILVA      091000001450324266SALUTE                                  000000000000000000000000000000000A4                 
7560001300006U 020000000000000000000000000000000000000000000000000000000000000000000000000000000000000000000000000000000000000000000000003007202000000000    00000000000000000000000                              75600000000000000000000       
7560001300007T 0204609000000000793400001119921101014     125100000000000010112020000000000006500756046090KELLY  MACEDO SILVA      091000001450324266SALUTE                                  000000000000000000000000000000000A4                 
7560001300008U 020000000000000000000000000000000000000000000000000000000000000000000000000000000000000000000000000000000000000000000000003007202000000000    00000000000000000000000                              75600000000000000000000       
7560001300009T 0204609000000000793400001119922901014     135900000000000010122020000000000006500756046090KELLY  MACEDO SILVA      091000001450324266SALUTE                                  000000000000000000000000000000000A4                 
7560001300010U 020000000000000000000000000000000000000000000000000000000000000000000000000000000000000000000000000000000000000000000000003007202000000000    00000000000000000000000                              75600000000000000000000       
7560001300011T 0204609000000000793400001119923601014     141900000000000010012021000000000006500756046090KELLY  MACEDO SILVA      091000001450324266SALUTE                                  000000000000000000000000000000000A4                 
7560001300012U 020000000000000000000000000000000000000000000000000000000000000000000000000000000000000000000000000000000000000000000000003007202000000000    00000000000000000000000                              75600000000000000000000       
7560001300013T 0204609000000000793400001119924301014     146100000000000010022021000000000006500756046090KELLY  MACEDO SILVA      091000001450324266SALUTE                                  000000000000000000000000000000000A4                 
7560001300014U 020000000000000000000000000000000000000000000000000000000000000000000000000000000000000000000000000000000000000000000000003007202000000000    00000000000000000000000                              75600000000000000000000       
7560001300015T 0204609000000000793400001119925001014     158500000000000010032021000000000006500756046090KELLY  MACEDO SILVA      091000001450324266SALUTE                                  000000000000000000000000000000000A4                 
7560001300016U 020000000000000000000000000000000000000000000000000000000000000000000000000000000000000000000000000000000000000000000000003007202000000000    00000000000000000000000                              75600000000000000000000       
7560001300017T 0204609000000000793400001119926801014     166700000000000010042021000000000006500756046090KELLY  MACEDO SILVA      091000001450324266SALUTE                                  000000000000000000000000000000000A4                 
7560001300018U 020000000000000000000000000000000000000000000000000000000000000000000000000000000000000000000000000000000000000000000000003007202000000000    00000000000000000000000                              75600000000000000000000       
7560001300019T 0204609000000000793400001119927501014     169100000000000010052021000000000006500756046090KELLY  MACEDO SILVA      091000001450324266SALUTE                                  000000000000000000000000000000000A4                 
7560001300020U 020000000000000000000000000000000000000000000000000000000000000000000000000000000000000000000000000000000000000000000000003007202000000000    00000000000000000000000                              75600000000000000000000       
7560001300021T 0204609000000000793400001119928201014     181500000000000010062021000000000006500756046090KELLY  MACEDO SILVA      091000001450324266SALUTE                                  000000000000000000000000000000000A4                 
7560001300022U 020000000000000000000000000000000000000000000000000000000000000000000000000000000000000000000000000000000000000000000000003007202000000000    00000000000000000000000                              75600000000000000000000       
7560001300023T 0204609000000000793400001119929001014     190300000000000010072021000000000006500756046090KELLY  MACEDO SILVA      091000001450324266SALUTE                                  000000000000000000000000000000000A4                 
7560001300024U 020000000000000000000000000000000000000000000000000000000000000000000000000000000000000000000000000000000000000000000000003007202000000000    00000000000000000000000                              75600000000000000000000       
7560001300025T 0204609000000000793400001119931501014     159000000000000010082020000000000006500756046090LUZIA BRITO DE SOUSA     091000048100838291SALUTE                                  000000000000000000000000000000000A4                 
7560001300026U 020000000000000000000000000000000000000000000000000000000000000000000000000000000000000000000000000000000000000000000000003007202000000000    00000000000000000000000                              75600000000000000000000       
7560001300027T 0204609000000000793400001119932201014     114500000000000010092020000000000006500756046090LUZIA BRITO DE SOUSA     091000048100838291SALUTE                                  000000000000000000000000000000000A4                 
7560001300028U 020000000000000000000000000000000000000000000000000000000000000000000000000000000000000000000000000000000000000000000000003007202000000000    00000000000000000000000                              75600000000000000000000       
7560001300029T 0204609000000000793400001119933001014     119700000000000010102020000000000006500756046090LUZIA BRITO DE SOUSA     091000048100838291SALUTE                                  000000000000000000000000000000000A4                 
7560001300030U 020000000000000000000000000000000000000000000000000000000000000000000000000000000000000000000000000000000000000000000000003007202000000000    00000000000000000000000                              75600000000000000000000       
7560001300031T 0204609000000000793400001119934701014     125300000000000010112020000000000006500756046090LUZIA BRITO DE SOUSA     091000048100838291SALUTE                                  000000000000000000000000000000000A4                 
7560001300032U 020000000000000000000000000000000000000000000000000000000000000000000000000000000000000000000000000000000000000000000000003007202000000000    00000000000000000000000                              75600000000000000000000       
7560001300033T 0204609000000000793400001119935401014     136500000000000010122020000000000006500756046090LUZIA BRITO DE SOUSA     091000048100838291SALUTE                                  000000000000000000000000000000000A4                 
7560001300034U 020000000000000000000000000000000000000000000000000000000000000000000000000000000000000000000000000000000000000000000000003007202000000000    00000000000000000000000                              75600000000000000000000       
7560001300035T 0204609000000000793400001119936101014     141300000000000010012021000000000006500756046090LUZIA BRITO DE SOUSA     091000048100838291SALUTE                                  000000000000000000000000000000000A4                 
7560001300036U 020000000000000000000000000000000000000000000000000000000000000000000000000000000000000000000000000000000000000000000000003007202000000000    00000000000000000000000                              75600000000000000000000       
7560001300037T 0204609000000000793400001119937901014     147100000000000010022021000000000006500756046090LUZIA BRITO DE SOUSA     091000048100838291SALUTE                                  000000000000000000000000000000000A4                 
7560001300038U 020000000000000000000000000000000000000000000000000000000000000000000000000000000000000000000000000000000000000000000000003007202000000000    00000000000000000000000                              75600000000000000000000       
7560001300039T 0204609000000000793400001119938601014     159700000000000010032021000000000006500756046090LUZIA BRITO DE SOUSA     091000048100838291SALUTE                                  000000000000000000000000000000000A4                 
7560001300040U 020000000000000000000000000000000000000000000000000000000000000000000000000000000000000000000000000000000000000000000000003007202000000000    00000000000000000000000                              75600000000000000000000       
7560001300041T 0204609000000000793400001119939301014     165900000000000010042021000000000006500756046090LUZIA BRITO DE SOUSA     091000048100838291SALUTE                                  000000000000000000000000000000000A4                 
7560001300042U 020000000000000000000000000000000000000000000000000000000000000000000000000000000000000000000000000000000000000000000000003007202000000000    00000000000000000000000                              75600000000000000000000       
7560001300043T 0204609000000000793400001119940101014     170300000000000010052021000000000006500756046090LUZIA BRITO DE SOUSA     091000048100838291SALUTE                                  000000000000000000000000000000000A4                 
7560001300044U 020000000000000000000000000000000000000000000000000000000000000000000000000000000000000000000000000000000000000000000000003007202000000000    00000000000000000000000                              75600000000000000000000       
7560001300045T 0204609000000000793400001119941901014     181100000000000010062021000000000006500756046090LUZIA BRITO DE SOUSA     091000048100838291SALUTE                                  000000000000000000000000000000000A4                 
7560001300046U 020000000000000000000000000000000000000000000000000000000000000000000000000000000000000000000000000000000000000000000000003007202000000000    00000000000000000000000                              75600000000000000000000       
7560001300047T 0204609000000000793400001119942601014     189300000000000010072021000000000006500756046090LUZIA BRITO DE SOUSA     091000048100838291SALUTE                                  000000000000000000000000000000000A4                 
7560001300048U 020000000000000000000000000000000000000000000000000000000000000000000000000000000000000000000000000000000000000000000000003007202000000000    00000000000000000000000                              75600000000000000000000       
7560001300049T 0204609000000000793400001119944001014     163000000000000010082020000000000006500756046090REGIANE BARBOSA TEIXEIRA 091000000556585208SALUTE                                  000000000000000000000000000000000A4                 
7560001300050U 020000000000000000000000000000000000000000000000000000000000000000000000000000000000000000000000000000000000000000000000003007202000000000    00000000000000000000000                              75600000000000000000000       
7560001300051T 0204609000000000793400001119945801014     110700000000000010092020000000000006500756046090REGIANE BARBOSA TEIXEIRA 091000000556585208SALUTE                                  000000000000000000000000000000000A4                 
7560001300052U 020000000000000000000000000000000000000000000000000000000000000000000000000000000000000000000000000000000000000000000000003007202000000000    00000000000000000000000                              75600000000000000000000       
7560001300053T 0204609000000000793400001119946501014     115900000000000010102020000000000006500756046090REGIANE BARBOSA TEIXEIRA 091000000556585208SALUTE                                  000000000000000000000000000000000A4                 
7560001300054U 020000000000000000000000000000000000000000000000000000000000000000000000000000000000000000000000000000000000000000000000003007202000000000    00000000000000000000000                              75600000000000000000000       
7560001300055T 0204609000000000793400001119947201014     127100000000000010112020000000000006500756046090REGIANE BARBOSA TEIXEIRA 091000000556585208SALUTE                                  000000000000000000000000000000000A4                 
7560001300056U 020000000000000000000000000000000000000000000000000000000000000000000000000000000000000000000000000000000000000000000000003007202000000000    00000000000000000000000                              75600000000000000000000       
7560001300057T 0204609000000000793400001119948001014     131500000000000010122020000000000006500756046090REGIANE BARBOSA TEIXEIRA 091000000556585208SALUTE                                  000000000000000000000000000000000A4                 
7560001300058U 020000000000000000000000000000000000000000000000000000000000000000000000000000000000000000000000000000000000000000000000003007202000000000    00000000000000000000000                              75600000000000000000000       
7560001300059T 0204609000000000793400001119949701014     144900000000000010012021000000000006500756046090REGIANE BARBOSA TEIXEIRA 091000000556585208SALUTE                                  000000000000000000000000000000000A4                 
7560001300060U 020000000000000000000000000000000000000000000000000000000000000000000000000000000000000000000000000000000000000000000000003007202000000000    00000000000000000000000                              75600000000000000000000       
7560001300061T 0204609000000000793400001119950501014     147900000000000010022021000000000006500756046090REGIANE BARBOSA TEIXEIRA 091000000556585208SALUTE                                  000000000000000000000000000000000A4                 
7560001300062U 020000000000000000000000000000000000000000000000000000000000000000000000000000000000000000000000000000000000000000000000003007202000000000    00000000000000000000000                              75600000000000000000000       
7560001300063T 0204609000000000793400001119951201014     155300000000000010032021000000000006500756046090REGIANE BARBOSA TEIXEIRA 091000000556585208SALUTE                                  000000000000000000000000000000000A4                 
7560001300064U 020000000000000000000000000000000000000000000000000000000000000000000000000000000000000000000000000000000000000000000000003007202000000000    00000000000000000000000                              75600000000000000000000       
7560001300065T 0204609000000000793400001119952001014     164100000000000010042021000000000006500756046090REGIANE BARBOSA TEIXEIRA 091000000556585208SALUTE                                  000000000000000000000000000000000A4                 
7560001300066U 020000000000000000000000000000000000000000000000000000000000000000000000000000000000000000000000000000000000000000000000003007202000000000    00000000000000000000000                              75600000000000000000000       
7560001300067T 0204609000000000793400001119953701014     174500000000000010052021000000000006500756046090REGIANE BARBOSA TEIXEIRA 091000000556585208SALUTE                                  000000000000000000000000000000000A4                 
7560001300068U 020000000000000000000000000000000000000000000000000000000000000000000000000000000000000000000000000000000000000000000000003007202000000000    00000000000000000000000                              75600000000000000000000       
7560001300069T 0204609000000000793400001119954401014     179700000000000010062021000000000006500756046090REGIANE BARBOSA TEIXEIRA 091000000556585208SALUTE                                  000000000000000000000000000000000A4                 
7560001300070U 020000000000000000000000000000000000000000000000000000000000000000000000000000000000000000000000000000000000000000000000003007202000000000    00000000000000000000000                              75600000000000000000000       
7560001300071T 0204609000000000793400001119955101014     185100000000000010072021000000000006500756046090REGIANE BARBOSA TEIXEIRA 091000000556585208SALUTE                                  000000000000000000000000000000000A4                 
7560001300072U 020000000000000000000000000000000000000000000000000000000000000000000000000000000000000000000000000000000000000000000000003007202000000000    00000000000000000000000                              75600000000000000000000       
7560001300073T 0204609000000000793400001119957601014     129000000000000010082020000000000006500756046090BENTO DE SOUZA LOPES     091000021523690330SALUTE                                  000000000000000000000000000000000A4                 
7560001300074U 020000000000000000000000000000000000000000000000000000000000000000000000000000000000000000000000000000000000000000000000003007202000000000    00000000000000000000000                              75600000000000000000000       
7560001300075T 0204609000000000793400001119958301014     110100000000000010092020000000000006500756046090BENTO DE SOUZA LOPES     091000021523690330SALUTE                                  000000000000000000000000000000000A4                 
7560001300076U 020000000000000000000000000000000000000000000000000000000000000000000000000000000000000000000000000000000000000000000000003007202000000000    00000000000000000000000                              75600000000000000000000       
7560001300077T 0204609000000000793400001119959001014     121500000000000010102020000000000006500756046090BENTO DE SOUZA LOPES     091000021523690330SALUTE                                  000000000000000000000000000000000A4                 
7560001300078U 020000000000000000000000000000000000000000000000000000000000000000000000000000000000000000000000000000000000000000000000003007202000000000    00000000000000000000000                              75600000000000000000000       
7560001300079T 0204609000000000793400001119960901014     128500000000000010112020000000000006500756046090BENTO DE SOUZA LOPES     091000021523690330SALUTE                                  000000000000000000000000000000000A4                 
7560001300080U 020000000000000000000000000000000000000000000000000000000000000000000000000000000000000000000000000000000000000000000000003007202000000000    00000000000000000000000                              75600000000000000000000       
7560001300081T 0204609000000000793400001119961601014     133100000000000010122020000000000006500756046090BENTO DE SOUZA LOPES     091000021523690330SALUTE                                  000000000000000000000000000000000A4                 
7560001300082U 020000000000000000000000000000000000000000000000000000000000000000000000000000000000000000000000000000000000000000000000003007202000000000    00000000000000000000000                              75600000000000000000000       
7560001300083T 0204609000000000793400001119962301014     143500000000000010012021000000000006500756046090BENTO DE SOUZA LOPES     091000021523690330SALUTE                                  000000000000000000000000000000000A4                 
7560001300084U 020000000000000000000000000000000000000000000000000000000000000000000000000000000000000000000000000000000000000000000000003007202000000000    00000000000000000000000                              75600000000000000000000       
7560001300085T 0204609000000000793400001119963001014     148500000000000010022021000000000006500756046090BENTO DE SOUZA LOPES     091000021523690330SALUTE                                  000000000000000000000000000000000A4                 
7560001300086U 020000000000000000000000000000000000000000000000000000000000000000000000000000000000000000000000000000000000000000000000003007202000000000    00000000000000000000000                              75600000000000000000000       
7560001300087T 0204609000000000793400001119964801014     159300000000000010032021000000000006500756046090BENTO DE SOUZA LOPES     091000021523690330SALUTE                                  000000000000000000000000000000000A4                 
7560001300088U 020000000000000000000000000000000000000000000000000000000000000000000000000000000000000000000000000000000000000000000000003007202000000000    00000000000000000000000                              75600000000000000000000       
7560001300089T 0204609000000000793400001119965501014     167100000000000010042021000000000006500756046090BENTO DE SOUZA LOPES     091000021523690330SALUTE                                  000000000000000000000000000000000A4                 
7560001300090U 020000000000000000000000000000000000000000000000000000000000000000000000000000000000000000000000000000000000000000000000003007202000000000    00000000000000000000000                              75600000000000000000000       
7560001300091T 0204609000000000793400001119966201014     172100000000000010052021000000000006500756046090BENTO DE SOUZA LOPES     091000021523690330SALUTE                                  000000000000000000000000000000000A4                 
7560001300092U 020000000000000000000000000000000000000000000000000000000000000000000000000000000000000000000000000000000000000000000000003007202000000000    00000000000000000000000                              75600000000000000000000       
7560001300093T 0204609000000000793400001119967001014     177900000000000010062021000000000006500756046090BENTO DE SOUZA LOPES     091000021523690330SALUTE                                  000000000000000000000000000000000A4                 
7560001300094U 020000000000000000000000000000000000000000000000000000000000000000000000000000000000000000000000000000000000000000000000003007202000000000    00000000000000000000000                              75600000000000000000000       
7560001300095T 0204609000000000793400001119968701014     186900000000000010072021000000000006500756046090BENTO DE SOUZA LOPES     091000021523690330SALUTE                                  000000000000000000000000000000000A4                 
7560001300096U 020000000000000000000000000000000000000000000000000000000000000000000000000000000000000000000000000000000000000000000000003007202000000000    00000000000000000000000                              75600000000000000000000       
7560001300097T 0204609000000000793400001119970201014     167000000000000010082020000000000006500756046090MARLENE PEREIRA DA SILVA 091000004993534205SALUTE                                  000000000000000000000000000000000A4                 
7560001300098U 020000000000000000000000000000000000000000000000000000000000000000000000000000000000000000000000000000000000000000000000003007202000000000    00000000000000000000000                              75600000000000000000000       
7560001300099T 0204609000000000793400001119971001014     110900000000000010092020000000000006500756046090MARLENE PEREIRA DA SILVA 091000004993534205SALUTE                                  000000000000000000000000000000000A4                 
7560001300100U 020000000000000000000000000000000000000000000000000000000000000000000000000000000000000000000000000000000000000000000000003007202000000000    00000000000000000000000                              75600000000000000000000       
7560001300101T 0204609000000000793400001119972701014     117300000000000010102020000000000006500756046090MARLENE PEREIRA DA SILVA 091000004993534205SALUTE                                  000000000000000000000000000000000A4                 
7560001300102U 020000000000000000000000000000000000000000000000000000000000000000000000000000000000000000000000000000000000000000000000003007202000000000    00000000000000000000000                              75600000000000000000000       
7560001300103T 0204609000000000793400001119973401014     124300000000000010112020000000000006500756046090MARLENE PEREIRA DA SILVA 091000004993534205SALUTE                                  000000000000000000000000000000000A4                 
7560001300104U 020000000000000000000000000000000000000000000000000000000000000000000000000000000000000000000000000000000000000000000000003007202000000000    00000000000000000000000                              75600000000000000000000       
7560001300105T 0204609000000000793400001119974101014     133500000000000010122020000000000006500756046090MARLENE PEREIRA DA SILVA 091000004993534205SALUTE                                  000000000000000000000000000000000A4                 
7560001300106U 020000000000000000000000000000000000000000000000000000000000000000000000000000000000000000000000000000000000000000000000003007202000000000    00000000000000000000000                              75600000000000000000000       
7560001300107T 0204609000000000793400001119975901014     142300000000000010012021000000000006500756046090MARLENE PEREIRA DA SILVA 091000004993534205SALUTE                                  000000000000000000000000000000000A4                 
7560001300108U 020000000000000000000000000000000000000000000000000000000000000000000000000000000000000000000000000000000000000000000000003007202000000000    00000000000000000000000                              75600000000000000000000       
7560001300109T 0204609000000000793400001119976601014     146500000000000010022021000000000006500756046090MARLENE PEREIRA DA SILVA 091000004993534205SALUTE                                  000000000000000000000000000000000A4                 
7560001300110U 020000000000000000000000000000000000000000000000000000000000000000000000000000000000000000000000000000000000000000000000003007202000000000    00000000000000000000000                              75600000000000000000000       
7560001300111T 0204609000000000793400001119977301014     153700000000000010032021000000000006500756046090MARLENE PEREIRA DA SILVA 091000004993534205SALUTE                                  000000000000000000000000000000000A4                 
7560001300112U 020000000000000000000000000000000000000000000000000000000000000000000000000000000000000000000000000000000000000000000000003007202000000000    00000000000000000000000                              75600000000000000000000       
7560001300113T 0204609000000000793400001119978001014     165700000000000010042021000000000006500756046090MARLENE PEREIRA DA SILVA 091000004993534205SALUTE                                  000000000000000000000000000000000A4                 
7560001300114U 020000000000000000000000000000000000000000000000000000000000000000000000000000000000000000000000000000000000000000000000003007202000000000    00000000000000000000000                              75600000000000000000000       
7560001300115T 0204609000000000793400001119979801014     172900000000000010052021000000000006500756046090MARLENE PEREIRA DA SILVA 091000004993534205SALUTE                                  000000000000000000000000000000000A4                 
7560001300116U 020000000000000000000000000000000000000000000000000000000000000000000000000000000000000000000000000000000000000000000000003007202000000000    00000000000000000000000                              75600000000000000000000       
7560001300117T 0204609000000000793400001119980601014     182500000000000010062021000000000006500756046090MARLENE PEREIRA DA SILVA 091000004993534205SALUTE                                  000000000000000000000000000000000A4                 
7560001300118U 020000000000000000000000000000000000000000000000000000000000000000000000000000000000000000000000000000000000000000000000003007202000000000    00000000000000000000000                              75600000000000000000000       
7560001300119T 0204609000000000793400001119981301014     185900000000000010072021000000000006500756046090MARLENE PEREIRA DA SILVA 091000004993534205SALUTE                                  000000000000000000000000000000000A4                 
7560001300120U 020000000000000000000000000000000000000000000000000000000000000000000000000000000000000000000000000000000000000000000000003007202000000000    00000000000000000000000                              75600000000000000000000       
7560001300121T 0204609000000000793400001119983801014     169000000000000010082020000000000006750756046090IVAN DE JESUS PEREIRA    091000049081586220SALUTE                                  000000000000000000000000000000000A4                 
7560001300122U 020000000000000000000000000000000000000000000000000000000000000000000000000000000000000000000000000000000000000000000000003007202000000000    00000000000000000000000                              75600000000000000000000       
7560001300123T 0204609000000000793400001119984501014     114300000000000010092020000000000006750756046090IVAN DE JESUS PEREIRA    091000049081586220SALUTE                                  000000000000000000000000000000000A4                 
7560001300124U 020000000000000000000000000000000000000000000000000000000000000000000000000000000000000000000000000000000000000000000000003007202000000000    00000000000000000000000                              75600000000000000000000       
7560001300125T 0204609000000000793400001119985201014     118700000000000010102020000000000006750756046090IVAN DE JESUS PEREIRA    091000049081586220SALUTE                                  000000000000000000000000000000000A4                 
7560001300126U 020000000000000000000000000000000000000000000000000000000000000000000000000000000000000000000000000000000000000000000000003007202000000000    00000000000000000000000                              75600000000000000000000       
7560001300127T 0204609000000000793400001119986001014     126500000000000010112020000000000006750756046090IVAN DE JESUS PEREIRA    091000049081586220SALUTE                                  000000000000000000000000000000000A4                 
7560001300128U 020000000000000000000000000000000000000000000000000000000000000000000000000000000000000000000000000000000000000000000000003007202000000000    00000000000000000000000                              75600000000000000000000       
7560001300129T 0204609000000000793400001119987701014     131100000000000010122020000000000006750756046090IVAN DE JESUS PEREIRA    091000049081586220SALUTE                                  000000000000000000000000000000000A4                 
7560001300130U 020000000000000000000000000000000000000000000000000000000000000000000000000000000000000000000000000000000000000000000000003007202000000000    00000000000000000000000                              75600000000000000000000       
7560001300131T 0204609000000000793400001119988401014     141100000000000010012021000000000006750756046090IVAN DE JESUS PEREIRA    091000049081586220SALUTE                                  000000000000000000000000000000000A4                 
7560001300132U 020000000000000000000000000000000000000000000000000000000000000000000000000000000000000000000000000000000000000000000000003007202000000000    00000000000000000000000                              75600000000000000000000       
7560001300133T 0204609000000000793400001119989101014     146900000000000010022021000000000006750756046090IVAN DE JESUS PEREIRA    091000049081586220SALUTE                                  000000000000000000000000000000000A4                 
7560001300134U 020000000000000000000000000000000000000000000000000000000000000000000000000000000000000000000000000000000000000000000000003007202000000000    00000000000000000000000                              75600000000000000000000       
7560001300135T 0204609000000000793400001119990001014     154100000000000010032021000000000006750756046090IVAN DE JESUS PEREIRA    091000049081586220SALUTE                                  000000000000000000000000000000000A4                 
7560001300136U 020000000000000000000000000000000000000000000000000000000000000000000000000000000000000000000000000000000000000000000000003007202000000000    00000000000000000000000                              75600000000000000000000       
7560001300137T 0204609000000000793400001119991701014     167300000000000010042021000000000006750756046090IVAN DE JESUS PEREIRA    091000049081586220SALUTE                                  000000000000000000000000000000000A4                 
7560001300138U 020000000000000000000000000000000000000000000000000000000000000000000000000000000000000000000000000000000000000000000000003007202000000000    00000000000000000000000                              75600000000000000000000       
7560001300139T 0204609000000000793400001119992401014     173900000000000010052021000000000006750756046090IVAN DE JESUS PEREIRA    091000049081586220SALUTE                                  000000000000000000000000000000000A4                 
7560001300140U 020000000000000000000000000000000000000000000000000000000000000000000000000000000000000000000000000000000000000000000000003007202000000000    00000000000000000000000                              75600000000000000000000       
7560001300141T 0204609000000000793400001119993101014     182100000000000010062021000000000006750756046090IVAN DE JESUS PEREIRA    091000049081586220SALUTE                                  000000000000000000000000000000000A4                 
7560001300142U 020000000000000000000000000000000000000000000000000000000000000000000000000000000000000000000000000000000000000000000000003007202000000000    00000000000000000000000                              75600000000000000000000       
7560001300143T 0204609000000000793400001119994901014     189900000000000010072021000000000006750756046090IVAN DE JESUS PEREIRA    091000049081586220SALUTE                                  000000000000000000000000000000000A4                 
7560001300144U 020000000000000000000000000000000000000000000000000000000000000000000000000000000000000000000000000000000000000000000000003007202000000000    00000000000000000000000                              75600000000000000000000       
7560001300145T 0204609000000000793400001119996301014     131000000000000010082020000000000006500756046090MARIA SANDRA DE SOUSA COS091000066477107287SALUTE                                  000000000000000000000000000000000A4                 
7560001300146U 020000000000000000000000000000000000000000000000000000000000000000000000000000000000000000000000000000000000000000000000003007202000000000    00000000000000000000000                              75600000000000000000000       
7560001300147T 0204609000000000793400001119997001014     110300000000000010092020000000000006500756046090MARIA SANDRA DE SOUSA COS091000066477107287SALUTE                                  000000000000000000000000000000000A4                 
7560001300148U 020000000000000000000000000000000000000000000000000000000000000000000000000000000000000000000000000000000000000000000000003007202000000000    00000000000000000000000                              75600000000000000000000       
7560001300149T 0204609000000000793400001119998801014     121700000000000010102020000000000006500756046090MARIA SANDRA DE SOUSA COS091000066477107287SALUTE                                  000000000000000000000000000000000A4                 
7560001300150U 020000000000000000000000000000000000000000000000000000000000000000000000000000000000000000000000000000000000000000000000003007202000000000    00000000000000000000000                              75600000000000000000000       
7560001300151T 0204609000000000793400001119999501014     126700000000000010112020000000000006500756046090MARIA SANDRA DE SOUSA COS091000066477107287SALUTE                                  000000000000000000000000000000000A4                 
7560001300152U 020000000000000000000000000000000000000000000000000000000000000000000000000000000000000000000000000000000000000000000000003007202000000000    00000000000000000000000                              75600000000000000000000       
7560001300153T 0204609000000000793400001120000601014     132900000000000010122020000000000006500756046090MARIA SANDRA DE SOUSA COS091000066477107287SALUTE                                  000000000000000000000000000000000A4                 
7560001300154U 020000000000000000000000000000000000000000000000000000000000000000000000000000000000000000000000000000000000000000000000003007202000000000    00000000000000000000000                              75600000000000000000000       
7560001300155T 0204609000000000793400001120001301014     142900000000000010012021000000000006500756046090MARIA SANDRA DE SOUSA COS091000066477107287SALUTE                                  000000000000000000000000000000000A4                 
7560001300156U 020000000000000000000000000000000000000000000000000000000000000000000000000000000000000000000000000000000000000000000000003007202000000000    00000000000000000000000                              75600000000000000000000       
7560001300157T 0204609000000000793400001120002001014     147700000000000010022021000000000006500756046090MARIA SANDRA DE SOUSA COS091000066477107287SALUTE                                  000000000000000000000000000000000A4                 
7560001300158U 020000000000000000000000000000000000000000000000000000000000000000000000000000000000000000000000000000000000000000000000003007202000000000    00000000000000000000000                              75600000000000000000000       
7560001300159T 0204609000000000793400001120003801014     156500000000000010032021000000000006500756046090MARIA SANDRA DE SOUSA COS091000066477107287SALUTE                                  000000000000000000000000000000000A4                 
7560001300160U 020000000000000000000000000000000000000000000000000000000000000000000000000000000000000000000000000000000000000000000000003007202000000000    00000000000000000000000                              75600000000000000000000       
7560001300161T 0204609000000000793400001120004501014     167700000000000010042021000000000006500756046090MARIA SANDRA DE SOUSA COS091000066477107287SALUTE                                  000000000000000000000000000000000A4                 
7560001300162U 020000000000000000000000000000000000000000000000000000000000000000000000000000000000000000000000000000000000000000000000003007202000000000    00000000000000000000000                              75600000000000000000000       
7560001300163T 0204609000000000793400001120005201014     174900000000000010052021000000000006500756046090MARIA SANDRA DE SOUSA COS091000066477107287SALUTE                                  000000000000000000000000000000000A4                 
7560001300164U 020000000000000000000000000000000000000000000000000000000000000000000000000000000000000000000000000000000000000000000000003007202000000000    00000000000000000000000                              75600000000000000000000       
7560001300165T 0204609000000000793400001120006001014     179900000000000010062021000000000006500756046090MARIA SANDRA DE SOUSA COS091000066477107287SALUTE                                  000000000000000000000000000000000A4                 
7560001300166U 020000000000000000000000000000000000000000000000000000000000000000000000000000000000000000000000000000000000000000000000003007202000000000    00000000000000000000000                              75600000000000000000000       
7560001300167T 0204609000000000793400001120007701014     188900000000000010072021000000000006500756046090MARIA SANDRA DE SOUSA COS091000066477107287SALUTE                                  000000000000000000000000000000000A4                 
7560001300168U 020000000000000000000000000000000000000000000000000000000000000000000000000000000000000000000000000000000000000000000000003007202000000000    00000000000000000000000                              75600000000000000000000       
7560001300169T 0204609000000000793400001120009101014     161000000000000010082020000000000006500756046090MARIA DO ROSARIO DE FATIM091000009727051391SALUTE                                  000000000000000000000000000000000A4                 
7560001300170U 020000000000000000000000000000000000000000000000000000000000000000000000000000000000000000000000000000000000000000000000003007202000000000    00000000000000000000000                              75600000000000000000000       
7560001300171T 0204609000000000793400001120010001014     114700000000000010092020000000000006500756046090MARIA DO ROSARIO DE FATIM091000009727051391SALUTE                                  000000000000000000000000000000000A4                 
7560001300172U 020000000000000000000000000000000000000000000000000000000000000000000000000000000000000000000000000000000000000000000000003007202000000000    00000000000000000000000                              75600000000000000000000       
7560001300173T 0204609000000000793400001120011701014     116500000000000010102020000000000006500756046090MARIA DO ROSARIO DE FATIM091000009727051391SALUTE                                  000000000000000000000000000000000A4                 
7560001300174U 020000000000000000000000000000000000000000000000000000000000000000000000000000000000000000000000000000000000000000000000003007202000000000    00000000000000000000000                              75600000000000000000000       
7560001300175T 0204609000000000793400001120012401014     127900000000000010112020000000000006500756046090MARIA DO ROSARIO DE FATIM091000009727051391SALUTE                                  000000000000000000000000000000000A4                 
7560001300176U 020000000000000000000000000000000000000000000000000000000000000000000000000000000000000000000000000000000000000000000000003007202000000000    00000000000000000000000                              75600000000000000000000       
7560001300177T 0204609000000000793400001120013101014     132100000000000010122020000000000006500756046090MARIA DO ROSARIO DE FATIM091000009727051391SALUTE                                  000000000000000000000000000000000A4                 
7560001300178U 020000000000000000000000000000000000000000000000000000000000000000000000000000000000000000000000000000000000000000000000003007202000000000    00000000000000000000000                              75600000000000000000000       
7560001300179T 0204609000000000793400001120014901014     143900000000000010012021000000000006500756046090MARIA DO ROSARIO DE FATIM091000009727051391SALUTE                                  000000000000000000000000000000000A4                 
7560001300180U 020000000000000000000000000000000000000000000000000000000000000000000000000000000000000000000000000000000000000000000000003007202000000000    00000000000000000000000                              75600000000000000000000       
7560001300181T 0204609000000000793400001120015601014     148300000000000010022021000000000006500756046090MARIA DO ROSARIO DE FATIM091000009727051391SALUTE                                  000000000000000000000000000000000A4                 
7560001300182U 020000000000000000000000000000000000000000000000000000000000000000000000000000000000000000000000000000000000000000000000003007202000000000    00000000000000000000000                              75600000000000000000000       
7560001300183T 0204609000000000793400001120016301014     160300000000000010032021000000000006500756046090MARIA DO ROSARIO DE FATIM091000009727051391SALUTE                                  000000000000000000000000000000000A4                 
7560001300184U 020000000000000000000000000000000000000000000000000000000000000000000000000000000000000000000000000000000000000000000000003007202000000000    00000000000000000000000                              75600000000000000000000       
7560001300185T 0204609000000000793400001120017001014     167900000000000010042021000000000006500756046090MARIA DO ROSARIO DE FATIM091000009727051391SALUTE                                  000000000000000000000000000000000A4                 
7560001300186U 020000000000000000000000000000000000000000000000000000000000000000000000000000000000000000000000000000000000000000000000003007202000000000    00000000000000000000000                              75600000000000000000000       
7560001300187T 0204609000000000793400001120018801014     173300000000000010052021000000000006500756046090MARIA DO ROSARIO DE FATIM091000009727051391SALUTE                                  000000000000000000000000000000000A4                 
7560001300188U 020000000000000000000000000000000000000000000000000000000000000000000000000000000000000000000000000000000000000000000000003007202000000000    00000000000000000000000                              75600000000000000000000       
7560001300189T 0204609000000000793400001120019501014     178700000000000010062021000000000006500756046090MARIA DO ROSARIO DE FATIM091000009727051391SALUTE                                  000000000000000000000000000000000A4                 
7560001300190U 020000000000000000000000000000000000000000000000000000000000000000000000000000000000000000000000000000000000000000000000003007202000000000    00000000000000000000000                              75600000000000000000000       
7560001300191T 0204609000000000793400001120020301014     186300000000000010072021000000000006500756046090MARIA DO ROSARIO DE FATIM091000009727051391SALUTE                                  000000000000000000000000000000000A4                 
7560001300192U 020000000000000000000000000000000000000000000000000000000000000000000000000000000000000000000000000000000000000000000000003007202000000000    00000000000000000000000                              75600000000000000000000       
7560001300193T 0204609000000000793400001120022801014     130000000000000005082020000000000006500756046090MARIA DELZA MARTINS ARAUJ091000028776992268SALUTE                                  000000000000000000000000000000000A4                 
7560001300194U 020000000000000000000000000000000000000000000000000000000000000000000000000000000000000000000000000000000000000000000000003007202000000000    00000000000000000000000                              75600000000000000000000       
7560001300195T 0204609000000000793400001120023501014     179000000000000005092020000000000006500756046090MARIA DELZA MARTINS ARAUJ091000028776992268SALUTE                                  000000000000000000000000000000000A4                 
7560001300196U 020000000000000000000000000000000000000000000000000000000000000000000000000000000000000000000000000000000000000000000000003007202000000000    00000000000000000000000                              75600000000000000000000       
7560001300197T 0204609000000000793400001120024201014     115500000000000005102020000000000006500756046090MARIA DELZA MARTINS ARAUJ091000028776992268SALUTE                                  000000000000000000000000000000000A4                 
7560001300198U 020000000000000000000000000000000000000000000000000000000000000000000000000000000000000000000000000000000000000000000000003007202000000000    00000000000000000000000                              75600000000000000000000       
7560001300199T 0204609000000000793400001120025001014     123100000000000005112020000000000006500756046090MARIA DELZA MARTINS ARAUJ091000028776992268SALUTE                                  000000000000000000000000000000000A4                 
7560001300200U 020000000000000000000000000000000000000000000000000000000000000000000000000000000000000000000000000000000000000000000000003007202000000000    00000000000000000000000                              75600000000000000000000       
7560001300201T 0204609000000000793400001120026701014     130700000000000005122020000000000006500756046090MARIA DELZA MARTINS ARAUJ091000028776992268SALUTE                                  000000000000000000000000000000000A4                 
7560001300202U 020000000000000000000000000000000000000000000000000000000000000000000000000000000000000000000000000000000000000000000000003007202000000000    00000000000000000000000                              75600000000000000000000       
7560001300203T 0204609000000000793400001120027401014     138100000000000005012021000000000006500756046090MARIA DELZA MARTINS ARAUJ091000028776992268SALUTE                                  000000000000000000000000000000000A4                 
7560001300204U 020000000000000000000000000000000000000000000000000000000000000000000000000000000000000000000000000000000000000000000000003007202000000000    00000000000000000000000                              75600000000000000000000       
7560001300205T 0204609000000000793400001120028101014     145900000000000005022021000000000006500756046090MARIA DELZA MARTINS ARAUJ091000028776992268SALUTE                                  000000000000000000000000000000000A4                 
7560001300206U 020000000000000000000000000000000000000000000000000000000000000000000000000000000000000000000000000000000000000000000000003007202000000000    00000000000000000000000                              75600000000000000000000       
7560001300207T 0204609000000000793400001120029901014     153500000000000005032021000000000006500756046090MARIA DELZA MARTINS ARAUJ091000028776992268SALUTE                                  000000000000000000000000000000000A4                 
7560001300208U 020000000000000000000000000000000000000000000000000000000000000000000000000000000000000000000000000000000000000000000000003007202000000000    00000000000000000000000                              75600000000000000000000       
7560001300209T 0204609000000000793400001120030701014     160900000000000005042021000000000006500756046090MARIA DELZA MARTINS ARAUJ091000028776992268SALUTE                                  000000000000000000000000000000000A4                 
7560001300210U 020000000000000000000000000000000000000000000000000000000000000000000000000000000000000000000000000000000000000000000000003007202000000000    00000000000000000000000                              75600000000000000000000       
7560001300211T 0204609000000000793400001120031401014     168500000000000005052021000000000006500756046090MARIA DELZA MARTINS ARAUJ091000028776992268SALUTE                                  000000000000000000000000000000000A4                 
7560001300212U 020000000000000000000000000000000000000000000000000000000000000000000000000000000000000000000000000000000000000000000000003007202000000000    00000000000000000000000                              75600000000000000000000       
7560001300213T 0204609000000000793400001120032101014     176300000000000005062021000000000006500756046090MARIA DELZA MARTINS ARAUJ091000028776992268SALUTE                                  000000000000000000000000000000000A4                 
7560001300214U 020000000000000000000000000000000000000000000000000000000000000000000000000000000000000000000000000000000000000000000000003007202000000000    00000000000000000000000                              75600000000000000000000       
7560001300215T 0204609000000000793400001120033901014     183900000000000005072021000000000006500756046090MARIA DELZA MARTINS ARAUJ091000028776992268SALUTE                                  000000000000000000000000000000000A4                 
7560001300216U 020000000000000000000000000000000000000000000000000000000000000000000000000000000000000000000000000000000000000000000000003007202000000000    00000000000000000000000                              75600000000000000000000       
7560001300217T 0204609000000000793400001120035301014     150000000000000010082020000000000006750756046090MARIA GORETE ALVES MENDON091000030162670206SALUTE                                  000000000000000000000000000000000A4                 
7560001300218U 020000000000000000000000000000000000000000000000000000000000000000000000000000000000000000000000000000000000000000000000003007202000000000    00000000000000000000000                              75600000000000000000000       
7560001300219T 0204609000000000793400001120036001014     197000000000000010092020000000000006750756046090MARIA GORETE ALVES MENDON091000030162670206SALUTE                                  000000000000000000000000000000000A4                 
7560001300220U 020000000000000000000000000000000000000000000000000000000000000000000000000000000000000000000000000000000000000000000000003007202000000000    00000000000000000000000                              75600000000000000000000       
7560001300221T 0204609000000000793400001120037801014     121300000000000010102020000000000006750756046090MARIA GORETE ALVES MENDON091000030162670206SALUTE                                  000000000000000000000000000000000A4                 
7560001300222U 020000000000000000000000000000000000000000000000000000000000000000000000000000000000000000000000000000000000000000000000003007202000000000    00000000000000000000000                              75600000000000000000000       
7560001300223T 0204609000000000793400001120038501014     123300000000000010112020000000000006750756046090MARIA GORETE ALVES MENDON091000030162670206SALUTE                                  000000000000000000000000000000000A4                 
7560001300224U 020000000000000000000000000000000000000000000000000000000000000000000000000000000000000000000000000000000000000000000000003007202000000000    00000000000000000000000                              75600000000000000000000       
7560001300225T 0204609000000000793400001120039201014     135100000000000010122020000000000006750756046090MARIA GORETE ALVES MENDON091000030162670206SALUTE                                  000000000000000000000000000000000A4                 
7560001300226U 020000000000000000000000000000000000000000000000000000000000000000000000000000000000000000000000000000000000000000000000003007202000000000    00000000000000000000000                              75600000000000000000000       
7560001300227T 0204609000000000793400001120040001014     140700000000000010012021000000000006750756046090MARIA GORETE ALVES MENDON091000030162670206SALUTE                                  000000000000000000000000000000000A4                 
7560001300228U 020000000000000000000000000000000000000000000000000000000000000000000000000000000000000000000000000000000000000000000000003007202000000000    00000000000000000000000                              75600000000000000000000       
7560001300229T 0204609000000000793400001120041801014     148700000000000010022021000000000006750756046090MARIA GORETE ALVES MENDON091000030162670206SALUTE                                  000000000000000000000000000000000A4                 
7560001300230U 020000000000000000000000000000000000000000000000000000000000000000000000000000000000000000000000000000000000000000000000003007202000000000    00000000000000000000000                              75600000000000000000000       
7560001300231T 0204609000000000793400001120042501014     157500000000000010032021000000000006750756046090MARIA GORETE ALVES MENDON091000030162670206SALUTE                                  000000000000000000000000000000000A4                 
7560001300232U 020000000000000000000000000000000000000000000000000000000000000000000000000000000000000000000000000000000000000000000000003007202000000000    00000000000000000000000                              75600000000000000000000       
7560001300233T 0204609000000000793400001120043201014     163700000000000010042021000000000006750756046090MARIA GORETE ALVES MENDON091000030162670206SALUTE                                  000000000000000000000000000000000A4                 
7560001300234U 020000000000000000000000000000000000000000000000000000000000000000000000000000000000000000000000000000000000000000000000003007202000000000    00000000000000000000000                              75600000000000000000000       
7560001300235T 0204609000000000793400001120044001014     171500000000000010052021000000000006750756046090MARIA GORETE ALVES MENDON091000030162670206SALUTE                                  000000000000000000000000000000000A4                 
7560001300236U 020000000000000000000000000000000000000000000000000000000000000000000000000000000000000000000000000000000000000000000000003007202000000000    00000000000000000000000                              75600000000000000000000       
7560001300237T 0204609000000000793400001120045701014     177700000000000010062021000000000006750756046090MARIA GORETE ALVES MENDON091000030162670206SALUTE                                  000000000000000000000000000000000A4                 
7560001300238U 020000000000000000000000000000000000000000000000000000000000000000000000000000000000000000000000000000000000000000000000003007202000000000    00000000000000000000000                              75600000000000000000000       
7560001300239T 0204609000000000793400001120046401014     188100000000000010072021000000000006750756046090MARIA GORETE ALVES MENDON091000030162670206SALUTE                                  000000000000000000000000000000000A4                 
7560001300240U 020000000000000000000000000000000000000000000000000000000000000000000000000000000000000000000000000000000000000000000000003007202000000000    00000000000000000000000                              75600000000000000000000       
7560001300241T 0204609000000000793400001120048901014     115000000000000010082020000000000006500756046090TIAGO ANDRADE DE SOUZA   091000000457618256SALUTE                                  000000000000000000000000000000000A4                 
7560001300242U 020000000000000000000000000000000000000000000000000000000000000000000000000000000000000000000000000000000000000000000000003007202000000000    00000000000000000000000                              75600000000000000000000       
7560001300243T 0204609000000000793400001120049601014     113900000000000010092020000000000006500756046090TIAGO ANDRADE DE SOUZA   091000000457618256SALUTE                                  000000000000000000000000000000000A4                 
7560001300244U 020000000000000000000000000000000000000000000000000000000000000000000000000000000000000000000000000000000000000000000000003007202000000000    00000000000000000000000                              75600000000000000000000       
7560001300245T 0204609000000000793400001120050401014     118100000000000010102020000000000006500756046090TIAGO ANDRADE DE SOUZA   091000000457618256SALUTE                                  000000000000000000000000000000000A4                 
7560001300246U 020000000000000000000000000000000000000000000000000000000000000000000000000000000000000000000000000000000000000000000000003007202000000000    00000000000000000000000                              75600000000000000000000       
7560001300247T 0204609000000000793400001120051101014     130100000000000010112020000000000006500756046090TIAGO ANDRADE DE SOUZA   091000000457618256SALUTE                                  000000000000000000000000000000000A4                 
7560001300248U 020000000000000000000000000000000000000000000000000000000000000000000000000000000000000000000000000000000000000000000000003007202000000000    00000000000000000000000                              75600000000000000000000       
7560001300249T 0204609000000000793400001120052901014     134300000000000010122020000000000006500756046090TIAGO ANDRADE DE SOUZA   091000000457618256SALUTE                                  000000000000000000000000000000000A4                 
7560001300250U 020000000000000000000000000000000000000000000000000000000000000000000000000000000000000000000000000000000000000000000000003007202000000000    00000000000000000000000                              75600000000000000000000       
7560001300251T 0204609000000000793400001120053601014     144700000000000010012021000000000006500756046090TIAGO ANDRADE DE SOUZA   091000000457618256SALUTE                                  000000000000000000000000000000000A4                 
7560001300252U 020000000000000000000000000000000000000000000000000000000000000000000000000000000000000000000000000000000000000000000000003007202000000000    00000000000000000000000                              75600000000000000000000       
7560001300253T 0204609000000000793400001120054301014     149300000000000010022021000000000006500756046090TIAGO ANDRADE DE SOUZA   091000000457618256SALUTE                                  000000000000000000000000000000000A4                 
7560001300254U 020000000000000000000000000000000000000000000000000000000000000000000000000000000000000000000000000000000000000000000000003007202000000000    00000000000000000000000                              75600000000000000000000       
7560001300255T 0204609000000000793400001120055001014     159100000000000010032021000000000006500756046090TIAGO ANDRADE DE SOUZA   091000000457618256SALUTE                                  000000000000000000000000000000000A4                 
7560001300256U 020000000000000000000000000000000000000000000000000000000000000000000000000000000000000000000000000000000000000000000000003007202000000000    00000000000000000000000                              75600000000000000000000       
7560001300257T 0204609000000000793400001120056801014     164300000000000010042021000000000006500756046090TIAGO ANDRADE DE SOUZA   091000000457618256SALUTE                                  000000000000000000000000000000000A4                 
7560001300258U 020000000000000000000000000000000000000000000000000000000000000000000000000000000000000000000000000000000000000000000000003007202000000000    00000000000000000000000                              75600000000000000000000       
7560001300259T 0204609000000000793400001120057501014     171100000000000010052021000000000006500756046090TIAGO ANDRADE DE SOUZA   091000000457618256SALUTE                                  000000000000000000000000000000000A4                 
7560001300260U 020000000000000000000000000000000000000000000000000000000000000000000000000000000000000000000000000000000000000000000000003007202000000000    00000000000000000000000                              75600000000000000000000       
7560001300261T 0204609000000000793400001120058201014     176700000000000010062021000000000006500756046090TIAGO ANDRADE DE SOUZA   091000000457618256SALUTE                                  000000000000000000000000000000000A4                 
7560001300262U 020000000000000000000000000000000000000000000000000000000000000000000000000000000000000000000000000000000000000000000000003007202000000000    00000000000000000000000                              75600000000000000000000       
7560001300263T 0204609000000000793400001120059001014     186500000000000010072021000000000006500756046090TIAGO ANDRADE DE SOUZA   091000000457618256SALUTE                                  000000000000000000000000000000000A4                 
7560001300264U 020000000000000000000000000000000000000000000000000000000000000000000000000000000000000000000000000000000000000000000000003007202000000000    00000000000000000000000                              75600000000000000000000       
7560001300265T 0204609000000000793400001120062201014     125000000000000010082020000000000006500756046090JANER JADJISKI MONTEIRO  091000099968673234SALUTE                                  000000000000000000000000000000000A4                 
7560001300266U 020000000000000000000000000000000000000000000000000000000000000000000000000000000000000000000000000000000000000000000000003007202000000000    00000000000000000000000                              75600000000000000000000       
7560001300267T 0204609000000000793400001120063001014     111900000000000010092020000000000006500756046090JANER JADJISKI MONTEIRO  091000099968673234SALUTE                                  000000000000000000000000000000000A4                 
7560001300268U 020000000000000000000000000000000000000000000000000000000000000000000000000000000000000000000000000000000000000000000000003007202000000000    00000000000000000000000                              75600000000000000000000       
7560001300269T 0204609000000000793400001120064701014     116900000000000010102020000000000006500756046090JANER JADJISKI MONTEIRO  091000099968673234SALUTE                                  000000000000000000000000000000000A4                 
7560001300270U 020000000000000000000000000000000000000000000000000000000000000000000000000000000000000000000000000000000000000000000000003007202000000000    00000000000000000000000                              75600000000000000000000       
7560001300271T 0204609000000000793400001120065401014     123500000000000010112020000000000006500756046090JANER JADJISKI MONTEIRO  091000099968673234SALUTE                                  000000000000000000000000000000000A4                 
7560001300272U 020000000000000000000000000000000000000000000000000000000000000000000000000000000000000000000000000000000000000000000000003007202000000000    00000000000000000000000                              75600000000000000000000       
7560001300273T 0204609000000000793400001120066101014     135300000000000010122020000000000006500756046090JANER JADJISKI MONTEIRO  091000099968673234SALUTE                                  000000000000000000000000000000000A4                 
7560001300274U 020000000000000000000000000000000000000000000000000000000000000000000000000000000000000000000000000000000000000000000000003007202000000000    00000000000000000000000                              75600000000000000000000       
7560001300275T 0204609000000000793400001120067901014     143700000000000010012021000000000006500756046090JANER JADJISKI MONTEIRO  091000099968673234SALUTE                                  000000000000000000000000000000000A4                 
7560001300276U 020000000000000000000000000000000000000000000000000000000000000000000000000000000000000000000000000000000000000000000000003007202000000000    00000000000000000000000                              75600000000000000000000       
7560001300277T 0204609000000000793400001120068601014     149500000000000010022021000000000006500756046090JANER JADJISKI MONTEIRO  091000099968673234SALUTE                                  000000000000000000000000000000000A4                 
7560001300278U 020000000000000000000000000000000000000000000000000000000000000000000000000000000000000000000000000000000000000000000000003007202000000000    00000000000000000000000                              75600000000000000000000       
7560001300279T 0204609000000000793400001120069301014     160500000000000010032021000000000006500756046090JANER JADJISKI MONTEIRO  091000099968673234SALUTE                                  000000000000000000000000000000000A4                 
7560001300280U 020000000000000000000000000000000000000000000000000000000000000000000000000000000000000000000000000000000000000000000000003007202000000000    00000000000000000000000                              75600000000000000000000       
7560001300281T 0204609000000000793400001120070101014     165300000000000010042021000000000006500756046090JANER JADJISKI MONTEIRO  091000099968673234SALUTE                                  000000000000000000000000000000000A4                 
7560001300282U 020000000000000000000000000000000000000000000000000000000000000000000000000000000000000000000000000000000000000000000000003007202000000000    00000000000000000000000                              75600000000000000000000       
7560001300283T 0204609000000000793400001120071901014     172300000000000010052021000000000006500756046090JANER JADJISKI MONTEIRO  091000099968673234SALUTE                                  000000000000000000000000000000000A4                 
7560001300284U 020000000000000000000000000000000000000000000000000000000000000000000000000000000000000000000000000000000000000000000000003007202000000000    00000000000000000000000                              75600000000000000000000       
7560001300285T 0204609000000000793400001120072601014     183300000000000010062021000000000006500756046090JANER JADJISKI MONTEIRO  091000099968673234SALUTE                                  000000000000000000000000000000000A4                 
7560001300286U 020000000000000000000000000000000000000000000000000000000000000000000000000000000000000000000000000000000000000000000000003007202000000000    00000000000000000000000                              75600000000000000000000       
7560001300287T 0204609000000000793400001120073301014     186100000000000010072021000000000006500756046090JANER JADJISKI MONTEIRO  091000099968673234SALUTE                                  000000000000000000000000000000000A4                 
7560001300288U 020000000000000000000000000000000000000000000000000000000000000000000000000000000000000000000000000000000000000000000000003007202000000000    00000000000000000000000                              75600000000000000000000       
7560001300289T 0204609000000000793400001120075801014     117000000000000010082020000000000006500756046090LUIZ HENRIQUE DE OLIVEIRA091000011183999607SALUTE                                  000000000000000000000000000000000A4                 
7560001300290U 020000000000000000000000000000000000000000000000000000000000000000000000000000000000000000000000000000000000000000000000003007202000000000    00000000000000000000000                              75600000000000000000000       
7560001300291T 0204609000000000793400001120076501014     114100000000000010092020000000000006500756046090LUIZ HENRIQUE DE OLIVEIRA091000011183999607SALUTE                                  000000000000000000000000000000000A4                 
7560001300292U 020000000000000000000000000000000000000000000000000000000000000000000000000000000000000000000000000000000000000000000000003007202000000000    00000000000000000000000                              75600000000000000000000       
7560001300293T 0204609000000000793400001120077201014     122500000000000010102020000000000006500756046090LUIZ HENRIQUE DE OLIVEIRA091000011183999607SALUTE                                  000000000000000000000000000000000A4                 
7560001300294U 020000000000000000000000000000000000000000000000000000000000000000000000000000000000000000000000000000000000000000000000003007202000000000    00000000000000000000000                              75600000000000000000000       
7560001300295T 0204609000000000793400001120078001014     128700000000000010112020000000000006500756046090LUIZ HENRIQUE DE OLIVEIRA091000011183999607SALUTE                                  000000000000000000000000000000000A4                 
7560001300296U 020000000000000000000000000000000000000000000000000000000000000000000000000000000000000000000000000000000000000000000000003007202000000000    00000000000000000000000                              75600000000000000000000       
7560001300297T 0204609000000000793400001120079701014     135700000000000010122020000000000006500756046090LUIZ HENRIQUE DE OLIVEIRA091000011183999607SALUTE                                  000000000000000000000000000000000A4                 
7560001300298U 020000000000000000000000000000000000000000000000000000000000000000000000000000000000000000000000000000000000000000000000003007202000000000    00000000000000000000000                              75600000000000000000000       
7560001300299T 0204609000000000793400001120080501014     140500000000000010012021000000000006500756046090LUIZ HENRIQUE DE OLIVEIRA091000011183999607SALUTE                                  000000000000000000000000000000000A4                 
7560001300300U 020000000000000000000000000000000000000000000000000000000000000000000000000000000000000000000000000000000000000000000000003007202000000000    00000000000000000000000                              75600000000000000000000       
7560001300301T 0204609000000000793400001120081201014     149900000000000010022021000000000006500756046090LUIZ HENRIQUE DE OLIVEIRA091000011183999607SALUTE                                  000000000000000000000000000000000A4                 
7560001300302U 020000000000000000000000000000000000000000000000000000000000000000000000000000000000000000000000000000000000000000000000003007202000000000    00000000000000000000000                              75600000000000000000000       
7560001300303T 0204609000000000793400001120082001014     157100000000000010032021000000000006500756046090LUIZ HENRIQUE DE OLIVEIRA091000011183999607SALUTE                                  000000000000000000000000000000000A4                 
7560001300304U 020000000000000000000000000000000000000000000000000000000000000000000000000000000000000000000000000000000000000000000000003007202000000000    00000000000000000000000                              75600000000000000000000       
7560001300305T 0204609000000000793400001120083701014     166500000000000010042021000000000006500756046090LUIZ HENRIQUE DE OLIVEIRA091000011183999607SALUTE                                  000000000000000000000000000000000A4                 
7560001300306U 020000000000000000000000000000000000000000000000000000000000000000000000000000000000000000000000000000000000000000000000003007202000000000    00000000000000000000000                              75600000000000000000000       
7560001300307T 0204609000000000793400001120084401014     170100000000000010052021000000000006500756046090LUIZ HENRIQUE DE OLIVEIRA091000011183999607SALUTE                                  000000000000000000000000000000000A4                 
7560001300308U 020000000000000000000000000000000000000000000000000000000000000000000000000000000000000000000000000000000000000000000000003007202000000000    00000000000000000000000                              75600000000000000000000       
7560001300309T 0204609000000000793400001120085101014     183100000000000010062021000000000006500756046090LUIZ HENRIQUE DE OLIVEIRA091000011183999607SALUTE                                  000000000000000000000000000000000A4                 
7560001300310U 020000000000000000000000000000000000000000000000000000000000000000000000000000000000000000000000000000000000000000000000003007202000000000    00000000000000000000000                              75600000000000000000000       
7560001300311T 0204609000000000793400001120086901014     184100000000000010072021000000000006500756046090LUIZ HENRIQUE DE OLIVEIRA091000011183999607SALUTE                                  000000000000000000000000000000000A4                 
7560001300312U 020000000000000000000000000000000000000000000000000000000000000000000000000000000000000000000000000000000000000000000000003007202000000000    00000000000000000000000                              75600000000000000000000       
7560001300313T 0204609000000000793400001120088301014     155000000000000010082020000000000006500756046090MARCELO DE SOUZA FERNANDE091000052000656234SALUTE                                  000000000000000000000000000000000A4                 
7560001300314U 020000000000000000000000000000000000000000000000000000000000000000000000000000000000000000000000000000000000000000000000003007202000000000    00000000000000000000000                              75600000000000000000000       
7560001300315T 0204609000000000793400001120089001014     112500000000000010092020000000000006500756046090MARCELO DE SOUZA FERNANDE091000052000656234SALUTE                                  000000000000000000000000000000000A4                 
7560001300316U 020000000000000000000000000000000000000000000000000000000000000000000000000000000000000000000000000000000000000000000000003007202000000000    00000000000000000000000                              75600000000000000000000       
7560001300317T 0204609000000000793400001120090901014     119300000000000010102020000000000006500756046090MARCELO DE SOUZA FERNANDE091000052000656234SALUTE                                  000000000000000000000000000000000A4                 
7560001300318U 020000000000000000000000000000000000000000000000000000000000000000000000000000000000000000000000000000000000000000000000003007202000000000    00000000000000000000000                              75600000000000000000000       
7560001300319T 0204609000000000793400001120091601014     129300000000000010112020000000000006500756046090MARCELO DE SOUZA FERNANDE091000052000656234SALUTE                                  000000000000000000000000000000000A4                 
7560001300320U 020000000000000000000000000000000000000000000000000000000000000000000000000000000000000000000000000000000000000000000000003007202000000000    00000000000000000000000                              75600000000000000000000       
7560001300321T 0204609000000000793400001120092301014     136900000000000010122020000000000006500756046090MARCELO DE SOUZA FERNANDE091000052000656234SALUTE                                  000000000000000000000000000000000A4                 
7560001300322U 020000000000000000000000000000000000000000000000000000000000000000000000000000000000000000000000000000000000000000000000003007202000000000    00000000000000000000000                              75600000000000000000000       
7560001300323T 0204609000000000793400001120093001014     138700000000000010012021000000000006500756046090MARCELO DE SOUZA FERNANDE091000052000656234SALUTE                                  000000000000000000000000000000000A4                 
7560001300324U 020000000000000000000000000000000000000000000000000000000000000000000000000000000000000000000000000000000000000000000000003007202000000000    00000000000000000000000                              75600000000000000000000       
7560001300325T 0204609000000000793400001120094801014     150300000000000010022021000000000006500756046090MARCELO DE SOUZA FERNANDE091000052000656234SALUTE                                  000000000000000000000000000000000A4                 
7560001300326U 020000000000000000000000000000000000000000000000000000000000000000000000000000000000000000000000000000000000000000000000003007202000000000    00000000000000000000000                              75600000000000000000000       
7560001300327T 0204609000000000793400001120095501014     155500000000000010032021000000000006500756046090MARCELO DE SOUZA FERNANDE091000052000656234SALUTE                                  000000000000000000000000000000000A4                 
7560001300328U 020000000000000000000000000000000000000000000000000000000000000000000000000000000000000000000000000000000000000000000000003007202000000000    00000000000000000000000                              75600000000000000000000       
7560001300329T 0204609000000000793400001120096201014     163500000000000010042021000000000006500756046090MARCELO DE SOUZA FERNANDE091000052000656234SALUTE                                  000000000000000000000000000000000A4                 
7560001300330U 020000000000000000000000000000000000000000000000000000000000000000000000000000000000000000000000000000000000000000000000003007202000000000    00000000000000000000000                              75600000000000000000000       
7560001300331T 0204609000000000793400001120097001014     170700000000000010052021000000000006500756046090MARCELO DE SOUZA FERNANDE091000052000656234SALUTE                                  000000000000000000000000000000000A4                 
7560001300332U 020000000000000000000000000000000000000000000000000000000000000000000000000000000000000000000000000000000000000000000000003007202000000000    00000000000000000000000                              75600000000000000000000       
7560001300333T 0204609000000000793400001120098701014     176500000000000010062021000000000006500756046090MARCELO DE SOUZA FERNANDE091000052000656234SALUTE                                  000000000000000000000000000000000A4                 
7560001300334U 020000000000000000000000000000000000000000000000000000000000000000000000000000000000000000000000000000000000000000000000003007202000000000    00000000000000000000000                              75600000000000000000000       
7560001300335T 0204609000000000793400001120099401014     189100000000000010072021000000000006500756046090MARCELO DE SOUZA FERNANDE091000052000656234SALUTE                                  000000000000000000000000000000000A4                 
7560001300336U 020000000000000000000000000000000000000000000000000000000000000000000000000000000000000000000000000000000000000000000000003007202000000000    00000000000000000000000                              75600000000000000000000       
7560001300337T 0204609000000000793400001120101501014     173000000000000010082020000000000006500756046090JESSICA VITORIA CARDOSO N091000007251144280SALUTE                                  000000000000000000000000000000000A4                 
7560001300338U 020000000000000000000000000000000000000000000000000000000000000000000000000000000000000000000000000000000000000000000000003007202000000000    00000000000000000000000                              75600000000000000000000       
7560001300339T 0204609000000000793400001120102201014     185000000000000010092020000000000006500756046090JESSICA VITORIA CARDOSO N091000007251144280SALUTE                                  000000000000000000000000000000000A4                 
7560001300340U 020000000000000000000000000000000000000000000000000000000000000000000000000000000000000000000000000000000000000000000000003007202000000000    00000000000000000000000                              75600000000000000000000       
7560001300341T 0204609000000000793400001120103001014     119500000000000010102020000000000006500756046090JESSICA VITORIA CARDOSO N091000007251144280SALUTE                                  000000000000000000000000000000000A4                 
7560001300342U 020000000000000000000000000000000000000000000000000000000000000000000000000000000000000000000000000000000000000000000000003007202000000000    00000000000000000000000                              75600000000000000000000       
7560001300343T 0204609000000000793400001120104701014     128900000000000010112020000000000006500756046090JESSICA VITORIA CARDOSO N091000007251144280SALUTE                                  000000000000000000000000000000000A4                 
7560001300344U 020000000000000000000000000000000000000000000000000000000000000000000000000000000000000000000000000000000000000000000000003007202000000000    00000000000000000000000                              75600000000000000000000       
7560001300345T 0204609000000000793400001120105401014     136700000000000010122020000000000006500756046090JESSICA VITORIA CARDOSO N091000007251144280SALUTE                                  000000000000000000000000000000000A4                 
7560001300346U 020000000000000000000000000000000000000000000000000000000000000000000000000000000000000000000000000000000000000000000000003007202000000000    00000000000000000000000                              75600000000000000000000       
7560001300347T 0204609000000000793400001120106101014     139700000000000010012021000000000006500756046090JESSICA VITORIA CARDOSO N091000007251144280SALUTE                                  000000000000000000000000000000000A4                 
7560001300348U 020000000000000000000000000000000000000000000000000000000000000000000000000000000000000000000000000000000000000000000000003007202000000000    00000000000000000000000                              75600000000000000000000       
7560001300349T 0204609000000000793400001120107901014     150500000000000010022021000000000006500756046090JESSICA VITORIA CARDOSO N091000007251144280SALUTE                                  000000000000000000000000000000000A4                 
7560001300350U 020000000000000000000000000000000000000000000000000000000000000000000000000000000000000000000000000000000000000000000000003007202000000000    00000000000000000000000                              75600000000000000000000       
7560001300351T 0204609000000000793400001120108601014     157300000000000010032021000000000006500756046090JESSICA VITORIA CARDOSO N091000007251144280SALUTE                                  000000000000000000000000000000000A4                 
7560001300352U 020000000000000000000000000000000000000000000000000000000000000000000000000000000000000000000000000000000000000000000000003007202000000000    00000000000000000000000                              75600000000000000000000       
7560001300353T 0204609000000000793400001120109301014     161900000000000010042021000000000006500756046090JESSICA VITORIA CARDOSO N091000007251144280SALUTE                                  000000000000000000000000000000000A4                 
7560001300354U 020000000000000000000000000000000000000000000000000000000000000000000000000000000000000000000000000000000000000000000000003007202000000000    00000000000000000000000                              75600000000000000000000       
7560001300355T 0204609000000000793400001120110101014     171300000000000010052021000000000006500756046090JESSICA VITORIA CARDOSO N091000007251144280SALUTE                                  000000000000000000000000000000000A4                 
7560001300356U 020000000000000000000000000000000000000000000000000000000000000000000000000000000000000000000000000000000000000000000000003007202000000000    00000000000000000000000                              75600000000000000000000       
7560001300357T 0204609000000000793400001120111901014     177500000000000010062021000000000006500756046090JESSICA VITORIA CARDOSO N091000007251144280SALUTE                                  000000000000000000000000000000000A4                 
7560001300358U 020000000000000000000000000000000000000000000000000000000000000000000000000000000000000000000000000000000000000000000000003007202000000000    00000000000000000000000                              75600000000000000000000       
7560001300359T 0204609000000000793400001120112601014     187500000000000010072021000000000006500756046090JESSICA VITORIA CARDOSO N091000007251144280SALUTE                                  000000000000000000000000000000000A4                 
7560001300360U 020000000000000000000000000000000000000000000000000000000000000000000000000000000000000000000000000000000000000000000000003007202000000000    00000000000000000000000                              75600000000000000000000       
7560001300361T 0204609000000000793400001120114001014     133000000000000010082020000000000006500756046090ELOIZA CRISTINA NASCIMENT091000068946198249SALUTE                                  000000000000000000000000000000000A4                 
7560001300362U 020000000000000000000000000000000000000000000000000000000000000000000000000000000000000000000000000000000000000000000000003007202000000000    00000000000000000000000                              75600000000000000000000       
7560001300363T 0204609000000000793400001120115801014     113300000000000010092020000000000006500756046090ELOIZA CRISTINA NASCIMENT091000068946198249SALUTE                                  000000000000000000000000000000000A4                 
7560001300364U 020000000000000000000000000000000000000000000000000000000000000000000000000000000000000000000000000000000000000000000000003007202000000000    00000000000000000000000                              75600000000000000000000       
7560001300365T 0204609000000000793400001120116501014     116700000000000010102020000000000006500756046090ELOIZA CRISTINA NASCIMENT091000068946198249SALUTE                                  000000000000000000000000000000000A4                 
7560001300366U 020000000000000000000000000000000000000000000000000000000000000000000000000000000000000000000000000000000000000000000000003007202000000000    00000000000000000000000                              75600000000000000000000       
7560001300367T 0204609000000000793400001120117201014     127700000000000010112020000000000006500756046090ELOIZA CRISTINA NASCIMENT091000068946198249SALUTE                                  000000000000000000000000000000000A4                 
7560001300368U 020000000000000000000000000000000000000000000000000000000000000000000000000000000000000000000000000000000000000000000000003007202000000000    00000000000000000000000                              75600000000000000000000       
7560001300369T 0204609000000000793400001120118001014     131900000000000010122020000000000006500756046090ELOIZA CRISTINA NASCIMENT091000068946198249SALUTE                                  000000000000000000000000000000000A4                 
7560001300370U 020000000000000000000000000000000000000000000000000000000000000000000000000000000000000000000000000000000000000000000000003007202000000000    00000000000000000000000                              75600000000000000000000       
7560001300371T 0204609000000000793400001120119701014     144300000000000010012021000000000006500756046090ELOIZA CRISTINA NASCIMENT091000068946198249SALUTE                                  000000000000000000000000000000000A4                 
7560001300372U 020000000000000000000000000000000000000000000000000000000000000000000000000000000000000000000000000000000000000000000000003007202000000000    00000000000000000000000                              75600000000000000000000       
7560001300373T 0204609000000000793400001120120501014     151100000000000010022021000000000006500756046090ELOIZA CRISTINA NASCIMENT091000068946198249SALUTE                                  000000000000000000000000000000000A4                 
7560001300374U 020000000000000000000000000000000000000000000000000000000000000000000000000000000000000000000000000000000000000000000000003007202000000000    00000000000000000000000                              75600000000000000000000       
7560001300375T 0204609000000000793400001120121201014     154300000000000010032021000000000006500756046090ELOIZA CRISTINA NASCIMENT091000068946198249SALUTE                                  000000000000000000000000000000000A4                 
7560001300376U 020000000000000000000000000000000000000000000000000000000000000000000000000000000000000000000000000000000000000000000000003007202000000000    00000000000000000000000                              75600000000000000000000       
7560001300377T 0204609000000000793400001120122001014     166100000000000010042021000000000006500756046090ELOIZA CRISTINA NASCIMENT091000068946198249SALUTE                                  000000000000000000000000000000000A4                 
7560001300378U 020000000000000000000000000000000000000000000000000000000000000000000000000000000000000000000000000000000000000000000000003007202000000000    00000000000000000000000                              75600000000000000000000       
7560001300379T 0204609000000000793400001120123701014     173100000000000010052021000000000006500756046090ELOIZA CRISTINA NASCIMENT091000068946198249SALUTE                                  000000000000000000000000000000000A4                 
7560001300380U 020000000000000000000000000000000000000000000000000000000000000000000000000000000000000000000000000000000000000000000000003007202000000000    00000000000000000000000                              75600000000000000000000       
7560001300381T 0204609000000000793400001120124401014     178900000000000010062021000000000006500756046090ELOIZA CRISTINA NASCIMENT091000068946198249SALUTE                                  000000000000000000000000000000000A4                 
7560001300382U 020000000000000000000000000000000000000000000000000000000000000000000000000000000000000000000000000000000000000000000000003007202000000000    00000000000000000000000                              75600000000000000000000       
7560001300383T 0204609000000000793400001120125101014     185700000000000010072021000000000006500756046090ELOIZA CRISTINA NASCIMENT091000068946198249SALUTE                                  000000000000000000000000000000000A4                 
7560001300384U 020000000000000000000000000000000000000000000000000000000000000000000000000000000000000000000000000000000000000000000000003007202000000000    00000000000000000000000                              75600000000000000000000       
7560001300385T 0204609000000000793400001120127601014     165000000000000010082020000000000006500756046090ALDERUTH DA SILVA CARVALH091000093847009249SALUTE                                  000000000000000000000000000000000A4                 
7560001300386U 020000000000000000000000000000000000000000000000000000000000000000000000000000000000000000000000000000000000000000000000003007202000000000    00000000000000000000000                              75600000000000000000000       
7560001300387T 0204609000000000793400001120128301014     113100000000000010092020000000000006500756046090ALDERUTH DA SILVA CARVALH091000093847009249SALUTE                                  000000000000000000000000000000000A4                 
7560001300388U 020000000000000000000000000000000000000000000000000000000000000000000000000000000000000000000000000000000000000000000000003007202000000000    00000000000000000000000                              75600000000000000000000       
7560001300389T 0204609000000000793400001120129001014     115700000000000010102020000000000006500756046090ALDERUTH DA SILVA CARVALH091000093847009249SALUTE                                  000000000000000000000000000000000A4                 
7560001300390U 020000000000000000000000000000000000000000000000000000000000000000000000000000000000000000000000000000000000000000000000003007202000000000    00000000000000000000000                              75600000000000000000000       
7560001300391T 0204609000000000793400001120130901014     127300000000000010112020000000000006500756046090ALDERUTH DA SILVA CARVALH091000093847009249SALUTE                                  000000000000000000000000000000000A4                 
7560001300392U 020000000000000000000000000000000000000000000000000000000000000000000000000000000000000000000000000000000000000000000000003007202000000000    00000000000000000000000                              75600000000000000000000       
7560001300393T 0204609000000000793400001120131601014     137100000000000010122020000000000006500756046090ALDERUTH DA SILVA CARVALH091000093847009249SALUTE                                  000000000000000000000000000000000A4                 
7560001300394U 020000000000000000000000000000000000000000000000000000000000000000000000000000000000000000000000000000000000000000000000003007202000000000    00000000000000000000000                              75600000000000000000000       
7560001300395T 0204609000000000793400001120132301014     141500000000000010012021000000000006500756046090ALDERUTH DA SILVA CARVALH091000093847009249SALUTE                                  000000000000000000000000000000000A4                 
7560001300396U 020000000000000000000000000000000000000000000000000000000000000000000000000000000000000000000000000000000000000000000000003007202000000000    00000000000000000000000                              75600000000000000000000       
7560001300397T 0204609000000000793400001120133001014     151300000000000010022021000000000006500756046090ALDERUTH DA SILVA CARVALH091000093847009249SALUTE                                  000000000000000000000000000000000A4                 
7560001300398U 020000000000000000000000000000000000000000000000000000000000000000000000000000000000000000000000000000000000000000000000003007202000000000    00000000000000000000000                              75600000000000000000000       
7560001300399T 0204609000000000793400001120134801014     154700000000000010032021000000000006500756046090ALDERUTH DA SILVA CARVALH091000093847009249SALUTE                                  000000000000000000000000000000000A4                 
7560001300400U 020000000000000000000000000000000000000000000000000000000000000000000000000000000000000000000000000000000000000000000000003007202000000000    00000000000000000000000                              75600000000000000000000       
7560001300401T 0204609000000000793400001120135501014     166300000000000010042021000000000006500756046090ALDERUTH DA SILVA CARVALH091000093847009249SALUTE                                  000000000000000000000000000000000A4                 
7560001300402U 020000000000000000000000000000000000000000000000000000000000000000000000000000000000000000000000000000000000000000000000003007202000000000    00000000000000000000000                              75600000000000000000000       
7560001300403T 0204609000000000793400001120136201014     174100000000000010052021000000000006500756046090ALDERUTH DA SILVA CARVALH091000093847009249SALUTE                                  000000000000000000000000000000000A4                 
7560001300404U 020000000000000000000000000000000000000000000000000000000000000000000000000000000000000000000000000000000000000000000000003007202000000000    00000000000000000000000                              75600000000000000000000       
7560001300405T 0204609000000000793400001120137001014     179300000000000010062021000000000006500756046090ALDERUTH DA SILVA CARVALH091000093847009249SALUTE                                  000000000000000000000000000000000A4                 
7560001300406U 020000000000000000000000000000000000000000000000000000000000000000000000000000000000000000000000000000000000000000000000003007202000000000    00000000000000000000000                              75600000000000000000000       
7560001300407T 0204609000000000793400001120138701014     185300000000000010072021000000000006500756046090ALDERUTH DA SILVA CARVALH091000093847009249SALUTE                                  000000000000000000000000000000000A4                 
7560001300408U 020000000000000000000000000000000000000000000000000000000000000000000000000000000000000000000000000000000000000000000000003007202000000000    00000000000000000000000                              75600000000000000000000       
7560001300409T 0204609000000000793400001120140201014     139000000000000010082020000000000006500756046090EVILAZIO NUNES DA SILVA  091000030550807268SALUTE                                  000000000000000000000000000000000A4                 
7560001300410U 020000000000000000000000000000000000000000000000000000000000000000000000000000000000000000000000000000000000000000000000003007202000000000    00000000000000000000000                              75600000000000000000000       
7560001300411T 0204609000000000793400001120141001014     113500000000000010092020000000000006500756046090EVILAZIO NUNES DA SILVA  091000030550807268SALUTE                                  000000000000000000000000000000000A4                 
