75600000         235812309000160                    04609000000000793400SALUTE ATIVIDADES DE INTERMEDISICOOB                                  21211202009110100008908500000                                                                     
75600011T01  043 2035812309000160          460900000804609000000000793400SALUTE ATIVIDADES DE INTERMEDI                                                                                000000001211202000000000                                 
7560001300001T 0904609000000000793400000000003801014     161000000000000010112020000000000006500756046090CLEMILTO DE JESUS ARAUJO 091000051760355291CLEMILTO DE JESUS ARAUJO                00000000000000000000000100000000013                 
7560001300002U 090000000000000000000000000000000000000000000000000000000000000000000000000000000000000000000000000000000000000000000000001111202000000000    00000000000000000000000                        21805275600000000000000000000       
7560001300003T 0904609000000000793400000000007701014     157000000000000010112020000000000006500756046090IVERLANDIA DA SILVA CHAVE091000039857182291IVERLANDIA DA SILVA CHAVES              00000000000000000000000100000000013                 
7560001300004U 090000000000000000000000000000000000000000000000000000000000000000000000000000000000000000000000000000000000000000000000001111202000000000    00000000000000000000000                        21805475600000000000000000000       
7560001300005T 0904609000000000793400000000015601014     151000000000000010112020000000000006500756046090NILTON CAETANO DE SOUZA  091000067691420234NILTON CAETANO DE SOUZA                 00000000000000000000000100000000013                 
7560001300006U 090000000000000000000000000000000000000000000000000000000000000000000000000000000000000000000000000000000000000000000000001111202000000000    00000000000000000000000                        21805675600000000000000000000       
7560001300007T 0904609000000000793400000000017001014     169000000000000010112020000000000006500756046090ROSENIR RIBEIRO ALMEIDA  091000016830857287ROSENIR RIBEIRO ALMEIDA                 00000000000000000000000100000000013                 
7560001300008U 090000000000000000000000000000000000000000000000000000000000000000000000000000000000000000000000000000000000000000000000001111202000000000    00000000000000000000000                        21805875600000000000000000000       
7560001300009T 0904609000000000793400000000021001014     177000000000000010112020000000000006500756046090CELIMAR DA ROCHA SOUZA   091000095574930200CELIMAR DA ROCHA SOUZA                  00000000000000000000000100000000013                 
7560001300010U 090000000000000000000000000000000000000000000000000000000000000000000000000000000000000000000000000000000000000000000000001111202000000000    00000000000000000000000                        21806075600000000000000000000       
7560001300011T 0904609000000000793400000000025001014     171000000000000010112020000000000006500756046090GABRIELA DIAS SARAIVA POM091000001714609286GABRIELA DIAS SARAIVA POMPEU            00000000000000000000000100000000013                 
7560001300012U 090000000000000000000000000000000000000000000000000000000000000000000000000000000000000000000000000000000000000000000000001111202000000000    00000000000000000000000                        21806175600000000000000000000       
7560001300013T 0904609000000000793400000000029901014     147000000000000010112020000000000006500756046090JOSIANE FREITAS VIDAL    091000005032602230JOSIANE FREITAS VIDAL                   00000000000000000000000100000000013                 
7560001300014U 090000000000000000000000000000000000000000000000000000000000000000000000000000000000000000000000000000000000000000000000001111202000000000    00000000000000000000000                        21806275600000000000000000000       
7560001300015T 0904609000000000793400000000031401014     167000000000000010112020000000000006500756046090LEOCY ALVES PIMENTEL     091000057310769287LEOCY ALVES PIMENTEL                    00000000000000000000000100000000013                 
7560001300016U 090000000000000000000000000000000000000000000000000000000000000000000000000000000000000000000000000000000000000000000000001111202000000000    00000000000000000000000                        21806375600000000000000000000       
7560001300017T 0904609000000000793400000000059001014     181000000000000010112020000000000006500756046090UELLITON FERREIRA DE GODO091000060803797249UELLITON FERREIRA DE GODOY              00000000000000000000000100000000013                 
7560001300018U 090000000000000000000000000000000000000000000000000000000000000000000000000000000000000000000000000000000000000000000000001111202000000000    00000000000000000000000                        21806475600000000000000000000       
7560001300019T 0904609000000000793400000000168801014     175000000000000010112020000000000006500756046090JOSE ROBERTO MORAES PIRES091000063739801204JOSE ROBERTO MORAES PIRES               00000000000000000000000100000000013                 
7560001300020U 090000000000000000000000000000000000000000000000000000000000000000000000000000000000000000000000000000000000000000000000001111202000000000    00000000000000000000000                        21806575600000000000000000000       
7560001300021T 0904609000000000793400000000190001014     179000000000000010112020000000000006500756046090KATIA ELOIZE ARAUJO LIMA 091000001187497223KATIA ELOIZE ARAUJO LIMA                00000000000000000000000100000000013                 
7560001300022U 090000000000000000000000000000000000000000000000000000000000000000000000000000000000000000000000000000000000000000000000001111202000000000    00000000000000000000000                        21806675600000000000000000000       
7560001300023T 0904609000000000793400000000204901014     165000000000000010112020000000000006500756046090CLEUMA GOMES RODRIGUES   091000014611589234CLEUMA GOMES RODRIGUES                  00000000000000000000000100000000013                 
7560001300024U 090000000000000000000000000000000000000000000000000000000000000000000000000000000000000000000000000000000000000000000000001111202000000000    00000000000000000000000                        21806775600000000000000000000       
7560001300025T 0904609000000000793400000000218101014     155000000000000010112020000000000006500756046090THIAGO OLIVEIRA DA SILVA 091000067070256272THIAGO OLIVEIRA DA SILVA                00000000000000000000000100000000013                 
7560001300026U 090000000000000000000000000000000000000000000000000000000000000000000000000000000000000000000000000000000000000000000000001111202000000000    00000000000000000000000                        21806875600000000000000000000       
7560001300027T 0904609000000000793400000000222101014     159000000000000010112020000000000006500756046090CINTHIA RILLERI ALVES OLI091000006089988260CINTHIA RILLERI ALVES OLIVEIRA          00000000000000000000000100000000013                 
7560001300028U 090000000000000000000000000000000000000000000000000000000000000000000000000000000000000000000000000000000000000000000000001111202000000000    00000000000000000000000                        21806975600000000000000000000       
7560001300029T 0904609000000000793400000000226001014     149000000000000010112020000000000006500756046090GRACIETE DE JESUS MENEZES091000038014645200GRACIETE DE JESUS MENEZES               00000000000000000000000100000000013                 
7560001300030U 090000000000000000000000000000000000000000000000000000000000000000000000000000000000000000000000000000000000000000000000001111202000000000    00000000000000000000000                        21807075600000000000000000000       
7560001300031T 0904609000000000793400000000234001014     173000000000000010112020000000000006500756046090MARYELLE DA SILVA BARROS 091000070059467231MARYELLE DA SILVA BARROS                00000000000000000000000100000000013                 
7560001300032U 090000000000000000000000000000000000000000000000000000000000000000000000000000000000000000000000000000000000000000000000001111202000000000    00000000000000000000000                        21807175600000000000000000000       
7560001300033T 0904609000000000793400000000236401014     163000000000000010112020000000000006500756046090PRISCILA PABULA NUNES CHA091000089555058253PRISCILA PABULA NUNES CHAVES            00000000000000000000000100000000013                 
7560001300034U 090000000000000000000000000000000000000000000000000000000000000000000000000000000000000000000000000000000000000000000000001111202000000000    00000000000000000000000                        21807275600000000000000000000       
7560001300035T 0904609000000000793400000000240401014     153000000000000010112020000000000006500756046090WILLIAM ANDRADE COSTA    091000008758700153WILLIAM ANDRADE COSTA                   00000000000000000000000100000000013                 
7560001300036U 090000000000000000000000000000000000000000000000000000000000000000000000000000000000000000000000000000000000000000000000001111202000000000    00000000000000000000000                        21807375600000000000000000000       
7560001300037T 0904609000000000793400001116642301014     124650000000000010112020000000000006500756046090LUIZ GOMES NETO          091000009025936253SALUTE                                  00000000000000000000000100000000013                 
7560001300038U 090000000000000000000000000000000000000000000000000000000000000000000000000000000000000000000000000000000000000000000000001111202000000000    00000000000000000000000                        21807475600000000000000000000       
7560001300039T 0904609000000000793400001117032801014     122850000000000010112020000000000006500756046090DAVID REIS SANTOS        091000085692301253SALUTE                                  00000000000000000000000100000000013                 
7560001300040U 090000000000000000000000000000000000000000000000000000000000000000000000000000000000000000000000000000000000000000000000001111202000000000    00000000000000000000000                        21807575600000000000000000000       
7560001300041T 0904609000000000793400001117162001014     122290000000000010112020000000000006500756046090ANTONIO LUIZ BARBOSA SOAR091000027741397249SALUTE                                  00000000000000000000000100000000013                 
7560001300042U 090000000000000000000000000000000000000000000000000000000000000000000000000000000000000000000000000000000000000000000000001111202000000000    00000000000000000000000                        21807675600000000000000000000       
7560001300043T 0904609000000000793400001117253601014     124750000000000010112020000000000006500756046090PEDRO DO NASCIMENTO MELO 091000025896784287SALUTE                                  00000000000000000000000100000000013                 
7560001300044U 090000000000000000000000000000000000000000000000000000000000000000000000000000000000000000000000000000000000000000000000001111202000000000    00000000000000000000000                        21807775600000000000000000000       
7560001300045T 0904609000000000793400001117280501014     125490000000000010112020000000000006500756046090FRANCISCA ARLENE DA SILVA091000073545341291SALUTE                                  00000000000000000000000100000000013                 
7560001300046U 090000000000000000000000000000000000000000000000000000000000000000000000000000000000000000000000000000000000000000000000001111202000000000    00000000000000000000000                        21807875600000000000000000000       
7560001300047T 0904609000000000793400001117305401014     124290000000000010112020000000000007000756046090KEDIMA  VELOZO DE CASTRO 091000070762732253SALUTE                                  00000000000000000000000100000000013                 
7560001300048U 090000000000000000000000000000000000000000000000000000000000000000000000000000000000000000000000000000000000000000000000001111202000000000    00000000000000000000000                        21807975600000000000000000000       
7560001300049T 0904609000000000793400001117318001014     122870000000000010112020000000000006500756046090LAIOMAR DOS SANTOS PEREIR091000005062024374SALUTE                                  00000000000000000000000100000000013                 
7560001300050U 090000000000000000000000000000000000000000000000000000000000000000000000000000000000000000000000000000000000000000000000001111202000000000    00000000000000000000000                        21808075600000000000000000000       
7560001300051T 0904609000000000793400001117331601014     122230000000000010112020000000000006500756046090WALLDIROSHY PEDRA GURGEL 091000048084204220SALUTE                                  00000000000000000000000100000000013                 
7560001300052U 090000000000000000000000000000000000000000000000000000000000000000000000000000000000000000000000000000000000000000000000001111202000000000    00000000000000000000000                        21808175600000000000000000000       
7560001300053T 0904609000000000793400001117344101014     124710000000000010112020000000000006500756046090UESLEIA DAMACENO DE CASTR091000068835132134SALUTE                                  00000000000000000000000100000000013                 
7560001300054U 090000000000000000000000000000000000000000000000000000000000000000000000000000000000000000000000000000000000000000000000001111202000000000    00000000000000000000000                        21808275600000000000000000000       
7560001300055T 0904609000000000793400001117357701014     122730000000000010112020000000000006500756046090EDSON PEREIRA DA SILVA   091000062133527591SALUTE                                  00000000000000000000000100000000013                 
7560001300056U 090000000000000000000000000000000000000000000000000000000000000000000000000000000000000000000000000000000000000000000000001111202000000000    00000000000000000000000                        21808375600000000000000000000       
7560001300057T 0904609000000000793400001117526201014     124310000000000010112020000000000006500756046090TEREZA GUEDES DA SILVA PA091000042790441200SALUTE                                  00000000000000000000000100000000013                 
7560001300058U 090000000000000000000000000000000000000000000000000000000000000000000000000000000000000000000000000000000000000000000000001111202000000000    00000000000000000000000                        21808475600000000000000000000       
7560001300059T 0904609000000000793400001117538001014     122150000000000010112020000000000006500756046090CLAUDINEY DE SOUZA       091000053546547934SALUTE                                  00000000000000000000000100000000013                 
7560001300060U 090000000000000000000000000000000000000000000000000000000000000000000000000000000000000000000000000000000000000000000000001111202000000000    00000000000000000000000                        21808575600000000000000000000       
7560001300061T 0904609000000000793400001117552401014     125390000000000010112020000000000007250756046090NILTON CESAR SANTOS FREIT091000034445870315SALUTE                                  00000000000000000000000100000000013                 
7560001300062U 090000000000000000000000000000000000000000000000000000000000000000000000000000000000000000000000000000000000000000000000001111202000000000    00000000000000000000000                        21808675600000000000000000000       
7560001300063T 0904609000000000793400001117565001014     125430000000000010112020000000000006500756046090DEILTON JOSE TAVARES     091000060852992220SALUTE                                  00000000000000000000000100000000013                 
7560001300064U 090000000000000000000000000000000000000000000000000000000000000000000000000000000000000000000000000000000000000000000000001111202000000000    00000000000000000000000                        21808775600000000000000000000       
7560001300065T 0904609000000000793400001117577801014     124510000000000010112020000000000006500756046090ACRANILMA SANTANA A. DE O091000047842784272SALUTE                                  00000000000000000000000100000000013                 
7560001300066U 090000000000000000000000000000000000000000000000000000000000000000000000000000000000000000000000000000000000000000000000001111202000000000    00000000000000000000000                        21808875600000000000000000000       
7560001300067T 0904609000000000793400001117589601014     122250000000000010112020000000000006500756046090PEDRO NETO JORGE DA SILVA091000002277725200SALUTE                                  00000000000000000000000100000000013                 
7560001300068U 090000000000000000000000000000000000000000000000000000000000000000000000000000000000000000000000000000000000000000000000001111202000000000    00000000000000000000000                        21808975600000000000000000000       
7560001300069T 0904609000000000793400001117630401014     124330000000000010112020000000000006500756046090MARIA DO AMPARO DE OLIVEI091000037422642220SALUTE                                  00000000000000000000000100000000013                 
7560001300070U 090000000000000000000000000000000000000000000000000000000000000000000000000000000000000000000000000000000000000000000000001111202000000000    00000000000000000000000                        21809075600000000000000000000       
7560001300071T 0904609000000000793400001117643001014     124250000000000010112020000000000006750756046090MARCELO ROGERIO NERIS    091000027892077200SALUTE                                  00000000000000000000000100000000013                 
7560001300072U 090000000000000000000000000000000000000000000000000000000000000000000000000000000000000000000000000000000000000000000000001111202000000000    00000000000000000000000                        21809175600000000000000000000       
7560001300073T 0904609000000000793400001117656501014     122370000000000010112020000000000006750756046090ANGELO JARDIM DA COSTA   091000038005921268SALUTE                                  00000000000000000000000100000000013                 
7560001300074U 090000000000000000000000000000000000000000000000000000000000000000000000000000000000000000000000000000000000000000000000001111202000000000    00000000000000000000000                        21809275600000000000000000000       
7560001300075T 0904609000000000793400001117669001014     123590000000000010112020000000000006750756046090MARIA AGDA DA SILVA SOUSA091000096899417200SALUTE                                  00000000000000000000000100000000013                 
7560001300076U 090000000000000000000000000000000000000000000000000000000000000000000000000000000000000000000000000000000000000000000000001111202000000000    00000000000000000000000                        21809375600000000000000000000       
7560001300077T 0904609000000000793400001117682701014     123870000000000010112020000000000006500756046090MARIA DA CONCEICAO GARCIA091000060835099393SALUTE                                  00000000000000000000000100000000013                 
7560001300078U 090000000000000000000000000000000000000000000000000000000000000000000000000000000000000000000000000000000000000000000000001111202000000000    00000000000000000000000                        21809475600000000000000000000       
7560001300079T 0904609000000000793400001117695201014     124790000000000010112020000000000006500756046090DEURIAN LIMA DOS SANTOS  091000096629622200SALUTE                                  00000000000000000000000100000000013                 
7560001300080U 090000000000000000000000000000000000000000000000000000000000000000000000000000000000000000000000000000000000000000000000001111202000000000    00000000000000000000000                        21809575600000000000000000000       
7560001300081T 0904609000000000793400001117708301014     123850000000000010112020000000000006500756046090PAULINO GOMES SANTANA    091000075500078291SALUTE                                  00000000000000000000000100000000013                 
7560001300082U 090000000000000000000000000000000000000000000000000000000000000000000000000000000000000000000000000000000000000000000000001111202000000000    00000000000000000000000                        21809675600000000000000000000       
7560001300083T 0904609000000000793400001117721001014     123410000000000010112020000000000006500756046090PAULO ROBSON DA SILVA    091000096465735253SALUTE                                  00000000000000000000000100000000013                 
7560001300084U 090000000000000000000000000000000000000000000000000000000000000000000000000000000000000000000000000000000000000000000000001111202000000000    00000000000000000000000                        21809775600000000000000000000       
7560001300085T 0904609000000000793400001117734501014     123090000000000010112020000000000006500756046090VIVIA SOARES SILVA       091000071681787253SALUTE                                  00000000000000000000000100000000013                 
7560001300086U 090000000000000000000000000000000000000000000000000000000000000000000000000000000000000000000000000000000000000000000000001111202000000000    00000000000000000000000                        21809875600000000000000000000       
7560001300087T 0904609000000000793400001117747001014     124590000000000010112020000000000006500756046090MARIA DE LOURDES DIAS ALM091000036278998220SALUTE                                  00000000000000000000000100000000013                 
7560001300088U 090000000000000000000000000000000000000000000000000000000000000000000000000000000000000000000000000000000000000000000000001111202000000000    00000000000000000000000                        21809975600000000000000000000       
7560001300089T 0904609000000000793400001117760701014     123490000000000010112020000000000006500756046090KEILA RODRIGUES DA SILVA 091000084302062215SALUTE                                  00000000000000000000000100000000013                 
7560001300090U 090000000000000000000000000000000000000000000000000000000000000000000000000000000000000000000000000000000000000000000000001111202000000000    00000000000000000000000                        21810075600000000000000000000       
7560001300091T 0904609000000000793400001117773201014     123750000000000010112020000000000006500756046090JULIANA FERREIRA GONZAGA 091000007044395651SALUTE                                  00000000000000000000000100000000013                 
7560001300092U 090000000000000000000000000000000000000000000000000000000000000000000000000000000000000000000000000000000000000000000000001111202000000000    00000000000000000000000                        21810175600000000000000000000       
7560001300093T 0904609000000000793400001117786801014     123450000000000010112020000000000006500756046090IRACEMA DE SOUSA SANTANA 091000075500019287SALUTE                                  00000000000000000000000100000000013                 
7560001300094U 090000000000000000000000000000000000000000000000000000000000000000000000000000000000000000000000000000000000000000000000001111202000000000    00000000000000000000000                        21810275600000000000000000000       
7560001300095T 0904609000000000793400001117799301014     124670000000000010112020000000000006500756046090ANTONIO PACHECO DA SILVA 091000087148013291SALUTE                                  00000000000000000000000100000000013                 
7560001300096U 090000000000000000000000000000000000000000000000000000000000000000000000000000000000000000000000000000000000000000000000001111202000000000    00000000000000000000000                        21810375600000000000000000000       
7560001300097T 0904609000000000793400001117812501014     122550000000000010112020000000000006500756046090IRIS MARDEM MOREIRA      091000054889030115SALUTE                                  00000000000000000000000100000000013                 
7560001300098U 090000000000000000000000000000000000000000000000000000000000000000000000000000000000000000000000000000000000000000000000001111202000000000    00000000000000000000000                        21810475600000000000000000000       
7560001300099T 0904609000000000793400001117838601014     124530000000000010112020000000000006500756046090ADAO DE SOUZA MARINHO    091000042712670159SALUTE                                  00000000000000000000000100000000013                 
7560001300100U 090000000000000000000000000000000000000000000000000000000000000000000000000000000000000000000000000000000000000000000000001111202000000000    00000000000000000000000                        21810575600000000000000000000       
7560001300101T 0904609000000000793400001117851201014     122410000000000010112020000000000006500756046090MAURANEI DIAS MARINHO DE 091000029536677253SALUTE                                  00000000000000000000000100000000013                 
7560001300102U 090000000000000000000000000000000000000000000000000000000000000000000000000000000000000000000000000000000000000000000000001111202000000000    00000000000000000000000                        21810675600000000000000000000       
7560001300103T 0904609000000000793400001117864801014     124990000000000010112020000000000006500756046090MARIA EDUARDA CHAVES PERE091000003759044255SALUTE                                  00000000000000000000000100000000013                 
7560001300104U 090000000000000000000000000000000000000000000000000000000000000000000000000000000000000000000000000000000000000000000000001111202000000000    00000000000000000000000                        21810775600000000000000000000       
7560001300105T 0904609000000000793400001117877301014     124830000000000010112020000000000006500756046090AURINDA NONATO SILVA SOUZ091000086469916287SALUTE                                  00000000000000000000000100000000013                 
7560001300106U 090000000000000000000000000000000000000000000000000000000000000000000000000000000000000000000000000000000000000000000000001111202000000000    00000000000000000000000                        21810875600000000000000000000       
7560001300107T 0904609000000000793400001117890001014     125450000000000010112020000000000006500756046090JUVENILDA DE SOUZA SILVA 091000057074410268SALUTE                                  00000000000000000000000100000000013                 
7560001300108U 090000000000000000000000000000000000000000000000000000000000000000000000000000000000000000000000000000000000000000000000001111202000000000    00000000000000000000000                        21810975600000000000000000000       
7560001300109T 0904609000000000793400001117916601014     124550000000000010112020000000000006500756046090ROSALINA PEREIRA DA SILVA091000079208428249SALUTE                                  00000000000000000000000100000000013                 
7560001300110U 090000000000000000000000000000000000000000000000000000000000000000000000000000000000000000000000000000000000000000000000001111202000000000    00000000000000000000000                        21811075600000000000000000000       
7560001300111T 0904609000000000793400001117929101014     123250000000000010112020000000000006500756046090LILIAN DE FARIA LOPES DE 091000037038648268SALUTE                                  00000000000000000000000100000000013                 
7560001300112U 090000000000000000000000000000000000000000000000000000000000000000000000000000000000000000000000000000000000000000000000001111202000000000    00000000000000000000000                        21811175600000000000000000000       
7560001300113T 0904609000000000793400001117942801014     123270000000000010112020000000000006500756046090JOSE PEREIRA  NETO       091000031088570100SALUTE                                  00000000000000000000000100000000013                 
7560001300114U 090000000000000000000000000000000000000000000000000000000000000000000000000000000000000000000000000000000000000000000000001111202000000000    00000000000000000000000                        21811275600000000000000000000       
7560001300115T 0904609000000000793400001117955301014     122190000000000010112020000000000006500756046090JOSE ADENOR DE JESUS ANDR091000068167709787SALUTE                                  00000000000000000000000100000000013                 
7560001300116U 090000000000000000000000000000000000000000000000000000000000000000000000000000000000000000000000000000000000000000000000001111202000000000    00000000000000000000000                        21811375600000000000000000000       
7560001300117T 0904609000000000793400001117968901014     122570000000000010112020000000000006500756046090EUZELI OLIVERA SILVA     091000077198930263SALUTE                                  00000000000000000000000100000000013                 
7560001300118U 090000000000000000000000000000000000000000000000000000000000000000000000000000000000000000000000000000000000000000000000001111202000000000    00000000000000000000000                        21811475600000000000000000000       
7560001300119T 0904609000000000793400001117981501014     125030000000000010112020000000000006750756046090HENRIQUE CESAR AMEND     091000022524848884SALUTE                                  00000000000000000000000100000000013                 
7560001300120U 090000000000000000000000000000000000000000000000000000000000000000000000000000000000000000000000000000000000000000000000001111202000000000    00000000000000000000000                        21811575600000000000000000000       
7560001300121T 0904609000000000793400001117994001014     124090000000000010112020000000000007000756046090MARIA DA CONCEICAO ROSA  091000032903219249SALUTE                                  00000000000000000000000100000000013                 
7560001300122U 090000000000000000000000000000000000000000000000000000000000000000000000000000000000000000000000000000000000000000000000001111202000000000    00000000000000000000000                        21811675600000000000000000000       
7560001300123T 0904609000000000793400001118007201014     122990000000000010112020000000000006500756046090EDVALTER MANTOVANI       091000042518652272SALUTE                                  00000000000000000000000100000000013                 
7560001300124U 090000000000000000000000000000000000000000000000000000000000000000000000000000000000000000000000000000000000000000000000001111202000000000    00000000000000000000000                        21811775600000000000000000000       
7560001300125T 0904609000000000793400001118033401014     124730000000000010112020000000000006500756046090MARIA DA SILVA NOGUEIRA  091000068197063249SALUTE                                  00000000000000000000000100000000013                 
7560001300126U 090000000000000000000000000000000000000000000000000000000000000000000000000000000000000000000000000000000000000000000000001111202000000000    00000000000000000000000                        21811875600000000000000000000       
7560001300127T 0904609000000000793400001118046001014     123890000000000010112020000000000006500756046090HELIO DA SILVA SOUZA     091000020525931600SALUTE                                  00000000000000000000000100000000013                 
7560001300128U 090000000000000000000000000000000000000000000000000000000000000000000000000000000000000000000000000000000000000000000000001111202000000000    00000000000000000000000                        21811975600000000000000000000       
7560001300129T 0904609000000000793400001118059501014     123550000000000010112020000000000006500756046090OLINDA BATISTA ALVES     091000014088851234SALUTE                                  00000000000000000000000100000000013                 
7560001300130U 090000000000000000000000000000000000000000000000000000000000000000000000000000000000000000000000000000000000000000000000001111202000000000    00000000000000000000000                        21812075600000000000000000000       
7560001300131T 0904609000000000793400001118072101014     124410000000000010112020000000000006500756046090JAHI DE SA MENESES       091000042616220334SALUTE                                  00000000000000000000000100000000013                 
7560001300132U 090000000000000000000000000000000000000000000000000000000000000000000000000000000000000000000000000000000000000000000000001111202000000000    00000000000000000000000                        21812175600000000000000000000       
7560001300133T 0904609000000000793400001118098201014     125170000000000010112020000000000006500756046090INGRID LOYANE SILVA DE OL091000003750826200SALUTE                                  00000000000000000000000100000000013                 
7560001300134U 090000000000000000000000000000000000000000000000000000000000000000000000000000000000000000000000000000000000000000000000001111202000000000    00000000000000000000000                        21812275600000000000000000000       
7560001300135T 0904609000000000793400001118111401014     122130000000000010112020000000000006500756046090JOSE WANDERSON DE AQUINO 091000079493025268SALUTE                                  00000000000000000000000100000000013                 
7560001300136U 090000000000000000000000000000000000000000000000000000000000000000000000000000000000000000000000000000000000000000000000001111202000000000    00000000000000000000000                        21812375600000000000000000000       
7560001300137T 0904609000000000793400001118124001014     123150000000000010112020000000000006500756046090MARIA IVANILDE BEZERRA DA091000039613488200SALUTE                                  00000000000000000000000100000000013                 
7560001300138U 090000000000000000000000000000000000000000000000000000000000000000000000000000000000000000000000000000000000000000000000001111202000000000    00000000000000000000000                        21812475600000000000000000000       
7560001300139T 0904609000000000793400001118137501014     122510000000000010112020000000000007250756046090MARILIA TAVARES SILVA    091000081883528291SALUTE                                  00000000000000000000000100000000013                 
7560001300140U 090000000000000000000000000000000000000000000000000000000000000000000000000000000000000000000000000000000000000000000000001111202000000000    00000000000000000000000                        21812575600000000000000000000       
7560001300141T 0904609000000000793400001118163701014     123350000000000010112020000000000006500756046090LEUDE MARIA COSTA DE SOUS091000044902417200SALUTE                                  00000000000000000000000100000000013                 
7560001300142U 090000000000000000000000000000000000000000000000000000000000000000000000000000000000000000000000000000000000000000000000001111202000000000    00000000000000000000000                        21812675600000000000000000000       
7560001300143T 0904609000000000793400001118176201014     122910000000000010112020000000000006500756046090ALLAN JHONATAN DOS SANTOS091000088450180244SALUTE                                  00000000000000000000000100000000013                 
7560001300144U 090000000000000000000000000000000000000000000000000000000000000000000000000000000000000000000000000000000000000000000000001111202000000000    00000000000000000000000                        21812775600000000000000000000       
7560001300145T 0904609000000000793400001118189801014     123570000000000010112020000000000006500756046090DIVINA JOAQUINA CARDOSO  091000052486257268SALUTE                                  00000000000000000000000100000000013                 
7560001300146U 090000000000000000000000000000000000000000000000000000000000000000000000000000000000000000000000000000000000000000000000001111202000000000    00000000000000000000000                        21812875600000000000000000000       
7560001300147T 0904609000000000793400001118202001014     122950000000000010112020000000000006500756046090JOAO MARCOS MARTINS BARRO091000059930896287SALUTE                                  00000000000000000000000100000000013                 
7560001300148U 090000000000000000000000000000000000000000000000000000000000000000000000000000000000000000000000000000000000000000000000001111202000000000    00000000000000000000000                        21812975600000000000000000000       
7560001300149T 0904609000000000793400001118215501014     124390000000000010112020000000000006500756046090LEIZO ALISSON DA SILVA LI091000073530948268SALUTE                                  00000000000000000000000100000000013                 
7560001300150U 090000000000000000000000000000000000000000000000000000000000000000000000000000000000000000000000000000000000000000000000001111202000000000    00000000000000000000000                        21813075600000000000000000000       
7560001300151T 0904609000000000793400001118290801014     122690000000000010112020000000000006500756046090PATRICIA NAYARA DA SILVA 091000093392052272SALUTE                                  00000000000000000000000100000000013                 
7560001300152U 090000000000000000000000000000000000000000000000000000000000000000000000000000000000000000000000000000000000000000000000001111202000000000    00000000000000000000000                        21813175600000000000000000000       
7560001300153T 0904609000000000793400001118303901014     122470000000000010112020000000000006500756046090MARIA APARECIDA SILVA REI091000000279175256SALUTE                                  00000000000000000000000100000000013                 
7560001300154U 090000000000000000000000000000000000000000000000000000000000000000000000000000000000000000000000000000000000000000000000001111202000000000    00000000000000000000000                        21813275600000000000000000000       
7560001300155T 0904609000000000793400001118316401014     124230000000000010112020000000000006500756046090GILVAGNE PEREIRA CUNHA   091000058751602253SALUTE                                  00000000000000000000000100000000013                 
7560001300156U 090000000000000000000000000000000000000000000000000000000000000000000000000000000000000000000000000000000000000000000000001111202000000000    00000000000000000000000                        21813375600000000000000000000       
7560001300157T 0904609000000000793400001118342601014     123330000000000010112020000000000006500756046090HELIO DIAS DA SILVA FILHO091000075492407287SALUTE                                  00000000000000000000000100000000013                 
7560001300158U 090000000000000000000000000000000000000000000000000000000000000000000000000000000000000000000000000000000000000000000000001111202000000000    00000000000000000000000                        21813475600000000000000000000       
7560001300159T 0904609000000000793400001118368701014     122710000000000010112020000000000006500756046090FRANCISCO PEREIRA DOS ANJ091000030163927200SALUTE                                  00000000000000000000000100000000013                 
7560001300160U 090000000000000000000000000000000000000000000000000000000000000000000000000000000000000000000000000000000000000000000000001111202000000000    00000000000000000000000                        21813575600000000000000000000       
7560001300161T 0904609000000000793400001118381301014     125010000000000010112020000000000006500756046090FERNANDA MATOS DA SILVA  091000099634538215SALUTE                                  00000000000000000000000100000000013                 
7560001300162U 090000000000000000000000000000000000000000000000000000000000000000000000000000000000000000000000000000000000000000000000001111202000000000    00000000000000000000000                        21813675600000000000000000000       
7560001300163T 0904609000000000793400001118394901014     123190000000000010112020000000000006500756046090LUCIMAR GOMES DA ROCHA   091000000970030347SALUTE                                  00000000000000000000000100000000013                 
7560001300164U 090000000000000000000000000000000000000000000000000000000000000000000000000000000000000000000000000000000000000000000000001111202000000000    00000000000000000000000                        21813775600000000000000000000       
7560001300165T 0904609000000000793400001118407001014     124490000000000010112020000000000006500756046090HELIA NUNES DA SILVA     091000082283451191SALUTE                                  00000000000000000000000100000000013                 
7560001300166U 090000000000000000000000000000000000000000000000000000000000000000000000000000000000000000000000000000000000000000000000001111202000000000    00000000000000000000000                        21813875600000000000000000000       
7560001300167T 0904609000000000793400001118433101014     123970000000000010112020000000000006500756046090FRANCISCA RODRIGUES DE SO091000024609200244SALUTE                                  00000000000000000000000100000000013                 
7560001300168U 090000000000000000000000000000000000000000000000000000000000000000000000000000000000000000000000000000000000000000000000001111202000000000    00000000000000000000000                        21813975600000000000000000000       
7560001300169T 0904609000000000793400001118446701014     124610000000000010112020000000000006500756046090TEREZINHA DE JESUS PEREIR091000018558615268SALUTE                                  00000000000000000000000100000000013                 
7560001300170U 090000000000000000000000000000000000000000000000000000000000000000000000000000000000000000000000000000000000000000000000001111202000000000    00000000000000000000000                        21814075600000000000000000000       
7560001300171T 0904609000000000793400001118459201014     122790000000000010112020000000000006500756046090JULIANA  BEZERRA ALVES   091000098627287287SALUTE                                  00000000000000000000000100000000013                 
7560001300172U 090000000000000000000000000000000000000000000000000000000000000000000000000000000000000000000000000000000000000000000000001111202000000000    00000000000000000000000                        21814175600000000000000000000       
7560001300173T 0904609000000000793400001118472901014     123770000000000010112020000000000006500756046090GLENDA MENDES DE SOUSA   091000072255218291SALUTE                                  00000000000000000000000100000000013                 
7560001300174U 090000000000000000000000000000000000000000000000000000000000000000000000000000000000000000000000000000000000000000000000001111202000000000    00000000000000000000000                        21814275600000000000000000000       
7560001300175T 0904609000000000793400001118485401014     124870000000000010112020000000000006500756046090JEFFERSON TEIXEIRA DE SOU091000074001256215SALUTE                                  00000000000000000000000100000000013                 
7560001300176U 090000000000000000000000000000000000000000000000000000000000000000000000000000000000000000000000000000000000000000000000001111202000000000    00000000000000000000000                        21814375600000000000000000000       
7560001300177T 0904609000000000793400001118498001014     122630000000000010112020000000000006500756046090SANDRA LUCIA BEZERRA LEIT091000087057018304SALUTE                                  00000000000000000000000100000000013                 
7560001300178U 090000000000000000000000000000000000000000000000000000000000000000000000000000000000000000000000000000000000000000000000001111202000000000    00000000000000000000000                        21814475600000000000000000000       
7560001300179T 0904609000000000793400001118511101014     123290000000000010112020000000000007000756046090MARIA PARECIDA DE SOUZA M091000011017368287SALUTE                                  00000000000000000000000100000000013                 
7560001300180U 090000000000000000000000000000000000000000000000000000000000000000000000000000000000000000000000000000000000000000000000001111202000000000    00000000000000000000000                        21814575600000000000000000000       
7560001300181T 0904609000000000793400001118524701014     125410000000000010112020000000000006500756046090MARILIA MACEDO NUNES     091000075215594287SALUTE                                  00000000000000000000000100000000013                 
7560001300182U 090000000000000000000000000000000000000000000000000000000000000000000000000000000000000000000000000000000000000000000000001111202000000000    00000000000000000000000                        21814675600000000000000000000       
7560001300183T 0904609000000000793400001118550901014     123050000000000010112020000000000006500756046090SANDRA LUCIA DIAS CALDEIR091000024828785272SALUTE                                  00000000000000000000000100000000013                 
7560001300184U 090000000000000000000000000000000000000000000000000000000000000000000000000000000000000000000000000000000000000000000000001111202000000000    00000000000000000000000                        21814775600000000000000000000       
7560001300185T 0904609000000000793400001118576001014     125190000000000010112020000000000006500756046090JESUINA NUNES DA SILVA   091000076383423215SALUTE                                  00000000000000000000000100000000013                 
7560001300186U 090000000000000000000000000000000000000000000000000000000000000000000000000000000000000000000000000000000000000000000000001111202000000000    00000000000000000000000                        21814875600000000000000000000       
7560001300187T 0904609000000000793400001118589501014     123390000000000010112020000000000006500756046090PASCOAL DE NAZARE FERREIR091000018628168249SALUTE                                  00000000000000000000000100000000013                 
7560001300188U 090000000000000000000000000000000000000000000000000000000000000000000000000000000000000000000000000000000000000000000000001111202000000000    00000000000000000000000                        21814975600000000000000000000       
7560001300189T 0904609000000000793400001118601001014     125070000000000010112020000000000006500756046090JOSE MOREIRA MAIA        091000017463386368SALUTE                                  00000000000000000000000100000000013                 
7560001300190U 090000000000000000000000000000000000000000000000000000000000000000000000000000000000000000000000000000000000000000000000001111202000000000    00000000000000000000000                        21815075600000000000000000000       
7560001300191T 0904609000000000793400001118614501014     125350000000000010112020000000000006500756046090ALINE FERRERIA DA SILVA F091000000503364282SALUTE                                  00000000000000000000000100000000013                 
7560001300192U 090000000000000000000000000000000000000000000000000000000000000000000000000000000000000000000000000000000000000000000000001111202000000000    00000000000000000000000                        21815175600000000000000000000       
7560001300193T 0904609000000000793400001118628801014     124450000000000010112020000000000006500756046090DORES ANTONIA PEREIRA DE 091000058110593291SALUTE                                  00000000000000000000000100000000013                 
7560001300194U 090000000000000000000000000000000000000000000000000000000000000000000000000000000000000000000000000000000000000000000000001111202000000000    00000000000000000000000                        21815275600000000000000000000       
7560001300195T 0904609000000000793400001118640701014     123630000000000010112020000000000006500756046090FABIANA DA SILVA CAVALCAN091000073497282200SALUTE                                  00000000000000000000000100000000013                 
7560001300196U 090000000000000000000000000000000000000000000000000000000000000000000000000000000000000000000000000000000000000000000000001111202000000000    00000000000000000000000                        21815375600000000000000000000       
7560001300197T 0904609000000000793400001118654001014     124010000000000010112020000000000006500756046090MILENA GOMES MENDES      091000004194779266SALUTE                                  00000000000000000000000100000000013                 
7560001300198U 090000000000000000000000000000000000000000000000000000000000000000000000000000000000000000000000000000000000000000000000001111202000000000    00000000000000000000000                        21815475600000000000000000000       
7560001300199T 0904609000000000793400001118667501014     124110000000000010112020000000000006500756046090ILDERLAN RODRIGUES SILVA 091000001472084322SALUTE                                  00000000000000000000000100000000013                 
7560001300200U 090000000000000000000000000000000000000000000000000000000000000000000000000000000000000000000000000000000000000000000000001111202000000000    00000000000000000000000                        21815575600000000000000000000       
7560001300201T 0904609000000000793400001118680101014     123170000000000010112020000000000006500756046090HELEN ARAUJO CARNEIRO    091000088249891287SALUTE                                  00000000000000000000000100000000013                 
7560001300202U 090000000000000000000000000000000000000000000000000000000000000000000000000000000000000000000000000000000000000000000000001111202000000000    00000000000000000000000                        21815675600000000000000000000       
7560001300203T 0904609000000000793400001118702901014     124070000000000010112020000000000006750756046090HENRIQUE HORSTH          091000042730511253SALUTE                                  00000000000000000000000100000000013                 
7560001300204U 090000000000000000000000000000000000000000000000000000000000000000000000000000000000000000000000000000000000000000000000001111202000000000    00000000000000000000000                        21815775600000000000000000000       
7560001300205T 0904609000000000793400001118718601014     131000000000000010112020000000000006500756046090ANTONIA DE ALENCAR CARDOS091000034567097300SALUTE                                  00000000000000000000000100000000013                 
7560001300206U 090000000000000000000000000000000000000000000000000000000000000000000000000000000000000000000000000000000000000000000000001111202000000000    00000000000000000000000                        21815875600000000000000000000       
7560001300207T 0904609000000000793400001118731201014     133000000000000010112020000000000006500756046090CARLENE PEREIRA DA SILVA 091000091493692291SALUTE                                  00000000000000000000000100000000013                 
7560001300208U 090000000000000000000000000000000000000000000000000000000000000000000000000000000000000000000000000000000000000000000000001111202000000000    00000000000000000000000                        21815975600000000000000000000       
7560001300209T 0904609000000000793400001118744801014     129000000000000010112020000000000006500756046090CLAUDEANA SOUZA DA CONCEI091000081993242287SALUTE                                  00000000000000000000000100000000013                 
7560001300210U 090000000000000000000000000000000000000000000000000000000000000000000000000000000000000000000000000000000000000000000000001111202000000000    00000000000000000000000                        21816075600000000000000000000       
7560001300211T 0904609000000000793400001118772401014     123230000000000010112020000000000006500756046090VAUDETE MARTINS DE SOUZA 091000037211218215SALUTE                                  00000000000000000000000100000000013                 
7560001300212U 090000000000000000000000000000000000000000000000000000000000000000000000000000000000000000000000000000000000000000000000001111202000000000    00000000000000000000000                        21816175600000000000000000000       
7560001300213T 0904609000000000793400001118795301014     124570000000000010112020000000000006500756046090DANIELE MELO FELIX       091000001434227235SALUTE                                  00000000000000000000000100000000013                 
7560001300214U 090000000000000000000000000000000000000000000000000000000000000000000000000000000000000000000000000000000000000000000000001111202000000000    00000000000000000000000                        21816275600000000000000000000       
7560001300215T 0904609000000000793400001118819501014     124690000000000010112020000000000006500756046090MARIA CELIA DA COSTA NOGU091000046230351234SALUTE                                  00000000000000000000000100000000013                 
7560001300216U 090000000000000000000000000000000000000000000000000000000000000000000000000000000000000000000000000000000000000000000000001111202000000000    00000000000000000000000                        21816375600000000000000000000       
7560001300217T 0904609000000000793400001118858201014     125290000000000010112020000000000006500756046090VANILDA DE SOUZA VASCONCE091000061723991287SALUTE                                  00000000000000000000000100000000013                 
7560001300218U 090000000000000000000000000000000000000000000000000000000000000000000000000000000000000000000000000000000000000000000000001111202000000000    00000000000000000000000                        21816475600000000000000000000       
7560001300219T 0904609000000000793400001118871901014     122590000000000010112020000000000006500756046090NAZARENO OLIVEIRA DA SILV091000037010212287SALUTE                                  00000000000000000000000100000000013                 
7560001300220U 090000000000000000000000000000000000000000000000000000000000000000000000000000000000000000000000000000000000000000000000001111202000000000    00000000000000000000000                        21816575600000000000000000000       
7560001300221T 0904609000000000793400001118884401014     122350000000000010112020000000000006500756046090THATIANY NAYARA DE OLIVEI091000096232315200SALUTE                                  00000000000000000000000100000000013                 
7560001300222U 090000000000000000000000000000000000000000000000000000000000000000000000000000000000000000000000000000000000000000000000001111202000000000    00000000000000000000000                        21816675600000000000000000000       
7560001300223T 0904609000000000793400001118897001014     122750000000000010112020000000000006500756046090ANTONIO JOSE MENDES CABRA091000046076379200SALUTE                                  00000000000000000000000100000000013                 
7560001300224U 090000000000000000000000000000000000000000000000000000000000000000000000000000000000000000000000000000000000000000000000001111202000000000    00000000000000000000000                        21816775600000000000000000000       
7560001300225T 0904609000000000793400001118910101014     122210000000000010112020000000000006500756046090JOSE SOARES DA SILVA     091000010667598120SALUTE                                  00000000000000000000000100000000013                 
7560001300226U 090000000000000000000000000000000000000000000000000000000000000000000000000000000000000000000000000000000000000000000000001111202000000000    00000000000000000000000                        21816875600000000000000000000       
7560001300227T 0904609000000000793400001118923701014     124050000000000010112020000000000006500756046090NEY FERREIRA DE MAGALHAES091000010489177204SALUTE                                  00000000000000000000000100000000013                 
7560001300228U 090000000000000000000000000000000000000000000000000000000000000000000000000000000000000000000000000000000000000000000000001111202000000000    00000000000000000000000                        21816975600000000000000000000       
7560001300229T 0904609000000000793400001118936201014     123950000000000010112020000000000006500756046090DEBORA SILVA VIANA       091000000064104214SALUTE                                  00000000000000000000000100000000013                 
7560001300230U 090000000000000000000000000000000000000000000000000000000000000000000000000000000000000000000000000000000000000000000000001111202000000000    00000000000000000000000                        21817075600000000000000000000       
7560001300231T 0904609000000000793400001118949801014     122430000000000010112020000000000006500756046090SEBASTIAO BRITO MACEDO   091000017756057600SALUTE                                  00000000000000000000000100000000013                 
7560001300232U 090000000000000000000000000000000000000000000000000000000000000000000000000000000000000000000000000000000000000000000000001111202000000000    00000000000000000000000                        21817175600000000000000000000       
7560001300233T 0904609000000000793400001118962401014     122390000000000010112020000000000006500756046090ALCENI DA SILVA FERREIRA 091000083809198234SALUTE                                  00000000000000000000000100000000013                 
7560001300234U 090000000000000000000000000000000000000000000000000000000000000000000000000000000000000000000000000000000000000000000000001111202000000000    00000000000000000000000                        21817275600000000000000000000       
7560001300235T 0904609000000000793400001118975001014     124970000000000010112020000000000006500756046090MIRIAN CONCEICAO CANTANHE091000000307497275SALUTE                                  00000000000000000000000100000000013                 
7560001300236U 090000000000000000000000000000000000000000000000000000000000000000000000000000000000000000000000000000000000000000000000001111202000000000    00000000000000000000000                        21817375600000000000000000000       
7560001300237T 0904609000000000793400001118988501014     123010000000000010112020000000000006500756046090MARTA OLIVEIRA DE SOUSA  091000015921352349SALUTE                                  00000000000000000000000100000000013                 
7560001300238U 090000000000000000000000000000000000000000000000000000000000000000000000000000000000000000000000000000000000000000000000001111202000000000    00000000000000000000000                        21817475600000000000000000000       
7560001300239T 0904609000000000793400001119001801014     122670000000000010112020000000000006500756046090TAIANY DE SOUSA CARVALHO 091000001540508226SALUTE                                  00000000000000000000000100000000013                 
7560001300240U 090000000000000000000000000000000000000000000000000000000000000000000000000000000000000000000000000000000000000000000000001111202000000000    00000000000000000000000                        21817575600000000000000000000       
7560001300241T 0904609000000000793400001119014301014     124430000000000010112020000000000006500756046090FRANCISCO SOUZA SILVA    091000071642978272SALUTE                                  00000000000000000000000100000000013                 
7560001300242U 090000000000000000000000000000000000000000000000000000000000000000000000000000000000000000000000000000000000000000000000001111202000000000    00000000000000000000000                        21817675600000000000000000000       
7560001300243T 0904609000000000793400001119027901014     122530000000000010112020000000000006500756046090LUZINON PEREIRA MORORO   091000069683182291SALUTE                                  00000000000000000000000100000000013                 
7560001300244U 090000000000000000000000000000000000000000000000000000000000000000000000000000000000000000000000000000000000000000000000001111202000000000    00000000000000000000000                        21817775600000000000000000000       
7560001300245T 0904609000000000793400001119040501014     124810000000000010112020000000000006500756046090JOSIMAR ALVES DOS SANTOS 091000017154553200SALUTE                                  00000000000000000000000100000000013                 
7560001300246U 090000000000000000000000000000000000000000000000000000000000000000000000000000000000000000000000000000000000000000000000001111202000000000    00000000000000000000000                        21817875600000000000000000000       
7560001300247T 0904609000000000793400001119079101014     124890000000000010112020000000000007250756046090MARINETE ALMEIDA TRINDADE091000073194573268SALUTE                                  00000000000000000000000100000000013                 
7560001300248U 090000000000000000000000000000000000000000000000000000000000000000000000000000000000000000000000000000000000000000000000001111202000000000    00000000000000000000000                        21817975600000000000000000000       
7560001300249T 0904609000000000793400001119092801014     123990000000000010112020000000000006500756046090ANTONIO GILSON DE SOUSA S091000069638454253SALUTE                                  00000000000000000000000100000000013                 
7560001300250U 090000000000000000000000000000000000000000000000000000000000000000000000000000000000000000000000000000000000000000000000001111202000000000    00000000000000000000000                        21818075600000000000000000000       
7560001300251T 0904609000000000793400001119118401014     123070000000000010112020000000000006500756046090ELIENE PEREIRA BARBOSA   091000000726211257SALUTE                                  00000000000000000000000100000000013                 
7560001300252U 090000000000000000000000000000000000000000000000000000000000000000000000000000000000000000000000000000000000000000000000001111202000000000    00000000000000000000000                        21818175600000000000000000000       
7560001300253T 0904609000000000793400001119131001014     122930000000000010112020000000000006500756046090DOMINGOS DE SOUSA PEREIRA091000060811510263SALUTE                                  00000000000000000000000100000000013                 
7560001300254U 090000000000000000000000000000000000000000000000000000000000000000000000000000000000000000000000000000000000000000000000001111202000000000    00000000000000000000000                        21818275600000000000000000000       
7560001300255T 0904609000000000793400001119144601014     123810000000000010112020000000000006500756046090IVONETE ALVES DA SILVA FE091000025317792215SALUTE                                  00000000000000000000000100000000013                 
7560001300256U 090000000000000000000000000000000000000000000000000000000000000000000000000000000000000000000000000000000000000000000000001111202000000000    00000000000000000000000                        21818375600000000000000000000       
7560001300257T 0904609000000000793400001119170801014     123370000000000010112020000000000006500756046090RAIMUNDA MARIA DE ABREU C091000000811129390SALUTE                                  00000000000000000000000100000000013                 
7560001300258U 090000000000000000000000000000000000000000000000000000000000000000000000000000000000000000000000000000000000000000000000001111202000000000    00000000000000000000000                        21818475600000000000000000000       
7560001300259T 0904609000000000793400001119183301014     141000000000000010112020000000000006500756046090CARLOS ANTONIO DE OLIVEIR091000038723182172SALUTE                                  00000000000000000000000100000000013                 
7560001300260U 090000000000000000000000000000000000000000000000000000000000000000000000000000000000000000000000000000000000000000000000001111202000000000    00000000000000000000000                        21818575600000000000000000000       
7560001300261T 0904609000000000793400001119196901014     145000000000000010112020000000000006500756046090ANDRESA PEREIRA DA SILVA 091000056351518253SALUTE                                  00000000000000000000000100000000013                 
7560001300262U 090000000000000000000000000000000000000000000000000000000000000000000000000000000000000000000000000000000000000000000000001111202000000000    00000000000000000000000                        21818675600000000000000000000       
7560001300263T 0904609000000000793400001119209001014     143000000000000010112020000000000006500756046090ROSANGELA DO CARMO MAGALH091000041127420291SALUTE                                  00000000000000000000000100000000013                 
7560001300264U 090000000000000000000000000000000000000000000000000000000000000000000000000000000000000000000000000000000000000000000000001111202000000000    00000000000000000000000                        21818775600000000000000000000       
7560001300265T 0904609000000000793400001119222601014     139000000000000010112020000000000006500756046090ADIVAN DE JESUS CUNHA    091000047834587749SALUTE                                  00000000000000000000000100000000013                 
7560001300266U 090000000000000000000000000000000000000000000000000000000000000000000000000000000000000000000000000000000000000000000000001111202000000000    00000000000000000000000                        21818875600000000000000000000       
7560001300267T 0904609000000000793400001119235101014     137000000000000010112020000000000006500756046090MACILEIDE MATOS DE LIMA  091000071060545268SALUTE                                  00000000000000000000000100000000013                 
7560001300268U 090000000000000000000000000000000000000000000000000000000000000000000000000000000000000000000000000000000000000000000000001111202000000000    00000000000000000000000                        21818975600000000000000000000       
7560001300269T 0904609000000000793400001119248701014     147000000000000010112020000000000006500756046090MALENA DE SOUZA MOURA    091000086369300225SALUTE                                  00000000000000000000000100000000013                 
7560001300270U 090000000000000000000000000000000000000000000000000000000000000000000000000000000000000000000000000000000000000000000000001111202000000000    00000000000000000000000                        21819075600000000000000000000       
7560001300271T 0904609000000000793400001119261301014     139000000000000010112020000000000006500756046090SELMA DA SILVA COSTA COVR091000074713566268SALUTE                                  00000000000000000000000100000000013                 
7560001300272U 090000000000000000000000000000000000000000000000000000000000000000000000000000000000000000000000000000000000000000000000001111202000000000    00000000000000000000000                        21819175600000000000000000000       
7560001300273T 0904609000000000793400001119274901014     137000000000000010112020000000000006500756046090WEMERSON COSTA COVRE     091000058304843234SALUTE                                  00000000000000000000000100000000013                 
7560001300274U 090000000000000000000000000000000000000000000000000000000000000000000000000000000000000000000000000000000000000000000000001111202000000000    00000000000000000000000                        21819275600000000000000000000       
7560001300275T 0904609000000000793400001119287401014     141000000000000010112020000000000006500756046090LEIA PEREIRA DE SOUZA    091000058148507287SALUTE                                  00000000000000000000000100000000013                 
7560001300276U 090000000000000000000000000000000000000000000000000000000000000000000000000000000000000000000000000000000000000000000000001111202000000000    00000000000000000000000                        21819375600000000000000000000       
7560001300277T 0904609000000000793400001119300601014     147000000000000010112020000000000006500756046090LUCINEIDE APARECIDA SIQUE091000073279218268SALUTE                                  00000000000000000000000100000000013                 
7560001300278U 090000000000000000000000000000000000000000000000000000000000000000000000000000000000000000000000000000000000000000000000001111202000000000    00000000000000000000000                        21819475600000000000000000000       
7560001300279T 0904609000000000793400001119313101014     145000000000000010112020000000000006500756046090ELISANGELA COSTA RIBEIRO 091000087148137268SALUTE                                  00000000000000000000000100000000013                 
7560001300280U 090000000000000000000000000000000000000000000000000000000000000000000000000000000000000000000000000000000000000000000000001111202000000000    00000000000000000000000                        21819575600000000000000000000       
7560001300281T 0904609000000000793400001119339201014     123510000000000010112020000000000006500756046090WILHAMS BARBOSA DA SILVA 091000061789399220SALUTE                                  00000000000000000000000100000000013                 
7560001300282U 090000000000000000000000000000000000000000000000000000000000000000000000000000000000000000000000000000000000000000000000001111202000000000    00000000000000000000000                        21819675600000000000000000000       
7560001300283T 0904609000000000793400001119352901014     123790000000000010112020000000000006500756046090ANA PAULA COSTA DE SOUZA 091000000858879271SALUTE                                  00000000000000000000000100000000013                 
7560001300284U 090000000000000000000000000000000000000000000000000000000000000000000000000000000000000000000000000000000000000000000000001111202000000000    00000000000000000000000                        21819775600000000000000000000       
7560001300285T 0904609000000000793400001119365401014     125090000000000010112020000000000006500756046090TIAGO GOMES DE SOUZA     091000091241650268SALUTE                                  00000000000000000000000100000000013                 
7560001300286U 090000000000000000000000000000000000000000000000000000000000000000000000000000000000000000000000000000000000000000000000001111202000000000    00000000000000000000000                        21819875600000000000000000000       
7560001300287T 0904609000000000793400001119378001014     123310000000000010112020000000000006500756046090JULIENE MEDEIROS DIAS    091000051950294234SALUTE                                  00000000000000000000000100000000013                 
7560001300288U 090000000000000000000000000000000000000000000000000000000000000000000000000000000000000000000000000000000000000000000000001111202000000000    00000000000000000000000                        21819975600000000000000000000       
7560001300289T 0904609000000000793400001119401501014     124030000000000010112020000000000006500756046090JEANE POLICARPIO DO NASCI091000001304116204SALUTE                                  00000000000000000000000100000000013                 
7560001300290U 090000000000000000000000000000000000000000000000000000000000000000000000000000000000000000000000000000000000000000000000001111202000000000    00000000000000000000000                        21820075600000000000000000000       
7560001300291T 0904609000000000793400001119414001014     123910000000000010112020000000000006500756046090JADIR JOSE ALTOE         091000094843554715SALUTE                                  00000000000000000000000100000000013                 
7560001300292U 090000000000000000000000000000000000000000000000000000000000000000000000000000000000000000000000000000000000000000000000001111202000000000    00000000000000000000000                        21820175600000000000000000000       
7560001300293T 0904609000000000793400001119427601014     124850000000000010112020000000000006500756046090JOICY BORGES MORAES      091000099582805234SALUTE                                  00000000000000000000000100000000013                 
7560001300294U 090000000000000000000000000000000000000000000000000000000000000000000000000000000000000000000000000000000000000000000000001111202000000000    00000000000000000000000                        21820275600000000000000000000       
7560001300295T 0904609000000000793400001119440201014     124210000000000010112020000000000006500756046090ANTONIA DE JESUS PEREIRA 091000090581504291SALUTE                                  00000000000000000000000100000000013                 
7560001300296U 090000000000000000000000000000000000000000000000000000000000000000000000000000000000000000000000000000000000000000000000001111202000000000    00000000000000000000000                        21820375600000000000000000000       
7560001300297T 0904609000000000793400001119453801014     122110000000000010112020000000000006500756046090ERISVALDO GOMES MATOS    091000058118640272SALUTE                                  00000000000000000000000100000000013                 
7560001300298U 090000000000000000000000000000000000000000000000000000000000000000000000000000000000000000000000000000000000000000000000001111202000000000    00000000000000000000000                        21820475600000000000000000000       
7560001300299T 0904609000000000793400001119466301014     122650000000000010112020000000000006500756046090EDIANE LIMA DE ALMEIDA   091000001377282201SALUTE                                  00000000000000000000000100000000013                 
7560001300300U 090000000000000000000000000000000000000000000000000000000000000000000000000000000000000000000000000000000000000000000000001111202000000000    00000000000000000000000                        21820575600000000000000000000       
7560001300301T 0904609000000000793400001119479901014     125330000000000010112020000000000006500756046090CIRIA CORREA DE ARAUJO DO091000022249877220SALUTE                                  00000000000000000000000100000000013                 
7560001300302U 090000000000000000000000000000000000000000000000000000000000000000000000000000000000000000000000000000000000000000000000001111202000000000    00000000000000000000000                        21820675600000000000000000000       
7560001300303T 0904609000000000793400001119492501014     125270000000000010112020000000000006500756046090CARLA DA CONCEICAO ARAUJO091000083158863200SALUTE                                  00000000000000000000000100000000013                 
7560001300304U 090000000000000000000000000000000000000000000000000000000000000000000000000000000000000000000000000000000000000000000000001111202000000000    00000000000000000000000                        21820775600000000000000000000       
7560001300305T 0904609000000000793400001119518101014     124910000000000010112020000000000006500756046090LARISSA ALVES DA SILVA   091000007390990279SALUTE                                  00000000000000000000000100000000013                 
7560001300306U 090000000000000000000000000000000000000000000000000000000000000000000000000000000000000000000000000000000000000000000000001111202000000000    00000000000000000000000                        21820875600000000000000000000       
7560001300307T 0904609000000000793400001119531801014     123730000000000010112020000000000006750756046090CLAUDIA LOPES PRIMO DIAS 091000056486693215SALUTE                                  00000000000000000000000100000000013                 
7560001300308U 090000000000000000000000000000000000000000000000000000000000000000000000000000000000000000000000000000000000000000000000001111202000000000    00000000000000000000000                        21820975600000000000000000000       
7560001300309T 0904609000000000793400001119544301014     124150000000000010112020000000000006500756046090RAIMUNDA DE OLIVEIRA MELO091000056314175291SALUTE                                  00000000000000000000000100000000013                 
7560001300310U 090000000000000000000000000000000000000000000000000000000000000000000000000000000000000000000000000000000000000000000000001111202000000000    00000000000000000000000                        21821075600000000000000000000       
7560001300311T 0904609000000000793400001119557901014     125250000000000010112020000000000006500756046090JOSIEL NASCIMENTO BARROS 091000048948195387SALUTE                                  00000000000000000000000100000000013                 
7560001300312U 090000000000000000000000000000000000000000000000000000000000000000000000000000000000000000000000000000000000000000000000001111202000000000    00000000000000000000000                        21821175600000000000000000000       
7560001300313T 0904609000000000793400001119570501014     122830000000000010112020000000000006500756046090THAYS ELIZABETHE SOUZA CA091000089197755249SALUTE                                  00000000000000000000000100000000013                 
7560001300314U 090000000000000000000000000000000000000000000000000000000000000000000000000000000000000000000000000000000000000000000000001111202000000000    00000000000000000000000                        21821275600000000000000000000       
7560001300315T 0904609000000000793400001119583001014     123650000000000010112020000000000006500756046090ADRIANA MOREIRA E SILVA  091000053197291204SALUTE                                  00000000000000000000000100000000013                 
7560001300316U 090000000000000000000000000000000000000000000000000000000000000000000000000000000000000000000000000000000000000000000000001111202000000000    00000000000000000000000                        21821375600000000000000000000       
7560001300317T 0904609000000000793400001119596601014     122610000000000010112020000000000006500756046090JANIO FERNANDES DA SILVA 091000074576500244SALUTE                                  00000000000000000000000100000000013                 
7560001300318U 090000000000000000000000000000000000000000000000000000000000000000000000000000000000000000000000000000000000000000000000001111202000000000    00000000000000000000000                        21821475600000000000000000000       
7560001300319T 0904609000000000793400001119609701014     123830000000000010112020000000000006500756046090LEDINADINA ALMEIDA DANTAS091000029824044272SALUTE                                  00000000000000000000000100000000013                 
7560001300320U 090000000000000000000000000000000000000000000000000000000000000000000000000000000000000000000000000000000000000000000000001111202000000000    00000000000000000000000                        21821575600000000000000000000       
7560001300321T 0904609000000000793400001119635901014     124130000000000010112020000000000006500756046090ALISON SILVA DE ARAUJO   091000053019482291SALUTE                                  00000000000000000000000100000000013                 
7560001300322U 090000000000000000000000000000000000000000000000000000000000000000000000000000000000000000000000000000000000000000000000001111202000000000    00000000000000000000000                        21821675600000000000000000000       
7560001300323T 0904609000000000793400001119648401014     125310000000000010112020000000000006750756046090VIRGINIA LUCIA PINHEIRO D091000087695030287SALUTE                                  00000000000000000000000100000000013                 
7560001300324U 090000000000000000000000000000000000000000000000000000000000000000000000000000000000000000000000000000000000000000000000001111202000000000    00000000000000000000000                        21821775600000000000000000000       
7560001300325T 0904609000000000793400001119661001014     124270000000000010112020000000000006500756046090REGIANE DE JESUS PEREIRA 091000002284346294SALUTE                                  00000000000000000000000100000000013                 
7560001300326U 090000000000000000000000000000000000000000000000000000000000000000000000000000000000000000000000000000000000000000000000001111202000000000    00000000000000000000000                        21821875600000000000000000000       
7560001300327T 0904609000000000793400001119687101014     122270000000000010112020000000000006500756046090ELIANE DE MOURA LIMA     091000061535940263SALUTE                                  00000000000000000000000100000000013                 
7560001300328U 090000000000000000000000000000000000000000000000000000000000000000000000000000000000000000000000000000000000000000000000001111202000000000    00000000000000000000000                        21821975600000000000000000000       
7560001300329T 0904609000000000793400001119700301014     124470000000000010112020000000000006500756046090LUIS FERNANDO PALADIN    091000028316333899SALUTE                                  00000000000000000000000100000000013                 
7560001300330U 090000000000000000000000000000000000000000000000000000000000000000000000000000000000000000000000000000000000000000000000001111202000000000    00000000000000000000000                        21822075600000000000000000000       
7560001300331T 0904609000000000793400001119739001014     123610000000000010112020000000000006500756046090JOSIANE ALEXANDRIA DA SIL091000050556029372SALUTE                                  00000000000000000000000100000000013                 
7560001300332U 090000000000000000000000000000000000000000000000000000000000000000000000000000000000000000000000000000000000000000000000001111202000000000    00000000000000000000000                        21822175600000000000000000000       
7560001300333T 0904609000000000793400001119752601014     124950000000000010112020000000000006500756046090VALDIANE SILVA DA CRUZ   091000078502390244SALUTE                                  00000000000000000000000100000000013                 
7560001300334U 090000000000000000000000000000000000000000000000000000000000000000000000000000000000000000000000000000000000000000000000001111202000000000    00000000000000000000000                        21822275600000000000000000000       
7560001300335T 0904609000000000793400001119765101014     124350000000000010112020000000000006500756046090Eduardo Arinos de Almeida091000029629748215SALUTE                                  00000000000000000000000100000000013                 
7560001300336U 090000000000000000000000000000000000000000000000000000000000000000000000000000000000000000000000000000000000000000000000001111202000000000    00000000000000000000000                        21822375600000000000000000000       
7560001300337T 0904609000000000793400001119804401014     122810000000000010112020000000000006500756046090JUCIE CARDOSO DA SILVA   091000076544672220SALUTE                                  00000000000000000000000100000000013                 
7560001300338U 090000000000000000000000000000000000000000000000000000000000000000000000000000000000000000000000000000000000000000000000001111202000000000    00000000000000000000000                        21822475600000000000000000000       
7560001300339T 0904609000000000793400001119817001014     125370000000000010112020000000000006500756046090ROMARIO DE SOUSA ALEXANDR091000003583859200SALUTE                                  00000000000000000000000100000000013                 
7560001300340U 090000000000000000000000000000000000000000000000000000000000000000000000000000000000000000000000000000000000000000000000001111202000000000    00000000000000000000000                        21822575600000000000000000000       
7560001300341T 0904609000000000793400001119830601014     122970000000000010112020000000000007000756046090ELIEZER DE ARAUJO CAVALCA091000091657369234SALUTE                                  00000000000000000000000100000000013                 
7560001300342U 090000000000000000000000000000000000000000000000000000000000000000000000000000000000000000000000000000000000000000000000001111202000000000    00000000000000000000000                        21822675600000000000000000000       
7560001300343T 0904609000000000793400001119843101014     115000000000000010112020000000000006500756046090JOSE GILMAR BASTOS DA COS091000022396667220SALUTE                                  00000000000000000000000100000000013                 
7560001300344U 090000000000000000000000000000000000000000000000000000000000000000000000000000000000000000000000000000000000000000000000001111202000000000    00000000000000000000000                        21822775600000000000000000000       
7560001300345T 0904609000000000793400001119895401014     115000000000000010112020000000000006500756046090STEFANY DE PAULA DIAS PAS091000001829662244SALUTE                                  00000000000000000000000100000000013                 
7560001300346U 090000000000000000000000000000000000000000000000000000000000000000000000000000000000000000000000000000000000000000000000001111202000000000    00000000000000000000000                        21822875600000000000000000000       
7560001300347T 0904609000000000793400001119908501014     113000000000000010112020000000000006500756046090MARIA LUZIA DOS SANTOS   091000058468560200SALUTE                                  00000000000000000000000100000000013                 
7560001300348U 090000000000000000000000000000000000000000000000000000000000000000000000000000000000000000000000000000000000000000000000001111202000000000    00000000000000000000000                        21822975600000000000000000000       
7560001300349T 0904609000000000793400001119921101014     125100000000000010112020000000000006500756046090KELLY  MACEDO SILVA      091000001450324266SALUTE                                  00000000000000000000000100000000013                 
7560001300350U 090000000000000000000000000000000000000000000000000000000000000000000000000000000000000000000000000000000000000000000000001111202000000000    00000000000000000000000                        21823075600000000000000000000       
7560001300351T 0904609000000000793400001119934701014     125300000000000010112020000000000006500756046090LUZIA BRITO DE SOUSA     091000048100838291SALUTE                                  00000000000000000000000100000000013                 
7560001300352U 090000000000000000000000000000000000000000000000000000000000000000000000000000000000000000000000000000000000000000000000001111202000000000    00000000000000000000000                        21823175600000000000000000000       
7560001300353T 0904609000000000793400001119947201014     127100000000000010112020000000000006500756046090REGIANE BARBOSA TEIXEIRA 091000000556585208SALUTE                                  00000000000000000000000100000000013                 
7560001300354U 090000000000000000000000000000000000000000000000000000000000000000000000000000000000000000000000000000000000000000000000001111202000000000    00000000000000000000000                        21823275600000000000000000000       
7560001300355T 0904609000000000793400001119960901014     128500000000000010112020000000000006500756046090BENTO DE SOUZA LOPES     091000021523690330SALUTE                                  00000000000000000000000100000000013                 
7560001300356U 090000000000000000000000000000000000000000000000000000000000000000000000000000000000000000000000000000000000000000000000001111202000000000    00000000000000000000000                        21823375600000000000000000000       
7560001300357T 0904609000000000793400001119973401014     124300000000000010112020000000000006500756046090MARLENE PEREIRA DA SILVA 091000004993534205SALUTE                                  00000000000000000000000100000000013                 
7560001300358U 090000000000000000000000000000000000000000000000000000000000000000000000000000000000000000000000000000000000000000000000001111202000000000    00000000000000000000000                        21823475600000000000000000000       
7560001300359T 0904609000000000793400001119986001014     126500000000000010112020000000000006750756046090IVAN DE JESUS PEREIRA    091000049081586220SALUTE                                  00000000000000000000000100000000013                 
7560001300360U 090000000000000000000000000000000000000000000000000000000000000000000000000000000000000000000000000000000000000000000000001111202000000000    00000000000000000000000                        21823575600000000000000000000       
7560001300361T 0904609000000000793400001119999501014     126700000000000010112020000000000006500756046090MARIA SANDRA DE SOUSA COS091000066477107287SALUTE                                  00000000000000000000000100000000013                 
7560001300362U 090000000000000000000000000000000000000000000000000000000000000000000000000000000000000000000000000000000000000000000000001111202000000000    00000000000000000000000                        21823675600000000000000000000       
7560001300363T 0904609000000000793400001120012401014     127900000000000010112020000000000006500756046090MARIA DO ROSARIO DE FATIM091000009727051391SALUTE                                  00000000000000000000000100000000013                 
7560001300364U 090000000000000000000000000000000000000000000000000000000000000000000000000000000000000000000000000000000000000000000000001111202000000000    00000000000000000000000                        21823775600000000000000000000       
7560001300365T 0904609000000000793400001120051101014     130100000000000010112020000000000006500756046090TIAGO ANDRADE DE SOUZA   091000000457618256SALUTE                                  00000000000000000000000100000000013                 
7560001300366U 090000000000000000000000000000000000000000000000000000000000000000000000000000000000000000000000000000000000000000000000001111202000000000    00000000000000000000000                        21823875600000000000000000000       
7560001300367T 0904609000000000793400001120065401014     123500000000000010112020000000000006500756046090JANER JADJISKI MONTEIRO  091000099968673234SALUTE                                  00000000000000000000000100000000013                 
7560001300368U 090000000000000000000000000000000000000000000000000000000000000000000000000000000000000000000000000000000000000000000000001111202000000000    00000000000000000000000                        21823975600000000000000000000       
7560001300369T 0904609000000000793400001120078001014     128700000000000010112020000000000006500756046090LUIZ HENRIQUE DE OLIVEIRA091000011183999607SALUTE                                  00000000000000000000000100000000013                 
7560001300370U 090000000000000000000000000000000000000000000000000000000000000000000000000000000000000000000000000000000000000000000000001111202000000000    00000000000000000000000                        21824075600000000000000000000       
7560001300371T 0904609000000000793400001120091601014     129300000000000010112020000000000006500756046090MARCELO DE SOUZA FERNANDE091000052000656234SALUTE                                  00000000000000000000000100000000013                 
7560001300372U 090000000000000000000000000000000000000000000000000000000000000000000000000000000000000000000000000000000000000000000000001111202000000000    00000000000000000000000                        21824175600000000000000000000       
7560001300373T 0904609000000000793400001120104701014     128900000000000010112020000000000006500756046090JESSICA VITORIA CARDOSO N091000007251144280SALUTE                                  00000000000000000000000100000000013                 
7560001300374U 090000000000000000000000000000000000000000000000000000000000000000000000000000000000000000000000000000000000000000000000001111202000000000    00000000000000000000000                        21824275600000000000000000000       
7560001300375T 0904609000000000793400001120117201014     127700000000000010112020000000000006500756046090ELOIZA CRISTINA NASCIMENT091000068946198249SALUTE                                  00000000000000000000000100000000013                 
7560001300376U 090000000000000000000000000000000000000000000000000000000000000000000000000000000000000000000000000000000000000000000000001111202000000000    00000000000000000000000                        21824375600000000000000000000       
7560001300377T 0904609000000000793400001120130901014     127300000000000010112020000000000006500756046090ALDERUTH DA SILVA CARVALH091000093847009249SALUTE                                  00000000000000000000000100000000013                 
7560001300378U 090000000000000000000000000000000000000000000000000000000000000000000000000000000000000000000000000000000000000000000000001111202000000000    00000000000000000000000                        21824475600000000000000000000       
7560001300379T 0904609000000000793400001120143401014     126900000000000010112020000000000006500756046090EVILAZIO NUNES DA SILVA  091000030550807268SALUTE                                  00000000000000000000000100000000013                 
7560001300380U 090000000000000000000000000000000000000000000000000000000000000000000000000000000000000000000000000000000000000000000000001111202000000000    00000000000000000000000                        21824575600000000000000000000       
7560001300381T 0904609000000000793400001120156001014     126100000000000010112020000000000006500756046090FRANCISCO RONALDO  GOMES 091000020667752668SALUTE                                  00000000000000000000000100000000013                 
7560001300382U 090000000000000000000000000000000000000000000000000000000000000000000000000000000000000000000000000000000000000000000000001111202000000000    00000000000000000000000                        21824675600000000000000000000       
7560001300383T 0904609000000000793400001120169501014     124900000000000010112020000000000006500756046090GILVANA ALVES DE OLIVEIRA091000060961333200SALUTE                                  00000000000000000000000100000000013                 
7560001300384U 090000000000000000000000000000000000000000000000000000000000000000000000000000000000000000000000000000000000000000000000001111202000000000    00000000000000000000000                        21824775600000000000000000000       
7560001300385T 0904609000000000793400001120182101014     124100000000000010112020000000000006750756046090LILIA RAQUEL VASCONCELOS 091000072627271253SALUTE                                  00000000000000000000000100000000013                 
7560001300386U 090000000000000000000000000000000000000000000000000000000000000000000000000000000000000000000000000000000000000000000000001111202000000000    00000000000000000000000                        21824875600000000000000000000       
7560001300387T 0904609000000000793400001120195701014     123900000000000010112020000000000006500756046090TANICE MARIA RODRIGUES   091000027031870259SALUTE                                  00000000000000000000000100000000013                 
7560001300388U 090000000000000000000000000000000000000000000000000000000000000000000000000000000000000000000000000000000000000000000000001111202000000000    00000000000000000000000                        21824975600000000000000000000       
7560001300389T 0904609000000000793400001120208801014     124700000000000010112020000000000006500756046090LUIZ BELARMINO DE OLIVEIR091000022505318204SALUTE                                  00000000000000000000000100000000013                 
7560001300390U 090000000000000000000000000000000000000000000000000000000000000000000000000000000000000000000000000000000000000000000000001111202000000000    00000000000000000000000                        21825075600000000000000000000       
7560001300391T 0904609000000000793400001120221401014     129500000000000010112020000000000006500756046090JOSE CARLOS SOUSA DE NOVA091000044895577287SALUTE                                  00000000000000000000000100000000013                 
7560001300392U 090000000000000000000000000000000000000000000000000000000000000000000000000000000000000000000000000000000000000000000000001111202000000000    00000000000000000000000                        21825175600000000000000000000       
7560001300393T 0904609000000000793400001120234001014     124500000000000010112020000000000006750756046090JANAINA CRISTINA NUNES AN091000000765087227SALUTE                                  00000000000000000000000100000000013                 
7560001300394U 090000000000000000000000000000000000000000000000000000000000000000000000000000000000000000000000000000000000000000000000001111202000000000    00000000000000000000000                        21825275600000000000000000000       
7560001300395T 0904609000000000793400001120260101014     126300000000000010112020000000000006500756046090VALDISA DO SANTOS SILVA  091000051684624215SALUTE                                  00000000000000000000000100000000013                 
7560001300396U 090000000000000000000000000000000000000000000000000000000000000000000000000000000000000000000000000000000000000000000000001111202000000000    00000000000000000000000                        21825375600000000000000000000       
7560001300397T 0904609000000000793400001120299801014     129100000000000010112020000000000006500756046090SALOMAO TEIXEIRA LOPES   091000014126257268SALUTE                                  00000000000000000000000100000000013                 
7560001300398U 090000000000000000000000000000000000000000000000000000000000000000000000000000000000000000000000000000000000000000000000001111202000000000    00000000000000000000000                        21825475600000000000000000000       
7560001300399T 0904609000000000793400001120312001014     129900000000000010112020000000000006500756046090REGIMAR DO SOCORRO LEAO C091000029450365253SALUTE                                  00000000000000000000000100000000013                 
7560001300400U 090000000000000000000000000000000000000000000000000000000000000000000000000000000000000000000000000000000000000000000000001111202000000000    00000000000000000000000                        21825575600000000000000000000       
7560001300401T 0904609000000000793400001120325501014     123700000000000010112020000000000006500756046090MARCOS CLEBIO ALVES DE SO091000089518187568SALUTE                                  00000000000000000000000100000000013                 
7560001300402U 090000000000000000000000000000000000000000000000000000000000000000000000000000000000000000000000000000000000000000000000001111202000000000    00000000000000000000000                        21825675600000000000000000000       
7560001300403T 0904609000000000793400001120353101014     129700000000000010112020000000000006500756046090NADDYA DE ALMEIDA FREITAS091000005371417230SALUTE                                  00000000000000000000000100000000013                 
7560001300404U 090000000000000000000000000000000000000000000000000000000000000000000000000000000000000000000000000000000000000000000000001111202000000000    00000000000000000000000                        21825775600000000000000000000       
7560001300405T 0904609000000000793400001120367401014     128300000000000010112020000000000006500756046090SALETE SOCORRO SOUZA FORT091000024474673204SALUTE                                  00000000000000000000000100000000013                 
7560001300406U 090000000000000000000000000000000000000000000000000000000000000000000000000000000000000000000000000000000000000000000000001111202000000000    00000000000000000000000                        21825875600000000000000000000       
7560001300407T 0904609000000000793400001120380001014     128100000000000010112020000000000006500756046090ANTONIA LEITE DE JESUS   091000045530386253SALUTE                                  00000000000000000000000100000000013                 
7560001300408U 090000000000000000000000000000000000000000000000000000000000000000000000000000000000000000000000000000000000000000000000001111202000000000    00000000000000000000000                        21825975600000000000000000000       
7560001300409T 0904609000000000793400001120407401014     125500000000000010112020000000000006500756046090MARLUCE CUNHA RODOVALHO C091000052553639600SALUTE                                  00000000000000000000000100000000013                 
7560001300410U 090000000000000000000000000000000000000000000000000000000000000000000000000000000000000000000000000000000000000000000000001111202000000000    00000000000000000000000                        21826075600000000000000000000       
7560001300411T 0904609000000000793400001120420001014     147000000000000010112020000000000006750756046090HELLEN CRISTINA SOUZA OLI091000002847234284HELLEN CRISTINA SOUZA OLIVEIRA          00000000000000000000000100000000013                 
