75600000         235812309000160                    04609000000000793400SALUTE ATIVIDADES DE INTERMEDISICOOB                                  22007202008244500000608500000                                                                     
75600011T01  043 2035812309000160          460900000804609000000000793400SALUTE ATIVIDADES DE INTERMEDI                                                                                000000002007202000000000                                 
7560001300001T 0204609000000000793400001115415101014     111000000000000020072020000000000006500756046090Hamilton Costa Neto      091000079776302572SALUTE                                  000000000000000000000015500000000A4                 
7560001300002U 020000000000000000000000000000000000000000000000000000000000000000000000000000000000000000000000000000000000000000000000001707202000000000    00000000000000000000000                              75600000000000000000000       
7560001300003T 0204609000000000793400001115416901014     165500000000000020082020000000000006500756046090Hamilton Costa Neto      091000079776302572SALUTE                                  000000000000000000000015500000000A4                 
7560001300004U 020000000000000000000000000000000000000000000000000000000000000000000000000000000000000000000000000000000000000000000000001707202000000000    00000000000000000000000                              75600000000000000000000       
7560001300005T 0204609000000000793400001115417601014     113110000000000020092020000000000006500756046090Hamilton Costa Neto      091000079776302572SALUTE                                  000000000000000000000015500000000A4                 
7560001300006U 020000000000000000000000000000000000000000000000000000000000000000000000000000000000000000000000000000000000000000000000001707202000000000    00000000000000000000000                              75600000000000000000000       
7560001300007T 0204609000000000793400001115418301014     119610000000000020102020000000000006500756046090Hamilton Costa Neto      091000079776302572SALUTE                                  000000000000000000000015500000000A4                 
7560001300008U 020000000000000000000000000000000000000000000000000000000000000000000000000000000000000000000000000000000000000000000000001707202000000000    00000000000000000000000                              75600000000000000000000       
7560001300009T 0204609000000000793400001115419001014     126150000000000020112020000000000006500756046090Hamilton Costa Neto      091000079776302572SALUTE                                  000000000000000000000015500000000A4                 
7560001300010U 020000000000000000000000000000000000000000000000000000000000000000000000000000000000000000000000000000000000000000000000001707202000000000    00000000000000000000000                              75600000000000000000000       
7560001300011T 0204609000000000793400001115420901014     132730000000000020122020000000000006500756046090Hamilton Costa Neto      091000079776302572SALUTE                                  000000000000000000000015500000000A4                 
7560001300012U 020000000000000000000000000000000000000000000000000000000000000000000000000000000000000000000000000000000000000000000000001707202000000000    00000000000000000000000                              75600000000000000000000       
7560001300013T 0204609000000000793400001115421601014     139250000000000020012021000000000006500756046090Hamilton Costa Neto      091000079776302572SALUTE                                  000000000000000000000015500000000A4                 
7560001300014U 020000000000000000000000000000000000000000000000000000000000000000000000000000000000000000000000000000000000000000000000001707202000000000    00000000000000000000000                              75600000000000000000000       
7560001300015T 0204609000000000793400001115422301014     145790000000000020022021000000000006500756046090Hamilton Costa Neto      091000079776302572SALUTE                                  000000000000000000000015500000000A4                 
7560001300016U 020000000000000000000000000000000000000000000000000000000000000000000000000000000000000000000000000000000000000000000000001707202000000000    00000000000000000000000                              75600000000000000000000       
7560001300017T 0204609000000000793400001115423001014     152310000000000020032021000000000006500756046090Hamilton Costa Neto      091000079776302572SALUTE                                  000000000000000000000015500000000A4                 
7560001300018U 020000000000000000000000000000000000000000000000000000000000000000000000000000000000000000000000000000000000000000000000001707202000000000    00000000000000000000000                              75600000000000000000000       
7560001300019T 0204609000000000793400001115557201014     119470000000000017102020000000000006500756046090DIVANILSON DOS REIS CUNHA091000073194603272SALUTE                                  000000000000000000000015500000000A4                 
7560001300020U 020000000000000000000000000000000000000000000000000000000000000000000000000000000000000000000000000000000000000000000000001707202000000000    00000000000000000000000                              75600000000000000000000       
7560001300021T 0204609000000000793400001115560501014     164100000000000017082020000000000006500756046090DIVANILSON DOS REIS CUNHA091000073194603272SALUTE                                  000000000000000000000015500000000A4                 
7560001300022U 020000000000000000000000000000000000000000000000000000000000000000000000000000000000000000000000000000000000000000000000001707202000000000    00000000000000000000000                              75600000000000000000000       
7560001300023T 0204609000000000793400001115561201014     112930000000000017092020000000000006500756046090DIVANILSON DOS REIS CUNHA091000073194603272SALUTE                                  000000000000000000000015500000000A4                 
7560001300024U 020000000000000000000000000000000000000000000000000000000000000000000000000000000000000000000000000000000000000000000000001707202000000000    00000000000000000000000                              75600000000000000000000       
7560001300025T 0204609000000000793400001115562001014     132570000000000017122020000000000006500756046090DIVANILSON DOS REIS CUNHA091000073194603272SALUTE                                  000000000000000000000015500000000A4                 
7560001300026U 020000000000000000000000000000000000000000000000000000000000000000000000000000000000000000000000000000000000000000000000001707202000000000    00000000000000000000000                              75600000000000000000000       
7560001300027T 0204609000000000793400001115563701014     126030000000000017112020000000000006500756046090DIVANILSON DOS REIS CUNHA091000073194603272SALUTE                                  000000000000000000000015500000000A4                 
7560001300028U 020000000000000000000000000000000000000000000000000000000000000000000000000000000000000000000000000000000000000000000000001707202000000000    00000000000000000000000                              75600000000000000000000       
7560001300029T 0204609000000000793400001115564401014     152170000000000017032021000000000006500756046090DIVANILSON DOS REIS CUNHA091000073194603272SALUTE                                  000000000000000000000015500000000A4                 
7560001300030U 020000000000000000000000000000000000000000000000000000000000000000000000000000000000000000000000000000000000000000000000001707202000000000    00000000000000000000000                              75600000000000000000000       
7560001300031T 0204609000000000793400001115565101014     139110000000000017012021000000000006500756046090DIVANILSON DOS REIS CUNHA091000073194603272SALUTE                                  000000000000000000000015500000000A4                 
7560001300032U 020000000000000000000000000000000000000000000000000000000000000000000000000000000000000000000000000000000000000000000000001707202000000000    00000000000000000000000                              75600000000000000000000       
7560001300033T 0204609000000000793400001115566901014     145630000000000017022021000000000006500756046090DIVANILSON DOS REIS CUNHA091000073194603272SALUTE                                  000000000000000000000015500000000A4                 
7560001300034U 020000000000000000000000000000000000000000000000000000000000000000000000000000000000000000000000000000000000000000000000001707202000000000    00000000000000000000000                              75600000000000000000000       
7560001300035T 0204609000000000793400001115567601014     158710000000000017042021000000000006500756046090DIVANILSON DOS REIS CUNHA091000073194603272SALUTE                                  000000000000000000000015500000000A4                 
7560001300036U 020000000000000000000000000000000000000000000000000000000000000000000000000000000000000000000000000000000000000000000000001707202000000000    00000000000000000000000                              75600000000000000000000       
7560001300037T 0204609000000000793400001115572301014     164300000000000017082020000000000006500756046090RACHEL BORGES DIAS       091000000418085250SALUTE                                  000000000000000000000015500000000A4                 
7560001300038U 020000000000000000000000000000000000000000000000000000000000000000000000000000000000000000000000000000000000000000000000001707202000000000    00000000000000000000000                              75600000000000000000000       
7560001300039T 0204609000000000793400001115573001014     112950000000000017092020000000000006500756046090RACHEL BORGES DIAS       091000000418085250SALUTE                                  000000000000000000000015500000000A4                 
7560001300040U 020000000000000000000000000000000000000000000000000000000000000000000000000000000000000000000000000000000000000000000000001707202000000000    00000000000000000000000                              75600000000000000000000       
7560001300041T 0204609000000000793400001115574801014     119490000000000017102020000000000006500756046090RACHEL BORGES DIAS       091000000418085250SALUTE                                  000000000000000000000015500000000A4                 
7560001300042U 020000000000000000000000000000000000000000000000000000000000000000000000000000000000000000000000000000000000000000000000001707202000000000    00000000000000000000000                              75600000000000000000000       
7560001300043T 0204609000000000793400001115575501014     126010000000000017112020000000000006500756046090RACHEL BORGES DIAS       091000000418085250SALUTE                                  000000000000000000000015500000000A4                 
7560001300044U 020000000000000000000000000000000000000000000000000000000000000000000000000000000000000000000000000000000000000000000000001707202000000000    00000000000000000000000                              75600000000000000000000       
7560001300045T 0204609000000000793400001115576201014     132550000000000017122020000000000006500756046090RACHEL BORGES DIAS       091000000418085250SALUTE                                  000000000000000000000015500000000A4                 
7560001300046U 020000000000000000000000000000000000000000000000000000000000000000000000000000000000000000000000000000000000000000000000001707202000000000    00000000000000000000000                              75600000000000000000000       
7560001300047T 0204609000000000793400001115577001014     139090000000000017012021000000000006500756046090RACHEL BORGES DIAS       091000000418085250SALUTE                                  000000000000000000000015500000000A4                 
7560001300048U 020000000000000000000000000000000000000000000000000000000000000000000000000000000000000000000000000000000000000000000000001707202000000000    00000000000000000000000                              75600000000000000000000       
7560001300049T 0204609000000000793400001115578701014     145650000000000017022021000000000006500756046090RACHEL BORGES DIAS       091000000418085250SALUTE                                  000000000000000000000015500000000A4                 
7560001300050U 020000000000000000000000000000000000000000000000000000000000000000000000000000000000000000000000000000000000000000000000001707202000000000    00000000000000000000000                              75600000000000000000000       
7560001300051T 0204609000000000793400001115579401014     152190000000000017032021000000000006500756046090RACHEL BORGES DIAS       091000000418085250SALUTE                                  000000000000000000000015500000000A4                 
7560001300052U 020000000000000000000000000000000000000000000000000000000000000000000000000000000000000000000000000000000000000000000000001707202000000000    00000000000000000000000                              75600000000000000000000       
7560001300053T 0204609000000000793400001115580201014     158730000000000017042021000000000006500756046090RACHEL BORGES DIAS       091000000418085250SALUTE                                  000000000000000000000015500000000A4                 
7560001300054U 020000000000000000000000000000000000000000000000000000000000000000000000000000000000000000000000000000000000000000000000001707202000000000    00000000000000000000000                              75600000000000000000000       
7560001300055T 0204609000000000793400001115584101014     129000000000000022072020000000000006500756046090VERA LUCIA MENDES DIAS   091000063289180204SALUTE                                  000000000000000000000015500000000A4                 
7560001300056U 020000000000000000000000000000000000000000000000000000000000000000000000000000000000000000000000000000000000000000000000001707202000000000    00000000000000000000000                              75600000000000000000000       
7560001300057T 0204609000000000793400001115585901014     167300000000000022082020000000000006500756046090VERA LUCIA MENDES DIAS   091000063289180204SALUTE                                  000000000000000000000015500000000A4                 
7560001300058U 020000000000000000000000000000000000000000000000000000000000000000000000000000000000000000000000000000000000000000000000001707202000000000    00000000000000000000000                              75600000000000000000000       
7560001300059T 0204609000000000793400001115586601014     113250000000000022092020000000000006500756046090VERA LUCIA MENDES DIAS   091000063289180204SALUTE                                  000000000000000000000015500000000A4                 
7560001300060U 020000000000000000000000000000000000000000000000000000000000000000000000000000000000000000000000000000000000000000000000001707202000000000    00000000000000000000000                              75600000000000000000000       
7560001300061T 0204609000000000793400001115587301014     119790000000000022102020000000000006500756046090VERA LUCIA MENDES DIAS   091000063289180204SALUTE                                  000000000000000000000015500000000A4                 
7560001300062U 020000000000000000000000000000000000000000000000000000000000000000000000000000000000000000000000000000000000000000000000001707202000000000    00000000000000000000000                              75600000000000000000000       
7560001300063T 0204609000000000793400001115588001014     126350000000000022112020000000000006500756046090VERA LUCIA MENDES DIAS   091000063289180204SALUTE                                  000000000000000000000015500000000A4                 
7560001300064U 020000000000000000000000000000000000000000000000000000000000000000000000000000000000000000000000000000000000000000000000001707202000000000    00000000000000000000000                              75600000000000000000000       
7560001300065T 0204609000000000793400001115589801014     132890000000000022122020000000000006500756046090VERA LUCIA MENDES DIAS   091000063289180204SALUTE                                  000000000000000000000015500000000A4                 
7560001300066U 020000000000000000000000000000000000000000000000000000000000000000000000000000000000000000000000000000000000000000000000001707202000000000    00000000000000000000000                              75600000000000000000000       
7560001300067T 0204609000000000793400001115590601014     139370000000000022012021000000000006500756046090VERA LUCIA MENDES DIAS   091000063289180204SALUTE                                  000000000000000000000015500000000A4                 
7560001300068U 020000000000000000000000000000000000000000000000000000000000000000000000000000000000000000000000000000000000000000000000001707202000000000    00000000000000000000000                              75600000000000000000000       
7560001300069T 0204609000000000793400001115591301014     145970000000000022022021000000000006500756046090VERA LUCIA MENDES DIAS   091000063289180204SALUTE                                  000000000000000000000015500000000A4                 
7560001300070U 020000000000000000000000000000000000000000000000000000000000000000000000000000000000000000000000000000000000000000000000001707202000000000    00000000000000000000000                              75600000000000000000000       
7560001300071T 0204609000000000793400001115592001014     152510000000000022032021000000000006500756046090VERA LUCIA MENDES DIAS   091000063289180204SALUTE                                  000000000000000000000015500000000A4                 
7560001300072U 020000000000000000000000000000000000000000000000000000000000000000000000000000000000000000000000000000000000000000000000001707202000000000    00000000000000000000000                              75600000000000000000000       
7560001300073T 0204609000000000793400001115593801014     159010000000000022042021000000000006500756046090VERA LUCIA MENDES DIAS   091000063289180204SALUTE                                  000000000000000000000015500000000A4                 
7560001300074U 020000000000000000000000000000000000000000000000000000000000000000000000000000000000000000000000000000000000000000000000001707202000000000    00000000000000000000000                              75600000000000000000000       
7560001300075T 0204609000000000793400001115597701014     125000000000000022072020000000000006500756046090ENILZA DE SOUZA DO CARMO 091000039221571220SALUTE                                  000000000000000000000015500000000A4                 
7560001300076U 020000000000000000000000000000000000000000000000000000000000000000000000000000000000000000000000000000000000000000000000001707202000000000    00000000000000000000000                              75600000000000000000000       
7560001300077T 0204609000000000793400001115598401014     166900000000000022082020000000000006500756046090ENILZA DE SOUZA DO CARMO 091000039221571220SALUTE                                  000000000000000000000015500000000A4                 
7560001300078U 020000000000000000000000000000000000000000000000000000000000000000000000000000000000000000000000000000000000000000000000001707202000000000    00000000000000000000000                              75600000000000000000000       
7560001300079T 0204609000000000793400001115599101014     113210000000000022092020000000000006500756046090ENILZA DE SOUZA DO CARMO 091000039221571220SALUTE                                  000000000000000000000015500000000A4                 
7560001300080U 020000000000000000000000000000000000000000000000000000000000000000000000000000000000000000000000000000000000000000000000001707202000000000    00000000000000000000000                              75600000000000000000000       
7560001300081T 0204609000000000793400001115600501014     119810000000000022102020000000000006500756046090ENILZA DE SOUZA DO CARMO 091000039221571220SALUTE                                  000000000000000000000015500000000A4                 
7560001300082U 020000000000000000000000000000000000000000000000000000000000000000000000000000000000000000000000000000000000000000000000001707202000000000    00000000000000000000000                              75600000000000000000000       
7560001300083T 0204609000000000793400001115601201014     126290000000000022112020000000000006500756046090ENILZA DE SOUZA DO CARMO 091000039221571220SALUTE                                  000000000000000000000015500000000A4                 
7560001300084U 020000000000000000000000000000000000000000000000000000000000000000000000000000000000000000000000000000000000000000000000001707202000000000    00000000000000000000000                              75600000000000000000000       
7560001300085T 0204609000000000793400001115602001014     132870000000000022122020000000000006500756046090ENILZA DE SOUZA DO CARMO 091000039221571220SALUTE                                  000000000000000000000015500000000A4                 
7560001300086U 020000000000000000000000000000000000000000000000000000000000000000000000000000000000000000000000000000000000000000000000001707202000000000    00000000000000000000000                              75600000000000000000000       
7560001300087T 0204609000000000793400001115603701014     139390000000000022012021000000000006500756046090ENILZA DE SOUZA DO CARMO 091000039221571220SALUTE                                  000000000000000000000015500000000A4                 
7560001300088U 020000000000000000000000000000000000000000000000000000000000000000000000000000000000000000000000000000000000000000000000001707202000000000    00000000000000000000000                              75600000000000000000000       
7560001300089T 0204609000000000793400001115604401014     145930000000000022022021000000000006500756046090ENILZA DE SOUZA DO CARMO 091000039221571220SALUTE                                  000000000000000000000015500000000A4                 
7560001300090U 020000000000000000000000000000000000000000000000000000000000000000000000000000000000000000000000000000000000000000000000001707202000000000    00000000000000000000000                              75600000000000000000000       
7560001300091T 0204609000000000793400001115605101014     152450000000000022032021000000000006500756046090ENILZA DE SOUZA DO CARMO 091000039221571220SALUTE                                  000000000000000000000015500000000A4                 
7560001300092U 020000000000000000000000000000000000000000000000000000000000000000000000000000000000000000000000000000000000000000000000001707202000000000    00000000000000000000000                              75600000000000000000000       
7560001300093T 0204609000000000793400001115606901014     158970000000000022042021000000000006500756046090ENILZA DE SOUZA DO CARMO 091000039221571220SALUTE                                  000000000000000000000015500000000A4                 
7560001300094U 020000000000000000000000000000000000000000000000000000000000000000000000000000000000000000000000000000000000000000000000001707202000000000    00000000000000000000000                              75600000000000000000000       
7560001300095T 0204609000000000793400001115611601014     167900000000000024082020000000000006500756046090MARIA GIRLENE FERREIRA DO091000053366085215SALUTE                                  000000000000000000000015500000000A4                 
7560001300096U 020000000000000000000000000000000000000000000000000000000000000000000000000000000000000000000000000000000000000000000000001707202000000000    00000000000000000000000                              75600000000000000000000       
7560001300097T 0204609000000000793400001115612301014     113290000000000024092020000000000006500756046090MARIA GIRLENE FERREIRA DO091000053366085215SALUTE                                  000000000000000000000015500000000A4                 
7560001300098U 020000000000000000000000000000000000000000000000000000000000000000000000000000000000000000000000000000000000000000000000001707202000000000    00000000000000000000000                              75600000000000000000000       
7560001300099T 0204609000000000793400001115613001014     119850000000000024102020000000000006500756046090MARIA GIRLENE FERREIRA DO091000053366085215SALUTE                                  000000000000000000000015500000000A4                 
7560001300100U 020000000000000000000000000000000000000000000000000000000000000000000000000000000000000000000000000000000000000000000000001707202000000000    00000000000000000000000                              75600000000000000000000       
7560001300101T 0204609000000000793400001115614801014     126370000000000024112020000000000006500756046090MARIA GIRLENE FERREIRA DO091000053366085215SALUTE                                  000000000000000000000015500000000A4                 
7560001300102U 020000000000000000000000000000000000000000000000000000000000000000000000000000000000000000000000000000000000000000000000001707202000000000    00000000000000000000000                              75600000000000000000000       
7560001300103T 0204609000000000793400001115615501014     132930000000000024122020000000000006500756046090MARIA GIRLENE FERREIRA DO091000053366085215SALUTE                                  000000000000000000000015500000000A4                 
7560001300104U 020000000000000000000000000000000000000000000000000000000000000000000000000000000000000000000000000000000000000000000000001707202000000000    00000000000000000000000                              75600000000000000000000       
7560001300105T 0204609000000000793400001115616201014     139450000000000024012021000000000006500756046090MARIA GIRLENE FERREIRA DO091000053366085215SALUTE                                  000000000000000000000015500000000A4                 
7560001300106U 020000000000000000000000000000000000000000000000000000000000000000000000000000000000000000000000000000000000000000000000001707202000000000    00000000000000000000000                              75600000000000000000000       
7560001300107T 0204609000000000793400001115617001014     146010000000000024022021000000000006500756046090MARIA GIRLENE FERREIRA DO091000053366085215SALUTE                                  000000000000000000000015500000000A4                 
7560001300108U 020000000000000000000000000000000000000000000000000000000000000000000000000000000000000000000000000000000000000000000000001707202000000000    00000000000000000000000                              75600000000000000000000       
7560001300109T 0204609000000000793400001115618701014     152530000000000024032021000000000006500756046090MARIA GIRLENE FERREIRA DO091000053366085215SALUTE                                  000000000000000000000015500000000A4                 
7560001300110U 020000000000000000000000000000000000000000000000000000000000000000000000000000000000000000000000000000000000000000000000001707202000000000    00000000000000000000000                              75600000000000000000000       
7560001300111T 0204609000000000793400001115619401014     159070000000000024042021000000000006500756046090MARIA GIRLENE FERREIRA DO091000053366085215SALUTE                                  000000000000000000000015500000000A4                 
7560001300112U 020000000000000000000000000000000000000000000000000000000000000000000000000000000000000000000000000000000000000000000000001707202000000000    00000000000000000000000                              75600000000000000000000       
7560001300113T 0204609000000000793400001115623401014     133000000000000024072020000000000006500756046090VIVALDO PEREIRA DE ANDRAD091000012237132291SALUTE                                  000000000000000000000015500000000A4                 
7560001300114U 020000000000000000000000000000000000000000000000000000000000000000000000000000000000000000000000000000000000000000000000001707202000000000    00000000000000000000000                              75600000000000000000000       
7560001300115T 0204609000000000793400001115624101014     167700000000000024082020000000000006500756046090VIVALDO PEREIRA DE ANDRAD091000012237132291SALUTE                                  000000000000000000000015500000000A4                 
7560001300116U 020000000000000000000000000000000000000000000000000000000000000000000000000000000000000000000000000000000000000000000000001707202000000000    00000000000000000000000                              75600000000000000000000       
7560001300117T 0204609000000000793400001115625901014     113310000000000024092020000000000006500756046090VIVALDO PEREIRA DE ANDRAD091000012237132291SALUTE                                  000000000000000000000015500000000A4                 
7560001300118U 020000000000000000000000000000000000000000000000000000000000000000000000000000000000000000000000000000000000000000000000001707202000000000    00000000000000000000000                              75600000000000000000000       
7560001300119T 0204609000000000793400001115626601014     119830000000000024102020000000000006500756046090VIVALDO PEREIRA DE ANDRAD091000012237132291SALUTE                                  000000000000000000000015500000000A4                 
7560001300120U 020000000000000000000000000000000000000000000000000000000000000000000000000000000000000000000000000000000000000000000000001707202000000000    00000000000000000000000                              75600000000000000000000       
7560001300121T 0204609000000000793400001115627301014     126390000000000024112020000000000006500756046090VIVALDO PEREIRA DE ANDRAD091000012237132291SALUTE                                  000000000000000000000015500000000A4                 
7560001300122U 020000000000000000000000000000000000000000000000000000000000000000000000000000000000000000000000000000000000000000000000001707202000000000    00000000000000000000000                              75600000000000000000000       
7560001300123T 0204609000000000793400001115628001014     132910000000000024122020000000000006500756046090VIVALDO PEREIRA DE ANDRAD091000012237132291SALUTE                                  000000000000000000000015500000000A4                 
7560001300124U 020000000000000000000000000000000000000000000000000000000000000000000000000000000000000000000000000000000000000000000000001707202000000000    00000000000000000000000                              75600000000000000000000       
7560001300125T 0204609000000000793400001115629801014     139470000000000024012021000000000006500756046090VIVALDO PEREIRA DE ANDRAD091000012237132291SALUTE                                  000000000000000000000015500000000A4                 
7560001300126U 020000000000000000000000000000000000000000000000000000000000000000000000000000000000000000000000000000000000000000000000001707202000000000    00000000000000000000000                              75600000000000000000000       
7560001300127T 0204609000000000793400001115630601014     145990000000000024022021000000000006500756046090VIVALDO PEREIRA DE ANDRAD091000012237132291SALUTE                                  000000000000000000000015500000000A4                 
7560001300128U 020000000000000000000000000000000000000000000000000000000000000000000000000000000000000000000000000000000000000000000000001707202000000000    00000000000000000000000                              75600000000000000000000       
7560001300129T 0204609000000000793400001115631301014     152550000000000024032021000000000006500756046090VIVALDO PEREIRA DE ANDRAD091000012237132291SALUTE                                  000000000000000000000015500000000A4                 
7560001300130U 020000000000000000000000000000000000000000000000000000000000000000000000000000000000000000000000000000000000000000000000001707202000000000    00000000000000000000000                              75600000000000000000000       
7560001300131T 0204609000000000793400001115632001014     159050000000000024042021000000000006500756046090VIVALDO PEREIRA DE ANDRAD091000012237132291SALUTE                                  000000000000000000000015500000000A4                 
7560001300132U 020000000000000000000000000000000000000000000000000000000000000000000000000000000000000000000000000000000000000000000000001707202000000000    00000000000000000000000                              75600000000000000000000       
7560001300133T 0204609000000000793400001115636001014     123500000000000006082020000000000006500756046090ZEZITO VIEIRA LIMA       091000008233209520SALUTE                                  000000000000000000000015500000000A4                 
7560001300134U 020000000000000000000000000000000000000000000000000000000000000000000000000000000000000000000000000000000000000000000000001707202000000000    00000000000000000000000                              75600000000000000000000       
7560001300135T 0204609000000000793400001115637701014     188500000000000006092020000000000006500756046090ZEZITO VIEIRA LIMA       091000008233209520SALUTE                                  000000000000000000000015500000000A4                 
7560001300136U 020000000000000000000000000000000000000000000000000000000000000000000000000000000000000000000000000000000000000000000000001707202000000000    00000000000000000000000                              75600000000000000000000       
7560001300137T 0204609000000000793400001115638401014     115370000000000006102020000000000006500756046090ZEZITO VIEIRA LIMA       091000008233209520SALUTE                                  000000000000000000000015500000000A4                 
7560001300138U 020000000000000000000000000000000000000000000000000000000000000000000000000000000000000000000000000000000000000000000000001707202000000000    00000000000000000000000                              75600000000000000000000       
7560001300139T 0204609000000000793400001115639101014     121910000000000006112020000000000006500756046090ZEZITO VIEIRA LIMA       091000008233209520SALUTE                                  000000000000000000000015500000000A4                 
7560001300140U 020000000000000000000000000000000000000000000000000000000000000000000000000000000000000000000000000000000000000000000000001707202000000000    00000000000000000000000                              75600000000000000000000       
7560001300141T 0204609000000000793400001115640001014     128450000000000006122020000000000006500756046090ZEZITO VIEIRA LIMA       091000008233209520SALUTE                                  000000000000000000000015500000000A4                 
7560001300142U 020000000000000000000000000000000000000000000000000000000000000000000000000000000000000000000000000000000000000000000000001707202000000000    00000000000000000000000                              75600000000000000000000       
7560001300143T 0204609000000000793400001115641701014     134990000000000006012021000000000006500756046090ZEZITO VIEIRA LIMA       091000008233209520SALUTE                                  000000000000000000000015500000000A4                 
7560001300144U 020000000000000000000000000000000000000000000000000000000000000000000000000000000000000000000000000000000000000000000000001707202000000000    00000000000000000000000                              75600000000000000000000       
7560001300145T 0204609000000000793400001115642401014     141530000000000006022021000000000006500756046090ZEZITO VIEIRA LIMA       091000008233209520SALUTE                                  000000000000000000000015500000000A4                 
7560001300146U 020000000000000000000000000000000000000000000000000000000000000000000000000000000000000000000000000000000000000000000000001707202000000000    00000000000000000000000                              75600000000000000000000       
7560001300147T 0204609000000000793400001115643101014     148070000000000006032021000000000006500756046090ZEZITO VIEIRA LIMA       091000008233209520SALUTE                                  000000000000000000000015500000000A4                 
7560001300148U 020000000000000000000000000000000000000000000000000000000000000000000000000000000000000000000000000000000000000000000000001707202000000000    00000000000000000000000                              75600000000000000000000       
7560001300149T 0204609000000000793400001115644901014     154610000000000006042021000000000006500756046090ZEZITO VIEIRA LIMA       091000008233209520SALUTE                                  000000000000000000000015500000000A4                 
7560001300150U 020000000000000000000000000000000000000000000000000000000000000000000000000000000000000000000000000000000000000000000000001707202000000000    00000000000000000000000                              75600000000000000000000       
7560001300151T 0204609000000000793400001115645601014     161130000000000006052021000000000006500756046090ZEZITO VIEIRA LIMA       091000008233209520SALUTE                                  000000000000000000000015500000000A4                 
7560001300152U 020000000000000000000000000000000000000000000000000000000000000000000000000000000000000000000000000000000000000000000000001707202000000000    00000000000000000000000                              75600000000000000000000       
7560001300153T 0204609000000000793400001115648801014     193000000000000029072020000000000006500756046090CRISTIANO LOPES PEIXOTO J091000002342989288SALUTE                                  000000000000000000000015500000000A4                 
7560001300154U 020000000000000000000000000000000000000000000000000000000000000000000000000000000000000000000000000000000000000000000000001707202000000000    00000000000000000000000                              75600000000000000000000       
7560001300155T 0204609000000000793400001115649501014     175100000000000029082020000000000006500756046090CRISTIANO LOPES PEIXOTO J091000002342989288SALUTE                                  000000000000000000000015500000000A4                 
7560001300156U 020000000000000000000000000000000000000000000000000000000000000000000000000000000000000000000000000000000000000000000000001707202000000000    00000000000000000000000                              75600000000000000000000       
7560001300157T 0204609000000000793400001115650301014     113970000000000029092020000000000006500756046090CRISTIANO LOPES PEIXOTO J091000002342989288SALUTE                                  000000000000000000000015500000000A4                 
7560001300158U 020000000000000000000000000000000000000000000000000000000000000000000000000000000000000000000000000000000000000000000000001707202000000000    00000000000000000000000                              75600000000000000000000       
7560001300159T 0204609000000000793400001115651001014     120410000000000029102020000000000006500756046090CRISTIANO LOPES PEIXOTO J091000002342989288SALUTE                                  000000000000000000000015500000000A4                 
7560001300160U 020000000000000000000000000000000000000000000000000000000000000000000000000000000000000000000000000000000000000000000000001707202000000000    00000000000000000000000                              75600000000000000000000       
7560001300161T 0204609000000000793400001115652801014     127050000000000029112020000000000006500756046090CRISTIANO LOPES PEIXOTO J091000002342989288SALUTE                                  000000000000000000000015500000000A4                 
7560001300162U 020000000000000000000000000000000000000000000000000000000000000000000000000000000000000000000000000000000000000000000000001707202000000000    00000000000000000000000                              75600000000000000000000       
7560001300163T 0204609000000000793400001115653501014     133570000000000029122020000000000006500756046090CRISTIANO LOPES PEIXOTO J091000002342989288SALUTE                                  000000000000000000000015500000000A4                 
7560001300164U 020000000000000000000000000000000000000000000000000000000000000000000000000000000000000000000000000000000000000000000000001707202000000000    00000000000000000000000                              75600000000000000000000       
7560001300165T 0204609000000000793400001115654201014     140190000000000029012021000000000006500756046090CRISTIANO LOPES PEIXOTO J091000002342989288SALUTE                                  000000000000000000000015500000000A4                 
7560001300166U 020000000000000000000000000000000000000000000000000000000000000000000000000000000000000000000000000000000000000000000000001707202000000000    00000000000000000000000                              75600000000000000000000       
7560001300167T 0204609000000000793400001115655001014     146550000000000028022021000000000006500756046090CRISTIANO LOPES PEIXOTO J091000002342989288SALUTE                                  000000000000000000000015500000000A4                 
7560001300168U 020000000000000000000000000000000000000000000000000000000000000000000000000000000000000000000000000000000000000000000000001707202000000000    00000000000000000000000                              75600000000000000000000       
7560001300169T 0204609000000000793400001115656701014     153170000000000029032021000000000006500756046090CRISTIANO LOPES PEIXOTO J091000002342989288SALUTE                                  000000000000000000000015500000000A4                 
7560001300170U 020000000000000000000000000000000000000000000000000000000000000000000000000000000000000000000000000000000000000000000000001707202000000000    00000000000000000000000                              75600000000000000000000       
7560001300171T 0204609000000000793400001115657401014     159710000000000029042021000000000006500756046090CRISTIANO LOPES PEIXOTO J091000002342989288SALUTE                                  000000000000000000000015500000000A4                 
7560001300172U 020000000000000000000000000000000000000000000000000000000000000000000000000000000000000000000000000000000000000000000000001707202000000000    00000000000000000000000                              75600000000000000000000       
7560001300173T 0204609000000000793400001115658101014     165990000000000029052021000000000006500756046090CRISTIANO LOPES PEIXOTO J091000002342989288SALUTE                                  000000000000000000000015500000000A4                 
7560001300174U 020000000000000000000000000000000000000000000000000000000000000000000000000000000000000000000000000000000000000000000000001707202000000000    00000000000000000000000                              75600000000000000000000       
7560001300175T 0204609000000000793400001115661401014     148150000000000008032021000000000006500756046090ANGELUS DE SOUZA RIBEIRO 091000052050432291SALUTE                                  000000000000000000000015500000000A4                 
7560001300176U 020000000000000000000000000000000000000000000000000000000000000000000000000000000000000000000000000000000000000000000000001707202000000000    00000000000000000000000                              75600000000000000000000       
7560001300177T 0204609000000000793400001115663901014     124700000000000008082020000000000006500756046090ANGELUS DE SOUZA RIBEIRO 091000052050432291SALUTE                                  000000000000000000000015500000000A4                 
7560001300178U 020000000000000000000000000000000000000000000000000000000000000000000000000000000000000000000000000000000000000000000000001707202000000000    00000000000000000000000                              75600000000000000000000       
7560001300179T 0204609000000000793400001115664601014     189100000000000008092020000000000006500756046090ANGELUS DE SOUZA RIBEIRO 091000052050432291SALUTE                                  000000000000000000000015500000000A4                 
7560001300180U 020000000000000000000000000000000000000000000000000000000000000000000000000000000000000000000000000000000000000000000000001707202000000000    00000000000000000000000                              75600000000000000000000       
7560001300181T 0204609000000000793400001115665301014     115410000000000008102020000000000006500756046090ANGELUS DE SOUZA RIBEIRO 091000052050432291SALUTE                                  000000000000000000000015500000000A4                 
7560001300182U 020000000000000000000000000000000000000000000000000000000000000000000000000000000000000000000000000000000000000000000000001707202000000000    00000000000000000000000                              75600000000000000000000       
7560001300183T 0204609000000000793400001115666001014     121990000000000008112020000000000006500756046090ANGELUS DE SOUZA RIBEIRO 091000052050432291SALUTE                                  000000000000000000000015500000000A4                 
7560001300184U 020000000000000000000000000000000000000000000000000000000000000000000000000000000000000000000000000000000000000000000000001707202000000000    00000000000000000000000                              75600000000000000000000       
7560001300185T 0204609000000000793400001115667801014     128510000000000008122020000000000006500756046090ANGELUS DE SOUZA RIBEIRO 091000052050432291SALUTE                                  000000000000000000000015500000000A4                 
7560001300186U 020000000000000000000000000000000000000000000000000000000000000000000000000000000000000000000000000000000000000000000000001707202000000000    00000000000000000000000                              75600000000000000000000       
7560001300187T 0204609000000000793400001115668501014     135010000000000008012021000000000006500756046090ANGELUS DE SOUZA RIBEIRO 091000052050432291SALUTE                                  000000000000000000000015500000000A4                 
7560001300188U 020000000000000000000000000000000000000000000000000000000000000000000000000000000000000000000000000000000000000000000000001707202000000000    00000000000000000000000                              75600000000000000000000       
7560001300189T 0204609000000000793400001115669201014     141570000000000008022021000000000006500756046090ANGELUS DE SOUZA RIBEIRO 091000052050432291SALUTE                                  000000000000000000000015500000000A4                 
7560001300190U 020000000000000000000000000000000000000000000000000000000000000000000000000000000000000000000000000000000000000000000000001707202000000000    00000000000000000000000                              75600000000000000000000       
7560001300191T 0204609000000000793400001115670001014     154630000000000008042021000000000006500756046090ANGELUS DE SOUZA RIBEIRO 091000052050432291SALUTE                                  000000000000000000000015500000000A4                 
7560001300192U 020000000000000000000000000000000000000000000000000000000000000000000000000000000000000000000000000000000000000000000000001707202000000000    00000000000000000000000                              75600000000000000000000       
7560001300193T 0204609000000000793400001115671801014     161190000000000008052021000000000006500756046090ANGELUS DE SOUZA RIBEIRO 091000052050432291SALUTE                                  000000000000000000000015500000000A4                 
7560001300194U 020000000000000000000000000000000000000000000000000000000000000000000000000000000000000000000000000000000000000000000000001707202000000000    00000000000000000000000                              75600000000000000000000       
7560001300195T 0204609000000000793400001115675701014     159100000000000011082020000000000006500756046090ROGACIANIO NOGUEIRA DA SI091000064074811200SALUTE                                  000000000000000000000015500000000A4                 
7560001300196U 020000000000000000000000000000000000000000000000000000000000000000000000000000000000000000000000000000000000000000000000001707202000000000    00000000000000000000000                              75600000000000000000000       
7560001300197T 0204609000000000793400001115676401014     112430000000000011092020000000000006500756046090ROGACIANIO NOGUEIRA DA SI091000064074811200SALUTE                                  000000000000000000000015500000000A4                 
7560001300198U 020000000000000000000000000000000000000000000000000000000000000000000000000000000000000000000000000000000000000000000000001707202000000000    00000000000000000000000                              75600000000000000000000       
7560001300199T 0204609000000000793400001115677101014     118990000000000011102020000000000006500756046090ROGACIANIO NOGUEIRA DA SI091000064074811200SALUTE                                  000000000000000000000015500000000A4                 
7560001300200U 020000000000000000000000000000000000000000000000000000000000000000000000000000000000000000000000000000000000000000000000001707202000000000    00000000000000000000000                              75600000000000000000000       
7560001300201T 0204609000000000793400001115678901014     125530000000000011112020000000000006500756046090ROGACIANIO NOGUEIRA DA SI091000064074811200SALUTE                                  000000000000000000000015500000000A4                 
7560001300202U 020000000000000000000000000000000000000000000000000000000000000000000000000000000000000000000000000000000000000000000000001707202000000000    00000000000000000000000                              75600000000000000000000       
7560001300203T 0204609000000000793400001115679601014     132050000000000011122020000000000006500756046090ROGACIANIO NOGUEIRA DA SI091000064074811200SALUTE                                  000000000000000000000015500000000A4                 
7560001300204U 020000000000000000000000000000000000000000000000000000000000000000000000000000000000000000000000000000000000000000000000001707202000000000    00000000000000000000000                              75600000000000000000000       
7560001300205T 0204609000000000793400001115680401014     138610000000000011012021000000000006500756046090ROGACIANIO NOGUEIRA DA SI091000064074811200SALUTE                                  000000000000000000000015500000000A4                 
7560001300206U 020000000000000000000000000000000000000000000000000000000000000000000000000000000000000000000000000000000000000000000000001707202000000000    00000000000000000000000                              75600000000000000000000       
7560001300207T 0204609000000000793400001115681101014     145130000000000011022021000000000006500756046090ROGACIANIO NOGUEIRA DA SI091000064074811200SALUTE                                  000000000000000000000015500000000A4                 
7560001300208U 020000000000000000000000000000000000000000000000000000000000000000000000000000000000000000000000000000000000000000000000001707202000000000    00000000000000000000000                              75600000000000000000000       
7560001300209T 0204609000000000793400001115682901014     151690000000000011032021000000000006500756046090ROGACIANIO NOGUEIRA DA SI091000064074811200SALUTE                                  000000000000000000000015500000000A4                 
7560001300210U 020000000000000000000000000000000000000000000000000000000000000000000000000000000000000000000000000000000000000000000000001707202000000000    00000000000000000000000                              75600000000000000000000       
7560001300211T 0204609000000000793400001115683601014     158230000000000011042021000000000006500756046090ROGACIANIO NOGUEIRA DA SI091000064074811200SALUTE                                  000000000000000000000015500000000A4                 
7560001300212U 020000000000000000000000000000000000000000000000000000000000000000000000000000000000000000000000000000000000000000000000001707202000000000    00000000000000000000000                              75600000000000000000000       
7560001300213T 0204609000000000793400001115684301014     164710000000000011052021000000000006500756046090ROGACIANIO NOGUEIRA DA SI091000064074811200SALUTE                                  000000000000000000000015500000000A4                 
7560001300214U 020000000000000000000000000000000000000000000000000000000000000000000000000000000000000000000000000000000000000000000000001707202000000000    00000000000000000000000                              75600000000000000000000       
7560001300215T 0204609000000000793400001115688201014     159300000000000011082020000000000006500756046090ANA PAULA FERNANDES PRADO091000000759497257SALUTE                                  000000000000000000000015500000000A4                 
7560001300216U 020000000000000000000000000000000000000000000000000000000000000000000000000000000000000000000000000000000000000000000000001707202000000000    00000000000000000000000                              75600000000000000000000       
7560001300217T 0204609000000000793400001115689001014     112450000000000011092020000000000006500756046090ANA PAULA FERNANDES PRADO091000000759497257SALUTE                                  000000000000000000000015500000000A4                 
7560001300218U 020000000000000000000000000000000000000000000000000000000000000000000000000000000000000000000000000000000000000000000000001707202000000000    00000000000000000000000                              75600000000000000000000       
7560001300219T 0204609000000000793400001115690801014     118970000000000011102020000000000006500756046090ANA PAULA FERNANDES PRADO091000000759497257SALUTE                                  000000000000000000000015500000000A4                 
7560001300220U 020000000000000000000000000000000000000000000000000000000000000000000000000000000000000000000000000000000000000000000000001707202000000000    00000000000000000000000                              75600000000000000000000       
7560001300221T 0204609000000000793400001115691501014     125510000000000011112020000000000006500756046090ANA PAULA FERNANDES PRADO091000000759497257SALUTE                                  000000000000000000000015500000000A4                 
7560001300222U 020000000000000000000000000000000000000000000000000000000000000000000000000000000000000000000000000000000000000000000000001707202000000000    00000000000000000000000                              75600000000000000000000       
7560001300223T 0204609000000000793400001115692201014     132070000000000011122020000000000006500756046090ANA PAULA FERNANDES PRADO091000000759497257SALUTE                                  000000000000000000000015500000000A4                 
7560001300224U 020000000000000000000000000000000000000000000000000000000000000000000000000000000000000000000000000000000000000000000000001707202000000000    00000000000000000000000                              75600000000000000000000       
7560001300225T 0204609000000000793400001115693001014     138590000000000011012021000000000006500756046090ANA PAULA FERNANDES PRADO091000000759497257SALUTE                                  000000000000000000000015500000000A4                 
7560001300226U 020000000000000000000000000000000000000000000000000000000000000000000000000000000000000000000000000000000000000000000000001707202000000000    00000000000000000000000                              75600000000000000000000       
7560001300227T 0204609000000000793400001115694701014     145150000000000011022021000000000006500756046090ANA PAULA FERNANDES PRADO091000000759497257SALUTE                                  000000000000000000000015500000000A4                 
7560001300228U 020000000000000000000000000000000000000000000000000000000000000000000000000000000000000000000000000000000000000000000000001707202000000000    00000000000000000000000                              75600000000000000000000       
7560001300229T 0204609000000000793400001115695401014     151670000000000011032021000000000006500756046090ANA PAULA FERNANDES PRADO091000000759497257SALUTE                                  000000000000000000000015500000000A4                 
7560001300230U 020000000000000000000000000000000000000000000000000000000000000000000000000000000000000000000000000000000000000000000000001707202000000000    00000000000000000000000                              75600000000000000000000       
7560001300231T 0204609000000000793400001115696101014     158210000000000011042021000000000006500756046090ANA PAULA FERNANDES PRADO091000000759497257SALUTE                                  000000000000000000000015500000000A4                 
7560001300232U 020000000000000000000000000000000000000000000000000000000000000000000000000000000000000000000000000000000000000000000000001707202000000000    00000000000000000000000                              75600000000000000000000       
7560001300233T 0204609000000000793400001115697901014     164690000000000011052021000000000006500756046090ANA PAULA FERNANDES PRADO091000000759497257SALUTE                                  000000000000000000000015500000000A4                 
7560001300234U 020000000000000000000000000000000000000000000000000000000000000000000000000000000000000000000000000000000000000000000000001707202000000000    00000000000000000000000                              75600000000000000000000       
7560001300235T 0204609000000000793400001115700701014     132130000000000012122020000000000006500756046090PUBLIO THALES MACEDO DUTR091000025577336287SALUTE                                  000000000000000000000015500000000A4                 
7560001300236U 020000000000000000000000000000000000000000000000000000000000000000000000000000000000000000000000000000000000000000000000001707202000000000    00000000000000000000000                              75600000000000000000000       
7560001300237T 0204609000000000793400001115702101014     161100000000000012082020000000000006500756046090PUBLIO THALES MACEDO DUTR091000025577336287SALUTE                                  000000000000000000000015500000000A4                 
7560001300238U 020000000000000000000000000000000000000000000000000000000000000000000000000000000000000000000000000000000000000000000000001707202000000000    00000000000000000000000                              75600000000000000000000       
7560001300239T 0204609000000000793400001115703901014     112510000000000012092020000000000006500756046090PUBLIO THALES MACEDO DUTR091000025577336287SALUTE                                  000000000000000000000015500000000A4                 
7560001300240U 020000000000000000000000000000000000000000000000000000000000000000000000000000000000000000000000000000000000000000000000001707202000000000    00000000000000000000000                              75600000000000000000000       
7560001300241T 0204609000000000793400001115704601014     119070000000000012102020000000000006500756046090PUBLIO THALES MACEDO DUTR091000025577336287SALUTE                                  000000000000000000000015500000000A4                 
7560001300242U 020000000000000000000000000000000000000000000000000000000000000000000000000000000000000000000000000000000000000000000000001707202000000000    00000000000000000000000                              75600000000000000000000       
7560001300243T 0204609000000000793400001115705301014     125670000000000012112020000000000006500756046090PUBLIO THALES MACEDO DUTR091000025577336287SALUTE                                  000000000000000000000015500000000A4                 
7560001300244U 020000000000000000000000000000000000000000000000000000000000000000000000000000000000000000000000000000000000000000000000001707202000000000    00000000000000000000000                              75600000000000000000000       
7560001300245T 0204609000000000793400001115706001014     151770000000000012032021000000000006500756046090PUBLIO THALES MACEDO DUTR091000025577336287SALUTE                                  000000000000000000000015500000000A4                 
7560001300246U 020000000000000000000000000000000000000000000000000000000000000000000000000000000000000000000000000000000000000000000000001707202000000000    00000000000000000000000                              75600000000000000000000       
7560001300247T 0204609000000000793400001115707801014     138690000000000012012021000000000006500756046090PUBLIO THALES MACEDO DUTR091000025577336287SALUTE                                  000000000000000000000015500000000A4                 
7560001300248U 020000000000000000000000000000000000000000000000000000000000000000000000000000000000000000000000000000000000000000000000001707202000000000    00000000000000000000000                              75600000000000000000000       
7560001300249T 0204609000000000793400001115708501014     145370000000000012022021000000000006500756046090PUBLIO THALES MACEDO DUTR091000025577336287SALUTE                                  000000000000000000000015500000000A4                 
7560001300250U 020000000000000000000000000000000000000000000000000000000000000000000000000000000000000000000000000000000000000000000000001707202000000000    00000000000000000000000                              75600000000000000000000       
7560001300251T 0204609000000000793400001115709201014     164850000000000012052021000000000006500756046090PUBLIO THALES MACEDO DUTR091000025577336287SALUTE                                  000000000000000000000015500000000A4                 
7560001300252U 020000000000000000000000000000000000000000000000000000000000000000000000000000000000000000000000000000000000000000000000001707202000000000    00000000000000000000000                              75600000000000000000000       
7560001300253T 0204609000000000793400001115710001014     158270000000000012042021000000000006500756046090PUBLIO THALES MACEDO DUTR091000025577336287SALUTE                                  000000000000000000000015500000000A4                 
7560001300254U 020000000000000000000000000000000000000000000000000000000000000000000000000000000000000000000000000000000000000000000000001707202000000000    00000000000000000000000                              75600000000000000000000       
7560001300255T 0204609000000000793400001115715701014     161300000000000012082020000000000007000756046090ANTONIA APARECIDA DE JESU091000001447329201SALUTE                                  000000000000000000000015500000000A4                 
7560001300256U 020000000000000000000000000000000000000000000000000000000000000000000000000000000000000000000000000000000000000000000000001707202000000000    00000000000000000000000                              75600000000000000000000       
7560001300257T 0204609000000000793400001115716401014     112630000000000012092020000000000007000756046090ANTONIA APARECIDA DE JESU091000001447329201SALUTE                                  000000000000000000000015500000000A4                 
7560001300258U 020000000000000000000000000000000000000000000000000000000000000000000000000000000000000000000000000000000000000000000000001707202000000000    00000000000000000000000                              75600000000000000000000       
7560001300259T 0204609000000000793400001115717101014     119110000000000012102020000000000007000756046090ANTONIA APARECIDA DE JESU091000001447329201SALUTE                                  000000000000000000000015500000000A4                 
7560001300260U 020000000000000000000000000000000000000000000000000000000000000000000000000000000000000000000000000000000000000000000000001707202000000000    00000000000000000000000                              75600000000000000000000       
7560001300261T 0204609000000000793400001115718901014     125550000000000012112020000000000007000756046090ANTONIA APARECIDA DE JESU091000001447329201SALUTE                                  000000000000000000000015500000000A4                 
7560001300262U 020000000000000000000000000000000000000000000000000000000000000000000000000000000000000000000000000000000000000000000000001707202000000000    00000000000000000000000                              75600000000000000000000       
7560001300263T 0204609000000000793400001115719601014     132150000000000012122020000000000007000756046090ANTONIA APARECIDA DE JESU091000001447329201SALUTE                                  000000000000000000000015500000000A4                 
7560001300264U 020000000000000000000000000000000000000000000000000000000000000000000000000000000000000000000000000000000000000000000000001707202000000000    00000000000000000000000                              75600000000000000000000       
7560001300265T 0204609000000000793400001115720401014     138650000000000012012021000000000007000756046090ANTONIA APARECIDA DE JESU091000001447329201SALUTE                                  000000000000000000000015500000000A4                 
7560001300266U 020000000000000000000000000000000000000000000000000000000000000000000000000000000000000000000000000000000000000000000000001707202000000000    00000000000000000000000                              75600000000000000000000       
7560001300267T 0204609000000000793400001115721101014     145330000000000012022021000000000007000756046090ANTONIA APARECIDA DE JESU091000001447329201SALUTE                                  000000000000000000000015500000000A4                 
7560001300268U 020000000000000000000000000000000000000000000000000000000000000000000000000000000000000000000000000000000000000000000000001707202000000000    00000000000000000000000                              75600000000000000000000       
7560001300269T 0204609000000000793400001115722901014     151830000000000012032021000000000007000756046090ANTONIA APARECIDA DE JESU091000001447329201SALUTE                                  000000000000000000000015500000000A4                 
7560001300270U 020000000000000000000000000000000000000000000000000000000000000000000000000000000000000000000000000000000000000000000000001707202000000000    00000000000000000000000                              75600000000000000000000       
7560001300271T 0204609000000000793400001115723601014     158350000000000012042021000000000007000756046090ANTONIA APARECIDA DE JESU091000001447329201SALUTE                                  000000000000000000000015500000000A4                 
7560001300272U 020000000000000000000000000000000000000000000000000000000000000000000000000000000000000000000000000000000000000000000000001707202000000000    00000000000000000000000                              75600000000000000000000       
7560001300273T 0204609000000000793400001115724301014     164950000000000012052021000000000007000756046090ANTONIA APARECIDA DE JESU091000001447329201SALUTE                                  000000000000000000000015500000000A4                 
7560001300274U 020000000000000000000000000000000000000000000000000000000000000000000000000000000000000000000000000000000000000000000000001707202000000000    00000000000000000000000                              75600000000000000000000       
7560001300275T 0204609000000000793400001115730801014     159900000000000012082020000000000006500756046090LUIS JOAQUIM DE SOUSA    091000028676157391SALUTE                                  000000000000000000000015500000000A4                 
7560001300276U 020000000000000000000000000000000000000000000000000000000000000000000000000000000000000000000000000000000000000000000000001707202000000000    00000000000000000000000                              75600000000000000000000       
7560001300277T 0204609000000000793400001115731501014     112470000000000012092020000000000006500756046090LUIS JOAQUIM DE SOUSA    091000028676157391SALUTE                                  000000000000000000000015500000000A4                 
7560001300278U 020000000000000000000000000000000000000000000000000000000000000000000000000000000000000000000000000000000000000000000000001707202000000000    00000000000000000000000                              75600000000000000000000       
7560001300279T 0204609000000000793400001115732201014     119090000000000012102020000000000006500756046090LUIS JOAQUIM DE SOUSA    091000028676157391SALUTE                                  000000000000000000000015500000000A4                 
7560001300280U 020000000000000000000000000000000000000000000000000000000000000000000000000000000000000000000000000000000000000000000000001707202000000000    00000000000000000000000                              75600000000000000000000       
7560001300281T 0204609000000000793400001115733001014     125690000000000012112020000000000006500756046090LUIS JOAQUIM DE SOUSA    091000028676157391SALUTE                                  000000000000000000000015500000000A4                 
7560001300282U 020000000000000000000000000000000000000000000000000000000000000000000000000000000000000000000000000000000000000000000000001707202000000000    00000000000000000000000                              75600000000000000000000       
7560001300283T 0204609000000000793400001115734701014     132110000000000012122020000000000006500756046090LUIS JOAQUIM DE SOUSA    091000028676157391SALUTE                                  000000000000000000000015500000000A4                 
7560001300284U 020000000000000000000000000000000000000000000000000000000000000000000000000000000000000000000000000000000000000000000000001707202000000000    00000000000000000000000                              75600000000000000000000       
7560001300285T 0204609000000000793400001115735401014     138710000000000012012021000000000006500756046090LUIS JOAQUIM DE SOUSA    091000028676157391SALUTE                                  000000000000000000000015500000000A4                 
7560001300286U 020000000000000000000000000000000000000000000000000000000000000000000000000000000000000000000000000000000000000000000000001707202000000000    00000000000000000000000                              75600000000000000000000       
7560001300287T 0204609000000000793400001115736101014     145290000000000012022021000000000006500756046090LUIS JOAQUIM DE SOUSA    091000028676157391SALUTE                                  000000000000000000000015500000000A4                 
7560001300288U 020000000000000000000000000000000000000000000000000000000000000000000000000000000000000000000000000000000000000000000000001707202000000000    00000000000000000000000                              75600000000000000000000       
7560001300289T 0204609000000000793400001115737901014     151890000000000012032021000000000006500756046090LUIS JOAQUIM DE SOUSA    091000028676157391SALUTE                                  000000000000000000000015500000000A4                 
7560001300290U 020000000000000000000000000000000000000000000000000000000000000000000000000000000000000000000000000000000000000000000000001707202000000000    00000000000000000000000                              75600000000000000000000       
7560001300291T 0204609000000000793400001115738601014     158290000000000012042021000000000006500756046090LUIS JOAQUIM DE SOUSA    091000028676157391SALUTE                                  000000000000000000000015500000000A4                 
7560001300292U 020000000000000000000000000000000000000000000000000000000000000000000000000000000000000000000000000000000000000000000000001707202000000000    00000000000000000000000                              75600000000000000000000       
7560001300293T 0204609000000000793400001115739301014     164870000000000012052021000000000006500756046090LUIS JOAQUIM DE SOUSA    091000028676157391SALUTE                                  000000000000000000000015500000000A4                 
7560001300294U 020000000000000000000000000000000000000000000000000000000000000000000000000000000000000000000000000000000000000000000000001707202000000000    00000000000000000000000                              75600000000000000000000       
7560001300295T 0204609000000000793400001115743301014     160300000000000012082020000000000006750756046090PAULIANE DOS PRAZERES ROD091000002333371218SALUTE                                  000000000000000000000015500000000A4                 
7560001300296U 020000000000000000000000000000000000000000000000000000000000000000000000000000000000000000000000000000000000000000000000001707202000000000    00000000000000000000000                              75600000000000000000000       
7560001300297T 0204609000000000793400001115744001014     112610000000000012092020000000000006750756046090PAULIANE DOS PRAZERES ROD091000002333371218SALUTE                                  000000000000000000000015500000000A4                 
7560001300298U 020000000000000000000000000000000000000000000000000000000000000000000000000000000000000000000000000000000000000000000000001707202000000000    00000000000000000000000                              75600000000000000000000       
7560001300299T 0204609000000000793400001115745801014     119210000000000012102020000000000006750756046090PAULIANE DOS PRAZERES ROD091000002333371218SALUTE                                  000000000000000000000015500000000A4                 
7560001300300U 020000000000000000000000000000000000000000000000000000000000000000000000000000000000000000000000000000000000000000000000001707202000000000    00000000000000000000000                              75600000000000000000000       
7560001300301T 0204609000000000793400001115746501014     125730000000000012112020000000000006750756046090PAULIANE DOS PRAZERES ROD091000002333371218SALUTE                                  000000000000000000000015500000000A4                 
7560001300302U 020000000000000000000000000000000000000000000000000000000000000000000000000000000000000000000000000000000000000000000000001707202000000000    00000000000000000000000                              75600000000000000000000       
7560001300303T 0204609000000000793400001115747201014     132170000000000012122020000000000006750756046090PAULIANE DOS PRAZERES ROD091000002333371218SALUTE                                  000000000000000000000015500000000A4                 
7560001300304U 020000000000000000000000000000000000000000000000000000000000000000000000000000000000000000000000000000000000000000000000001707202000000000    00000000000000000000000                              75600000000000000000000       
7560001300305T 0204609000000000793400001115748001014     138770000000000012012021000000000006750756046090PAULIANE DOS PRAZERES ROD091000002333371218SALUTE                                  000000000000000000000015500000000A4                 
7560001300306U 020000000000000000000000000000000000000000000000000000000000000000000000000000000000000000000000000000000000000000000000001707202000000000    00000000000000000000000                              75600000000000000000000       
7560001300307T 0204609000000000793400001115749701014     145170000000000012022021000000000006750756046090PAULIANE DOS PRAZERES ROD091000002333371218SALUTE                                  000000000000000000000015500000000A4                 
7560001300308U 020000000000000000000000000000000000000000000000000000000000000000000000000000000000000000000000000000000000000000000000001707202000000000    00000000000000000000000                              75600000000000000000000       
7560001300309T 0204609000000000793400001115750501014     151810000000000012032021000000000006750756046090PAULIANE DOS PRAZERES ROD091000002333371218SALUTE                                  000000000000000000000015500000000A4                 
7560001300310U 020000000000000000000000000000000000000000000000000000000000000000000000000000000000000000000000000000000000000000000000001707202000000000    00000000000000000000000                              75600000000000000000000       
7560001300311T 0204609000000000793400001115751201014     158410000000000012042021000000000006750756046090PAULIANE DOS PRAZERES ROD091000002333371218SALUTE                                  000000000000000000000015500000000A4                 
7560001300312U 020000000000000000000000000000000000000000000000000000000000000000000000000000000000000000000000000000000000000000000000001707202000000000    00000000000000000000000                              75600000000000000000000       
7560001300313T 0204609000000000793400001115752001014     164810000000000012052021000000000006750756046090PAULIANE DOS PRAZERES ROD091000002333371218SALUTE                                  000000000000000000000015500000000A4                 
7560001300314U 020000000000000000000000000000000000000000000000000000000000000000000000000000000000000000000000000000000000000000000000001707202000000000    00000000000000000000000                              75600000000000000000000       
7560001300315T 0204609000000000793400001115756901014     162300000000000014082020000000000007250756046090FABRICIO PEREIRA LIMA SIL091000069526087291SALUTE                                  000000000000000000000015500000000A4                 
7560001300316U 020000000000000000000000000000000000000000000000000000000000000000000000000000000000000000000000000000000000000000000000001707202000000000    00000000000000000000000                              75600000000000000000000       
7560001300317T 0204609000000000793400001115757601014     112750000000000014092020000000000007250756046090FABRICIO PEREIRA LIMA SIL091000069526087291SALUTE                                  000000000000000000000015500000000A4                 
7560001300318U 020000000000000000000000000000000000000000000000000000000000000000000000000000000000000000000000000000000000000000000000001707202000000000    00000000000000000000000                              75600000000000000000000       
7560001300319T 0204609000000000793400001115758301014     119290000000000014102020000000000007250756046090FABRICIO PEREIRA LIMA SIL091000069526087291SALUTE                                  000000000000000000000015500000000A4                 
7560001300320U 020000000000000000000000000000000000000000000000000000000000000000000000000000000000000000000000000000000000000000000000001707202000000000    00000000000000000000000                              75600000000000000000000       
7560001300321T 0204609000000000793400001115759001014     125830000000000014112020000000000007250756046090FABRICIO PEREIRA LIMA SIL091000069526087291SALUTE                                  000000000000000000000015500000000A4                 
7560001300322U 020000000000000000000000000000000000000000000000000000000000000000000000000000000000000000000000000000000000000000000000001707202000000000    00000000000000000000000                              75600000000000000000000       
7560001300323T 0204609000000000793400001115760901014     132370000000000014122020000000000007250756046090FABRICIO PEREIRA LIMA SIL091000069526087291SALUTE                                  000000000000000000000015500000000A4                 
7560001300324U 020000000000000000000000000000000000000000000000000000000000000000000000000000000000000000000000000000000000000000000000001707202000000000    00000000000000000000000                              75600000000000000000000       
7560001300325T 0204609000000000793400001115761601014     138910000000000014012021000000000007250756046090FABRICIO PEREIRA LIMA SIL091000069526087291SALUTE                                  000000000000000000000015500000000A4                 
7560001300326U 020000000000000000000000000000000000000000000000000000000000000000000000000000000000000000000000000000000000000000000000001707202000000000    00000000000000000000000                              75600000000000000000000       
7560001300327T 0204609000000000793400001115762301014     145450000000000014022021000000000007250756046090FABRICIO PEREIRA LIMA SIL091000069526087291SALUTE                                  000000000000000000000015500000000A4                 
7560001300328U 020000000000000000000000000000000000000000000000000000000000000000000000000000000000000000000000000000000000000000000000001707202000000000    00000000000000000000000                              75600000000000000000000       
7560001300329T 0204609000000000793400001115763001014     151990000000000014032021000000000007250756046090FABRICIO PEREIRA LIMA SIL091000069526087291SALUTE                                  000000000000000000000015500000000A4                 
7560001300330U 020000000000000000000000000000000000000000000000000000000000000000000000000000000000000000000000000000000000000000000000001707202000000000    00000000000000000000000                              75600000000000000000000       
7560001300331T 0204609000000000793400001115764801014     158530000000000014042021000000000007250756046090FABRICIO PEREIRA LIMA SIL091000069526087291SALUTE                                  000000000000000000000015500000000A4                 
7560001300332U 020000000000000000000000000000000000000000000000000000000000000000000000000000000000000000000000000000000000000000000000001707202000000000    00000000000000000000000                              75600000000000000000000       
7560001300333T 0204609000000000793400001115765501014     165030000000000014052021000000000007250756046090FABRICIO PEREIRA LIMA SIL091000069526087291SALUTE                                  000000000000000000000015500000000A4                 
7560001300334U 020000000000000000000000000000000000000000000000000000000000000000000000000000000000000000000000000000000000000000000000001707202000000000    00000000000000000000000                              75600000000000000000000       
7560001300335T 0204609000000000793400001115769401014     161900000000000013082020000000000006500756046090ZACARIAS BARBOSA MONTEIRO091000070700907220SALUTE                                  000000000000000000000015500000000A4                 
7560001300336U 020000000000000000000000000000000000000000000000000000000000000000000000000000000000000000000000000000000000000000000000001707202000000000    00000000000000000000000                              75600000000000000000000       
7560001300337T 0204609000000000793400001115770201014     112690000000000013092020000000000006500756046090ZACARIAS BARBOSA MONTEIRO091000070700907220SALUTE                                  000000000000000000000015500000000A4                 
7560001300338U 020000000000000000000000000000000000000000000000000000000000000000000000000000000000000000000000000000000000000000000000001707202000000000    00000000000000000000000                              75600000000000000000000       
7560001300339T 0204609000000000793400001115771001014     119270000000000013102020000000000006500756046090ZACARIAS BARBOSA MONTEIRO091000070700907220SALUTE                                  000000000000000000000015500000000A4                 
7560001300340U 020000000000000000000000000000000000000000000000000000000000000000000000000000000000000000000000000000000000000000000000001707202000000000    00000000000000000000000                              75600000000000000000000       
7560001300341T 0204609000000000793400001115772701014     125770000000000013112020000000000006500756046090ZACARIAS BARBOSA MONTEIRO091000070700907220SALUTE                                  000000000000000000000015500000000A4                 
7560001300342U 020000000000000000000000000000000000000000000000000000000000000000000000000000000000000000000000000000000000000000000000001707202000000000    00000000000000000000000                              75600000000000000000000       
7560001300343T 0204609000000000793400001115773401014     132310000000000013122020000000000006500756046090ZACARIAS BARBOSA MONTEIRO091000070700907220SALUTE                                  000000000000000000000015500000000A4                 
7560001300344U 020000000000000000000000000000000000000000000000000000000000000000000000000000000000000000000000000000000000000000000000001707202000000000    00000000000000000000000                              75600000000000000000000       
7560001300345T 0204609000000000793400001115774101014     138890000000000013012021000000000006500756046090ZACARIAS BARBOSA MONTEIRO091000070700907220SALUTE                                  000000000000000000000015500000000A4                 
7560001300346U 020000000000000000000000000000000000000000000000000000000000000000000000000000000000000000000000000000000000000000000000001707202000000000    00000000000000000000000                              75600000000000000000000       
7560001300347T 0204609000000000793400001115775901014     145390000000000013022021000000000006500756046090ZACARIAS BARBOSA MONTEIRO091000070700907220SALUTE                                  000000000000000000000015500000000A4                 
7560001300348U 020000000000000000000000000000000000000000000000000000000000000000000000000000000000000000000000000000000000000000000000001707202000000000    00000000000000000000000                              75600000000000000000000       
7560001300349T 0204609000000000793400001115776601014     151930000000000013032021000000000006500756046090ZACARIAS BARBOSA MONTEIRO091000070700907220SALUTE                                  000000000000000000000015500000000A4                 
7560001300350U 020000000000000000000000000000000000000000000000000000000000000000000000000000000000000000000000000000000000000000000000001707202000000000    00000000000000000000000                              75600000000000000000000       
7560001300351T 0204609000000000793400001115777301014     158470000000000013042021000000000006500756046090ZACARIAS BARBOSA MONTEIRO091000070700907220SALUTE                                  000000000000000000000015500000000A4                 
7560001300352U 020000000000000000000000000000000000000000000000000000000000000000000000000000000000000000000000000000000000000000000000001707202000000000    00000000000000000000000                              75600000000000000000000       
7560001300353T 0204609000000000793400001115778001014     165010000000000013052021000000000006500756046090ZACARIAS BARBOSA MONTEIRO091000070700907220SALUTE                                  000000000000000000000015500000000A4                 
7560001300354U 020000000000000000000000000000000000000000000000000000000000000000000000000000000000000000000000000000000000000000000000001707202000000000    00000000000000000000000                              75600000000000000000000       
7560001300355T 0204609000000000793400001115781301014     112710000000000013092020000000000006500756046090ANA AMELIA AMORIM RODRIGU091000023420359268SALUTE                                  000000000000000000000015500000000A4                 
7560001300356U 020000000000000000000000000000000000000000000000000000000000000000000000000000000000000000000000000000000000000000000000001707202000000000    00000000000000000000000                              75600000000000000000000       
7560001300357T 0204609000000000793400001115783801014     161700000000000013082020000000000006500756046090ANA AMELIA AMORIM RODRIGU091000023420359268SALUTE                                  000000000000000000000015500000000A4                 
7560001300358U 020000000000000000000000000000000000000000000000000000000000000000000000000000000000000000000000000000000000000000000000001707202000000000    00000000000000000000000                              75600000000000000000000       
7560001300359T 0204609000000000793400001115784501014     119230000000000013102020000000000006500756046090ANA AMELIA AMORIM RODRIGU091000023420359268SALUTE                                  000000000000000000000015500000000A4                 
7560001300360U 020000000000000000000000000000000000000000000000000000000000000000000000000000000000000000000000000000000000000000000000001707202000000000    00000000000000000000000                              75600000000000000000000       
7560001300361T 0204609000000000793400001115785201014     151970000000000013032021000000000006500756046090ANA AMELIA AMORIM RODRIGU091000023420359268SALUTE                                  000000000000000000000015500000000A4                 
7560001300362U 020000000000000000000000000000000000000000000000000000000000000000000000000000000000000000000000000000000000000000000000001707202000000000    00000000000000000000000                              75600000000000000000000       
7560001300363T 0204609000000000793400001115786001014     125790000000000013112020000000000006500756046090ANA AMELIA AMORIM RODRIGU091000023420359268SALUTE                                  000000000000000000000015500000000A4                 
7560001300364U 020000000000000000000000000000000000000000000000000000000000000000000000000000000000000000000000000000000000000000000000001707202000000000    00000000000000000000000                              75600000000000000000000       
7560001300365T 0204609000000000793400001115787701014     132350000000000013122020000000000006500756046090ANA AMELIA AMORIM RODRIGU091000023420359268SALUTE                                  000000000000000000000015500000000A4                 
7560001300366U 020000000000000000000000000000000000000000000000000000000000000000000000000000000000000000000000000000000000000000000000001707202000000000    00000000000000000000000                              75600000000000000000000       
7560001300367T 0204609000000000793400001115788401014     138850000000000013012021000000000006500756046090ANA AMELIA AMORIM RODRIGU091000023420359268SALUTE                                  000000000000000000000015500000000A4                 
7560001300368U 020000000000000000000000000000000000000000000000000000000000000000000000000000000000000000000000000000000000000000000000001707202000000000    00000000000000000000000                              75600000000000000000000       
7560001300369T 0204609000000000793400001115789101014     145430000000000013022021000000000006500756046090ANA AMELIA AMORIM RODRIGU091000023420359268SALUTE                                  000000000000000000000015500000000A4                 
7560001300370U 020000000000000000000000000000000000000000000000000000000000000000000000000000000000000000000000000000000000000000000000001707202000000000    00000000000000000000000                              75600000000000000000000       
7560001300371T 0204609000000000793400001115790001014     164990000000000013052021000000000006500756046090ANA AMELIA AMORIM RODRIGU091000023420359268SALUTE                                  000000000000000000000015500000000A4                 
7560001300372U 020000000000000000000000000000000000000000000000000000000000000000000000000000000000000000000000000000000000000000000000001707202000000000    00000000000000000000000                              75600000000000000000000       
7560001300373T 0204609000000000793400001115791701014     158490000000000013042021000000000006500756046090ANA AMELIA AMORIM RODRIGU091000023420359268SALUTE                                  000000000000000000000015500000000A4                 
7560001300374U 020000000000000000000000000000000000000000000000000000000000000000000000000000000000000000000000000000000000000000000000001707202000000000    00000000000000000000000                              75600000000000000000000       
7560001300375T 0204609000000000793400001115795601014     162900000000000015082020000000000006500756046090KATIA SILENE DA COSTA VAL091000029642078287SALUTE                                  000000000000000000000015500000000A4                 
7560001300376U 020000000000000000000000000000000000000000000000000000000000000000000000000000000000000000000000000000000000000000000000001707202000000000    00000000000000000000000                              75600000000000000000000       
7560001300377T 0204609000000000793400001115796301014     112870000000000015092020000000000006500756046090KATIA SILENE DA COSTA VAL091000029642078287SALUTE                                  000000000000000000000015500000000A4                 
7560001300378U 020000000000000000000000000000000000000000000000000000000000000000000000000000000000000000000000000000000000000000000000001707202000000000    00000000000000000000000                              75600000000000000000000       
7560001300379T 0204609000000000793400001115797001014     119330000000000015102020000000000006500756046090KATIA SILENE DA COSTA VAL091000029642078287SALUTE                                  000000000000000000000015500000000A4                 
7560001300380U 020000000000000000000000000000000000000000000000000000000000000000000000000000000000000000000000000000000000000000000000001707202000000000    00000000000000000000000                              75600000000000000000000       
7560001300381T 0204609000000000793400001115798801014     125890000000000015112020000000000006500756046090KATIA SILENE DA COSTA VAL091000029642078287SALUTE                                  000000000000000000000015500000000A4                 
7560001300382U 020000000000000000000000000000000000000000000000000000000000000000000000000000000000000000000000000000000000000000000000001707202000000000    00000000000000000000000                              75600000000000000000000       
7560001300383T 0204609000000000793400001115799501014     132510000000000015122020000000000006500756046090KATIA SILENE DA COSTA VAL091000029642078287SALUTE                                  000000000000000000000015500000000A4                 
7560001300384U 020000000000000000000000000000000000000000000000000000000000000000000000000000000000000000000000000000000000000000000000001707202000000000    00000000000000000000000                              75600000000000000000000       
7560001300385T 0204609000000000793400001115800901014     139050000000000015012021000000000006500756046090KATIA SILENE DA COSTA VAL091000029642078287SALUTE                                  000000000000000000000015500000000A4                 
7560001300386U 020000000000000000000000000000000000000000000000000000000000000000000000000000000000000000000000000000000000000000000000001707202000000000    00000000000000000000000                              75600000000000000000000       
7560001300387T 0204609000000000793400001115801601014     145530000000000015022021000000000006500756046090KATIA SILENE DA COSTA VAL091000029642078287SALUTE                                  000000000000000000000015500000000A4                 
7560001300388U 020000000000000000000000000000000000000000000000000000000000000000000000000000000000000000000000000000000000000000000000001707202000000000    00000000000000000000000                              75600000000000000000000       
7560001300389T 0204609000000000793400001115802301014     152090000000000015032021000000000006500756046090KATIA SILENE DA COSTA VAL091000029642078287SALUTE                                  000000000000000000000015500000000A4                 
7560001300390U 020000000000000000000000000000000000000000000000000000000000000000000000000000000000000000000000000000000000000000000000001707202000000000    00000000000000000000000                              75600000000000000000000       
7560001300391T 0204609000000000793400001115803001014     158670000000000015042021000000000006500756046090KATIA SILENE DA COSTA VAL091000029642078287SALUTE                                  000000000000000000000015500000000A4                 
7560001300392U 020000000000000000000000000000000000000000000000000000000000000000000000000000000000000000000000000000000000000000000000001707202000000000    00000000000000000000000                              75600000000000000000000       
7560001300393T 0204609000000000793400001115804801014     165070000000000015052021000000000006500756046090KATIA SILENE DA COSTA VAL091000029642078287SALUTE                                  000000000000000000000015500000000A4                 
7560001300394U 020000000000000000000000000000000000000000000000000000000000000000000000000000000000000000000000000000000000000000000000001707202000000000    00000000000000000000000                              75600000000000000000000       
7560001300395T 0204609000000000793400001115808701014     162500000000000015082020000000000006500756046090CARPEGIANE PEREIRA LIMA  091000082311595253SALUTE                                  000000000000000000000015500000000A4                 
7560001300396U 020000000000000000000000000000000000000000000000000000000000000000000000000000000000000000000000000000000000000000000000001707202000000000    00000000000000000000000                              75600000000000000000000       
7560001300397T 0204609000000000793400001115809401014     112770000000000015092020000000000006500756046090CARPEGIANE PEREIRA LIMA  091000082311595253SALUTE                                  000000000000000000000015500000000A4                 
7560001300398U 020000000000000000000000000000000000000000000000000000000000000000000000000000000000000000000000000000000000000000000000001707202000000000    00000000000000000000000                              75600000000000000000000       
7560001300399T 0204609000000000793400001115810201014     119390000000000015102020000000000006500756046090CARPEGIANE PEREIRA LIMA  091000082311595253SALUTE                                  000000000000000000000015500000000A4                 
7560001300400U 020000000000000000000000000000000000000000000000000000000000000000000000000000000000000000000000000000000000000000000000001707202000000000    00000000000000000000000                              75600000000000000000000       
7560001300401T 0204609000000000793400001115811001014     125850000000000015112020000000000006500756046090CARPEGIANE PEREIRA LIMA  091000082311595253SALUTE                                  000000000000000000000015500000000A4                 
7560001300402U 020000000000000000000000000000000000000000000000000000000000000000000000000000000000000000000000000000000000000000000000001707202000000000    00000000000000000000000                              75600000000000000000000       
7560001300403T 0204609000000000793400001115812701014     132430000000000015122020000000000006500756046090CARPEGIANE PEREIRA LIMA  091000082311595253SALUTE                                  000000000000000000000015500000000A4                 
7560001300404U 020000000000000000000000000000000000000000000000000000000000000000000000000000000000000000000000000000000000000000000000001707202000000000    00000000000000000000000                              75600000000000000000000       
7560001300405T 0204609000000000793400001115813401014     138930000000000015012021000000000006500756046090CARPEGIANE PEREIRA LIMA  091000082311595253SALUTE                                  000000000000000000000015500000000A4                 
7560001300406U 020000000000000000000000000000000000000000000000000000000000000000000000000000000000000000000000000000000000000000000000001707202000000000    00000000000000000000000                              75600000000000000000000       
7560001300407T 0204609000000000793400001115814101014     145490000000000015022021000000000006500756046090CARPEGIANE PEREIRA LIMA  091000082311595253SALUTE                                  000000000000000000000015500000000A4                 
7560001300408U 020000000000000000000000000000000000000000000000000000000000000000000000000000000000000000000000000000000000000000000000001707202000000000    00000000000000000000000                              75600000000000000000000       
7560001300409T 0204609000000000793400001115815901014     152030000000000015032021000000000006500756046090CARPEGIANE PEREIRA LIMA  091000082311595253SALUTE                                  000000000000000000000015500000000A4                 
7560001300410U 020000000000000000000000000000000000000000000000000000000000000000000000000000000000000000000000000000000000000000000000001707202000000000    00000000000000000000000                              75600000000000000000000       
7560001300411T 0204609000000000793400001115816601014     158630000000000015042021000000000006500756046090CARPEGIANE PEREIRA LIMA  091000082311595253SALUTE                                  000000000000000000000015500000000A4                 
